:020000040000FA
:040000002FEF4AF0A4
:0200080008D01E
:0800180000D0E0CF02F101016C
:10002000D8CF01F1E8CF00F181509EB03AEC3BF01F
:10003000F2B421EC3BF0A1B236EC3BF09EBAE1EC1D
:100040003AF0F2B20FEC3BF0F0B015EC3BF000C12F
:0C005000E8FF01C1D8FF02C1E0FF100072
:10010000001210180606080A0A0C0606080A060A53
:1001100006060808060E06060A0A08140C0A060A4D
:1001200008060606101010101010101010101010F5
:1001300010101010101010101010101010101010BF
:10014000101010101014161416120C140E1414148F
:100150000E180A0608080A060C0A08080808060607
:10016000040A0C120A0A0A060A0E140808061212D9
:10017000040E140806100E0C0606080606060606EF
:10018000080804040A16161614080A080806060ABF
:100190000808040A0C140A0C0A141010101010108D
:1001A000101010101010101010101010101010104F
:1001B00010101010101010101010140E0E0E080851
:1001C00006141414141414141414141414141414FD
:1001D00014141414141414141414141414141414DF
:1001E0001414141414141414141414140A0A0A08F9
:1001F0000808080E0614100A100C06060606060863
:10020000020E0E080808060606060A0A0408040E6E
:100210001412140E0A0E0C100E0A0A0A0E0C10000C
:100300000000010F0019010F0002010F4102010F4F
:100310004102010F1423010F1441010F1423010F97
:10032000145F010F147D010F14B9010F7302010F47
:100330000018010F0000010F3202010F0A1E010F09
:100340000A37010F0A50010F0A69010F0A82010FD3
:100350001423010F2041010F205F010F209B010F8B
:100360000600010F3702010F0E02010F2802010FD4
:100370003202010F1423010F6400010F6419010FF1
:10038000644B010F6464010F0000010F2823010F6B
:100390002823010F2823010F2823010F2823010FF1
:1003A0002823010F2823010F2823010F2823010FE1
:1003B0002823010F2823010F2823010F2823010FD1
:1003C0002823010F2823010F2823010F2823010FC1
:1003D0002823010F2823010F2823010F2823010FB1
:1003E0002823010F2823010F2823010F2823010FA1
:1003F0002823010F2823010F2823010F2823010F91
:100400002823010F2823010F2823010F0023010FA8
:100410000041010F005F010F007D010F009B010FE4
:1004200000B9010F00D7010F0023010F0041010F98
:10043000005F010F007D010F009B010F00B9010F4C
:1004400000D7010F6696010F0000010F6CD8010F55
:100450006CD8010F6400010F0000010F0000010FB4
:100460000000010F0000010F0000010F0000010F4C
:100470000000010F0000010F0000010F0000010F3C
:100480000000010F2802010F1423010F147D010F3A
:10049000557D010F557D010F557D020F557D010FD3
:1004A0000000010F0A02010F0000010F0000010F00
:1004B0001423010F1441010F1402010F0000010F5A
:1004C000145F010F0A02010F0009010F557D020F91
:1004D0000012010F001B010F0024010F002D010F5E
:1004E0000036010F6432010F6419010F6432010FED
:1004F000644B010F6464010F6400010F6419010F64
:100500001441010F4141010F4141010F6432010FBC
:100510000A00010F0A19010F0A32010F0A4B010FDD
:100520006432010F557D010F6978010F693C010F9D
:100530004102010F149B010F2A48010F3C02010FD9
:100540003460010F3478010F644B010FA07D010F5F
:100550000008010F0227010F0230010F557D010F26
:100560001441010F2823010F2823010F2823010F15
:100570002823010F2823010F2823010F2823010F0F
:100580002823010F2823010F2823010F2823010FFF
:100590002823010F2823010F2823010F2823010FEF
:1005A0002823010F2823010F2823010F2823010FDF
:1005B0002823010F2823010F2823010F2823010FCF
:1005C0002823010F2823010F2823010F2823010FBF
:1005D0002823010F2823010F2823010F2823010FAF
:1005E0002823010F0D02010F145F010F0002010FFC
:1005F0000230010F0000010F0000010F0000010F89
:100600000023010F0041010F005F010F007D010F6A
:10061000009B010F00B9010F00D7010F0023010F4C
:100620000041010F005F010F007D010F009B010FD2
:1006300000B9010F00D7010F0023010F0041010F86
:10064000005F010F007D010F009B010F00B9010F3A
:1006500000D7010F0023010F0041010F005F010FC0
:10066000007D010F009B010F00B9010F00D7010FA2
:100670000023010F0041010F005F010F007D010FFA
:10068000009B010F00B9010F00D7010F0023010FDC
:100690000041010F005F010F007D010F009B010F62
:1006A00000B9010F00D7010F0A02010F557D010F9C
:1006B000020C010F6419010F6400010F6400010FA7
:1006C0006419010F6400010F020C010F6464010F33
:1006D0001441010F021E010F147D010F1E02010FB4
:1006E0001423010F6419010F6432010F644B010FD1
:1006F0006464010F6400010F6432010F0000000FF9
:100700001423010F2802010F6923010F6923010F30
:100710006923010F0101010F41A8010F0730010BEF
:100720007887010F0227010F00D8010F0A08010F77
:100730000A10010F0000010F1802010F0023010F22
:100740000041010F005F010F007D010F145F010FD9
:100750001441010F145F010F147D010F149B010F51
:100760006432010F6400010F5A36010F145F010F4C
:08077000147D010F149B010F21
:1007B0004275696C64696E67204D443220486173EC
:1007C000687D506C6561736520576169742E2E2EAB
:1007D0007D7D4865696E72696368735765696B6191
:1007E0006D70204F535443327D7D4D656E753F7D56
:1007F0004D656E753A7D4C6F67626F6F6B7D4761BB
:10080000732053657475707D5365742054696D65EC
:100810007D7D5265736574204D656E757D7D536574
:100820007475707D457869747D7D576169742E2E6D
:100830007D7D4D443220486173683A7D4465736123
:10084000747D496E746572666163657D537461720F
:10085000747D446174617D7D4865616465727D7DF0
:1008600050726F66696C657D446F6E652E7D436165
:100870006E63656C2052657365747D7D54696D652A
:100880003A7D446174653A7D53657420486F757292
:10089000737D52657365742E2E2E7D7D4C6F67625D
:1008A0006F6F6B7D437573746F6D2046756E6374E7
:1008B000696F6E7320497D7D5265736574204D6547
:1008C0006E757D7D5365742054696D653A7D4D6FFD
:1008D00072657D7D4465636F706C616E7D7D47617F
:1008E000736C6973747D4D6F72657D7D4578697435
:1008F0007D7D4E6F466C797D5374617274204469BE
:100900007665205B636D5D7D456E64204469766528
:100910002020205B636D5D7D456E642044656C61C5
:10092000792020205B735D7D506F776572204F6664
:10093000662020205B735D7D5072652D6D656E7540
:10094000202020205B735D7D76656C6F6369747910
:100950005B6D2F6D696E5D7D57616B652D757020C8
:10096000205B6D4261725D7D6D61782E537572669C
:100970002E5B6D4261725D7D474620646973706CC9
:10098000617920205B255D7D6D696E2E204F3220C0
:100990004469732E5B255D7D44697665206D656EC7
:1009A000757320205B735D7D53617475726174652E
:1009B000207820205B255D7D4465736174757261CC
:1009C000746520785B255D7D4E6F466C79205261A1
:1009D00074696F205B255D7D474620616C61726D97
:1009E000203120205B255D7D6E6F742075736564FA
:1009F000202020202020207D4465636F204F6666E4
:100A00007365745B646D5D7D70704F32206C6F77C1
:100A1000205B634261725D7D70704F322068696750
:100A2000685B634261725D7D70704F322073686FE6
:100A3000775B634261725D7D73616D706C696E6737
:100A4000207261746520207D44697669736F72201D
:100A500054656D702020207D44697669736F722023
:100A60004465636F6461747D44697669736F722055
:100A70004E6F74557365317D44697669736F72206A
:100A800070704F322020207D44697669736F722028
:100A9000446562756720207D44697669736F7220B2
:100AA0004E6F74557365327D434E532073686F7774
:100AB000202020205B255D7D4C6F67626F6F6B206F
:100AC0006F6666736574207D4C6173742044656342
:100AD0006F2061745B6D5D7D456E642041706E6F4B
:100AE00065205B6D696E5D7D53686F77205662612E
:100AF0007474205B3D315D7D546869732070726F42
:100B00006772616D2069737D64697374726962755F
:100B100074656420696E207468657D7D686F70659A
:100B200020746861742069742077696C6C20626538
:100B30007D7D75736566756C2C20627574205749D0
:100B400054484F55547D414E592057415252414EC1
:100B500054593B20776974686F75747D6576656E4E
:100B60002074686520696D706C6965647D7D77614E
:100B70007272616E7479206F667D4D4552434841B3
:100B80004E544142494C495459206F727D7D46492B
:100B9000544E45535320464F5220417D50415254AC
:100BA0004943554C415220505552504F53452E7D8C
:100BB0005365652074686520474E552047656E650E
:100BC00072616C7D5075626C6963204C6963656EFF
:100BD000736520666F727D7D6D6F726520646574CC
:100BE00061696C733A7D7777772E6865696E726993
:100BF0006368737765696B616D702E64657D4465AC
:100C0000636F73746F707D7D6D2F6D696E7D4E6F38
:100C10002053746F707D4465636F73756D7D446997
:100C2000766574696D657D7D44657074687D46691F
:100C3000727374204761733F7D7D44656661756C96
:100C4000743A7D7D4D696E757465737D4D6F6E74FC
:100C50006820207D446179202020207D59656172C3
:100C60002020207D536574207D7D47617323207D86
:100C70005965737D43757272656E743A7D7D5365F7
:100C8000747570204D656E753A7D437573746F6D24
:100C90002046756E6374696F6E73497D4465636F3A
:100CA000747970653A7D5A482D4C3136204F437D1A
:100CB0004761756765202020207D47617567657DE8
:100CC0005A482D4C31362043437D41637469766523
:100CD000204761733F207D7D4761732053657475A4
:100CE00070202D204761736C6973747D4465707446
:100CF00068202B7D4465707468202D7D4261636B94
:100D00007D7D43435220536574506F696E74204D4E
:100D1000656E757D43435220536574506F696E74E0
:100D2000204D656E757D5350237D426174746572EC
:100D30007920496E666F7D7D426174746572792099
:100D4000496E666F726D6174696F6E7D4379636C15
:100D500065733A7D41706E6F657D4C61737420439D
:100D60006F6D706C6574653A7D7D4C6F77657374DB
:100D70002056626174743A7D4C6F7765737420619C
:100D8000743A7D7D546D696E3A7D546D61783A7D1B
:100D9000536574204761737D4F32202B7D7D4F3228
:100DA000202D7D7D4865202B7D7D4865202D7D7D16
:100DB000457869747D7D44656C6574657D7D4465A9
:100DC0006275673A7D7D4F4E207D4F46467D446576
:100DD0006C2E20616C6C7D7D556E657870656374DA
:100DE00065642072657365742066726F6D7D4469F9
:100DF00076656D6F64652120506C65617365206850
:100E0000656C707D616E64207265706F72742074A1
:100E10006865204465627567207D496E666F726DF6
:100E20006174696F6E2062656C6F77217D7D4261B0
:100E3000696C6F75747D41706E6F65202020207D18
:100E400044657363656E747D537572666163657D19
:100E5000517569743F7D4D6F72657D7D436F6E6620
:100E600069726D3A7D7D4D656E7520323A7D4361C4
:100E70006E63656C7D7D4F4B217D53746F70776120
:100E8000742E7D7D3A2E2E2E2E2E2E2E2E2E3A7D37
:100E90004E4F542055534544212121212121212108
:100EA0002121217D4E6F742075736564217D4E6F05
:100EB0007420757365642121217D4C31362D4746A0
:100EC000204F437D437573746F6D2046756E637458
:100ED000696F6E7349497D7D4746204C6F772020AE
:100EE000202020205B255D7D4746204869676820DB
:100EF000202020205B255D7D436F6C6F7223204294
:100F0000617474657279207D436F6C6F7223205316
:100F100074616E646172647D436F6C6F72232044F0
:100F20006976656D61736B7D436F6C6F72232057BB
:100F300061726E696E67737D53686F772073656346
:100F4000732E205B3D315D7D6E6F7420757365641B
:100F5000202020202020207D6E6F74207573656412
:100F6000202020202020207D4176722E2044657094
:100F70007468205B3D315D7D426C696E6B2047611A
:100F80007320205B3D315D7D4465707468576172EC
:100F90006E5B6D4261725D7D434E53207761726E70
:100FA000696E67205B255D7D4746207761726E69BB
:100FB0006E6720205B255D7D70704F3220776172F7
:100FC0006E5B634261725D7D56656C2E7761726EF9
:100FD0005B6D2F6D696E5D7D6E6F742075736564DA
:100FE000202020202020207D6E6F74207573656482
:100FF000202020202020207D6E6F74207573656472
:10100000202020202020207D6E6F74207573656461
:10101000202020202020207D6E6F74207573656451
:10102000202020202020207D6E6F74207573656441
:10103000202020202020207D6E6F74207573656431
:10104000202020202020207D6E6F74207573656421
:10105000202020202020207D6E6F74207573656411
:10106000202020202020207D6E6F74207573656401
:10107000202020202020207D6E6F742075736564F1
:10108000202020202020207D6E6F742075736564E1
:10109000202020202020207D6E6F742075736564D1
:1010A000202020202020207D6E6F742075736564C1
:1010B000202020202020207D6E6F742075736564B1
:1010C000202020202020207D6E6F742075736564A1
:1010D000202020202020207D437573746F6D2046D2
:1010E000756E6374696F6E732049497D53686F77BD
:1010F000204C6963656E73657D7D53696D2E20524A
:101100006573756C74733A7D4E4F54205553454446
:1011100021212121217D70704F32202B7D7D707027
:101120004F32202D7D7D44696C2E7D7D4465636F3B
:10113000747970653A205A482D4C3136204F437DE2
:10114000466F72204F70656E2043697263756974D3
:101150002020207D4469766572732E20537570704F
:101160006F7274732035207D5472696D69782047E1
:10117000617365732E2020202020207D436F6E66D2
:10118000696775726520796F757220676173207D5C
:10119000696E204761737365747570206D656E7537
:1011A0002E20207D436865636B2043463131202625
:1011B000204346313220217D4465636F7479706528
:1011C0003A204761756765202020207D4469766557
:1011D00074696D652077696C6C20626520696E7D2D
:1011E0004D696E757465733A5365636F6E64732EE3
:1011F0002020207D4F535443322077696C6C206E41
:101200006F7420202020207D636F6D7075746520C1
:101210004465636F2C204E6F466C797D74696D65F3
:1012200020616E642044657361742E2D2020207D22
:1012300074696D6520617420616C6C212020202010
:101240002020207D4465636F747970653A5A482D7B
:101250004C3136204343207D466F72202853656D04
:10126000692D29436C6F73656420207D4369726327
:101270007569742072656272656174686572737DE8
:10128000436F6E66696775726520746865203320E8
:101290002020207D536574506F696E747320696ED1
:1012A00020434352202D207D5365747570206D6559
:1012B0006E752E2035206261696C2D7D6F7574739B
:1012C0002061726520617661696C61626C652E7D5A
:1012D0004465636F747970653A2041706E6F652064
:1012E0002020207D4F535443322077696C6C20645A
:1012F0006973706C6179207D6561636820646573D2
:1013000063656E742073657061722D7D6174656CA8
:101310007920696E204D696E3A5365632E20207DD9
:1013200057696C6C2074656D706F72616C6C79209C
:101330007365747D73616D706C6572617465207422
:101340006F2031207365637D4E6F204465636F208D
:1013500063616C63756C6174696F6E7D4465636F06
:10136000747970653A204C31362D4746204F437DC5
:101370004465636F6D7072657373696F6E2063612E
:101380006C2D207D63756C6174696F6E7320776955
:10139000746820746865207D47462D4D6574686FBC
:1013A00064202847465F6C6F2F47467D5F68692938
:1013B0002E20436865636B20434633322026207D10
:1013C0004346333321204F70656E20436972637545
:1013D0006974207D77697468204465657020537452
:1013E0006F70732E2020207D4465636F7479706563
:1013F0003A204C31362D47462043437D4465636F88
:101400006D7072657373696F6E2063616C2D207DE2
:1014100063756C6174696F6E73207769746820748A
:101420006865207D47462D4D6574686F64202847A8
:10143000465F6C6F2F47467D5F6869292E204368A1
:1014400065636B20434633322026207D4346333389
:1014500021436C6F73656420436972637569747DA1
:101460007769746820446565702053746F70732EBB
:101470002020207D4465636F6D6F64652063686123
:101480006E6765642120207D4C31362D4746204310
:10149000437D4E6F7420666F756E647D5365745026
:1014A0006F696E747D7D4E6F204465636F7D4772FA
:1014B000617068737D7D446973706C61797D4E6F76
:1014C000206465636F7D536561726368206D6F642E
:1014D000756C657D457869747D7D52657365742092
:1014E00043462C4761732026204465636F7D446921
:1014F0007361626C65206D6F64756C657D7D536989
:101500006D756C61746F727D4F5354432053696DD8
:10151000756C61746F727D7D53746172742044695F
:1015200076657D7D2B20316D7D7D2D20316D7D7D1E
:101530002B31306D7D7D2D31306D7D7D4578697429
:101540007D7D6E6F74207573657D787D44617465F3
:1015500020666F726D61743A7D7D5365747570207D
:101560004D656E7520323A7D4D4D444459597D7D0F
:1015700044444D4D59597D7D59594D4D44447D7DCF
:101580004F535443207D4261696C7D7D41697220D7
:101590007D7D41697220207D43616C696272617456
:1015A000657D4D61782044657074687D6E6F747DD3
:1015B000666F756E64217D7D6D563A7D4E65772030
:1015C0004346206164646564217D4E6577204375E0
:1015D00073746F6D46756E6374696F6E737D776536
:1015E00072652061646465642120436865636B7D76
:1015F0004346204920616E64204346204949204DDE
:10160000656E757D666F722044657461696C7321C7
:101610007D7D53616C696E6974793A7D426F747433
:101620006F6D2054696D653A7D7D4D61782E204443
:10163000657074683A7D43616C63756C6174652094
:101640004465636F7D7D53686F77204465636F7079
:101650006C616E7D4C656164205469737D7D4C6561
:101660006164205469737D7D53746F707761746316
:10167000687D5265736574204C6F67626F6F6B7D18
:101680005265626F6F74204F5354437D526573658A
:1016900074204465636F646174617D7D2C8B01D817
:1016A0001200278D05D8279D12002C8B01D812001F
:1016B0000B6F800EA66EF86A020EF76EFC0EF66EC9
:1016C0000BC14CF1000E2CBB010E4D6F040E4E6F82
:1016D0004F6BEBEC0BF04851F6264951F72209000D
:1016E000F55027BD02D0E8CF7DF00900F55027BDA9
:1016F00002D0E8CF7CF00900F5500108E8CF7EF079
:101700000900F5CF1BF10D6B0E6BF66AF86A010E3E
:10171000F76E01D02C9B0900F5500D27000E0E230B
:101720000B2FF9D72CBBF6D7F86AB00E0D25F66E45
:10173000070E0E21F76E27AD20EE60F009007D0E3A
:10174000F56201D00AD0F550DE6E09007D0EF5621B
:1017500001D003D0F550DE6EF1D727AD1DEC0EF0B1
:10176000120032C14CF133C14DF13C0E4E6F4F6B44
:101770004FD848C133F14CC132F11200D8904633F2
:101780004533472FFBD71200D8904B334A334933A8
:101790004833472FF9D712004951FF08496F485184
:1017A000D890FF08486F12001F975451525D506F38
:1017B00055515359516FD8A812001F8750C154F189
:1017C00051C155F1526953695451525D506F555191
:1017D0005359516F12004A6B4B6B4C514E03F350EF
:1017E000486FF450496F4C514F03F3504927F45060
:1017F0004A234D514E03F3504927F4504A23D8B0A1
:101800004B2B4D514F03F3504A27F4504B231200FA
:10181000486B496B4E514F11D8B4FF0C010E476F06
:101820004FBF05D0472BD8904E374F37F9D7D890B8
:10183000483749374E514C5F4F51D8A04F294D5F23
:10184000D8B005D04E514C274F514D2301D048817F
:101850004707D8B41200D8904F334E33E8D7200E44
:10186000476F4B514D6F4A514C6F4951536F48511F
:10187000526F4B6B4A6B496B486B556B546BD890EE
:10188000523753374C374D37543755374F51555DD5
:10189000D8A44DEF0CF04E51545DD8A057EF0CF08A
:1018A0004E51545FD8A055074F51555FD8804837E7
:1018B00049374A374B37472F3FEF0CF01200D8908B
:1018C00075337433762FFBD71200D8907A3379337F
:1018D00078337733762FF9D712007851FF08786F75
:1018E0007751D890FF08776F12002A978351815D56
:1018F0007F6F84518259806FD8A812002A877FC1D8
:1019000083F180C184F1816982698351815D7F6F38
:1019100084518259806F1200796B7A6B7B517D0301
:10192000F350776FF450786F7B517E03F350782734
:10193000F45079237C517D03F3507827F4507923B8
:10194000D8B07A2B7C517E03F3507927F4507A2358
:1019500012000A6FB5EF0CF000000000000000005C
:101960000000000000000000000000000000000077
:101970000000000000000000000000000000000067
:101980000000000000000000000000000000000057
:101990000000000000000000000000000000000047
:1019A00000000A2FACEF0CF01200096FE1EF0CF011
:1019B0000000000000000000000000000000000027
:1019C0000000000000000000000000000000000017
:1019D0000000000000000000000000000000000007
:1019E00000000000000000000000000000000000F7
:1019F000000000000000000000000000630EA9ECE1
:101A00000CF0092FD8EF0CF01200630E3261326F28
:101A100032C134F1356B1F950A0E3A6F366B67D8B9
:101A2000010E3A6F366B1F8562D8120032C134F155
:101A3000356B1F85F1D732C134F1356B1F95640EBC
:101A40003A6F366B54D8E8D7259F376F1F8B372BEB
:101A5000372F1F9B238B372B372F239B32C134F11A
:101A600033C135F11F95100E3A6F270E366F1FAD3B
:101A70003ED8E80E3A6F030E366F23BB07D025BF62
:101A800003D01F85372D1F9523B91F851FAD2FD874
:101A90001F9D640E3A6F366B27B924D023BB09D043
:101AA00025BF03D01F85372D1F9523B91F8523BB65
:101AB0001F851DD80A0E3A6F366B23BB09D025BF90
:101AC00003D01F85372D1F9523B91F8523BB1F8585
:101AD00029B708D00CD8010E3A6F366B1F8524A5A4
:101AE00006D824952799386B382B23991200396B27
:101AF0003651355DD8A00ED004E13A51345DD8A0FE
:101B000009D03651355F3A51345FD8A03507392BAB
:101B10001F85EED7382F1200382B300E39251FB510
:101B200004D01FBF04D0200E01D0258FDE6E372FCA
:101B300012002E0EDE6E23891200A96E2DD0A96E22
:101B400027D02B91010EAA6E690E03D02691AA6AA6
:101B5000640EAD6E238F040EA96E9D9A9E9A8186A7
:101B600046D8AECFA8FF818826BF0FD015D8819860
:101B7000A8CFADFF36D8A93EF3D781969E9A9D8A0D
:101B8000AA6A269F239F9CEF4AF0FF0EAD6EF5D701
:101B9000A69EA69CA6801200A69EA69CA684F29E47
:101BA000550EA76EAA0EA76EA682F28EA6B2FED71B
:101BB000A6941200948C948E240EAC6E900EAB6E94
:101BC000080EB86EB06A220EAF6EAE6A9E6A9D8A2B
:101BD0001200AC6AAB6A9D9A949C949E829C829EF1
:101BE0001200ABAE12000000ACA2FBD712009E9A0E
:101BF000269F436B446B9EBA120000000000000059
:101C000000009EBA120000000000000000009EBA12
:101C1000120000000000000000009EBA1200000048
:101C20000000000000009EBA1200442FE4D7432FAA
:101C3000E1D7AB98AB88268F1200DE6A7BC0FAF141
:101C40007AC0F9F134EC5AF00101FAC17BF0F9C124
:101C50007AF01200106F10C17DF0210E2DD9D890AE
:101C60001035000ED8B0010E2CD9D890103529D9D6
:101C700012000F6F0FC17CF0200E1ED9000E21D96B
:101C80000F511FD91200220E17D984807AC083FF0A
:101C9000809480847BC083FF80948084210E0CD943
:101CA000D8901035000ED8B0010E0BD9D89010374F
:101CB000102907D9200E00D9000E03D90F5101D9E0
:101CC000220EFAD884807AC083FF809480847BC0FF
:101CD00083FF809480841200220EEED884807AC024
:101CE00083FF809480847BC083FF80948084120073
:101CF000836A80968194809A84948094849212005E
:101D0000F4511DEC10F0F5C11CF11C51B2DFF7517C
:101D10002AEC0EF0E1DF1C2B1C51F663F6D71C51A8
:101D2000A8DFF7512AEC0EF0D7DFF5C11CF11C51EA
:101D3000A0DFF8512AEC0EF0CFDF1C2B1C51F6630C
:101D4000F6D71C5196DFF8512AEC0EF0C5DFF7C12B
:101D50001CF11C517FDFF5518CDF95DF1C2B1C51D2
:101D6000F863F7D7F7C11CF11C5174DFF65181DF1E
:101D70008ADF1C2B1C51F863F7D723EC1AF01200F2
:101D8000F4511DEC10F0350E97D8F7C11CF1D89026
:101D90001C35000ED8B0010E94D8D8901C3591D8BF
:101DA000360E8AD8F8C11CF1D8901C35000ED8B078
:101DB000010E87D8D8901C3584D8370E7DD8F5C150
:101DC0001CF11C517ED8F6C11CF11C517AD8200E92
:101DD00073D8000E76D8F5C11CF11C5172D8210EB3
:101DE0006BD8F7C11CF1D8901C35000ED8B0010E8D
:101DF00068D8D8901C3565D8220E5ED8F5C11CF184
:101E0000F6C11DF11C511D5F1D2BF7C11CF1F8C15E
:101E10001EF11C511E5F1E2B84801EC11CF17AC056
:101E200083FF809480847BC083FF809480847AC009
:101E300083FF809480847BC083FF809480841C2FE8
:101E4000EED71D2FEAD7000E37D823EC1AF0120078
:101E5000350E32D8000E35D8000E33D8360E2CD8B9
:101E6000010E2FD83F0E2DD8370E26D8000E29D8B8
:101E7000EF0E27D8200E20D8000E23D8000E21D830
:101E8000210E1AD8000E1DD8000E1BD8220E14D811
:101E90008480836A0A0E1E6F1E0E1D6F1C6B809459
:101EA0008084809480841C2FFAD71D2FF7D71E2F93
:101EB000F3D7000E01D812008490836E8094808442
:101EC00012008480836E8094808412008096200E9D
:101ED000D5EC0CF081840000809A00008482FA0E18
:101EE000D5EC0CF0848400008492020EA9EC0CF076
:101EF00084820A0ED5EC0CF0240EDEDF020EDCDF4D
:101F0000000EDFDF000EDDDF030ED6DF000ED9DFAF
:101F1000300ED7DF180ED0DF000ED3DF280ED1DF52
:101F2000F80ECADF000ECDDF0F0ECBDFF90EC4DFD7
:101F3000000EC7DF0F0EC5DF100EBEDF000EC1DFC3
:101F4000000EBFDF0CD884DF8086200ED5EC0CF0AD
:101F5000050EB2DF000EB5DF010EB3DF1200700E0A
:101F6000ABDF1F0EAEDF000EACDF710EA5DF230E60
:101F7000A8DF800EA6DF720E9FDF2A0EA2DF800E82
:101F8000A0DF730E99DF150E9CDF110E9ADF740E21
:101F900093DF1C0E96DF110E94DF750E8DDF1B0E86
:101FA00090DF150E8EDF760E87DF1A0E8ADF150E94
:101FB00088DF770E81DF1C0E84DF180E82DF780E3B
:101FC0007BDF210E7EDF150E7CDF1200700E74DFCA
:101FD000140E77DF000E75DF710E6EDF170E71DFE6
:101FE000000E6FDF720E68DF150E6BDF800E69DF8B
:101FF000730E62DF150E65DF110E63DF740E5CDF9A
:10200000140E5FDF0B0E5DDF750E56DF1B0E59DF02
:10201000150E57DF760E50DF130E53DF0E0E51DF15
:10202000770E4ADF1C0E4DDF180E4BDF780E44DFB3
:10203000150E47DF0E0E45DF12002E6F2EC12FF159
:10204000030E2F17000E2F4F500E2F4FA00E2F4FA5
:10205000F80E306F2EC12FF11C0E2F172F432F4378
:10206000000E2F4F040E2F4F080E2F4F0C0E2F4F28
:10207000100E2F4F140E2F4F200E2F4F3F0E316F8B
:102080003133303331333033313330332EC12FF1EC
:102090002E6B31332E3331332E3331332E33E00E6A
:1020A0002F172F432F432F432F432F43000E2F4F24
:1020B000040E2F4F080E2F4F0C0E2F4F100E2F4FC8
:1020C000140E2F4F200E2F4F3F0E316F31332E3312
:1020D00031332E3331332E3331332E3331332E33EC
:1020E0002EC17AF030C17BF01200E46F1F0EE46560
:1020F00005D0010EAA6E200EE45F01D0AA6AE45159
:10210000040DF350820FA96EC8EC0DF0A850AA6A16
:102110001200E46F1F0EE46505D0010EAA6E200EBA
:10212000E45F01D0AA6AE451040DF350820FA96E56
:10213000C8EC0DF0A8CF32F1A92AC8EC0DF0A8CF59
:1021400033F1AA6A12009A0EE36F2A8D03D0240E8F
:10215000E36F2A9D1F8F28EC0FF0010EBA6F2199B3
:1021600021972099AA6BA56B229D229F83EC2BF0CF
:10217000010EE8CF7FF02AAD04D0BA0E58EC0BF078
:1021800003D01B0E58EC0BF0000EE8CF7FF023ECD1
:102190001AF0010E2AAD000EAA6EB86B21912193A0
:1021A000140EE8CF7DF0230EE8CF7CF020EE60F037
:1021B000AAC132F1000E2ABD200E322732C1DCF155
:1021C000386B382B376B16EC0DF03A0EDE6E200EA6
:1021D000DE6E1DEC0EF0E351AA2558EC0BF01F0E3D
:1021E000DC5DD8B415D0260EDC5DD8B411D0270E36
:1021F000DC5DD8B40DD0280EDC5DD8B409D0290E32
:10220000DC5DD8B405D02A0EDC5DD8B401D003D093
:10221000010EDC6F01D0DC6B140EE8CF7DF0410EB7
:10222000E8CF7CF020EE60F02B0EDE6E2F0EDE6E1F
:102230002D0EDE6E3A0EDE6E200EDE6E2B0E22BDF1
:102240002D0EDE6E1DEC0EF0140EE8CF7DF05F0E4D
:10225000E8CF7CF020EE60F0310EDE6E2F0EDE6EE9
:10226000310EDE6E300EDE6E3A0EDE6E200EDE6E4B
:10227000310EDE6E300E22BFDE6E200EDE6E1DECE5
:102280000EF0140EE8CF7DF07D0EE8CF7CF020EE4E
:1022900060F0590E51EC0BF0A551800FA96EC8ECFF
:1022A0000DF0A8CF32F1A551810FA96EC8EC0DF049
:1022B000A8CF33F1339F386B382B376B375124EC71
:1022C0000DF02C0EDE6E310EA8AE380EDC67310E2E
:1022D000DE6E350EA8BEDE6E420EDE6E200EDE6EA7
:1022E000200EDE6E200EDE6E1DEC0EF0140EE8CF1A
:1022F0007DF09B0EE8CF7CF020EE60F0610E51EC9B
:102300000BF0A551820FA96EC8EC0DF0A8CF32F1E9
:10231000A551830FA96EC8EC0DF0A8CF33F1386B2F
:10232000382B376B375124EC0DF0200EDE6E200E6B
:10233000DE6E200EDE6E1DEC0EF00B0E58EC0BF078
:10234000F3EC12F09AEC1DF0FAEC31F021B30FD05F
:1023500021B11AD020B39CEF4AF020B1F5EC3DF04A
:1023600020B1CBEC43F0209120B91CD0EDD7BA2B93
:10237000070EBA6302D0010EBA6FB86B9AEC1DF06B
:10238000F3EC12F02193E0D7AA6A010E2ABDAA6EDF
:10239000BA4F0FD0BA4F17D0BA4F19D0BA4F1BD07F
:1023A000BA4F39D0020E2AAD010EBA6FAA6A8EEF6B
:1023B00013F0AA2BAABBAA6BAA51040DF3CFA5F167
:1023C000010EBA6FE4D6227D020EBA6FE0D6227FEC
:1023D000030EBA6FDCD6A551800FA96EC8EC0DF0C4
:1023E000A8CF32F1A551810FA96EC8EC0DF0A8CF8E
:1023F00033F1339FA551820FA96E32C1A8FFCCECF7
:102400000DF0A551830FA96E33C1A8FFCCEC0DF0E0
:10241000040EBA6FBCD6A551820FA96EC8EC0DF0A0
:10242000A8CF32F1A551830FA96EC8EC0DF0A8CF4B
:1024300033F1A551810FA96EC8EC0DF0A8CFA6F11C
:10244000010EDC6305D032673269322B336B16D054
:1024500022AD0BD0010E22BF0A0E325F000EA6BFC6
:10246000335B7F0E33BF336F09D0010E22BF0A0EDC
:102470003227000EA6BF332333BF336BA551820F23
:10248000A96E32C1A8FFCCEC0DF0A551830FA96E47
:1024900033C1A8FFCCEC0DF0050EBA6F78D6E46F0F
:1024A0001F0EE46505D0010EAA6E200EE45F01D078
:1024B000AA6AE451040DF350800FA96EC8EC0DF028
:1024C000A8CF32F1A92AC8EC0DF0A8CF33F1AA6A3F
:1024D0001200CF4F14D0CF4F19D01200CF4F0FD0D2
:1024E000CF4F14D0CF4F19D0CF4F1ED0CF4F23D0C6
:1024F000CF4F28D0CF4F2FD0CF4F34D012000B0E5C
:102500003DD8B9EC12F0020ECF6F12000C0E49D874
:10251000B9EC12F0030ECF6F1200110E2FD8B9ECE8
:1025200012F0040ECF6F1200120E3BD8B9EC12F06D
:10253000050ECF6F1200130E34D8B9EC12F0060E50
:10254000CF6F1200060ECF6F1D0E3ED8B9EC12F001
:10255000070ECF6F1200200E24D8B9EC12F0080E2F
:10256000CF6F1200210E1DD8B9EC12F0010ECF6F03
:102570001200326F32671200EDEF28F0396F89ECEC
:1025800010F032C152F133C153F139514FEC12F016
:1025900032C154F133C155F1D4EC0BF01FA7FF0C3D
:1025A000000C396F89EC10F032C154F133C155F190
:1025B00039514FEC12F032C152F133C153F1D4EC26
:1025C0000BF01FA7FF0C000C396F89EC10F032C123
:1025D00054F133C155F1CFC152F1536BD4EC0BF030
:1025E0001FA7FF0C000C2497249912002B97010EB3
:1025F000BA6F1F9F28EC0FF0B86B2099219121939F
:10260000208F21872AEC1EF09AEC1DF02497249944
:1026100023EC13F021B124D020AF9CEF4AF020B17D
:10262000F5EC3DF020B1CBEC43F020B12BEC3DF0CC
:1026300020B15EEC48F0209120B99CEF4AF020B325
:102640009CEF4AF0E5D724A908D02183BA2B060EC7
:10265000BA6518D0010EBA6F15D024B721811200C7
:10266000BA4FB4EF2EF0BA4F91EF35F0BA4FF5EF05
:1026700014F0BA4F8BEF13F0BA4F48EF13F0BA4F84
:102680009CEF4AF0B86B21B79AEC1DF02499120028
:10269000010EBA6F1F9F28EC0FF0B86B20992191A3
:1026A0002193208F21877EEC1EF09AEC1DF0249759
:1026B000249923EC13F0050EBA6304D0060EBA6F0A
:1026C0009AEC1DF021B115D020AF90D720B1F5ECD8
:1026D0003DF020B1CBEC43F020B12BEC3DF020B12C
:1026E0005EEC48F0209120B981D720B39CEF4AF0EE
:1026F000E0D7BA4F9BEF16F0BA4F51EF33F0BA4F15
:1027000073EF34F0BA4F8EEF4BF0BA4F8EEF4BF0C1
:10271000050EBA6F6ED72B97010EBA6F1F9F28EC6C
:102720000FF048EC1EF0B86B209921912193208F77
:102730002187D8EC13F084EC14F09AEC1DF0249768
:10274000249923EC13F021B117D020AF9CEF4AF06D
:1027500020B1F5EC3DF020B1CBEC43F020B12BECF7
:102760003DF020B15EEC48F0209120B99CEF4AF09A
:1027700020B39CEF4AF0E5D7BA4FA7EF10F0BA4F5D
:10278000A3EF10F0BA4FACD0BA4F03D0BA4F5CD021
:1027900036D02B87220E9FEC0DF0A82A060EA862D9
:1027A00001D0A86ACCEC0DF0040EBA6F2499BBD707
:1027B000220E9FEC0DF0A86604D0650E58EC0BF0CD
:1027C0001200A82E04D0660E58EC0BF01200A82EB2
:1027D00004D0680E58EC0BF01200A82E04D08A0E1C
:1027E00058EC0BF01200A82E04D0980E58EC0BF009
:1027F0001200A82E1200EC0E58EC0BF012002BA7C2
:102800009CEF4AF028EC0FF083EC2BF0010EE8CFA0
:102810007FF0EB0E58EC0BF0000EE8CF7FF0220EAD
:102820009FEC0DF0070EA802F350C10FBA6F070E10
:10283000396FBA5158EC0BF0BA2B392FFAD71E0E5C
:1028400037EC4BF09CEF4AF0010EBA6F1F9F28EC5B
:102850000FF066EC1EF0B86B209921912193208F28
:102860002187E6EC14F0C0EC14F09AEC1DF02497EC
:10287000249923EC13F0040EBA6304D0060EBA6F49
:102880009AEC1DF021B117D020AF9CEF4AF020B197
:10289000F5EC3DF020B1CBEC43F020B12BEC3DF05A
:1028A00020B15EEC48F0209120B98BEF13F020B3FB
:1028B0009CEF4AF0DED7BA4F54D0BA4F74D0BA4F1B
:1028C00007D0BA4F28D7BA4F26D7050EBA6F26D7EA
:1028D00017EC4BF032EC4BF0030EBA6F2499B6D7DD
:1028E0001A0E9FEC0DF0A82A630EA8640AD0690E98
:1028F000A86007D01A0E9DEC0DF0030EBA6F249954
:1029000012D7640EA86EF6D71A0E9FEC0DF0630E68
:10291000A86421D8690EA8601ED85F0EE8CF7CF0AD
:10292000530EE8CF7DF0000EE8CF7EF020EE60F091
:10293000A8CF32F1336B1F8F030E24EC0DF01F9FD5
:102940006B0EDE6E670EDE6E2F0EDE6E6C0EDE6EB2
:102950001DEC0EF01200640EA86E1A0E9DEC0DF028
:1029600012005B0E9FEC0DF0A82A020EA86401D0A5
:10297000A86A5B0E9DEC0DF0010EBA6F24996BD71F
:102980005B0E9FEC0DF0A86604D0030E55EC0BF027
:102990001200A82E04D0040E55EC0BF01200050E08
:1029A00055EC0BF01200270E9FEC0DF0A82A010E3B
:1029B000A86401D0A86A270E9DEC0DF02A85010EAF
:1029C000A8622A95020EBA6F249945D7270E9FEC6C
:1029D0000DF0A86603D0830E58EC0BF0A806A8668D
:1029E000F6D6820E58EC0BF01200010EBA6F28ECEE
:1029F0000FF099EC1EF0B86B209921912193208F54
:102A0000218799EC1EF09AEC1DF02497249923EC71
:102A100013F021B116D020AFE9D520B1F5EC3DF08F
:102A200020B1CBEC43F020B12BEC3DF020B15EECBB
:102A300048F0209120B9F6EF12F020B39CEF4AF055
:102A4000E6D7BA4F08D0BA4F3AD0BA4F16D0BA4FDD
:102A500005D0BA4F20D0030EBA6FCBD508EC22F0C8
:102A6000BA6FBA6701D0F7D778EC0EF0000E9B6E04
:102A70007E0ED36EFF0000EF00F008EC22F0BA6F7C
:102A8000BA6701D0E8D728EC0FF0190E58EC0BF01C
:102A900074EC16F0E0D708EC22F0BA6FBA6701D0F8
:102AA000DAD728EC0FF0190E58EC0BF08DC100F5B9
:102AB0008EC101F520EC80F001019CEF4AF008EC9A
:102AC00022F0BA6FBA6701D0C6D728EC0FF0190E02
:102AD00058EC0BF08DC100F58EC101F520EC80F0B3
:102AE0000101AA6A030EA96E336B150EE5D8150E07
:102AF000E3D8150EE1D8150EDFD8150EDDD8150E6A
:102B0000DBD8010EA86E210E9DEC0DF0A86A220EF6
:102B10009DEC0DF0A86A230E9DEC0DF0000EA86A46
:102B2000270E9DEC0DF0A86A5A0E9DEC0DF0A86AD8
:102B30005B0E9DEC0DF0640E1A0E9DEC0DF01F0E59
:102B4000A86E1B0E9DEC0DF0A86A1C0E9DEC0DF0FE
:102B5000A86A1D0E9DEC0DF0A86A1E0E9DEC0DF0EE
:102B6000A86A1F0E9DEC0DF0A86A200E9DEC0DF0DA
:102B7000640EA86E240E9DEC0DF0250E9DEC0DF05C
:102B8000260E9DEC0DF0010ECC6FCD6B7F0EA96E65
:102B9000336B640E91D81E0E8FD8F00E8DD8780E40
:102BA0008BD8050E89D8070E87D8040E336F338F64
:102BB000880E82D8040E336F338F4C0E7DD8140EDE
:102BC0007BD8140E79D81E0E77D86E0E75D85A0E93
:102BD00073D83C0E71D8640E6FD8640E6DD80A0E8F
:102BE0006BD8130E69D8A00E67D8960E65D80A0E5A
:102BF00063D8060E61D8060E5FD8000E5DD8000EB1
:102C00005BD80C0E59D8000E57D8140E55D8336B1C
:102C1000338F000E51D8030E4FD80A0E4DD8000E38
:102C20004BD8010EAA6E7F0EA96E336B1E0E44D8D0
:102C30005A0E42D8C70E40D8FF0E3ED83E0E3CD8A2
:102C4000E00E3AD8000E38D8000E36D8000E34D830
:102C5000000E32D8000E30D8320E336F338FC80ECC
:102C60002BD8650E29D8650E27D8A10E25D80F0EB2
:102C700023D8000E21D8000E1FD8000E1DD8000E3C
:102C80001BD8000E19D8000E17D8000E15D8000E4C
:102C900013D8000E11D8000E0FD8000E0DD8000E5C
:102CA0000BD8000E09D8000E07D8000E05D8000E6C
:102CB00003D8AA6A9CEF4AF0326FA92A32C1A8FF52
:102CC000CCEC0DF0A92A33C1A8FFCCEC0DF0A92A59
:102CD00032C1A8FFCCEC0DF0A92A339F33C1A8FF65
:102CE000CCEC0DF0336B1200BD6BBE6B020E366F79
:102CF000376B400E3A6F23933B693B51B4EC2DF098
:102D00003A2FFAD7C58469EC2EF0070ED5EC0CF0FB
:102D1000372FEFD7362FECD72393BD6BBE6BFD0E4D
:102D2000A8EC2DF0FD0EA8EC2DF0FE0EA8EC2DF079
:102D3000BD6BBE6B120028EC0FF0219521992197F5
:102D4000B86B219121932099229122932295BB6BFC
:102D500083EC2BF0010EE8CF7FF01D0E58EC0BF04A
:102D6000000EE8CF7FF0160E58EC0BF0170E58EC63
:102D70000BF0D5EC16F0180E58EC0BF024972499B4
:102D800024B79AEC17F024B966EC17F021B942D0B9
:102D900020B1F5EC3DF020B1CBEC43F0209120B90F
:102DA00091D020B39CEF4AF0EBD7460EE8CF7DF0F0
:102DB000410EE8CF7CF020EE60F005C132F1386BB7
:102DC000382B376B16EC0DF03A0EDE6E04C132F183
:102DD000386B382B376B16EC0DF0200EDE6E200EA4
:102DE000DE6E1DEC0EF0460EE8CF7DF05F0EE8CFF4
:102DF0007CF020EE60F007C1F1F106C1F2F108C1EC
:102E0000F3F171EC24F0200EDE6E200EDE6E1DEC70
:102E10000EF0120007C132F1324F1F0E324F1C0E5E
:102E2000324F1F0E324F1E0E324F1F0E324F1E0EEC
:102E3000324F1F0E324F1F0E324F1E0E324F1F0EDB
:102E4000324F1E0E324F1F0E066502D0010E066F66
:102E5000200EE8CF7DF09B0EE8CF7CF0080E396F96
:102E600014EC1DF0050E0A6F036B209120A1FED714
:102E70002091F3EC16F0460EE8CF7DF0410EE8CF3E
:102E80007CF020EE60F005C132F1386B382B376BE7
:102E900016EC0DF03A0EDE6E04C132F1386B382BB1
:102EA000376B16EC0DF03A0EDE6E03C132F1386B63
:102EB000382B376B16EC0DF0200EDE6E1DEC0EF08D
:102EC0000A2FD4D7010EBA6F4AEF13F022B121892D
:102ED000BB2BBBC1BCF1BC4F2185BC4F2285BC4F75
:102EE0002283BC4F2281200EE8CF7DF09B0EE8CFDD
:102EF0007CF020EE60F05E0E51EC0BF0BBC1BCF13B
:102F0000BC2F04D05A0E51EC0BF00FD0BC2F04D0C4
:102F10005B0E51EC0BF009D0BC2F04D05C0E51ECD1
:102F20000BF003D05D0E51EC0BF01DEC0EF0F3EC4A
:102F300012F012002499036B22B120D022B310D0DA
:102F400022B515D021B506D0052B170E05651CD06E
:102F5000056B1AD0042B3B0E046516D0046B14D0FD
:102F6000062B1F0E066510D0010E066F0DD0072B25
:102F70000C0E076509D0010E076F06D0082B140E42
:102F8000086502D0080E086FD5EC16F0F3EC12F0CD
:102F900012007C6B080E7B6F6CC17DF16DC17EF100
:102FA0008CEC0CF0100E7727270E782372C181F17C
:102FB00073C182F177C183F178C184F175EC0CF0B3
:102FC0007FC185F180C186F12AB71ED0239585C1C6
:102FD0007BF186C17CF185C17DF186C17EF18CECEF
:102FE0000CF0110E766F65EC0CF085C181F186C195
:102FF00082F177C183F178C184F175EC0CF07FC167
:1030000087F180C188F117D0238585C17BF186C106
:103010007CF185C17DF186C17EF18CEC0CF00F0E48
:10302000766F65EC0CF0855177278651782377C150
:1030300087F178C188F16AC181F16BC182F1FA0E22
:10304000836F846B75EC0CF07FC17BF180C17CF1E8
:1030500085C17DF186C17EF18CEC0CF077C174F1F5
:1030600078C175F10C0E766F5FEC0CF074C177F1DE
:1030700075C178F12AA70DD064517727655178235F
:10308000100E7727270E782377C189F178C18AF14E
:103090000FD064C181F165C182F177C183F178C13C
:1030A00084F175EC0CF07FC177F180C178F1E8D73D
:1030B00066C168F167C169F1C80E6827000E69230F
:1030C00068C17BF169C17CF185C17DF186C17EF16A
:1030D0008CEC0CF077C174F178C175F10D0E766F40
:1030E0005FEC0CF074C18BF175C18CF162C174F1AD
:1030F00063C175F1010E766F5FEC0CF074518B2794
:1031000075518C23B80E8B270B0E8C2370C181F167
:1031100071C182F189C183F18AC184F175EC0CF02F
:103120007FC17BF180C17CF18BC17DF18CC17EF1CF
:103130008CEC0CF00C0E766F65EC0CF02AB76DEC95
:103140000CF0E80E7727030E782377C18DF178C154
:103150008EF125AD04D0C6C18DF1C7C18EF16EC10F
:1031600068F16FC169F1640E6827000E692368C1B8
:103170007BF169C17CF187C17DF188C17EF18CEC66
:103180000CF00B0E766F65EC0CF0249D23B509D086
:10319000C80E7727000E782377C197F178C198F190
:1031A0001200C80E816F826B77C183F178C184F100
:1031B00075EC0CF02AB7248D7FC197F180C198F18E
:1031C0001200C7D8A00E3D6F0C0E586FFBD812002E
:1031D000D6D857C171F156C170F11200BAD8900E0D
:1031E000F2D7CDD857C173F156C172F11200B1D8E0
:1031F0000D0E586F540E3D6FE5D8C1D857C15BF125
:1032000056C15AF10D0E586F580E3D6FDBD8B7D826
:1032100057C15DF156C15CF10D0E586F640E3D6FE4
:10322000D1D8ADD857C15FF156C15EF10D0E586FC0
:10323000680E3D6FC7D8A3D857C161F156C160F180
:103240005BC163F1D8906333D8906333D890633314
:103250005AC162F1D8805BA1D8906233D8805BA359
:10326000D8906233D8805BA5D89062335CC164F19A
:10327000D8805DA1D8906433D8805DA3D8906433A2
:10328000D8805DA5D8906433D8805DA7D89064338A
:10329000D8805DA9D8906433D8805DABD890643372
:1032A0005DC165F1D8805AA1D8906533D8805AA302
:1032B000D8906533D8805AA5D8906533D8906533B7
:1032C000D8906533D89065335FC166F1D8805EAF22
:1032D000D8906637D8805EADD8906637676B5FBF91
:1032E00067835FBD678161C16AF1D88060AFD890A4
:1032F0006A376B6B61BF6B815EC16CF16C9D5CB1B9
:103300006C8D6C9F5CB36C8F6D6B5CB56D815CB7C5
:103310006D835CB96D855CBB6D876F6B60C16EF151
:103320006E9F239F120080820000808E00000000AC
:103330000000000000000000809E1200809200004B
:10334000808E000000000000000000000000809E51
:103350001200E9DFF3DFE7DFF1DFE5DFEFDFE3DFD7
:10336000EDDFE1DFEBDFDFDFE9DFDDDFE7DFDBDF45
:10337000E5DFE4DFE3DFE2DFE1DFE0DF1200080E9C
:10338000586F10D83DC157F1080E586F0BD83DC18A
:1033900056F1808E000000000000000000000000D8
:1033A000809E1200808E00000000000000000000DF
:1033B0000000809E80A8D89080B8D8803D37582FD4
:1033C000F1D71200809E8082030E585F808E00002D
:1033D00000000000000000000000809E00000000CF
:1033E0000000000000000000808E000000000000CF
:1033F000000000000000809E0000000000000000AF
:1034000000000000808E00000000000000000000AE
:103410000000809E3DAF80923DBF8082D8903D37B6
:10342000808E000000000000000000000000809E70
:10343000582FF0D71200240E75EC10F007D0250E8F
:1034400075EC10F003D0230E75EC10F02E6F000E0B
:103450002E6301D018D0040E2E6301D014D0080EB4
:103460002E6301D010D0C00E2E6301D00CD0C40E3C
:103470002E6301D008D0C80E2E6301D004D02E5187
:103480001DEC10F01200FF0E1DEC10F01200DB6FAF
:10349000DB4F08D0DB4F2DD0DB4F39D0DB4F45D091
:1034A000DB4F59D033C135F132C134F190C133F122
:1034B0008FC132F170EC2DF032C152F133C153F1B2
:1034C0002B0E89EC10F032C154F133C155F1D4EC1C
:1034D0000BF01FA707D023EC1AF035C133F134C12C
:1034E00032F112001FEC1AF035C133F134C132F160
:1034F000120065C532F12C0E75EC10F0325DD8B0BB
:1035000003D023EC1AF012001FEC1AF0120032C59F
:1035100032F12D0E75EC10F0325DD8B003D023ECF3
:103520001AF012001FEC1AF0120048C152F149C102
:1035300053F12E0E75EC10F0640DF3CF54F1F4CF6F
:1035400055F1D4EC0BF01FA703D023EC1AF01200B6
:103550001FEC1AF0120045C132F12F0E75EC10F07D
:10356000325DD8B003D023EC1AF012001FEC1AF031
:103570001200DB6FD9C1DAF1D8C1D9F1D7C1D8F1C6
:10358000D6C1D7F1D5C1D6F1DBC1D5F12AA512003C
:10359000C80EE8CF7CF0640EE8CF7DF0000EE8CFD7
:1035A0007EF0000EE8CF7FF023EC1AF020EE60F002
:1035B000D551DE6ED651DE6ED751DE6ED851DE6E3D
:1035C000D951DE6EDA51DE6E200EDE6E1DEC0EF08D
:1035D00012008188819666EC0FF028EC0FF023EC46
:1035E0001AF0850E58EC0BF0860E58EC0BF0870E97
:1035F00058EC0BF0880E58EC0BF0640EE8CF7CF022
:103600000A0EE8CF7DF0000EE8CF7EF0000EE8CF86
:103610007FF023EC1AF020EE60F0D551DE6ED6512B
:10362000DE6ED751DE6ED851DE6ED951DE6EDA51C4
:10363000DE6E2E0EDE6E200EDE6E1FC132F1386B96
:10364000382B376B1BEC0DF0200EDE6E20C132F1F3
:10365000386B382B376B1BEC0DF01DEC0EF07D0E2C
:10366000E8CF7CF00A0EE8CF7DF0000EE8CF7EF0C8
:10367000000EE8CF7FF023EC1AF020EE60F021C1BD
:1036800032F1386B382B376B1BEC0DF0200EDE6EF1
:1036900022C132F1386B382B376B1BEC0DF0200E4A
:1036A000DE6E23C132F1386B382B376B1BEC0DF01B
:1036B000200EDE6E24C132F1386B382B376B1BECD9
:1036C0000DF0200EDE6E25C132F1386B382B376BD2
:1036D0001BEC0DF01DEC0EF0960EE8CF7CF00A0E00
:1036E000E8CF7DF0000EE8CF7EF0000EE8CF7FF04F
:1036F00023EC1AF020EE60F026C132F1386B382B43
:10370000376B1BEC0DF0200EDE6E27C132F1386BEB
:10371000382B376B1BEC0DF0200EDE6E28C132F11A
:10372000386B382B376B1BEC0DF0200EDE6E29C189
:1037300032F1386B382B376B1BEC0DF0200EDE6E40
:103740002AC132F1386B382B376B1BEC0DF01DECB6
:103750000EF024A7FED7819812001BEC1AF00B0E76
:1037600055EC0BF0560E58EC0BF0570E58EC0BF0D6
:1037700023EC1AF01200000EE8CFF4F13C0EE8CF73
:10378000F5F1EF0EE8CFF6F15A0EE8CFF7F19F0E04
:10379000E8CFF8F1C0EC0EF003EC1FF070EC1FF076
:1037A0001200E9DF1BEC1AF0540E58EC0BF023EC7E
:1037B0001AF0080E396F910EE8CF7CF0000EE8CFBA
:1037C0007DF014EC1DF012002BB512007A0EB9EC4E
:1037D0001AF0B90EE8CF7CF0770EE8CF7DF0010E3D
:1037E000E8CF7EF0000EE8CF7FF023EC1AF020EE59
:1037F00060F022C532F1386B382B376B1BEC0DF0C3
:10380000270EDE6E1DEC0EF0000EE8CF7EF01200EB
:10381000B2DF1BEC1AF0550E58EC0BF023EC1AF04B
:1038200012002BB5120020BF31D0790EB9EC1AF07E
:103830001BEC1AF0520E58EC0BF023EC1AF0760E3B
:10384000E8CF7CF05E0EE8CF7DF0010EE8CF7EF091
:10385000000EE8CF7FF023EC1AF020EE60F02BC5CD
:1038600032F1386B382B376B05EC0DF06D0EDE6ED8
:1038700024C532F1386B382B376B05EC0DF0270E71
:10388000DE6E1DEC0EF0000EE8CF7EF02BB51200C0
:10389000780EB9EC1AF0B90EE8CF7CF0770EE8CFCD
:1038A0007DF0010EE8CF7EF0000EE8CF7FF023EC34
:1038B0001AF020EE60F031C532F1C70E3261326F7E
:1038C0001F9F386B382B376B1BEC0DF0270EDE6E0D
:1038D0001DEC0EF032C532F1080E75EC10F03261BD
:1038E00001D067D7770EB9EC1AF0910EE8CF7CF0D3
:1038F000000EE8CF7DF0000EE8CF7EF0030E47EC1F
:103900001AF020EE60F0470EDE6E460EDE6E3A0EC6
:10391000DE6E32C532F1386B382B376B1BEC0DF095
:10392000250EDE6E200EDE6E1DEC0EF023EC1AF07E
:103930001200410EE8CF7CF0690EE8CF7DF0000E5A
:10394000E8CF7EF023EC1AF020EE60F0EBC132F10C
:103950001F8F386B382B376B1BEC0DF01F9F6D0ED4
:10396000DE6E690EDE6E6E0EDE6E200EDE6E1DECFD
:103970000EF05F0EE8CF7CF0640EE8CF7DF0000E15
:10398000E8CF7EF023EC1AF020EE60F0ECC132F1CB
:103990001F8F386B382B376B1BEC0DF01F9F6D0E94
:1039A000DE6E200EDE6E1DEC0EF012002BB5120046
:1039B000760EB9EC1AF05A0EE8CF7CF0000EE8CF84
:1039C0007DF0000EE8CF7EF0050E47EC1AF020EEF9
:1039D00060F02D0E1FB72B0EDE6E45C132F1386B35
:1039E000382B376B05EC0DF0530E51EC0BF01DEC42
:1039F0000EF023EC1AF02B891200080E396F5A0EC4
:103A0000E8CF7CF0000EE8CF7DF02B990DD0060EAC
:103A1000396F020EE8CF7CF0730EE8CF7DF004D052
:103A2000010EE8CF7EF003D0000EE8CF7EF020EE4E
:103A300060F0200EDE6E392FFCD71DEC0EF0000E6C
:103A4000E8CF7EF01200630EB9EC1AF0320EE8CF28
:103A50007CF0000EE8CF7DF0000EE8CF7EF0000E87
:103A6000E8CF7FF023EC1AF020EE60F019C132F1BC
:103A7000326705D01AC132F1326701D039D02DAF8B
:103A800034D0B72F01D034D02D8F060EB76125D892
:103A900019C132F11AC133F1B1EC0BF0335132C11B
:103AA00033F1326F490EDE6E6E0EDE6E740EDE6E18
:103AB0003A0EDE6E386B382B376B16EC0DF03A0E83
:103AC000DE6E33C132F1386B382B376B16EC0DF0EC
:103AD000200EDE6E1DEC0EF012002D9F050EB76F4E
:103AE00012002D8F050EB76F1200B72F01D0CCD763
:103AF0002D9F060EB761F5DF05C132F1386B382B0B
:103B0000376B16EC0DF03A0EDE6E04C132F1386BF5
:103B1000382B376B16EC0DF03A0EDE6E03C132F126
:103B2000386B382B376B16EC0DF0200EDE6E1DEC6B
:103B30000EF01200230EE8CF7CF0000EE8CF7DF0EF
:103B4000000EE8CF7EF0000EE8CF7FF023EC1AF0F5
:103B500020EE60F0B80EDE6E1DEC0EF0410EE8CFE8
:103B60007CF0000EE8CF7DF0000EE8CF7EF0000E76
:103B7000E8CF7FF020EE60F0B80EDE6E1DEC0EF0A8
:103B80005F0EE8CF7CF0000EE8CF7DF0000EE8CFAE
:103B90007EF0000EE8CF7FF020EE60F0B80EDE6E13
:103BA0001DEC0EF07D0EE8CF7CF0000EE8CF7DF02E
:103BB000000EE8CF7EF0000EE8CF7FF020EE60F040
:103BC000B80EDE6E1DEC0EF09B0EE8CF7CF0000E02
:103BD000E8CF7DF0000EE8CF7EF0000EE8CF7FF05A
:103BE00023EC1AF020EE60F0B80EDE6E1DEC0EF045
:103BF000B90EE8CF7CF0000EE8CF7DF0000EE8CFE4
:103C00007EF0000EE8CF7FF020EE60F0B80EDE6EA2
:103C10001DEC0EF0BAC139F1394F230E394F410E68
:103C2000394F5F0E394F7D0E394F9B0E394FB90E0C
:103C3000E8CF7CF0000EE8CF7DF0000EE8CF7EF0FC
:103C4000000EE8CF7FF020EE60F0B70EDE6E1DECC8
:103C50000EF0120083EC2BF0010EE8CF7FF0050E82
:103C600058EC0BF0000EE8CF7FF0060E58EC0BF08E
:103C7000070E58EC0BF0090E58EC0BF00A0E58EC3E
:103C80000BF08E0E58EC0BF00B0E58EC0BF01200F4
:103C900083EC2BF0010EE8CF7FF0620E58EC0BF0B6
:103CA000000EE8CF7FF0630E58EC0BF0990E58EC45
:103CB0000BF0140E55EC0BF0640E58EC0BF08E0E5E
:103CC00058EC0BF00B0E58EC0BF0120083EC2BF0C1
:103CD000010EE8CF7FF0020E55EC0BF0000EE8CF9E
:103CE0007FF0010E55EC0BF0810E58EC0BF0BB0E83
:103CF00058EC0BF00B0E58EC0BF0120083EC2BF091
:103D0000010EE8CF7FF0900E58EC0BF0000EE8CFDC
:103D10007FF0080E58EC0BF06E0E58EC0BF0710EA5
:103D200058EC0BF0F70E58EC0BF00B0E58EC0BF0B8
:103D3000120083EC2BF0010EE8CF7FF01C0E58EC44
:103D40000BF0000EE8CF7FF0150E58EC0BF0F50EDF
:103D500058EC0BF01C0E55EC0BF01D0E55EC0BF057
:103D60001E0E55EC0BF00B0E58EC0BF0120083EC12
:103D70002BF0010EE8CF7FF0F80E58EC0BF0000EA0
:103D8000E8CF7FF0F90E58EC0BF0150E55EC0BF068
:103D9000160E55EC0BF0170E55EC0BF0180E55ECFB
:103DA0000BF00B0E58EC0BF01200650EB9EC1AF08C
:103DB00097C199F198C19AF1640EE8CF7CF0000E9A
:103DC000E8CF7DF0000EE8CF7EF0000EE8CF7FF068
:103DD00023EC1AF020EE60F02D0E24BDDE6E97C1AC
:103DE00032F198C133F1030E386F1F8F020E24ECAD
:103DF0000DF01F9FB00EDE6E430EDE6E200EDE6EE7
:103E00001DEC0EF012002BB51200750EB9EC1AF075
:103E100097C199F198C19AF1D80EE8CF7CF0410E84
:103E2000E8CF7DF0000EE8CF7EF0000EE8CF7FF007
:103E300023EC1AF020EE60F02D0E24BDDE6E97C14B
:103E400032F198C133F1030E386F1F8F020E24EC4C
:103E50000DF01F9FB00EDE6E200EDE6E1DEC0EF01C
:103E60001200740EB9EC1AF0780EE8CF7CF0000E58
:103E7000E8CF7DF0000EE8CF7EF0040E47EC1AF09C
:103E800020EE60F0700EDE6E700EDE6E4F0EDE6E97
:103E9000320EDE6E3A0EDE6E48C132F149C133F1A8
:103EA0002987010E24EC0DF02997200EDE6E1DEC03
:103EB0000EF023EC1AF012000A0E396F780EE8CFDC
:103EC0007CF0000EE8CF7DF014EC1DF01200C00E67
:103ED000E8CF7CF0410EE8CF7DF0050E396FA4D518
:103EE0002ABB12002BB51200000EE8CF7FF08EEC3B
:103EF0001FF02CAD12002A0E75EC10F0326F010E7F
:103F0000326312002D772DA71200010EE8CF7FF04B
:103F10008EEC1FF0000EE8CF7FF01200730EB9ECAC
:103F20001AF0C00EE8CF7CF0410EE8CF7DF0000E15
:103F3000E8CF7EF023EC1AF0640E10C532F1D88081
:103F4000325511C532F1D8803257090E75EC10F098
:103F500011C533F1326501D005D0336703D0050EAA
:103F6000396F62D5150E32630ED033670CD020EE58
:103F700060F0080E4EEC0BF0200E2CBD2A0EDE6E0B
:103F80001DEC0EF0120020EE60F01F8F386B382B06
:103F9000376B1BEC0DF02F0EDE6E11C532F1386B56
:103FA000382B376B1BEC0DF0200E2CBD2A0EDE6E6D
:103FB0001F9F1DEC0EF01200550EE8CF7DF0000E95
:103FC000E8CF7EF0000EE8CF7FF0AA6A220E9FECC9
:103FD0000DF0A86620D07D0EE8CF7CF023EC1AF01F
:103FE00020EE60F04F0EDE6E1DEC0EF0550EE8CFA9
:103FF0007DF0000EE8CF7EF0000EE8CF7FF0960E49
:10400000E8CF7CF023EC1AF020EE60F0430EDE6E79
:104010001DEC0EF01200A806A86601D01200A8063A
:10402000A86629D07D0EE8CF7CF023EC1AF020EEB4
:1040300060F0430EDE6E550EE8CF7DF0000EE8CF47
:104040007EF0000EE8CF7FF01DEC0EF0960EE8CF6C
:104050007CF023EC1AF020EE60F0430EDE6E550E7D
:10406000E8CF7DF0000EE8CF7EF0000EE8CF7FF0C5
:104070001DEC0EF01200A806A86601D01200A806DA
:10408000A86629D07D0EE8CF7CF020EE60F0470EC8
:10409000DE6E550EE8CF7DF0000EE8CF7EF0000E0C
:1040A000E8CF7FF023EC1AF01DEC0EF0960EE8CF6F
:1040B0007CF020EE60F0460EDE6E550EE8CF7DF00F
:1040C000000EE8CF7EF0000EE8CF7FF023EC1AF070
:1040D0001DEC0EF012007D0EE8CF7CF020EE60F0BB
:1040E000470EDE6E550EE8CF7DF0000EE8CF7EF075
:1040F000000EE8CF7FF023EC1AF01DEC0EF0960EC8
:10410000E8CF7CF020EE60F0460EDE6E550EE8CF74
:104110007DF0000EE8CF7EF0000EE8CF7FF023ECBC
:104120001AF01DEC0EF01200000EE8CFF4F1190E9B
:10413000E8CFF5F1780EE8CFF6F1520EE8CFF7F1BF
:104140009F0EE8CFF8F1C0EC0EF029B15ED06D0EF5
:10415000B9EC1AF05A0EE8CF7DF0000EE8CF7EF0F1
:104160001F8F020E0A6F000E096F336B332B040E84
:104170000A2720EE60F0470EDE6E33C132F1386B55
:10418000382B376B1BEC0DF03A0EDE6E200EDE6E18
:104190000AC1A9FFC8EC0DF0A8CF32F1386B382B5B
:1041A000376B1BEC0DF02F0EDE6EA92AC8EC0DF05C
:1041B000A8CF32F1386B382B376B1BEC0DF01B0E90
:1041C0009FEC0DF033C132F1A832322FFDD7D8B0B9
:1041D00004D04A0E1DEC10F002D023EC1AF0210E90
:1041E0009FEC0DF0A850336301D009D0190E0927B8
:1041F0005A0EE8CF7DF009C17CF01DEC0EF023ECE7
:104200001AF0050E3363B2D712005A0EE8CF7DF0D4
:10421000000EE8CF7EF01F8F230E0A6F000E096F8D
:10422000E66B0A2BE62B190E09275A0EE8CF7DF014
:1042300009C17CF020EE60F0530EDE6E500EDE6E93
:10424000E6C132F1386B382B376B1BEC0DF03A0EB0
:10425000DE6E200EDE6E0AC1A9FFC8EC0DF0A8CFFD
:1042600032F1336B030E24EC0DF01DEC0EF0030E57
:10427000E663D7D7210E9FEC0DF0A8CFD1F1D10581
:10428000040DF350070FA96EC8EC0DF0A8CF33F161
:10429000D105040DF350060FA96EC8EC0DF0A8CFA0
:1042A00032F15A0EE8CF7DF0640EE8CF7CF020EEBC
:1042B00060F0440EDE6E690EDE6E6C0EDE6E3A0E3F
:1042C000DE6E386B382B376B1BEC0DF02F0EDE6E6D
:1042D00033C132F1386B382B376B1BEC0DF01DEC12
:1042E0000EF01F9F1200710EB9EC1AF02ABB1200DB
:1042F00028BF120029A123D0870EE8CF7CF05A0EE8
:10430000E8CF7DF0000EE8CF7EF0000EE8CF7FF022
:1043100023EC1AF020EE60F0240E9FEC0DF0A8CFF5
:1043200032F1336B030E24EC0DF0420EDE6E610EA3
:10433000DE6E720EDE6E1F9F1DEC0EF057D0820EE9
:10434000E8CF7CF0640EE8CF7DF0010EE8CF7EF080
:10435000000EE8CF7FF023EC1AF0210E9FEC0DF059
:10436000A8CFD1F1D105040DF350070FA96EC8EC09
:104370000DF0A8CF11F5D105040DF350060FA96E6D
:10438000C8EC0DF0A8CFD0F111C50AF1D880640EA9
:104390000A55D880A856A8CF10F5640E10C532F182
:1043A000D880325511C532F1D880325711C533F15A
:1043B000150E326306D0336704D0090E55EC0BF0AE
:1043C00015D020EE60F01F8F386B382B376B1BEC4D
:1043D0000DF02F0EDE6E11C532F1386B382B376BB6
:1043E0001BEC0DF01F9F1DEC0EF000D0000EE8CF6F
:1043F000F4F17A0EE8CFF5F1AF0EE8CFF6F1520EF8
:10440000E8CFF7F19F0EE8CFF8F180EC0EF0120044
:10441000000EE8CFF4F1440EE8CFF5F1920EE8CFAC
:10442000F6F1220EE8CFF7F1650EE8CFF8F1C0EC17
:104430000EF0230E75EC10F0E8CFF4F1460EE8CF45
:10444000F5F1900EE8CFF6F1230EE8CFF7F1640E08
:10445000E8CFF8F180EC0EF08F0E58EC0BF0910ED7
:1044600058EC0BF0920E58EC0BF0010EBA6F000EE8
:10447000E8CFF4F1600EE8CFF5F18F0EE8CFF6F15A
:10448000270EE8CFF7F1330EE8CFF8F1C0EC0EF0CD
:10449000BAC139F1600E394F600E394F780EE8CF4E
:1044A0007CF0270EE8CF7DF0000EE8CF7EF0000E06
:1044B000E8CF7FF023EC1AF020EE60F0B70EDE6E4E
:1044C0001DEC0EF020992191219324992497B86B2B
:1044D000640ED5EC0CF0FAEC31F021B315D021B11B
:1044E0000ED020B1F5EC3DF020B1CBEC43F02091A3
:1044F00020B903D020B301D0EED7000C010CBA4F85
:10450000FCD7BA4FFBD7F9D7BA2B030EBA6302D048
:10451000010EBA6FACD7720EB9EC1AF090C133F13C
:104520008FC132F170EC2DF0270E336171D02BBBAF
:104530002FEC23F02B9B20EE60F0030E536FE80E60
:10454000526F33C155F132C154F1542B000E552333
:10455000D4EC0BF01FA780D8180EE8CF7CF0000E2B
:10456000E8CF7DF0020EE8CF7EF0000EE8CF7FF0BE
:10457000010E47EC1AF0000E536F630E526F33C1F9
:1045800055F132C154F1D4EC0BF01FA70AD01F8FA4
:104590002987386B382B376B375124EC0DF01F9F70
:1045A00002D0300EDE6E1DEC0EF02997010EE8CF22
:1045B0007EF0320EE8CF7CF0280EE8CF7DF0010EC1
:1045C00047EC1AF090C133F18FC132F170EC2DF04D
:1045D00020EE60F02E0EDE6E000E536F090E526F4D
:1045E00033C155F132C154F1D4EC0BF01FA707D001
:1045F000040E386F2485000E24EC0DF002D0300E2E
:10460000DE6E1DEC0EF02495000EE8CF7EF0120059
:104610002BAB2FEC23F020EE60F0180EE8CF7CF0EF
:10462000000EE8CF7DF0020EE8CF7EF0000EE8CF5E
:104630007FF0010E47EC1AF029871F8F386B382B5B
:10464000376B375124EC0DF01F9F1DEC0EF02997AE
:10465000000EE8CF7EF01200200EDE6E1200000E7B
:10466000E8CFF4F1180EE8CFF5F15A0EE8CFF6F1E5
:10467000000EE8CFF7F15A0EE8CFF8F1C0EC0EF0DB
:104680002B8B1200680EB9EC1AF0960EE8CF7CF076
:10469000000EE8CF7DF0000EE8CF7EF0000EE8CFF0
:1046A0007FF023EC1AF020EE60F00E0E51EC0BF0D0
:1046B000200EDE6E20C532F121C533F1B1EC0BF0D6
:1046C0001F8F325133C132F1336F386B382B376B58
:1046D0001BEC0DF03A0EDE6E33C132F1386B382B25
:1046E000376B16EC0DF01F9F1DEC0EF01200670EDD
:1046F000B9EC1AF07D0EE8CF7CF0000EE8CF7DF02B
:10470000000EE8CF7EF0000EE8CF7FF023EC1AF029
:1047100020EE60F0230E51EC0BF0200EDE6ECCC1CB
:1047200032F1CDC133F1B1EC0BF01F8F325133C1F7
:1047300032F1336F386B382B376B1BEC0DF03A0EC0
:10474000DE6E33C132F1320732BF326B386B382B39
:10475000376B16EC0DF01F9F1DEC0EF0120020BD04
:104760001200620EB9EC1AF0190EE8CF7CF0000EC0
:10477000E8CF7DF0000EE8CF7EF0000EE8CF7FF0AE
:1047800023EC1AF020EE60F08DC132F18EC133F1CE
:104790001F8F386B382B376B375124EC0DF01F9F70
:1047A0006D0EDE6E620EDE6E610EDE6E720EDE6EFF
:1047B000200EDE6E1DEC0EF01200660EB9EC1AF043
:1047C0001F0E75EC10F0326F010E326323D0AF0E66
:1047D000E8CF7CF0000EE8CF7DF0000EE8CF7EF051
:1047E000000EE8CF7FF023EC1AF020EE60F0C2C19B
:1047F00032F1C3C133F1010E386F24851F8F020ED1
:1048000024EC0DF01F9F560EDE6E200EDE6E1DECAA
:104810000EF01200230E75EC10F0E8CFF4F1AE0E9E
:10482000E8CFF5F1C20EE8CFF6F1000EE8CFF7F1D0
:104830001F0EE8CFF8F180EC0EF0040E526F100E50
:10484000536FC2C154F1C3C155F1D4EC0BF01FB783
:1048500045D0AC0E546F0D0E556FC2C152F1C3C19D
:1048600053F1D4EC0BF01FB736D050C14CF151C10D
:104870004DF1140E4E6F4F6B08EC0CF048C10AF16D
:10488000020E0A650A6F230E75EC10F0E8CFF4F102
:10489000B50EE8CFF5F1BB0EE8CFF6F11F0EE8CF6D
:1048A000F7F1210EE8CFF8F1C0EC0EF0220E75EC16
:1048B00010F0E8CFF4F1B00EE8CFF5F1C00EE8CF7C
:1048C000F6F1010EE8CFF7F10AC1F8F1C0EC0EF0F5
:1048D00023EC1AF01200010E0A6FD5D71E0E0A6FD4
:1048E000D2D75B0E9FEC0DF0A8660ED0F1C132F16D
:1048F0001F8F386B382B376B16EC0DF01F9F2F0E68
:10490000DE6EF2C132F112D05B0E9FEC0DF0A82EDC
:104910001FD0F2C132F11F8F386B382B376B16EC7A
:104920000DF01F9F2F0EDE6EF1C132F11F8F386B1D
:10493000382B376B16EC0DF01F9F2F0EDE6EF3C178
:1049400032F11F8F386B382B376B16EC0DF01200DD
:10495000F3C132F11F8F386B382B376B16EC0DF02B
:104960001F9F2F0EDE6EF1C132F11F8F386B382B77
:10497000376B16EC0DF01F9F2F0EDE6EF2C132F179
:104980001F8F386B382B376B16EC0DF012005B0E57
:104990009FEC0DF0A86615D0F1C132F11F8F386B76
:1049A000382B376B16EC0DF01F9F2F0EDE6EF2C109
:1049B00032F11F8F386B382B376B16EC0DF01F9FC1
:1049C00012005B0E9FEC0DF0A82EE6D7F2C132F17B
:1049D0001F8F386B382B376B16EC0DF01F9F2F0E87
:1049E000DE6EF1C132F11F8F386B382B376B16EC4E
:1049F0000DF01F9F1200640EB9EC1AF04B0EE8CFB9
:104A00007CF0000EE8CF7DF0000EE8CF7EF0000EC7
:104A1000E8CF7FF023EC1AF020EE60F007C1F1F14F
:104A200006C1F2F108C1F3F171EC24F01DEC0EF0B7
:104A30001200000EE8CFF4F1000EE8CFF5F11A0EE7
:104A4000E8CFF6F1410EE8CFF7F1640EE8CFF8F1C8
:104A5000C0EC0EF012002BB51200700EB9EC1AF07B
:104A6000B80EE8CF7CF0000EE8CF7DF0010EE8CF65
:104A70007EF0000EE8CF7FF023EC1AF020EE60F01D
:104A800091C132F192C133F170EC2DF01F8F24856A
:104A9000030E24EC0DF01F9F1F9D1DEC0EF0000E69
:104AA000E8CF7EF0120020BF1200410EB9EC1AF0E0
:104AB00028BF92D02ABB90D0260E75EC10F0326F32
:104AC000010E326301D088D0A5C132F1A6C133F105
:104AD0001F9F20EE60F0386B382B376B1F8D3751DE
:104AE00024EC0DF0140EE8CF7CF0780EE8CF7DF0CA
:104AF000010EE8CF7EF023EC1AF01DEC0EF0000E54
:104B0000E8CF7EF0120020BF12001BEC1AF08C0ED2
:104B100058EC0BF023EC1AF0550EE8CF7CF05A0E4F
:104B2000E8CF7DF0010EE8CF7EF023EC1AF0E1C172
:104B300032F11F9F20EE60F0386B382B376B1BEC87
:104B40000DF03A0EDE6EE2C132F1386B382B376B66
:104B500016EC0DF01DEC0EF0000EE8CF7EF012000A
:104B6000000EE8CFF4F13C0EE8CFF5F1770EE8CF78
:104B7000F6F15A0EE8CFF7F19F0EE8CFF8F1C0EC4E
:104B80000EF012001BEC1AF08B0E58EC0BF023EC1D
:104B90001AF0910EE8CF7CF05A0EE8CF7DF0010EAE
:104BA000E8CF7EF023EC1AF0DCC132F120EE60F0A9
:104BB000386B382B376B1BEC0DF03A0EDE6EDDC117
:104BC00032F1386B382B376B16EC0DF01DEC0EF014
:104BD000000EE8CF7EF01200A5C132F1A6C133F17C
:104BE0001F9F1F8D20EE60F0386B382B376B1F8DA9
:104BF000375124EC0DF03A0EDE6EA7C132F1386B5E
:104C0000382B376B16EC0DF0140EE8CF7CF05A0EF3
:104C1000E8CF7DF0010EE8CF7EF023EC1AF01DEC1A
:104C20000EF01F9D000EE8CF7EF01200000EE8CFC0
:104C3000F4F1360EE8CFF5F1660EE8CFF6F13E0E50
:104C4000E8CFF7F19F0EE8CFF8F1C0EC0EF01200BC
:104C500020BF1200560EB9EC1AF01BEC1AF01B0E16
:104C600055EC0BF023EC1AF0500EE8CF7CF06E0EF2
:104C7000E8CF7DF0000EE8CF7EF023EC1AF020EEB6
:104C800060F017C132F118C133F1020E325F000E2D
:104C9000335BB1EC0BF032C10AF133C132F1336B4B
:104CA000000E1F9F1F8D386B382B376B1F8D3751B0
:104CB00024EC0DF03A0EDE6E0AC132F1386B382B5F
:104CC000376B16EC0DF01F9F1DEC0EF0550EB9EC76
:104CD0001AF0500EE8CF7CF03E0EE8CF7DF0000ECB
:104CE000E8CF7EF023EC1AF020EE60F093C132F1B1
:104CF00094C133F170EC2DF01F8F2485030E24EC4A
:104D00000DF01F9F6D0EDE6E200EDE6E1DEC0EF0A0
:104D10001200610EB9EC1AF0000EE8CF7CF0000E24
:104D2000E8CF7DF0000EE8CF7EF0000EE8CF7FF0F8
:104D300023EC1AF020EE60F0060E4EEC0BF0AA6A9F
:104D4000A96AC8EC0DF0A8CF32F1A92AC8EC0DF081
:104D5000A8CF33F11F8F386B382B376B375124ECCA
:104D60000DF0200EDE6E560EDE6E010E326F1F8FBE
:104D7000386B382B376B1BEC0DF02E0EDE6E3E0EB3
:104D8000326F1F8F386B382B376B16EC0DF01F9F6F
:104D90001DEC0EF012006F0EB9EC1AF019EC25F0B4
:104DA0001F0E58EC0BF029B107D0200E58EC0BF079
:104DB0007A0E58EC0BF006D0EE0E58EC0BF0890E84
:104DC00058EC0BF0210E58EC0BF0220E58EC0BF0C7
:104DD00012006F0EB9EC1AF0F00E58EC0BF0F10E59
:104DE00058EC0BF0190E55EC0BF0930E58EC0BF041
:104DF000F40E58EC0BF01200640EE8CF7DF0000EBC
:104E0000E8CF7CF0000EE8CF7EF023EC1AF020EE25
:104E100060F0530EDE6E650EDE6E6C0EDE6E180EEA
:104E20009FEC0DF0A8CF32F11F9F386B382B376BFA
:104E300005EC0DF02F0EDE6E190E9FEC0DF0A8CFD5
:104E400032F1386B382B376B05EC0DF01DEC0EF0A2
:104E50007B0E58EC0BF07C0E58EC0BF07D0E58ECF2
:104E60000BF07E0E58EC0BF01200FE0E58EC0BF01F
:104E7000FA0E58EC0BF0FB0E58EC0BF0FC0E58EC55
:104E80000BF0FD0E58EC0BF01200230E75EC10F039
:104E9000E8CFF4F17C2B7CC0F5F17CC0F6F1120E6A
:104EA000F6277A0EE8CFF7F1322732078A0E326101
:104EB000326F32C1F8F1C0EC0EF0000EE8CFF4F121
:104EC0007CC0F5F17CC0F6F1120EF62732C1F7F185
:104ED000F72B8B0EE8CFF8F1C0EC0EF01200000EAD
:104EE000E8CFF4F133C1F5F17D0EE8CFF6F1640EB1
:104EF000E8CFF7F19F0EE8CFF8F1C0EC0EF012000A
:104F00006E0EB9EC1AF02BC532F1326706D053ECB5
:104F100028F0EF0E58EC0BF01200E669E70EE76F91
:104F2000190EE727E62B99EC27F0050EE663F8D774
:104F300012001F8F640EE8CF7DF0E7C17CF0E7C15F
:104F400033F115EE2BF0E651E3CF32F13251D8B404
:104F50006FEF27F020EE60F0386B382B376B1BECCF
:104F60000DF06D0EDE6E1DEC0EF08C0EE8CF7DF0B8
:104F7000E7C17CF015EE24F0E651E3CF32F120EEEC
:104F800060F0386B382B376B16EC0DF0270EDE6EA9
:104F90001DEC0EF045EC27F012006D0EB9EC1AF086
:104FA000640EE8CF7DF0000EE8CF7EF01F8F020E7A
:104FB0000A6FE70E096F336B332B040E0A27190EA5
:104FC0000927640EE8CF7DF009C17CF020EE60F087
:104FD000470EDE6E33C132F1386B382B376B1BEC6A
:104FE0000DF03A0EDE6E0AC1A9FFC8EC0DF0A8CF95
:104FF00032F1386B382B376B1BEC0DF02F0EDE6E59
:10500000A92AC8EC0DF0A8CF32F1386B382B376BDA
:105010001BEC0DF01B0E9FEC0DF033C132F1A832EA
:10502000322FFDD74A0ED8A01DEC10F01DEC0EF06B
:1050300023EC1AF0050E3363BFD71200640EE8CFDD
:105040007DF0000EE8CF7EF01F8F230E0A6FE70E73
:10505000096FE66B0A2BE62B190E092709C17CF0B4
:10506000640EE8CF7DF020EE60F0530EDE6E500E41
:10507000DE6EE6C132F1386B382B376B1BEC0DF06E
:105080003A0EDE6E0AC1A9FFC8EC0DF0A8CF32F1CE
:10509000336B030E24EC0DF01DEC0EF0030EE663F3
:1050A000D9D71F9F1200000EE8CFF4F1000EE8CF11
:1050B000F5F1B90EE8CFF6F1520EE8CFF7F19F0EF9
:1050C000E8CFF8F1C0EC0EF012006C0EB9EC1AF05B
:1050D000000EE8CF7CF0550EE8CF7DF0000EE8CF53
:1050E0007EF0000EE8CF7FF023EC1AF020EE60F0A7
:1050F000B80EDE6E1DEC0EF0190EE8CF7CF0550EEA
:10510000E8CF7DF0000EE8CF7EF0000EE8CF7FF014
:1051100023EC1AF020EE60F0B80EDE6E1DEC0EF0FF
:10512000320EE8CF7CF0550EE8CF7DF0000EE8CFD0
:105130007EF0000EE8CF7FF023EC1AF020EE60F056
:10514000B80EDE6E1DEC0EF04B0EE8CF7CF0550E67
:10515000E8CF7DF0000EE8CF7EF0000EE8CF7FF0C4
:1051600023EC1AF020EE60F0B80EDE6E1DEC0EF0AF
:10517000640EE8CF7CF0550EE8CF7DF0000EE8CF4E
:105180007EF0000EE8CF7FF023EC1AF020EE60F006
:10519000B80EDE6E1DEC0EF0BAC139F1000E394FBB
:1051A000000E394F190E394F320E394F4B0E394F11
:1051B000640EE8CF7CF0550EE8CF7DF0000EE8CF0E
:1051C0007EF0000EE8CF7FF023EC1AF020EE60F0C6
:1051D000B70EDE6E1DEC0EF01200000EE8CFF4F1FB
:1051E000380EE8CFF5F1580EE8CFF6F1450EE8CFCE
:1051F000F7F1730EE8CFF8F1C0EC0EF0230E75EC6A
:1052000010F0E8CFF4F13A0EE8CFF5F1560EE8CF02
:10521000F6F1460EE8CFF7F1720EE8CFF8F180EC28
:105220000EF03C0EE8CF7CF0470EE8CF7DF0000E8C
:10523000E8CF7EF0010EE8CF7FF01FEC1AF020EEF1
:1052400060F0430EDE6E460EDE6E39C132F1386B11
:10525000382B376B1BEC0DF0210EDE6E1DEC0EF0C3
:10526000000EE8CF7FF023EC1AF01200680EB9ECC4
:105270001AF0690EB9EC1AF0000EE8CFF4F1190E2D
:10528000E8CFF5F1780EE8CFF6F1520EE8CFF7F15E
:105290009F0EE8CFF8F1C0EC0EF0230E75EC10F085
:1052A000E8CFF4F1190EE8CFF5F1780EE8CFF6F17A
:1052B000520EE8CFF7F19F0EE8CFF8F180EC0EF038
:1052C00025EE33F0100E0A6F096B230E75EC10F00B
:1052D000E8CFF4F11C0E0925E8CFF5F11C0E0925E5
:1052E000E8CFF6F1092B092B640EE8CFF7F1DECFFA
:1052F000F8F1D890F833D890F833640EF8279D0E63
:10530000F861F86FC0EC0EF00A2FDFD725EE43F0FE
:10531000100E0A6F096B230E75EC10F0E8CFF4F154
:10532000560E0925E8CFF5F1560E0925E8CFF6F11E
:10533000092B092B640EE8CFF7F1DECFF8F1D890F6
:10534000F833D890F833640EF8279D0EF861F86FA3
:10535000C0EC0EF00A2FDFD7540EE8CF7DF0200E00
:10536000E8CF7CF023EC1AF020EE60F04E0EDE6EFB
:10537000320EDE6E1DEC0EF0540EE8CF7DF05A0EAC
:10538000E8CF7CF023EC1AF020EE60F0480EDE6EE1
:10539000650EDE6E1DEC0EF063C50AF120EE60F0C6
:1053A00015EE33F00A2BE6CF32F10A2FFCD7386B1B
:1053B000382B376B1BEC0DF0250EDE6E200EDE6EEB
:1053C000540EE8CF7DF03E0EE8CF7CF0000EE8CF23
:1053D0007EF023EC1AF01DEC0EF01F9F230E75ECEF
:1053E00010F0E8CFF4F1490EE8CFF5F14A0EE8CF1E
:1053F000F6F1790EE8CFF7F19D0EE8CFF8F180ECE9
:105400000EF0230E75EC10F0E8CFF4F13D0EE8CF6E
:10541000F5F1540EE8CFF6F1790EE8CFF7F17A0EF8
:10542000E8CFF8F1C0EC0EF0230E75EC10F0E8CFE9
:10543000F4F1410EE8CFF5F1500EE8CFF6F1820E0F
:10544000E8CFF7F1830EE8CFF8F1C0EC0EF0230EB1
:1054500075EC10F0E8CFF4F1410EE8CFF5F1500E05
:10546000E8CFF6F18B0EE8CFF7F18C0EE8CFF8F12C
:10547000C0EC0EF0230E75EC10F0E8CFF4F1410E05
:10548000E8CFF5F1500EE8CFF6F1940EE8CFF7F142
:10549000950EE8CFF8F1C0EC0EF0230E75EC10F08D
:1054A000E8CFF4F13D0EE8CFF5F1540EE8CFF6F178
:1054B0009D0EE8CFF7F19E0EE8CFF8F1C0EC0EF0AC
:1054C000120083EC2BF0010EE8CF7FF0030E58ECB6
:1054D0000BF0000EE8CF7FF0440E58EC0BF0450EB9
:1054E00058EC0BF0460E58EC0BF0470E58EC0BF056
:1054F000480E58EC0BF0490E58EC0BF04A0E58ECE5
:105500000BF0120083EC2BF0010EE8CF7FF0030EBE
:1055100058EC0BF0000EE8CF7FF04B0E58EC0BF080
:105520004C0E58EC0BF04D0E58EC0BF04E0E58ECA8
:105530000BF04F0E58EC0BF0500E58EC0BF0510ED8
:1055400058EC0BF0120083EC2BF0010EE8CF7FF04B
:105550000F0E55EC0BF0000EE8CF7FF0100E55EC5F
:105560000BF0110E55EC0BF0120E55EC0BF0130E68
:1055700055EC0BF012002BB512006A0EB9EC1AF0C4
:10558000A80EE8CF7CF0410EE8CF7DF0000EE8CF0A
:105590007EF0000EE8CF7FF020EE60F018C532F10B
:1055A000326708D023EC1AF0070E4EEC0BF01DEC1E
:1055B0000EF012008DC14CF18EC14DF10A0E4E6FEE
:1055C0004F6B08EC0CF04967486959C1E8FF486126
:1055D00003D048C118F52FD08DC14CF18EC14DF1CB
:1055E0000A0E4E6F4F6B08EC0CF048C14CF149C1EC
:1055F0004DF1D0C14EF14F6BEBEC0BF048C154F1C3
:1056000049C155F159C1E8FF640DF3CF52F1F4CF10
:1056100053F1D4EC0BF01FA70CD048C14CF149C199
:105620004DF1640E4E6F4F6B08EC0CF048C118F54D
:1056300002D059C118F5040E47EC1AF018C532F122
:10564000336B1F8F030E24EC0DF01F9F1DEC0EF02B
:1056500023EC1AF0120030EC80F001011A0E55EC28
:105660000BF020EE60F0230EDE6E63C532F163C5F1
:105670000AF11F8F386B382B376B1BEC0DF0200EA7
:10568000DE6E280EDE6E100E0A6105D04E0EDE6E46
:10569000320EDE6E04D0480EDE6E650EDE6E290E12
:1056A000DE6E200EDE6E640EE8CF7DF0190EE8CFC0
:1056B0007CF0000EE8CF7EF023EC1AF01DEC0EF02B
:1056C00020EE60F015EE33F00A2BE6CF32F10A2F10
:1056D000FCD7386B382B376B1BEC0DF0250EDE6ECC
:1056E000200EDE6E640EE8CF7DF0320EE8CF7CF047
:1056F000000EE8CF7EF023EC1AF01DEC0EF01F9F99
:105700001200000E03D0230E75EC10F0E8CFF4F178
:10571000000EE8CFF5F11A0EE8CFF6F1000EE8CF53
:10572000F7F19F0EE8CFF8F1C0EC0EF012002BB5A8
:10573000120028BF12002ABB12002BB912006B0EF8
:10574000B9EC1AF05A0EE8CF7CF0000EE8CF7DF0ED
:10575000000EE8CF7EF0020E47EC1AF020EE60F06B
:10576000430EDE6E4E0EDE6E530EDE6E3A0EDE6EB3
:1057700065C532F11F8F386B382B376B1BEC0DF082
:105780001F9F250EDE6E1DEC0EF01200400E9FECEA
:105790000DF0010EA86229D0C80EE8CF7CF0000EF3
:1057A000E8CF7DF0000EE8CF7EF0000EE8CF7FF06E
:1057B0001BEC1AF020EE60F0400E326F180E336FC3
:1057C000322BF0EC2BF07D0EA86201D004D0A8CFD4
:1057D000DEFF332FF5D71DEC0EF023EC1AF012008C
:1057E00032C1A9FFC8EC0DF01200180E396FC80EB7
:1057F000E8CF7CF0000EE8CF7DF014EC1DF0120035
:10580000000EE8CF7DF0A00EE8CF7CF020EE60F037
:105810001DC532F1386B382B376B1BEC0DF01DECCE
:105820000EF0190EE8CF7DF0A00EE8CF7CF039EC39
:105830000EF020EE60F01CC532F1386B382B376B60
:105840001BEC0DF01DEC0EF0320EE8CF7DF0A00E3B
:10585000E8CF7CF020EE60F01BC532F1386B382BBE
:10586000376B1BEC0DF01DEC0EF04B0EE8CF7DF00E
:10587000A00EE8CF7CF020EE60F033C132F1386B3F
:10588000382B376B1BEC0DF01DEC0EF01200000EE8
:10589000E8CFF4F1000EE8CFF5F1EF0EE8CFF6F126
:1058A000520EE8CFF7F19F0EE8CFF8F1C0EC0EF002
:1058B00012004FC20AF14EC209F1095303E066EC2F
:1058C0002CF01200F20E58EC0BF01200090EE66FED
:1058D000E70EE76F12EE50F0190EE72773EC2CF08D
:1058E000E62FFAD712001F8F640EE8CF7DF0E7C1D4
:1058F0007CF0E7C133F1E6CF32F1325120EE60F0B7
:10590000386B382B376B1BEC0DF06D0EDE6E1DEC1B
:105910000EF08C0EE8CF7DF0E7C17CF0E6CF32F1DF
:1059200020EE60F0386B382B376B16EC0DF0270E3D
:10593000DE6E1DEC0EF0120029B164D06D0EB9ECD4
:105940001AF0000EE8CF7DF0000EE8CF7EF01F8F3A
:10595000020E0A6F0A0E096F336B332B040E0A27EF
:1059600020EE60F0470EDE6E33C132F1386B382B1B
:10597000376B1BEC0DF03A0EDE6E0AC1A9FFC8ECC6
:105980000DF0A8CF32F1386B382B376B1BEC0DF0D4
:105990002F0EDE6EA92AC8EC0DF0A8CF32F1386BBD
:1059A000382B376B1BEC0DF0200EDE6E33511B0FC6
:1059B0009FEC0DF0A8CF32F1386B382B376B05EC2C
:1059C0000DF06D0EDE6E1B0E9FEC0DF033C132F14B
:1059D000A832322FFDD7D8B004D04A0E1DEC10F0FB
:1059E00002D023EC1AF0190E0927000EE8CF7DF043
:1059F00009C17CF01DEC0EF023EC1AF0050E3363A8
:105A0000ACD71200000EE8CF7DF0000EE8CF7EF09C
:105A10001F8F230E0A6F0A0E096FE66B0A2BE62B07
:105A2000190E0927000EE8CF7DF009C17CF020EEA9
:105A300060F0530EDE6E500EDE6EE6C132F1386B52
:105A4000382B376B1BEC0DF03A0EDE6E200EDE6E3F
:105A50000AC1A9FFC8EC0DF0A8CF32F1336B030ED9
:105A600024EC0DF01DEC0EF0030EE663D7D7210EEB
:105A70009FEC0DF0A8CFD1F1D105040DF350070F25
:105A8000A96EC8EC0DF0A8CF33F1D105040DF35089
:105A9000060FA96EC8EC0DF0A8CF32F1000EE8CFCA
:105AA0007DF06E0EE8CF7CF020EE60F0440EDE6EEE
:105AB000690EDE6E6C0EDE6E3A0EDE6E386B382BC3
:105AC000376B1BEC0DF02F0EDE6E33C132F1386BED
:105AD000382B376B1BEC0DF01DEC0EF01F9F1200E6
:105AE00025BD12001A0E9FEC0DF0A8CF0AF1690E29
:105AF0000A611200630E0A65120032C14CF133C113
:105B00004DF1640E4E6F4F6BEBEC0BF00AC14EF192
:105B10004F6B2FEC0CF048C132F149C133F1120048
:105B20003B6F010EBD27000EBE23BEAF02D0BD6B82
:105B3000BE6B3B2FF6D712003B6F010EBD5F000E10
:105B4000BE5BBEAF02D07F0EBE6F3B2FF6D71200FA
:105B50009CD8010EBD27000EBE232391BEAF1200BC
:105B6000BD6BBE6B2381120023B31CD823A30BD8BB
:105B70002383000EBD2BBE232391BEAF1200BD6B4D
:105B8000BE6B238112003B6FC580A3D8A60EC96EE1
:105B9000A0D894D8BEC1C9FF9CD890D8BDC1C9FFB8
:105BA00098D88CD83BC1C9FF94D888D812003B6BD9
:105BB0003C6B229F229DC5848CD8C5808AD8A60EB6
:105BC000C96E87D8C5BCF7D73CC1C9FF82D876D883
:105BD0003BC1C9FF7ED872D8C5827BD8A70EC96EDB
:105BE00078D86CD8C58675D822BD05D0228DFD0E1B
:105BF000C962229D11D022BF05D0228FFD0EC9623D
:105C000009D00AD0FE0EC96205D03BC1BDF13CC12E
:105C1000BEF10DD0229F229D010E3B27000E3C239A
:105C20003CBF03D0C58855D8DDD7BD6BBE6BC584DE
:105C300050D8229F229D1200C5844BD8C58049D8D8
:105C4000A60EC96E46D8C5BCF7D7BEC1C9FF41D89C
:105C500035D8BDC1C9FF3DD831D8C5823AD8A70EC5
:105C6000C96E37D82BD8C58634D8C950C58431D829
:105C70001200E2DF010EBD27000EBE232391BEAF4E
:105C80001200BD6BBE6B238112003B6FC58021D813
:105C9000A60EC96E1ED812D8BEC1C9FF1AD80ED81A
