:020000040000FA
:04000000AFEF48F026
:0200080008D01E
:0800180000D0E0CF02F101016C
:10002000D8CF01F1E8CF00F181509EB0B6EC39F0A5
:10003000F2B49DEC39F0A1B2B2EC39F09EBA5DECAD
:1000400039F0F2B28BEC39F0F0B091EC39F000C13C
:0C005000E8FF01C1D8FF02C1E0FF100072
:10007000001210180606080A0A0C0606080A060AE4
:1000800006060808060E06060A0A08140C0A060ADE
:100090000806060610101010101010101010101086
:1000A0001010101010101010101010101010101050
:1000B000101010101014161416120C140E14141420
:1000C0000E180A0608040A060C0A0808080806069C
:1000D000040A0C120A0A0A060A0E1408080612126A
:1000E000040E140806100E0C060608060606060680
:1000F000080804040A16161614080A080806060A50
:100100000808040A0C08060C0A141010101010102D
:1001100010101010101010101010101010101010DF
:1001200010101010101010101010140E0E0E0808E1
:10013000061414141414141414141414141414148D
:10014000141414141414141414141414141414146F
:100150001414141414141414141414140A0A0A0889
:100160000808080E0614100A100C060606060608F3
:10017000020E0E080808060606060A0A0408040EFF
:100180001412140E0A0E0C100E0A0A0A0E0C10009D
:1001C00000000019000241024102142314411423CB
:1001D000145F147D14B973020018000032020A1E65
:1001E0000A370A500A690A8214232041205F209BA3
:1001F000060037020E02280232021423641964003A
:10020000644B646400002823282328232823282300
:100210002823282328232823282328232823282386
:100220002823282328232823282328232823282376
:100230002823282328232823282328232823282366
:1002400028232823282300230041005F007D009BF2
:1002500000B900D700230041005F007D009B00B97A
:1002600000D7669600006CD887D8640000000000B4
:10027000000000000000000000000000000000007E
:10028000000028021423147D557D557D557D557D34
:1002900000000A02000000001423144114020000B0
:1002A000145F0A020009557D0012001B0024002D76
:1002B0000036643264196432644B64646400641907
:1002C00014414141414164320A000A190A320A4B81
:1002D0006432557D6978693C4102149B2A483C028E
:1002E00034603478644BA07D000802270230557DCD
:1002F000144128232823282328232823282328239C
:100300002823282328232823282328232823282395
:100310002823282328232823282328232823282385
:100320002823282328232823282328232823282375
:1003300028230D02145F00020230000000000000BC
:1003400000230041005F007D009B00B900D700231F
:100350000041005F007D009B00B900D700230041F1
:10036000005F007D009B00B900D700230041005FC3
:10037000007D009B00B900D700230041005F007D95
:10038000009B00B900D700230041005F007D009B67
:1003900000B900D70A02557D020C640064006400B5
:1003A00064196400020C64641441021E147D1E0270
:1003B000142364196432644B646464006432000082
:1003C00014232802692369236923010141A8073006
:1003D0007887022700D80A080A10000018020023B4
:1003E0000041005F007D145F1441145F147D149B75
:0C03F000643264005A36145F147D149BC4
:100430004275696C64696E67204D4432204861736F
:10044000687D506C6561736520576169742E2E2E2E
:100450007D7D4865696E72696368735765696B6114
:100460006D70204F535443327D7D4D656E753F7DD9
:100470004D656E753A7D4C6F67626F6F6B7D47613E
:10048000732053657475707D5365742054696D6570
:100490007D7D5265736574204D656E757D7D5365F8
:1004A0007475707D457869747D7D576169742E2EF1
:1004B0007D7D4D443220486173683A7D44657361A7
:1004C000747D496E746572666163657D5374617293
:1004D000747D446174617D7D4865616465727D7D74
:1004E00050726F66696C657D446F6E652E7D4361E9
:1004F0006E63656C2052657365747D7D54696D65AE
:100500003A7D446174653A7D53657420486F757215
:10051000737D52657365742E2E2E7D7D4C6F6762E0
:100520006F6F6B7D437573746F6D2046756E63746A
:10053000696F6E7320497D7D5265736574204D65CA
:100540006E757D7D5365742054696D653A7D4D6F80
:1005500072657D7D4465636F706C616E7D7D476102
:10056000736C6973747D4D6F72657D7D45786974B8
:100570007D7D4E6F466C797D537461727420446941
:100580007665205B636D5D7D456E642044697665AC
:100590002020205B636D5D7D456E642044656C6149
:1005A000792020205B735D7D506F776572204F66E8
:1005B000662020205B735D7D5072652D6D656E75C4
:1005C000202020205B735D7D76656C6F6369747994
:1005D0005B6D2F6D696E5D7D57616B652D7570204C
:1005E000205B6D4261725D7D6D61782E5375726620
:1005F0002E5B6D4261725D7D474620646973706C4D
:10060000617920205B255D7D6D696E2E204F322043
:100610004469732E5B255D7D44697665206D656E4A
:10062000757320205B735D7D5361747572617465B1
:10063000207820205B255D7D44657361747572614F
:10064000746520785B255D7D4E6F466C7920526124
:1006500074696F205B255D7D474620616C61726D1A
:10066000203120205B255D7D434E5373686F7720DA
:10067000737572665B255D7D4465636F204F6666AA
:100680007365745B646D5D7D70704F32206C6F7745
:10069000205B634261725D7D70704F3220686967D4
:1006A000685B634261725D7D70704F322073686F6A
:1006B000775B634261725D7D73616D706C696E67BB
:1006C000207261746520207D44697669736F7220A1
:1006D00054656D702020207D44697669736F7220A7
:1006E0004465636F6461747D44697669736F7220D9
:1006F0004E6F74557365317D44697669736F7220EE
:1007000070704F322020207D44697669736F7220AB
:10071000446562756720207D44697669736F722035
:100720004E6F74557365327D434E5373686F7720F7
:10073000646976655B255D7D4C6F67626F6F6B20CA
:100740006F6666736574207D4C61737420446563C5
:100750006F2061745B6D5D7D456E642041706E6FCE
:1007600065205B6D696E5D7D53686F7720566261B1
:100770007474205B3D315D7D546869732070726FC5
:100780006772616D2069737D6469737472696275E3
:1007900074656420696E207468657D7D686F70651E
:1007A00020746861742069742077696C6C206265BC
:1007B0007D7D75736566756C2C2062757420574954
:1007C00054484F55547D414E592057415252414E45
:1007D00054593B20776974686F75747D6576656ED2
:1007E0002074686520696D706C6965647D7D7761D2
:1007F0007272616E7479206F667D4D455243484137
:100800004E544142494C495459206F727D7D4649AE
:10081000544E45535320464F5220417D504152542F
:100820004943554C415220505552504F53452E7D0F
:100830005365652074686520474E552047656E6591
:1008400072616C7D5075626C6963204C6963656E82
:10085000736520666F727D7D6D6F7265206465744F
:1008600061696C733A7D7777772E6865696E726916
:100870006368737765696B616D702E64657D44652F
:10088000636F73746F707D7D6D2F6D696E7D4E6FBC
:100890002053746F707D5454537D44697665746938
:1008A0006D657D7D44657074687D466972737420E2
:1008B0004761733F7D7D44656661756C743A7D7DEB
:1008C0004D696E757465737D4D6F6E746820207D03
:1008D000446179202020207D596561722020207D8F
:1008E000536574207D7D47617323207D5965737D39
:1008F00043757272656E743A7D7D536574757020B0
:100900004D656E753A7D437573746F6D2046756ED7
:100910006374696F6E73497D4465636F7479706544
:100920003A7D5A482D4C3136204F437D47617567DB
:1009300065202020207D47617567657D5A482D4CD4
:1009400031362043437D4163746976652047617386
:100950003F207D7D476173205365747570202D2085
:100960004761736C6973747D4465707468202B7D76
:100970004465707468202D7D4261636B7D7D4343C7
:100980005220536574506F696E74204D656E757D8D
:1009900043435220536574506F696E74204D656EE9
:1009A000757D5350237D4261747465727920496E60
:1009B000666F7D7D4261747465727920496E666FE1
:1009C000726D6174696F6E7D4379636C65733A7D96
:1009D00041706E6F657D4C61737420436F6D706CF8
:1009E0006574653A7D7D4C6F7765737420566261DE
:1009F00074743A7D4C6F776573742061743A7D7DB1
:100A0000546D696E3A7D546D61783A7D53657420FA
:100A10004761737D4F32202B7D7D4F32202D7D7DB0
:100A20004865202B7D7D4865202D7D7D4578697446
:100A30007D7D44656C6574657D7D44656275673A4E
:100A40007D7D4F4E207D4F46467D44656C2E206156
:100A50006C6C7D7D556E657870656374656420721D
:100A6000657365742066726F6D7D446976656D6F20
:100A700064652120506C656173652068656C707DCC
:100A8000616E64207265706F7274207468652044B2
:100A900065627567207D496E666F726D6174696FFE
:100AA0006E2062656C6F77217D7D4261696C6F7528
:100AB000747D41706E6F65202020207D44657363D6
:100AC000656E747D537572666163657D5175697479
:100AD0003F7D4D6F72657D7D436F6E6669726D3AC5
:100AE0007D7D4D656E7520323A7D43616E63656C28
:100AF0007D7D4F4B217D53746F707761742E7D7DAA
:100B00003A2E2E2E2E2E2E2E2E2E3A7D2870704FFF
:100B1000323A7D7D42617229207D4E6F742075735B
:100B200065642121217D4C31362D4746204F437D80
:100B3000437573746F6D2046756E6374696F6E7361
:100B400049497D7D4746204C6F772020202020207A
:100B50005B255D7D4746204869676820202020206E
:100B60005B255D7D436F6C6F7223204261747465F9
:100B70007279207D436F6C6F7223205374616E64B1
:100B80006172647D436F6C6F722320446976656D7A
:100B900061736B7D436F6C6F7223205761726E6956
:100BA0006E67737D53686F7720736563732E205B68
:100BB0003D315D7D4469766520636C6F636B205BBE
:100BC0003D315D7D5761726E4365696C696E675B2F
:100BD0003D315D7D4176722E204465707468205BE6
:100BE0003D315D7D426C696E6B2047617320205BF7
:100BF0003D315D7D44657074685761726E5B6D4216
:100C000061725D7D434E53207761726E696E67201D
:100C10005B255D7D4746207761726E696E67202097
:100C20005B255D7D70704F32207761726E5B634231
:100C300061725D7D56656C2E7761726E5B6D2F6D96
:100C4000696E5D7D54696D65206F6666736574209D
:100C50005B735D7D6E6F742075736564202020204A
:100C60002020207D6E6F7420757365642020202005
:100C70002020207D6E6F74207573656420202020F5
:100C80002020207D6E6F74207573656420202020E5
:100C90002020207D6E6F74207573656420202020D5
:100CA0002020207D6E6F74207573656420202020C5
:100CB0002020207D6E6F74207573656420202020B5
:100CC0002020207D6E6F74207573656420202020A5
:100CD0002020207D6E6F7420757365642020202095
:100CE0002020207D6E6F7420757365642020202085
:100CF0002020207D6E6F7420757365642020202075
:100D00002020207D6E6F7420757365642020202064
:100D10002020207D6E6F7420757365642020202054
:100D20002020207D6E6F7420757365642020202044
:100D30002020207D6E6F7420757365642020202034
:100D40002020207D437573746F6D2046756E63742B
:100D5000696F6E732049497D53686F77204C6963D2
:100D6000656E73657D7D53696D2E20526573756C5C
:100D700074733A7D4E4F542055534544212121210F
:100D8000217D70704F32202B7D7D70704F32202D71
:100D90007D7D44696C2E7D7D4465636F74797065DB
:100DA0003A205A482D4C3136204F437D466F7220F1
:100DB0004F70656E20436972637569742020207DD1
:100DC0004469766572732E20537570706F727473F8
:100DD0002035207D5472696D697820476173657391
:100DE0002E2020202020207D436F6E66696775725B
:100DF0006520796F757220676173207D696E204769
:100E000061737365747570206D656E752E20207D1D
:100E1000436865636B2043463131202620434631C9
:100E20003220217D4465636F747970653A20476193
:100E3000756765202020207D4469766574696D653D
:100E40002077696C6C20626520696E7D4D696E75D6
:100E50007465733A5365636F6E64732E2020207D32
:100E60004F535443322077696C6C206E6F7420208E
:100E70002020207D636F6D70757465204465636FFD
:100E80002C204E6F466C797D74696D6520616E64AF
:100E90002044657361742E2D2020207D74696D655A
:100EA00020617420616C6C21202020202020207D76
:100EB0004465636F747970653A5A482D4C31362019
:100EC0004343207D466F72202853656D692D294369
:100ED0006C6F73656420207D43697263756974204B
:100EE00072656272656174686572737D436F6E6668
:100EF0006967757265207468652033202020207D25
:100F0000536574506F696E747320696E2043435249
:100F1000202D207D5365747570206D656E752E20B3
:100F200035206261696C2D7D6F7574732061726507
:100F300020617661696C61626C652E7D4465636FCA
:100F4000747970653A2041706E6F65202020207D95
:100F50004F535443322077696C6C20646973706C12
:100F60006179207D656163682064657363656E7473
:100F70002073657061722D7D6174656C7920696E76
:100F8000204D696E3A5365632E20207D57696C6C45
:100F90002074656D706F72616C6C79207365747DFF
:100FA00073616D706C657261746520746F2031209F
:100FB0007365637D4E6F204465636F2063616C636E
:100FC000756C6174696F6E7D4465636F747970656B
:100FD0003A204C31362D4746204F437D4465636FA0
:100FE0006D7072657373696F6E2063616C2D207D07
:100FF00063756C6174696F6E7320776974682074AF
:101000006865207D47462D4D6574686F64202847CC
:10101000465F6C6F2F47467D5F6869292E204368C5
:1010200065636B20434633322026207D43463333AD
:1010300021204F70656E2043697263756974207D4D
:101040007769746820446565702053746F70732EDF
:101050002020207D4465636F747970653A204C319F
:10106000362D47462043437D4465636F6D7072653E
:101070007373696F6E2063616C2D207D63756C6185
:1010800074696F6E73207769746820746865207D59
:1010900047462D4D6574686F64202847465F6C6F26
:1010A0002F47467D5F6869292E20436865636B2062
:1010B000434633322026207D4346333321436C6F31
:1010C00073656420436972637569747D77697468B8
:1010D00020446565702053746F70732E2020207D2E
:1010E0004465636F6D6F6465206368616E676564F6
:1010F0002120207D4C31362D47462043437D4E6FC5
:101100007420666F756E647D536574506F696E747C
:101110007D7D4E6F204465636F7D4772617068739B
:101120007D7D446973706C61797D4E6F2064656369
:101130006F7D536561726368206D6F64756C657D4A
:10114000457869747D7D52657365742043462C47EC
:1011500061732026204465636F7D44697361626C0E
:1011600065206D6F64756C657D7D53696D756C610F
:10117000746F727D4F5354432053696D756C617465
:101180006F727D7D537461727420446976657D7DD4
:101190002B20316D7D7D2D20316D7D7D2B31306D8E
:1011A0007D7D2D31306D7D7D457869747D7D6E6FDF
:1011B00074207573657D787D4461746520666F72F7
:1011C0006D61743A7D7D5365747570204D656E75E3
:1011D00020323A7D4D4D444459597D7D44444D4D16
:1011E00059597D7D59594D4D44447D7D4F5354434C
:1011F000207D4261696C7D7D416972207D7D416900
:101200007220207D43616C6962726174657D4D61FD
:10121000782044657074687D6E6F747D666F756E3E
:1012200064217D7D6D563A7D4E6577204346206171
:1012300064646564217D4E657720437573746F6DBA
:1012400046756E6374696F6E737D77657265206134
:10125000646465642120436865636B7D434620496F
:1012600020616E64204346204949204D656E757D9E
:10127000666F722044657461696C73217D7D536172
:101280006C696E6974793A7D426F74746F6D205425
:10129000696D653A7D7D4D61782E20446570746876
:1012A0003A7D43616C63756C617465204465636F5E
:1012B0007D7D53686F77204465636F706C616E7DD0
:1012C0004C656164205469737D7D4C656164205474
:1012D00069737D7D53746F7077617463687D526547
:1012E000736574204C6F67626F6F6B7D5265626FC0
:1012F0006F74204F5354437D526573657420446569
:10130000636F646174617D7D2B8B01D81200268D23
:1013100005D8269D12002B8B01D812000B6F800E72
:10132000A66EF86A010EF76EBC0EF66E0BC14BF19D
:10133000000E2BBB010E4C6FD8904B374C37020E72
:101340004B27000E4C234B51F6264C51F722090037
:1013500026ADF5CF7DF0090026ADF5CF7CF0000E6F
:10136000E8CF7EF00D6B0E6BF76AF86A700EF66EC2
:1013700001D02B9B0900F5500D27000E0E230B2FDB
:10138000F9D72BBBF6D7F86A300E0D25F66E040E92
:101390000E21F76E26AD20EE60F009007D0EF5629D
:1013A00001D00AD0F5CFDEFF09007D0EF56201D035
:1013B00003D0F5CFDEFFF1D726AD4FEC0CF01200D5
:1013C00031C14BF132C14CF13C0E4D6F4E6B4FD8D9
:1013D00047C132F14BC131F11200D890453344334B
:1013E000462FFBD71200D8904A334933483347334E
:1013F000462FF9D712004851FF08486F4751D8903F
:10140000FF08476F12001E975351515D4F6F5451A3
:101410005259506FD8A812001E874FC153F150C1C6
:1014200054F1516952695351515D4F6F54515259A2
:10143000506F1200496B4A6B4B514D03F350476F8D
:10144000F450486F4B514E03F3504827F450492352
:101450004C514D03F3504827F4504923D8B04A2B40
:101460004C514E03F3504927F4504A231200476B66
:10147000486B4D514E11D8B4FF0C010E466F4EBF54
:1014800005D0462BD8904D374E37F9D7D8904737EF
:1014900048374D514B5F4E51D8A04E294C5FD8B0C4
:1014A00005D04D514B274E514C2301D04781460763
:1014B000D8B41200D8904E334D33E8D7200E466F83
:1014C0004A514C6F49514B6F4851526F4751516FC0
:1014D0004A6B496B486B476B546B536BD8905137D1
:1014E00052374B374C37533754374E51545DD8A48D
:1014F0007CEF0AF04D51535DD8A086EF0AF04D51B4
:10150000535FD8A054074E51545FD88047374837AF
:1015100049374A37462F6EEF0AF01200D8907433DD
:101520007333752FFBD71200D89079337833773324
:101530007633752FF9D712007751FF08776F765100
:10154000D890FF08766F120029978251805D7E6FD8
:10155000835181597F6FD8A8120029877EC182F1FB
:101560007FC183F1806981698251805D7E6F835183
:1015700081597F6F1200786B796B7A517C03F3503D
:10158000766FF450776F7A517D03F3507727F450DC
:1015900078237B517C03F3507727F4507823D8B01D
:1015A000792B7B517D03F3507827F4507923120077
:1015B0000A6FE4EF0AF000000000000000000000E5
:1015C000000000000000000000000000000000001B
:1015D000000000000000000000000000000000000B
:1015E00000000000000000000000000000000000FB
:1015F00000000000000000000000000000000000EB
:101600000A2FDBEF0AF01200096F10EF0BF0000059
:1016100000000000000000000000000000000000CA
:1016200000000000000000000000000000000000BA
:1016300000000000000000000000000000000000AA
:10164000000000000000000000000000000000009A
:1016500000000000000000000000630ED8EC0AF05B
:10166000092F07EF0BF01200630E3161316F31C1AA
:1016700033F1346B1E950A0E396F356B6AD8010E43
:10168000396F356B1E8565D81200630E3161316F7D
:1016900031C133F1346B1E85EED731C133F1346B78
:1016A0001E95640E396F356B54D8E5D7249F366F7D
:1016B0001E8B362B362F1E9B228B362B362F229BD2
:1016C00031C133F132C134F11E95100E396F270E3E
:1016D000356F1EAD3ED8E80E396F030E356F22BB55
:1016E00007D024BF03D01E85362D1E9522B91E8536
:1016F0001EAD2FD81E9D640E396F356B26B924D0D0
:1017000022BB09D024BF03D01E85362D1E9522B9D9
:101710001E8522BB1E851DD80A0E396F356B22BB74
:1017200009D024BF03D01E85362D1E9522B91E85F3
:1017300022BB1E8528B708D00CD8010E396F356B37
:101740001E8523A506D823952699376B372B22991A
:101750001200386B3551345DD8A00ED004E13951F8
:10176000335DD8A009D03551345F3951335FD8A0EB
:101770003407382B1E85EED7372F1200372B300E4B
:1017800038251EB504D01EBF04D0200E01D0248FF2
:10179000DE6E362F12002E0EDE6E22891200A96E2A
:1017A0002DD0A96E27D02A91010EAA6E690E03D002
:1017B0002591AA6A640EAD6E228F040EA96E9D9AC1
:1017C0009E9A818646D8AECFA8FF818825BF0FD0CC
:1017D00015D88198A8CFADFF36D8A93EF3D781960A
:1017E0009E9A9D8AAA6A259F229F1AEF49F0FF0EB2
:1017F000AD6EF5D7A69EA69CA6801200A69EA69CBE
:10180000A684F29E550EA76EAA0EA76EA682F28E31
:10181000A6B2FED7A6941200948C948E240EAC6EC1
:10182000900EAB6E080EB86EB06A220EAF6EAE6A46
:101830009E6A9D8A1200AC6AAB6A9D9A949C949EA3
:10184000829C829E1200ABAE12000000ACA2FBD7BD
:1018500012009E9A259F426B436B9EBA12000000B5
:101860000000000000009EBA12000000000000000E
:1018700000009EBA120000000000000000009EBAA6
:10188000120000000000000000009EBA1200432F6A
:10189000E4D7422FE1D7AB98AB88258F1200DE6AE0
:1018A0007BC0FAF17AC0F9F134EC5AF00101FAC1C7
:1018B0007BF0F9C17AF01200106F10C17DF0210E9B
:1018C0002DD9D8901035000ED8B0010E2CD9D89053
:1018D000103529D912000F6F0FC17CF0200E1ED9D0
:1018E000000E21D90F511FD91200220E17D9848062
:1018F0007AC083FF809480847BC083FF809480843F
:10190000210E0CD9D8901035000ED8B0010E0BD98D
:10191000D8901037102907D9200E00D9000E03D90E
:101920000F5101D9220EFAD884807AC083FF8094A7
:1019300080847BC083FF809480841200220EEED8C6
:1019400084807AC083FF809480847BC083FF8094EE
:1019500080841200836A80968194809A8494809413
:1019600084921200F4514FEC0EF0F5C11BF11B51A3
:10197000B2DFF7515CEC0CF0E1DF1B2B1B51F6637F
:10198000F6D71B51A8DFF7515CEC0CF0D7DFF5C19F
:101990001BF11B51A0DFF8515CEC0CF0CFDF1B2BCF
:1019A0001B51F663F6D71B5196DFF8515CEC0CF037
:1019B000C5DFF7C11BF11B517FDFF5518CDF95DFD0
:1019C0001B2B1B51F863F7D7F7C11BF11B5174DFB9
:1019D000F65181DF8ADF1B2B1B51F863F7D756ECDA
:1019E00018F01200F4514FEC0EF0350E97D8F7C1F5
:1019F0001BF1D8901B35000ED8B0010E94D8D890AA
:101A00001B3591D8360E8AD8F8C11BF1D8901B35FA
:101A1000000ED8B0010E87D8D8901B3584D8370E69
:101A20007DD8F5C11BF11B517ED8F6C11BF11B51AE
:101A30007AD8200E73D8000E76D8F5C11BF11B5151
:101A400072D8210E6BD8F7C11BF1D8901B35000E50
:101A5000D8B0010E68D8D8901B3565D8220E5ED854
:101A6000F5C11BF1F6C11CF11B511C5F1C2BF7C10A
:101A70001BF1F8C11DF11B511D5F1D2B84801DC181
:101A80001BF17AC083FF809480847BC083FF8094A5
:101A900080847AC083FF809480847BC083FF80949D
:101AA00080841B2FEED71C2FEAD7000E37D856ECB8
:101AB00018F01200350E32D8000E35D8000E33D88B
:101AC000360E2CD8010E2FD83F0E2DD8370E26D823
:101AD000000E29D8EF0E27D8200E20D8000E23D8CC
:101AE000000E21D8210E1AD8000E1DD8000E1BD8CA
:101AF000220E14D88480836A0A0E1D6F1E0E1C6F7E
:101B00001B6B80948084809480841B2FFAD71C2FB9
:101B1000F7D71D2FF3D7000E01D812008490836EE3
:101B20008094808412008480836E8094808412006C
:101B30008096200E04EC0BF081840000809A000057
:101B40008482FA0E04EC0BF0848400008492020E6E
:101B5000D8EC0AF084820A0E04EC0BF0240EDEDFCF
:101B6000020EDCDF000EDFDF000EDDDF030ED6DF4E
:101B7000000ED9DF300ED7DF180ED0DF000ED3DF16
:101B8000280ED1DFF80ECADF000ECDDF0F0ECBDF3F
:101B9000F90EC4DF000EC7DF0F0EC5DF100EBEDF6B
:101BA000000EC1DF000EBFDF0CD884DF8086200E60
:101BB00004EC0BF0050EB2DF000EB5DF010EB3DF53
:101BC0001200700EABDF1F0EAEDF000EACDF710E29
:101BD000A5DF230EA8DF800EA6DF720E9FDF2A0E80
:101BE000A2DF800EA0DF730E99DF150E9CDF110EB1
:101BF0009ADF740E93DF1C0E96DF110E94DF750EC4
:101C00008DDF1B0E90DF150E8EDF760E87DF1A0E2E
:101C10008ADF150E88DF770E81DF1C0E84DF180E39
:101C200082DF780E7BDF210E7EDF150E7CDF120057
:101C3000700E74DF140E77DF000E75DF710E6EDF2D
:101C4000170E71DF000E6FDF720E68DF150E6BDF8F
:101C5000800E69DF730E62DF150E65DF110E63DF24
:101C6000740E5CDF140E5FDF0B0E5DDF750E56DF4A
:101C70001B0E59DF150E57DF760E50DF130E53DFA4
:101C80000E0E51DF770E4ADF1C0E4DDF180E4BDFB4
:101C9000780E44DF150E47DF0E0E45DF12002D6F64
:101CA0002DC12EF1030E2E17000E2E4F500E2E4F6B
:101CB000A00E2E4FF80E2F6F2DC12EF11C0E2E17D9
:101CC0002E432E43000E2E4F040E2E4F080E2E4F85
:101CD0000C0E2E4F100E2E4F140E2E4F200E2E4F88
:101CE0003F0E306F30332F3330332F3330332F33B9
:101CF0002DC12EF12D6B30332D3330332D33303356
:101D00002D33E00E2E172E432E432E432E432E430B
:101D1000000E2E4F040E2E4F080E2E4F0C0E2E4F7F
:101D2000100E2E4F140E2E4F200E2E4F3F0E306FE2
:101D300030332D3330332D3330332D3330332D3397
:101D400030332D332DC17AF02FC17BF01200E26FBA
:101D50001F0EE26505D0010EAA6E200EE25F01D0D3
:101D6000AA6AE251040DF350820FA96EFAEC0BF04F
:101D7000A850AA6A1200E26F1F0EE26505D0010E9C
:101D8000AA6E200EE25F01D0AA6AE251040DF35060
:101D9000820FA96EFAEC0BF0A8CF31F1A92AFAEC68
:101DA0000BF0A8CF32F1AA6A12009A0EE16F298DCA
:101DB00003D0240EE16F299D1E8F5AEC0DF0010E09
:101DC000B96F209920971F99A96BA46B219D219F22
:101DD00088EC2AF0010EE8CF7FF029AD04D0BA0ECE
:101DE0008EEC09F003D01B0E8EEC09F0000EE8CF4C
:101DF0007FF056EC18F0010E29AD000EAA6EB76BFD
:101E000020912093140EE8CF7DF0230EE8CF7CF0D4
:101E100020EE60F0A9C131F1000E29BD200E31275E
:101E200031C1DAF1376B372B366B45EC0BF03A0EDC
:101E3000DE6E200EDE6E4FEC0CF0E151A9258EEC2B
:101E400009F01F0EDA5DD8B415D0260EDA5DD8B4CD
:101E500011D0270EDA5DD8B40DD0280EDA5DD8B4D3
:101E600009D0290EDA5DD8B405D02A0EDA5DD8B4CF
:101E700001D003D0010EDA6F01D0DA6B140EE8CF77
:101E80007DF0410EE8CF7CF020EE60F02B0EDE6E90
:101E90002F0EDE6E2D0EDE6E3A0EDE6E200EDE6E24
:101EA0002B0E21BD2D0EDE6E4FEC0CF0140EE8CF84
:101EB0007DF05F0EE8CF7CF020EE60F0310EDE6E3C
:101EC0002F0EDE6E310EDE6E300EDE6E3A0EDE6EE0
:101ED000200EDE6E310EDE6E300E21BFDE6E200E65
:101EE000DE6E4FEC0CF0140EE8CF7DF07D0EE8CFE7
:101EF0007CF020EE60F0590E87EC09F0A451800FC1
:101F0000A96EFAEC0BF0A8CF31F1A451810FA96EA4
:101F1000FAEC0BF0A8CF32F1329F376B372B366BD0
:101F2000365156EC0BF02C0EDE6E310EA8AE380E8C
:101F3000DA67310EDE6E350EA8BEDE6E420EDE6E44
:101F4000200EDE6E200EDE6E200EDE6E4FEC0CF0EC
:101F5000140EE8CF7DF09B0EE8CF7CF020EE60F011
:101F6000610E87EC09F0A451820FA96EFAEC0BF018
:101F7000A8CF31F1A451830FA96EFAEC0BF0A8CFD2
:101F800032F1376B372B366B365156EC0BF0200E97
:101F9000DE6E200EDE6E200EDE6E4FEC0CF00B0EB1
:101FA0008EEC09F025EC11F047EC1CF053EC30F00E
:101FB00020B30FD020B11AD01FB31AEF49F01FB1D0
:101FC00072EC3CF01FB164EC42F01F911FB91CD0C1
:101FD000EDD7B92B070EB96302D0010EB96FB76BFD
:101FE00047EC1CF025EC11F02093E0D7AA6A010E13
:101FF00029BDAA6EB94F0FD0B94F17D0B94F19D01C
:10200000B94F1BD0B94F39D0020E29AD010EB96FAF
:10201000AA6AC1EF11F0A92BA9BBA96BA951040DA4
:10202000F3CFA4F1010EB96FE4D6217D020EB96F92
:10203000E0D6217F030EB96FDCD6A451800FA96EC4
:10204000FAEC0BF0A8CF31F1A451810FA96EFAEC94
:102050000BF0A8CF32F1329FA451820FA96E31C18B
:10206000A8FFFEEC0BF0A451830FA96E32C1A8FFAC
:10207000FEEC0BF0040EB96FBCD6A451820FA96E12
:10208000FAEC0BF0A8CF31F1A451830FA96EFAEC52
:102090000BF0A8CF32F1A451810FA96EFAEC0BF02E
:1020A000A8CFA5F1010EDA6305D031673169312B74
:1020B000326B16D021AD0BD0010E21BF0A0E315F5D
:1020C000000EA5BF325B7F0E32BF326F09D0010E0A
:1020D00021BF0A0E3127000EA5BF322332BF326B5B
:1020E000A451820FA96E31C1A8FFFEEC0BF0A451E0
:1020F000830FA96E32C1A8FFFEEC0BF0050EB96F7D
:1021000078D6E26F1F0EE26505D0010EAA6E200E92
:10211000E25F01D0AA6AE251040DF350800FA96E6C
:10212000FAEC0BF0A8CF31F1A92AFAEC0BF0A8CF0A
:1021300032F1AA6A1200CE4F14D0CE4F19D012003D
:10214000CE4F0FD0CE4F14D0CE4F19D0CE4F1ED081
:10215000CE4F23D0CE4F28D0CE4F2FD0CE4F34D01D
:1021600012000B0E3DD8EBEC10F0020ECE6F1200F9
:102170000C0E49D8EBEC10F0030ECE6F1200110ECE
:102180002FD8EBEC10F0040ECE6F1200120E3BD8DD
:10219000EBEC10F0050ECE6F1200130E34D8EBEC02
:1021A00010F0060ECE6F1200060ECE6F1D0E3ED83A
:1021B000EBEC10F0070ECE6F1200200E24D8EBECE3
:1021C00010F0080ECE6F1200210E1DD8EBEC10F0AF
:1021D000010ECE6F1200316F31671200F2EF27F05F
:1021E000386FBBEC0EF031C151F132C152F13851B0
:1021F00081EC10F031C153F132C154F103EC0AF01B
:102200001EA7FF0C000C386FBBEC0EF031C153F170
:1022100032C154F1385181EC10F031C151F132C169
:1022200052F103EC0AF01EA7FF0C000C386FBBEC58
:102230000EF031C153F132C154F1CEC151F1526BA4
:1022400003EC0AF01EA7FF0C000C23972399120041
:102250002A978196010EB96F1E9F5AEC0DF0B76B4D
:102260001F99209120931F8F2087A1EC1CF047EC31
:102270001CF02397239956EC11F020B124D01FAF06
:102280001AEF49F01FB172EC3CF01FB164EC42F060
:102290001FB1A8EC3BF01FB1E5EC46F01F911FB950
:1022A0001AEF49F01FB31AEF49F0E5D723A908D078
:1022B0002083B92B060EB96518D0010EB96F15D061
:1022C00023B720811200B94F31EF2DF0B94FEAEF5B
:1022D00033F0B94F28EF13F0B94FBEEF11F0B94FFB
:1022E0007BEF11F0B94F1AEF49F0B76B20B747EC0D
:1022F0001CF023991200010EB96F1E9F5AEC0DF0CD
:10230000B76B1F99209120931F8F2087F5EC1CF04D
:1023100047EC1CF02397239956EC11F0050EB96396
:1023200004D0060EB96F47EC1CF020B115D01FAFDA
:102330008FD71FB172EC3CF01FB164EC42F01FB1BB
:10234000A8EC3BF01FB1E5EC46F01F911FB980D718
:102350001FB31AEF49F0E0D7B94FCEEF14F0B94FE1
:10236000AAEF31F0B94FCCEF32F0B94F25EF4AF078
:10237000B94F25EF4AF0050EB96F6ED72A97010EB7
:10238000B96F1E9F5AEC0DF0BFEC1CF0B76B1F9994
:10239000209120931F8F20870BEC12F0B7EC12F0E6
:1023A00047EC1CF02397239956EC11F020B117D07D
:1023B0001FAF1AEF49F01FB172EC3CF01FB164EC93
:1023C00042F01FB1A8EC3BF01FB1E5EC46F01F91C5
:1023D0001FB91AEF49F01FB31AEF49F0E5D7B94F0B
:1023E000D9EF0EF0B94FD5EF0EF0B94FACD0B94FD1
:1023F00003D0B94F5CD036D02A87220ED1EC0BF037
:10240000A82A060EA86201D0A86AFEEC0BF0040E02
:10241000B96F2399BBD7220ED1EC0BF0A86604D07C
:10242000650E8EEC09F01200A82E04D0660E8EEC1C
:1024300009F01200A82E04D0680E8EEC09F01200EC
:10244000A82E04D08A0E8EEC09F01200A82E04D01B
:10245000980E8EEC09F01200A82E1200EC0E8EECF5
:1024600009F012002AA71AEF49F05AEC0DF088EC97
:102470002AF0010EE8CF7FF0EB0E8EEC09F0000E93
:10248000E8CF7FF0220ED1EC0BF0070EA802F3503C
:10249000C10FB96F070E386FB9518EEC09F0B92B27
:1024A000382FFAD71E0ECEEC49F01AEF49F0010E84
:1024B000B96F1E9F5AEC0DF0DDEC1CF0B76B1F9945
:1024C000209120931F8F208719EC13F0F3EC12F06A
:1024D00047EC1CF02397239956EC11F0040EB963D6
:1024E00004D0060EB96F47EC1CF020B117D01FAF17
:1024F0001AEF49F01FB172EC3CF01FB164EC42F0EE
:102500001FB1A8EC3BF01FB1E5EC46F01F911FB9DD
:10251000BEEF11F01FB31AEF49F0DED7B94F54D018
:10252000B94F74D0B94F07D0B94F28D7B94F26D774
:10253000050EB96F26D7AEEC49F0C9EC49F0030E91
:10254000B96F2399B6D71A0ED1EC0BF0A82A630EF7
:10255000A8640AD0690EA86007D01A0ECFEC0BF061
:10256000030EB96F239912D7640EA86EF6D71A0E10
:10257000D1EC0BF0630EA86421D8690EA8601ED8B8
:102580005F0EE8CF7CF0530EE8CF7DF0000EE8CF71
:102590007EF020EE60F0A8CF31F1326B1E8F030E7B
:1025A00056EC0BF01E9F6B0EDE6E670EDE6E2F0E6E
:1025B000DE6E6C0EDE6E4FEC0CF01200640EA86E38
:1025C0001A0ECFEC0BF012005B0ED1EC0BF0A82A28
:1025D000020EA86401D0A86A5B0ECFEC0BF0010ECE
:1025E000B96F23996BD75B0ED1EC0BF0A86604D0C2
:1025F000030E8BEC09F01200A82E04D0040E8BEC15
:1026000009F01200050E8BEC09F01200270ED1EC38
:102610000BF0A82A010EA86401D0A86A270ECFECFF
:102620000BF02985010EA8622995020EB96F239936
:1026300045D7270ED1EC0BF0A86603D0830E8EECA5
:1026400009F0A806A866F6D6820E8EEC09F01200F4
:10265000010EB96F5AEC0DF010EC1DF0B76B1F991D
:10266000209120931F8F208710EC1DF047EC1CF069
:102670002397239956EC11F020B116D01FAFE8D55F
:102680001FB172EC3CF01FB164EC42F01FB1A8EC3A
:102690003BF01FB1E5EC46F01F911FB928EF11F098
:1026A0001FB31AEF49F0E6D7B94F08D0B94F3AD067
:1026B000B94F16D0B94F05D0B94F20D0030EB96F1E
:1026C000CBD57FEC20F0B96FB96701D0F7D7AAEC72
:1026D0000CF0000E9B6E7E0ED36EFF0000EF00F03C
:1026E0007FEC20F0B96FB96701D0E8D75AEC0DF054
:1026F000190E8EEC09F0A7EC14F0E0D77FEC20F077
:10270000B96FB96701D0DAD75AEC0DF0190E8EEC1B
:1027100009F08CC100F58DC101F520EC80F00101BC
:102720001AEF49F07FEC20F0B96FB96701D0C6D736
:102730005AEC0DF0190E8EEC09F08CC100F58DC12C
:1027400001F520EC80F00101AA6A030EA96E326B3C
:10275000150EE5D8150EE3D8150EE1D8150EDFD805
:10276000150EDDD8150EDBD8010EA86E210ECFECAC
:102770000BF0A86A220ECFEC0BF0A86A230ECFEC68
:102780000BF0000EA86A270ECFEC0BF0A86A5A0EC9
:10279000CFEC0BF0A86A5B0ECFEC0BF0640E1A0EB8
:1027A000CFEC0BF01F0EA86E1B0ECFEC0BF0A86A3F
:1027B0001C0ECFEC0BF0A86A1D0ECFEC0BF0A86A34
:1027C0001E0ECFEC0BF0A86A1F0ECFEC0BF0A86A20
:1027D000200ECFEC0BF0640EA86E240ECFEC0BF0A5
:1027E000250ECFEC0BF0260ECFEC0BF0010ECB6FCD
:1027F000CC6B7F0EA96E326B640E91D81E0E8FD8F3
:10280000F00E8DD8780E8BD8050E89D8070E87D894
:10281000040E326F328F880E82D8040E326F328FE0
:102820004C0E7DD8140E7BD8140E79D81E0E77D896
:102830006E0E75D85A0E73D83C0E71D8640E6FD8D0
:102840000A0E6DD80A0E6BD8130E69D8A00E67D881
:10285000960E65D80A0E63D8060E61D8060E5FD8AC
:10286000000E5DD8000E5BD8000E59D8000E57D868
:10287000140E55D8326B328F000E51D8030E4FD83C
:102880000A0E4DD8000E4BD8010EAA6E7F0EA96E0F
:10289000326B1E0E44D85A0E42D8C70E40D8FF0ED7
:1028A0003ED83E0E3CD8E00E3AD8000E38D8000E86
:1028B00036D8010E34D8000E32D8000E30D8320E81
:1028C000326F328FC80E2BD8650E29D8650E27D8E7
:1028D000A10E25D80F0E23D82A0E21D8000E1FD8FE
:1028E000000E1DD8000E1BD8000E19D8000E17D8E8
:1028F000000E15D8000E13D8000E11D8000E0FD8F8
:10290000000E0DD8000E0BD8000E09D8000E07D807
:10291000000E05D8000E03D8AA6A1AEF49F0316FED
:10292000A92A31C1A8FFFEEC0BF0A92A32C1A8FFE9
:10293000FEEC0BF0A92A31C1A8FFFEEC0BF0A92A8E
:10294000329F32C1A8FFFEEC0BF0326B1200BC6B61
:10295000BD6B020E356F366B400E396F22933A69AC
:102960003A514FEC2CF0392FFAD7C58404EC2DF0F6
:10297000070E04EC0BF0362FEFD7352FECD7229350
:10298000BC6BBD6BFD0E43EC2CF0FD0E43EC2CF04C
:10299000FE0E43EC2CF0BC6BBD6B12005AEC0DF03C
:1029A000209520992097B76B209120931F99219112
:1029B00021932195BA6B88EC2AF0010EE8CF7FF0C5
:1029C0001D0E8EEC09F0000EE8CF7FF0160E8EEC97
:1029D00009F0170E8EEC09F008EC15F0180E8EECCD
:1029E00009F02397239923B7CDEC15F023B999EC7F
:1029F00015F020B942D01FB172EC3CF01FB164EC6D
:102A000042F01F911FB991D01FB31AEF49F0EBD7D5
:102A1000460EE8CF7DF0410EE8CF7CF020EE60F06E
:102A200005C131F1376B372B366B45EC0BF03A0EA5
:102A3000DE6E04C131F1376B372B366B45EC0BF092
:102A4000200EDE6E200EDE6E4FEC0CF0460EE8CF50
:102A50007DF05F0EE8CF7CF020EE60F007C1F1F171
:102A600006C1F2F108C1F3F1E9EC22F0200EDE6EAE
:102A7000200EDE6E4FEC0CF0120007C131F1314F29
:102A80001F0E314F1C0E314F1F0E314F1E0E314F96
:102A90001F0E314F1E0E314F1F0E314F1F0E314F83
:102AA0001E0E314F1F0E314F1E0E314F1F0E066589
:102AB00002D0010E066F200EE8CF7DF09B0EE8CF0E
:102AC0007CF0080E386F95EC1BF0050E0A6F036B57
:102AD0001F911FA1FED71F9126EC15F0460EE8CFDF
:102AE0007DF0410EE8CF7CF020EE60F005C131F1C1
:102AF000376B372B366B45EC0BF03A0EDE6E04C1AC
:102B000031F1376B372B366B45EC0BF03A0EDE6E3E
:102B100003C131F1376B372B366B45EC0BF0200ED0
:102B2000DE6E4FEC0CF00A2FD4D7010EB96F7DEF9B
:102B300011F021B12089BA2BBAC1BBF1BB4F20855E
:102B4000BB4F2185BB4F2183BB4F2181200EE8CF96
:102B50007DF09B0EE8CF7CF020EE60F05E0E87ECFF
:102B600009F0BAC1BBF1BB2F04D05A0E87EC09F0B3
:102B70000FD0BB2F04D05B0E87EC09F009D0BB2F20
:102B800004D05C0E87EC09F003D05D0E87EC09F0F1
:102B90004FEC0CF025EC11F012002399036B21B1DE
:102BA00020D021B310D021B515D020B506D0052BEB
:102BB000170E05651CD0056B1AD0042B3B0E04655F
:102BC00016D0046B14D0062B1F0E066510D0010E14
:102BD000066F0DD0072B0C0E076509D0010E076F8D
:102BE00006D0082B140E086502D00A0E086F08ECF8
:102BF00015F025EC11F012007B6B080E7A6F6BC19B
:102C00007CF16CC17DF1BBEC0AF0100E7627270E2B
:102C1000772371C180F172C181F176C182F177C1F0
:102C200083F1A4EC0AF07EC184F17FC185F129B75C
:102C30001ED0229584C17AF185C17BF184C17CF1DB
:102C400085C17DF1BBEC0AF0110E756F94EC0AF0B2
:102C500084C180F185C181F176C182F177C183F1B0
:102C6000A4EC0AF07EC186F17FC187F117D02285DE
:102C700084C17AF185C17BF184C17CF185C17DF18C
:102C8000BBEC0AF00F0E756F94EC0AF084517627B6
:102C90008551772376C186F177C187F169C180F1CB
:102CA0006AC181F1FA0E826F836BA4EC0AF07EC1D7
:102CB0007AF17FC17BF184C17CF185C17DF1BBECF0
:102CC0000AF076C173F177C174F10C0E756F8EEC5A
:102CD0000AF073C176F174C177F129A70DD0635161
:102CE000762764517723100E7627270E772376C137
:102CF00088F177C189F10FD063C180F164C181F19E
:102D000076C182F177C183F1A4EC0AF07EC176F13D
:102D10007FC177F1E8D765C167F166C168F1C80E78
:102D20006727000E682367C17AF168C17BF184C10F
:102D30007CF185C17DF1BBEC0AF076C173F177C1FE
:102D400074F10D0E756F8EEC0AF073C18AF174C1C7
:102D50008BF161C173F162C174F1010E756F8EEC7C
:102D60000AF073518A2774518B23B80E8A270B0EF1
:102D70008B236FC180F170C181F188C182F189C15B
:102D800083F1A4EC0AF07EC17AF17FC17BF18AC1A4
:102D90007CF18BC17DF1BBEC0AF00C0E756F94ECED
:102DA0000AF029B79CEC0AF0E80E7627030E772389
:102DB00076C18CF177C18DF124AD04D0C5C18CF101
:102DC000C6C18DF16DC167F16EC168F1640E6727F0
:102DD000000E682367C17AF168C17BF186C17CF17E
:102DE00087C17DF1BBEC0AF00B0E756F94EC0AF015
:102DF000239D22B509D0C80E7627000E772376C111
:102E000096F177C197F11200C80E806F816B76C181
:102E100082F177C183F1A4EC0AF029B7238D7EC13A
:102E200096F17FC197F11200C7D8A00E3C6F0C0E2F
:102E3000576FFBD81200D6D856C170F155C16FF14B
:102E40001200BAD8900EF2D7CDD856C172F155C142
:102E500071F11200B1D80D0E576F540E3C6FE5D8CA
:102E6000C1D856C15AF155C159F10D0E576F580EC0
:102E70003C6FDBD8B7D856C15CF155C15BF10D0E84
:102E8000576F640E3C6FD1D8ADD856C15EF155C1B5
:102E90005DF10D0E576F680E3C6FC7D8A3D856C1B1
:102EA00060F155C15FF15AC162F1D8906233D89098
:102EB0006233D890623359C161F1D8805AA1D89059
:102EC0006133D8805AA3D8906133D8805AA5D8905E
:102ED00061335BC163F1D8805CA1D8906333D88043
:102EE0005CA3D8906333D8805CA5D8906333D88036
:102EF0005CA7D8906333D8805CA9D8906333D8801E
:102F00005CABD89063335CC164F1D88059A1D89090
:102F10006433D88059A3D8906433D88059A5D89009
:102F20006433D8906433D8906433D89064335EC1EE
:102F300065F1D8805DAFD8906537D8805DADD89009
:102F40006537666B5EBF66835EBD668160C169F191
:102F5000D8805FAFD89069376A6B60BF6A815DC106
:102F60006BF16B9D5BB16B8D6B9F5BB36B8F6C6B10
:102F70005BB56C815BB76C835BB96C855BBB6C8745
:102F80006E6B5FC16DF16D9F229F12008082000009
:102F9000808E000000000000000000000000809E05
:102FA000120080920000808E0000000000000000EF
:102FB00000000000809E1200E9DFF3DFE7DFF1DFB1
:102FC000E5DFEFDFE3DFEDDFE1DFEBDFDFDFE9DFD1
:102FD000DDDFE7DFDBDFE5DFE4DFE3DFE2DFE1DFEB
:102FE000E0DF1200080E576F10D83CC156F1080EF2
:102FF000576F0BD83CC155F1808E000000000000D7
:10300000000000000000809E1200808E0000000082
:103010000000000000000000809E80A8D89080B8CA
:10302000D8803C37572FF1D71200809E8082030E44
:10303000575F808E000000000000000000000000CC
:10304000809E000000000000000000000000808E54
:10305000000000000000000000000000809E000052
:1030600000000000000000000000808E0000000052
:103070000000000000000000809E3CAF80923CBF3A
:103080008082D8903C37808E000000000000000055
:1030900000000000809E572FF0D71200240EA7ECEE
:1030A0000EF007D0250EA7EC0EF003D0230EA7ECF0
:1030B0000EF02D6F000E2D6301D018D0040E2D637D
:1030C00001D014D0080E2D6301D010D0C00E2D6396
:1030D00001D00CD0C40E2D6301D008D0C80E2D63D2
:1030E00001D004D02D514FEC0EF01200FF0E4FEC2A
:1030F0000EF01200D96FD94F51D0D94F76D0D94F99
:1031000082D0D94F8ED0D94FA2D0D94F2AD0D94F03
:1031100000D08CC14BF18DC14CF10A0E4D6F4E6B3E
:1031200037EC0AF047C14BF148C14CF1A8CF4DF143
:103130004E6B1AEC0AF047C153F148C154F1120E1C
:10314000A7EC0EF0640DF3CF51F1F4CF52F103EC84
:103150000AF01EA703D052EC18F0120056EC18F03B
:103160001200280EA7EC0EF0316F010E316310D063
:103170002BC531F131078FC14CF18EC14BF1640E7B
:103180004D6F4E6B37EC0AF04751315DD8B003D02C
:1031900056EC18F0120052EC18F0120032C134F163
:1031A00031C133F18FC132F18EC131F10BEC2CF012
:1031B00031C151F132C152F12B0EBBEC0EF031C1D5
:1031C00053F132C154F103EC0AF01EA707D056ECBC
:1031D00018F034C132F133C131F1120052EC18F061
:1031E00034C132F133C131F1120065C531F12C0E19
:1031F000A7EC0EF0315DD8B003D056EC18F01200F9
:1032000052EC18F0120032C531F12D0EA7EC0EF081
:10321000315DD8B003D056EC18F0120052EC18F023
:10322000120047C151F148C152F12E0EA7EC0EF029
:10323000640DF3CF53F1F4CF54F103EC0AF01EA761
:1032400003D056EC18F0120052EC18F012001EA732
:1032500008D044C131F12F0EA7EC0EF0315DD8B08B
:1032600003D056EC18F0120052EC18F01200D96F8F
:10327000D7C1D8F1D6C1D7F1D5C1D6F1D4C1D5F1D6
:10328000D3C1D4F1D9C1D3F129A51200C80EE8CF1A
:103290007CF0640EE8CF7DF0000EE8CF7EF0000EEB
:1032A000E8CF7FF056EC18F020EE60F0D351DE6EE0
:1032B000D451DE6ED551DE6ED651DE6ED751DE6E44
:1032C000D851DE6E200EDE6E4FEC0CF012008196AF
:1032D00098EC0DF05AEC0DF056EC18F0000EE8CF1B
:1032E0007FF0850E8EEC09F0860E8EEC09F0870ECD
:1032F0008EEC09F0880E8EEC09F0640EE8CF7CF0BD
:103300000A0EE8CF7DF0000EE8CF7EF0000EE8CF89
:103310007FF056EC18F020EE60F0D351DE6ED45101
:10332000DE6ED551DE6ED651DE6ED751DE6ED851CF
:10333000DE6E2E0EDE6E200EDE6E1EC131F1376B9C
:10334000372B366B4DEC0BF0200EDE6E1FC131F1CA
:10335000376B372B366B4DEC0BF04FEC0CF07D0ED2
:10336000E8CF7CF00A0EE8CF7DF0000EE8CF7EF0CB
:10337000000EE8CF7FF056EC18F020EE60F020C190
:1033800031F1376B372B366B4DEC0BF0200EDE6EC8
:1033900021C131F1376B372B366B4DEC0BF0200E22
:1033A000DE6E22C131F1376B372B366B4DEC0BF0F3
:1033B000200EDE6E23C131F1376B372B366B4DECAF
:1033C0000BF0200EDE6E24C131F1376B372B366BDC
:1033D0004DEC0BF04FEC0CF0960EE8CF7CF00A0EA3
:1033E000E8CF7DF0000EE8CF7EF0000EE8CF7FF052
:1033F00056EC18F020EE60F025C131F1376B372B19
:10340000366B4DEC0BF0200EDE6E26C131F1376BC2
:10341000372B366B4DEC0BF0200EDE6E27C131F1F1
:10342000376B372B366B4DEC0BF0200EDE6E28C160
:1034300031F1376B372B366B4DEC0BF0200EDE6E17
:1034400029C131F1376B372B366B4DEC0BF04FEC5C
:103450000CF023A7FED7819812004EEC18F00B0E4B
:103460008BEC09F0560E8EEC09F0570E8EEC09F03D
:1034700056EC18F01200000EE8CFF4F13C0EE8CF45
:10348000F5F1EF0EE8CFF6F15A0EE8CFF7F19F0E07
:10349000E8CFF8F1F2EC0CF07AEC1DF0E7EC1DF05F
:1034A0001200E9DF4EEC18F0540E8EEC09F056ECE9
:1034B00018F0080E386F910EE8CF7CF0000EE8CFC0
:1034C0007DF095EC1BF012002AB512007A0E37EC55
:1034D00019F0B90EE8CF7CF0770EE8CF7DF0010E41
:1034E000E8CF7EF0000EE8CF7FF056EC18F020EE2B
:1034F00060F022C531F1376B372B366B4DEC0BF09A
:10350000270EDE6E4FEC0CF0000EE8CF7EF01200BE
:10351000B2DF4EEC18F0550E8EEC09F056EC18F0B8
:1035200012002AB512001FBF32D0790E37EC19F005
:103530004EEC18F0520E8EEC09F056EC18F0760EA8
:10354000E8CF7CF05E0EE8CF7DF0010EE8CF7EF094
:10355000000EE8CF7FF0060E7AEC18F020EE60F057
:103560002BC531F1376B372B366B34EC0BF06D0E0E
:10357000DE6E24C531F1376B372B366B34EC0BF034
:10358000270EDE6E4FEC0CF0000EE8CF7EF02AB571
:103590001200780E37EC19F0B90EE8CF7CF0770EF8
:1035A000E8CF7DF0010EE8CF7EF0000EE8CF7FF08F
:1035B00056EC18F020EE60F031C531F1C70E3161E4
:1035C000316F1E9F376B372B366B4DEC0BF0270E90
:1035D000DE6E4FEC0CF032C531F1080EA7EC0EF0A8
:1035E000316101D066D7770E37EC19F0910EE8CF34
:1035F0007CF0000EE8CF7DF0000EE8CF7EF0030EE9
:103600007AEC18F020EE60F0470EDE6E460EDE6EAD
:103610003A0EDE6E32C531F1376B372B366B4DEC1F
:103620000BF0250EDE6E200EDE6E4FEC0CF056EC2D
:1036300018F01200410EE8CF7CF0690EE8CF7DF063
:10364000000EE8CF7EF056EC18F020EE60F0EBC1F3
:1036500031F11E8F376B372B366B4DEC0BF01E9F05
:103660006D0EDE6E690EDE6E6E0EDE6E200EDE6E8E
:103670004FEC0CF05F0EE8CF7CF0640EE8CF7DF0ED
:10368000000EE8CF7EF056EC18F020EE60F0ECC1B2
:1036900031F11E8F376B372B366B4DEC0BF01E9FC5
:1036A0006D0EDE6E200EDE6E4FEC0CF012002AB5B1
:1036B0001200760E37EC19F05A0EE8CF7CF0000EAF
:1036C000E8CF7DF0000EE8CF7EF0050E7AEC18F022
:1036D00020EE60F02D0E1EB72B0EDE6E44C131F1D0
:1036E000376B372B366B34EC0BF0530E87EC09F04D
:1036F0004FEC0CF056EC18F02A891200080E386FC7
:103700005A0EE8CF7CF0000EE8CF7DF02A990DD05C
:10371000060E386F020EE8CF7CF0730EE8CF7DF016
:1037200004D0010EE8CF7EF003D0000EE8CF7EF08B
:1037300020EE60F0200EDE6E382FFCD74FEC0CF040
:10374000000EE8CF7EF01200270EA7EC0EF0316FCE
:10375000010E316312001FBF1200020EE8CF7CF091
:10376000400EE8CF7DF0000EE8CF7EF0000EE8CFEF
:103770007FF056EC18F020EE60F005C131F1376BA8
:10378000372B366B45EC0BF03A0EDE6E04C131F18F
:10379000376B372B366B45EC0BF04FEC0CF012000F
:1037A000630E37EC19F0320EE8CF7CF0010EE8CF53
:1037B0007DF0000EE8CF7EF0000EE8CF7FF056ECF3
:1037C00018F020EE60F019C131F1316705D01AC14F
:1037D00031F1316701D039D02CAF34D0B62F01D0C0
:1037E00034D02C8F060EB66125D819C131F11AC11B
:1037F00032F1E0EC09F0325131C132F1316F490E52
:10380000DE6E6E0EDE6E740EDE6E3A0EDE6E376BA0
:10381000372B366B45EC0BF03A0EDE6E32C131F1D0
:10382000376B372B366B45EC0BF0200EDE6E4FEC12
:103830000CF012002C9F050EB66F12002C8F050E97
:10384000B66F1200B62F01D0CCD72C9F060EB661F2
:10385000F5DF05C131F1376B372B366B45EC0BF0DB
:103860003A0EDE6E04C131F1376B372B366B45EC07
:103870000BF03A0EDE6E03C131F1376B372B366B2E
:1038800045EC0BF0200EDE6E4FEC0CF01200230E18
:10389000E8CF7CF0000EE8CF7DF0000EE8CF7EF0A0
:1038A000000EE8CF7FF056EC18F020EE60F0B80E76
:1038B000DE6E4FEC0CF0410EE8CF7CF020EE60F0B5
:1038C000B80EDE6E4FEC0CF05F0EE8CF7CF020EE11
:1038D00060F0B80EDE6E4FEC0CF07D0EE8CF7CF0A1
:1038E00020EE60F0B80EDE6E4FEC0CF09B0EE8CFD1
:1038F0007CF056EC18F020EE60F0B80EDE6E4FEC67
:103900000CF0B90EE8CF7CF020EE60F0B80EDE6E61
:103910004FEC0CF0B9C138F1384F230E384F410E3F
:10392000384F5F0E384F7D0E384F9B0E384FB90E13
:10393000E8CF7CF020EE60F0B70EDE6E4FEC0CF0BE
:10394000120088EC2AF0010EE8CF7FF0050E8EEC15
:1039500009F0000EE8CF7FF0060E8EEC09F0070E9E
:103960008EEC09F0090E8EEC09F00A0E8EEC09F0CF
:103970008E0E8EEC09F00B0E8EEC09F0120088EC26
:103980002AF0010EE8CF7FF0620E8EEC09F0000EF7
:10399000E8CF7FF0630E8EEC09F0990E8EEC09F003
:1039A000140E8BEC09F0640E8EEC09F08E0E8EEC8A
:1039B00009F00B0E8EEC09F0120088EC2AF0010ED3
:1039C000E8CF7FF0020E8BEC09F0000EE8CF7FF01D
:1039D000010E8BEC09F0810E8EEC09F0BB0E8EEC23
:1039E00009F00B0E8EEC09F0120088EC2AF0010EA3
:1039F000E8CF7FF0900E8EEC09F0000EE8CF7FF05C
:103A0000080E8EEC09F06E0E8EEC09F0710E8EEC45
:103A100009F0F70E8EEC09F00B0E8EEC09F0120097
:103A200088EC2AF0010EE8CF7FF01C0E8EEC09F036
:103A3000000EE8CF7FF0150E8EEC09F0F50E8EEC3F
:103A400009F01C0E8BEC09F01D0E8BEC09F01E0E1C
:103A50008BEC09F00B0E8EEC09F0120088EC2AF0CA
:103A6000010EE8CF7FF0F80E8EEC09F0000EE8CFE3
:103A70007FF0F90E8EEC09F0150E8BEC09F0160EA6
:103A80008BEC09F0170E8BEC09F0180E8BEC09F09B
:103A90000B0E8EEC09F01200650E37EC19F096C192
:103AA00098F197C199F1640EE8CF7CF0010EE8CF50
:103AB0007DF0000EE8CF7EF0000EE8CF7FF056ECF0
:103AC00018F020EE60F02D0E23BDDE6E96C131F1B0
:103AD00097C132F1030E376F1E8F020E56EC0BF0BA
:103AE0001E9FB00EDE6E430EDE6E200EDE6E4FECBD
:103AF0000CF012002AB51200750E37EC19F096C1C1
:103B000098F197C199F1D80EE8CF7CF0410EE8CF3B
:103B10007DF0000EE8CF7EF0000EE8CF7FF056EC8F
:103B200018F020EE60F02D0E23BDDE6E96C131F14F
:103B300097C132F1030E376F1E8F020E56EC0BF059
:103B40001E9FB00EDE6E200EDE6E4FEC0CF01200EB
:103B5000740E37EC19F0780EE8CF7CF0000EE8CF49
:103B60007DF0000EE8CF7EF0040E7AEC18F020EE27
:103B700060F0700EDE6E700EDE6E4F0EDE6E320E78
:103B8000DE6E3A0EDE6E47C131F148C132F1288750
:103B9000010E56EC0BF02897200EDE6E4FEC0CF069
:103BA00056EC18F012000A0E386F780EE8CF7CF051
:103BB000000EE8CF7DF095EC1BF01200C00EE8CFB0
:103BC0007CF0410EE8CF7DF0050E386FAED529BBF5
:103BD00012002AB51200000EE8CF7FF005EC1EF0AF
:103BE0002BAD12002A0EA7EC0EF0316F010E3163DF
:103BF00012002C772CA71200010EE8CF7FF005EC05
:103C00001EF0000EE8CF7FF01200730E37EC19F0B3
:103C1000C00EE8CF7CF0410EE8CF7DF0000EE8CF7B
:103C20007EF056EC18F0640E10C531F1D880315595
:103C300011C531F1D8803157090EA7EC0EF011C52E
:103C400032F1316501D005D0326703D0050E386FEF
:103C50006CD5150E31630ED032670CD020EE60F0BB
:103C6000080E84EC09F0200E2BBD2A0EDE6E4FEC00
:103C70000CF0120020EE60F01E8F376B372B366B86
:103C80004DEC0BF02F0EDE6E11C531F1376B372B7B
:103C9000366B4DEC0BF0200E2BBD2A0EDE6E1E9FF8
:103CA0004FEC0CF01200550EE8CF7DF0000EE8CF7F
:103CB0007EF0000EE8CF7FF0AA6A220ED1EC0BF066
:103CC000A86620D07D0EE8CF7CF056EC18F020EEF0
:103CD00060F04F0EDE6E4FEC0CF0550EE8CF7DF02D
:103CE000000EE8CF7EF0000EE8CF7FF0960EE8CF12
:103CF0007CF056EC18F020EE60F0430EDE6E4FECD8
:103D00000CF01200A806A86601D01200A806A8664A
:103D100029D07D0EE8CF7CF056EC18F020EE60F054
:103D2000430EDE6E550EE8CF7DF0000EE8CF7EF03C
:103D3000000EE8CF7FF04FEC0CF0960EE8CF7CF051
:103D400056EC18F020EE60F0430EDE6E550EE8CF14
:103D50007DF0000EE8CF7EF0000EE8CF7FF04FEC54
:103D60000CF01200A806A86601D01200A806A866EA
:103D700029D07D0EE8CF7CF020EE60F0470EDE6E9D
:103D8000550EE8CF7DF0000EE8CF7EF0000EE8CFB4
:103D90007FF056EC18F04FEC0CF0960EE8CF7CF06C
:103DA00020EE60F0460EDE6E550EE8CF7DF0000E80
:103DB000E8CF7EF0000EE8CF7FF056EC18F04FEC25
:103DC0000CF012007D0EE8CF7CF020EE60F0470E84
:103DD000DE6E550EE8CF7DF0000EE8CF7EF0000ECF
:103DE000E8CF7FF056EC18F04FEC0CF0960EE8CFD1
:103DF0007CF020EE60F0460EDE6E550EE8CF7DF0D2
:103E0000000EE8CF7EF0000EE8CF7FF056EC18F001
:103E10004FEC0CF01200000EE8CFF4F1190EE8CFD1
:103E2000F5F1780EE8CFF6F1520EE8CFF7F19F0EDC
:103E3000E8CFF8F1F2EC0CF028B15ED06D0E37EC63
:103E400019F05A0EE8CF7DF0000EE8CF7EF01E8FFD
:103E5000020E0A6F000E096F326B322B040E0A2716
:103E600020EE60F0470EDE6E32C131F1376B372B3A
:103E7000366B4DEC0BF03A0EDE6E200EDE6E0AC194
:103E8000A9FFFAEC0BF0A8CF31F1376B372B366B6B
:103E90004DEC0BF02F0EDE6EA92AFAEC0BF0A8CF3A
:103EA00031F1376B372B366B4DEC0BF01B0ED1EC31
:103EB0000BF032C131F1A832312FFDD7D8B004D088
:103EC0004A0E4FEC0EF002D056EC18F0210ED1EC59
:103ED0000BF0A850326301D009D0190E09275A0EF1
:103EE000E8CF7DF009C17CF04FEC0CF056EC18F0F7
:103EF000050E3263B2D712005A0EE8CF7DF0000EE5
:103F0000E8CF7EF01E8F230E0A6F000E096FE56B5F
:103F10000A2BE52B190E09275A0EE8CF7DF009C1AF
:103F20007CF020EE60F0530EDE6E500EDE6EE5C1CA
:103F300031F1376B372B366B4DEC0BF03A0EDE6EF2
:103F4000200EDE6E0AC1A9FFFAEC0BF0A8CF31F10A
:103F5000326B030E56EC0BF04FEC0CF0030EE563E6
:103F6000D7D7210ED1EC0BF0A8CFD0F1D005040D9E
:103F7000F350070FA96EFAEC0BF0A8CF32F1D00581
:103F8000040DF350060FA96EFAEC0BF0A8CF31F137
:103F90005A0EE8CF7DF0640EE8CF7CF020EE60F0A2
:103FA000440EDE6E690EDE6E6C0EDE6E3A0EDE6E56
:103FB000376B372B366B4DEC0BF02F0EDE6E32C1AC
:103FC00031F1376B372B366B4DEC0BF04FEC0CF0BF
:103FD0001E9F1200710E37EC19F029BB120027BF8B
:103FE000120028A123D0870EE8CF7CF05A0EE8CF2C
:103FF0007DF0000EE8CF7EF0000EE8CF7FF056ECAB
:1040000018F020EE60F0240ED1EC0BF0A8CF31F1C7
:10401000326B030E56EC0BF0420EDE6E610EDE6E5E
:10402000720EDE6E1E9F4FEC0CF057D0820EE8CF62
:104030007CF0640EE8CF7DF0010EE8CF7EF0000E3C
:10404000E8CF7FF056EC18F0210ED1EC0BF0A8CFA2
:10405000D0F1D005040DF350070FA96EFAEC0BF068
:10406000A8CF11F5D005040DF350060FA96EFAEC98
:104070000BF0A8CFCFF111C50AF1D880640E0A5514
:10408000D880A856A8CF10F5640E10C531F1D8809D
:10409000315511C531F1D880315711C532F1150EA6
:1040A000316306D0326704D0090E8BEC09F015D0CD
:1040B00020EE60F01E8F376B372B366B4DEC0BF01C
:1040C0002F0EDE6E11C531F1376B372B366B4DEC91
:1040D0000BF01E9F4FEC0CF000D0000EE8CFF4F177
:1040E0007A0EE8CFF5F1AF0EE8CFF6F1520EE8CF39
:1040F000F7F19F0EE8CFF8F1B2EC0CF01200000ED1
:10410000E8CFF4F1440EE8CFF5F1920EE8CFF6F1E6
:10411000220EE8CFF7F1650EE8CFF8F1F2EC0CF0E3
:10412000230EA7EC0EF0E8CFF4F1460EE8CFF5F140
:10413000900EE8CFF6F1230EE8CFF7F1640EE8CF4A
:10414000F8F1B2EC0CF08F0E8EEC09F0910E8EECC3
:1041500009F0920E8EEC09F0010EB96F000EE8CF57
:10416000F4F1600EE8CFF5F18F0EE8CFF6F1270EEF
:10417000E8CFF7F1330EE8CFF8F1F2EC0CF0B9C16B
:1041800038F1600E384F600E384F780EE8CF7CF073
:10419000270EE8CF7DF0000EE8CF7EF0000EE8CFCE
:1041A0007FF056EC18F020EE60F0B70EDE6E4FECAC
:1041B0000CF01F992091209323992397B76B640EDD
:1041C00004EC0BF053EC30F020B315D020B10ED03E
:1041D0001FB172EC3CF01FB164EC42F01F911FB9AB
:1041E00003D01FB301D0EED7000C010CB94FFCD7A0
:1041F000B94FFBD7F9D7B92B030EB96302D0010E23
:10420000B96FACD7720E37EC19F08FC132F18EC195
:1042100031F10BEC2CF0270E326171D02ABBA6ECE9
:1042200021F02A9B20EE60F0030E526FE80E516FD2
:1042300032C154F131C153F1532B000E542303EC1E
:104240000AF01EA780D8180EE8CF7CF0000EE8CF49
:104250007DF0020EE8CF7EF0000EE8CF7FF0010E79
:104260007AEC18F0000E526F630E516F32C154F1A8
:1042700031C153F103EC0AF01EA70AD01E8F288724
:10428000376B372B366B365156EC0BF01E9F02D036
:10429000300EDE6E4FEC0CF02897010EE8CF7EF06A
:1042A000320EE8CF7CF0280EE8CF7DF0010E7AECDC
:1042B00018F08FC132F18EC131F10BEC2CF020EEF1
:1042C00060F02E0EDE6E000E526F090E516F32C17D
:1042D00054F131C153F103EC0AF01EA707D0040ECC
:1042E000376F2385000E56EC0BF002D0300EDE6ED9
:1042F0004FEC0CF02395000EE8CF7EF012002AABB5
:10430000A6EC21F020EE60F0180EE8CF7CF0000E55
:10431000E8CF7DF0020EE8CF7EF0000EE8CF7FF010
:10432000010E7AEC18F028871E8F376B372B366B0F
:10433000365156EC0BF01E9F4FEC0CF02897000EF8
:10434000E8CF7EF01200200EDE6E1200000EE8CFE5
:10435000F4F1180EE8CFF5F15A0EE8CFF6F1000EA1
:10436000E8CFF7F15A0EE8CFF8F1F2EC0CF02A8B17
:104370001200680E37EC19F0960EE8CF7CF0010EB3
:10438000E8CF7DF0000EE8CF7EF0000EE8CF7FF0A2
:1043900056EC18F020EE60F00E0E87EC09F0200EBF
:1043A000DE6E20C531F121C532F1E0EC09F01E8F3F
:1043B000315132C131F1326F376B372B366B4DECE7
:1043C0000BF03A0EDE6E32C131F1376B372B366BA4
:1043D00045EC0BF01E9F4FEC0CF01200670E37EC13
:1043E00019F07D0EE8CF7CF0010EE8CF7DF0000ED5
:1043F000E8CF7EF0000EE8CF7FF056EC18F020EE0C
:1044000060F0230E87EC09F0200EDE6ECBC131F197
:10441000CCC132F1E0EC09F01E8F315132C131F1E3
:10442000326F376B372B366B4DEC0BF03A0EDE6E7E
:1044300032C131F1310731BF316B376B372B366BFE
:1044400045EC0BF01E9F4FEC0CF012001FBD12004C
:10445000620E37EC19F0190EE8CF7CF0010EE8CFB0
:104460007DF0000EE8CF7EF0000EE8CF7FF056EC36
:1044700018F020EE60F08CC131F18DC132F11E8F49
:10448000376B372B366B365156EC0BF01E9F6D0E8B
:10449000DE6E620EDE6E610EDE6E720EDE6E200E5F
:1044A000DE6E4FEC0CF01200660E37EC19F01F0EAA
:1044B000A7EC0EF0316F010E316323D0AF0EE8CFC1
:1044C0007CF0010EE8CF7DF0000EE8CF7EF0000E0C
:1044D000E8CF7FF056EC18F020EE60F0C1C131F16A
:1044E000C2C132F1010E376F23851E8F020E56ECCA
:1044F0000BF01E9F560EDE6E200EDE6E4FEC0CF0A3
:104500001200230EA7EC0EF0E8CFF4F1AE0EE8CFC8
:10451000F5F1C20EE8CFF6F1010EE8CFF7F1200E6B
:10452000E8CFF8F1B2EC0CF0040E516F100E526FA0
:10453000C1C153F1C2C154F103EC0AF01EB746D019
:10454000AC0E536F0D0E546FC1C151F1C2C152F187
:1045500003EC0AF01EB737D04FC14BF150C14CF1FC
:10456000140E4D6F4E6B37EC0AF047C10AF10A2B5F
:10457000030E0A650A6F230EA7EC0EF0E8CFF4F1E4
:10458000B50EE8CFF5F1BB0EE8CFF6F1200EE8CF7F
:10459000F7F1220EE8CFF8F1F2EC0CF0220EA7ECC6
:1045A0000EF0E8CFF4F1B00EE8CFF5F1C00EE8CF91
:1045B000F6F1020EE8CFF7F10AC1F8F1F2EC0CF0D7
:1045C00056EC18F01200010E0A6FD5D71E0E0A6FB6
:1045D000D2D75B0ED1EC0BF0A8660ED0F1C131F151
:1045E0001E8F376B372B366B45EC0BF01E9F2F0E53
:1045F000DE6EF2C131F112D05B0ED1EC0BF0A82EC1
:104600001FD0F2C131F11E8F376B372B366B45EC63
:104610000BF01E9F2F0EDE6EF1C131F11E8F376B36
:10462000372B366B45EC0BF01E9F2F0EDE6EF3C161
:1046300031F11E8F376B372B366B45EC0BF01200C8
:10464000F3C131F11E8F376B372B366B45EC0BF016
:104650001E9F2F0EDE6EF1C131F11E8F376B372B8F
:10466000366B45EC0BF01E9F2F0EDE6EF2C131F162
:104670001E8F376B372B366B45EC0BF012005B0E41
:10468000D1EC0BF0A86615D0F1C131F11E8F376B5C
:10469000372B366B45EC0BF01E9F2F0EDE6EF2C1F2
:1046A00031F11E8F376B372B366B45EC0BF01E9FAD
:1046B00012005B0ED1EC0BF0A82EE6D7F2C131F15F
:1046C0001E8F376B372B366B45EC0BF01E9F2F0E72
:1046D000DE6EF1C131F11E8F376B372B366B45EC37
:1046E0000BF01E9F1200640E37EC19F04B0EE8CF52
:1046F0007CF0010EE8CF7DF0000EE8CF7EF0000EDA
:10470000E8CF7FF056EC18F020EE60F007C1F1F131
:1047100006C1F2F108C1F3F1E9EC22F04FEC0CF024
:104720001200000EE8CFF4F1000EE8CFF5F11A0EFA
:10473000E8CFF6F1410EE8CFF7F1640EE8CFF8F1DB
:10474000F2EC0CF012002AB51200700E37EC19F0E2
:10475000B80EE8CF7CF0000EE8CF7DF0010EE8CF78
:104760007EF0000EE8CF7FF056EC18F020EE60F0FF
:1047700090C131F191C132F10BEC2CF01E8F2385E9
:10478000030E56EC0BF01E9F1E9D4FEC0CF0000E1E
:10479000E8CF7EF012001FBF1200410E37EC19F077
:1047A00027BF92D029BB90D0260EA7EC0EF0316F18
:1047B000010E316301D088D0A4C131F1A5C132F11D
:1047C0001E9F20EE60F0376B372B366B1E8D3651F7
:1047D00056EC0BF0140EE8CF7CF0780EE8CF7DF0AD
:1047E000010EE8CF7EF056EC18F04FEC0CF0000E06
:1047F000E8CF7EF012001FBF12004EEC18F08C0EB6
:104800008EEC09F056EC18F0550EE8CF7CF05A0EFD
:10481000E8CF7DF0010EE8CF7EF056EC18F0DFC156
:1048200031F11E9F20EE60F0376B372B366B4DEC6D
:104830000BF03A0EDE6EE0C131F1376B372B366B81
:1048400045EC0BF04FEC0CF0000EE8CF7EF01200C0
:10485000000EE8CFF4F13C0EE8CFF5F1770EE8CF8B
:10486000F6F15A0EE8CFF7F19F0EE8CFF8F1F2EC2F
:104870000CF012004EEC18F08B0E8EEC09F056EC9A
:1048800018F0910EE8CF7CF05A0EE8CF7DF0010EC3
:10489000E8CF7EF056EC18F0DAC131F120EE60F08E
:1048A000376B372B366B4DEC0BF03A0EDE6EDBC1FF
:1048B00031F1376B372B366B45EC0BF04FEC0CF0CE
:1048C000000EE8CF7EF01200A4C131F1A5C132F193
:1048D0001E9F1E8D20EE60F0376B372B366B1E8DC2
:1048E000365156EC0BF03A0EDE6EA6C131F1376B45
:1048F000372B366B45EC0BF0140EE8CF7CF05A0EDC
:10490000E8CF7DF0010EE8CF7EF056EC18F04FECCA
:104910000CF01E9D000EE8CF7EF01200000EE8CFD6
:10492000F4F1360EE8CFF5F1660EE8CFF6F13E0E63
:10493000E8CFF7F19F0EE8CFF8F1F2EC0CF012009F
:104940001FBF1200560E37EC19F04EEC18F01B0E7C
:104950008BEC09F056EC18F0500EE8CF7CF06E0EA0
:10496000E8CF7DF0000EE8CF7EF056EC18F020EE98
:1049700060F017C131F118C132F1020E315F000E43
:10498000325BE0EC09F031C10AF132C131F1326B36
:10499000000E1E9F1E8D376B372B366B1E8D3651CA
:1049A00056EC0BF03A0EDE6E0AC131F1376B372B45
:1049B000366B45EC0BF01E9F4FEC0CF0550E37ECB0
:1049C00019F0500EE8CF7CF03E0EE8CF7DF0000EDF
:1049D000E8CF7EF056EC18F020EE60F092C131F195
:1049E00093C132F10BEC2CF01E8F2385030E56EC95
:1049F0000BF01E9F6D0EDE6E200EDE6E4FEC0CF087
:104A00001200610E37EC19F0000EE8CF7CF0010EB9
:104A1000E8CF7DF0000EE8CF7EF0000EE8CF7FF00B
:104A200056EC18F020EE60F0060E84EC09F0AA6A4D
:104A3000A96AFAEC0BF0A8CF31F1A92AFAEC0BF035
:104A4000A8CF32F11E8F376B372B366B365156ECB1
:104A50000BF0200EDE6E560EDE6E010E316F1E8FD5
:104A6000376B372B366B4DEC0BF02E0EDE6E480E8F
:104A7000316F1E8F376B372B366B45EC0BF01E9F5B
:104A80004FEC0CF012006F0E37EC19F091EC23F0A4
:104A900028B10AD0200E8EEC09F01F0E8EEC09F022
:104AA0007A0E8EEC09F009D0EE0E8EEC09F01F0E96
:104AB0008EEC09F0890E8EEC09F0210E8EEC09F0D7
:104AC000220E8EEC09F012006F0E37EC19F0F00E8A
:104AD0008EEC09F0F10E8EEC09F0190E8BEC09F05A
:104AE000930E8EEC09F0F40E8EEC09F01200640EB9
:104AF000E8CF7DF0000EE8CF7CF0000EE8CF7EF02E
:104B000056EC18F020EE60F0530EDE6E650EDE6E91
:104B10006C0EDE6E180ED1EC0BF0A8CF31F11E9F9B
:104B2000376B372B366B34EC0BF02F0EDE6E190E15
:104B3000D1EC0BF0A8CF31F1376B372B366B34EC5F
:104B40000BF04FEC0CF07B0E8EEC09F07C0E8EEC33
:104B500009F07D0E8EEC09F07E0E8EEC09F012004D
:104B6000FE0E8EEC09F0FA0E8EEC09F0FB0E8EECC8
:104B700009F0FC0E8EEC09F0FD0E8EEC09F012002F
:104B8000230EA7EC0EF0E8CFF4F132C17CF07C2BC1
:104B90007CC0F5F17CC0F6F1120EF6277A0EE8CF54
:104BA000F7F13127D8B0316931078A0E3161316FA1
:104BB00031C1F8F1F2EC0CF0000EE8CFF4F17CC05A
:104BC000F5F17CC0F6F1120EF62731C1F7F1F72BA3
:104BD0008B0EE8CFF8F1F2EC0CF01200EE0EE8CFFD
:104BE000F6F103D0B80EE8CFF6F1000EE8CFF4F1FD
:104BF00032C1F5F1640EE8CFF7F19F0EE8CFF8F17E
:104C0000F2EC0CF027811200000EE7630CD000D00C
:104C10006E0E37EC19F02BC531F131671AD0EF0E5B
:104C20008EEC09F01200E4C1E8F1E6C1E9F1E70E0B
:104C3000E56F030EE627190EE527E42B4EEC26F070
:104C40000F0EE463F6D7E8C1E4F1E9C1E6F127818C
:104C50001200E76B1D0EA7EC0EF0E66FE469E70E9D
:104C6000E56F190EE527E42B4EEC26F01D0EA7ECA0
:104C70000EF0E66F040EE66103D0030EE66F03D07C
:104C8000060EE66FE42B030EE627190EE527E42B4C
:104C90004EEC26F0070EE463F6D712001E8F640E6A
:104CA000E8CF7DF0E5C17CF0E5C132F12BC5E8FF2E
:104CB000E661EEEF25F0E6C131F120EE60F0376BF2
:104CC000372B366B45EC0BF06D0EDE6E4FEC0CF0B7
:104CD0008C0EE8CF7DF0E5C17CF010EEE1F0E45100
:104CE000E3CF31F1312B20EE60F0376B372B366B91
:104CF00045EC0BF0270EDE6E4FEC0CF0316740DF19
:104D000012006E0E37EC19F02BC531F1316704D06B
:104D1000EF0E8EEC09F01200E469E70EE56F190E54
:104D2000E527E42B98EC26F0050EE463F8D7120093
:104D30001E8F640EE8CF7DF0E5C17CF0E5C132F155
:104D400015EE2BF0E451E3CF31F13151D8B4F2EF4D
:104D500025F020EE60F0376B372B366B4DEC0BF007
:104D60006D0EDE6E4FEC0CF08C0EE8CF7DF0E5C1E1
:104D70007CF015EE24F0E451E3CF31F120EE60F049
:104D8000376B372B366B45EC0BF0270EDE6E4FEC96
:104D90000CF03167F5DE12006D0E37EC19F0640E81
:104DA000E8CF7DF0000EE8CF7EF01E8F020E0A6F76
:104DB000E70E096F326B322B040E0A27190E0927F2
:104DC000640EE8CF7DF009C17CF020EE60F0470E64
:104DD000DE6E32C131F1376B372B366B4DEC0BF099
:104DE0003A0EDE6E0AC1A9FFFAEC0BF0A8CF31F142
:104DF000376B372B366B4DEC0BF02F0EDE6EA92A7E
:104E0000FAEC0BF0A8CF31F1376B372B366B4DEC4A
:104E10000BF0A906FAEC0BF0070E7AEC18F01B0E5B
:104E2000D1EC0BF032C131F1A832312FFDD74A0E4F
:104E3000D8A04FEC0EF04FEC0CF056EC18F0050E2D
:104E40003263B9D71200640EE8CF7DF0000EE8CFD0
:104E50007EF01E8F230E0A6FE70E096FE46B0A2B9C
:104E6000E42B190E092709C17CF0640EE8CF7DF010
:104E700020EE60F0530EDE6E500EDE6EE4C131F1B6
:104E8000376B372B366B4DEC0BF03A0EDE6E0AC1EA
:104E9000A9FFFAEC0BF0A8CF31F1326B030E56EC00
:104EA0000BF04FEC0CF0030EE463D9D71E9F1200F9
:104EB000000EE8CFF4F1000EE8CFF5F1B90EE8CF1F
:104EC000F6F1520EE8CFF7F19F0EE8CFF8F1F2ECD1
:104ED0000CF012006C0E37EC19F0000EE8CF7CF0ED
:104EE000550EE8CF7DF0000EE8CF7EF0000EE8CF43
:104EF0007FF056EC18F020EE60F0B80EDE6E4FEC4E
:104F00000CF0190EE8CF7CF0550EE8CF7DF0000EC6
:104F1000E8CF7EF0000EE8CF7FF056EC18F020EEE0
:104F200060F0B80EDE6E4FEC0CF0320EE8CF7CF085
:104F3000550EE8CF7DF0000EE8CF7EF0000EE8CFF2
:104F40007FF056EC18F020EE60F0B80EDE6E4FECFD
:104F50000CF04B0EE8CF7CF0550EE8CF7DF0000E44
:104F6000E8CF7EF0000EE8CF7FF056EC18F020EE90
:104F700060F0B80EDE6E4FEC0CF0640EE8CF7CF003
:104F8000550EE8CF7DF0000EE8CF7EF0000EE8CFA2
:104F90007FF056EC18F020EE60F0B80EDE6E4FECAD
:104FA0000CF0B9C138F1000E384F000E384F190E11
:104FB000384F320E384F4B0E384F640EE8CF7CF02E
:104FC000550EE8CF7DF0000EE8CF7EF0000EE8CF62
:104FD0007FF056EC18F020EE60F0B70EDE6E4FEC6E
:104FE0000CF01200000EE8CFF4F1380EE8CFF5F126
:104FF000580EE8CFF6F1450EE8CFF7F1730EE8CF83
:10500000F8F1F2EC0CF0230EA7EC0EF0E8CFF4F17F
:105010003A0EE8CFF5F1560EE8CFF6F1460EE8CF9E
:10502000F7F1720EE8CFF8F1B2EC0CF03C0EE8CFDD
:105030007CF0470EE8CF7DF0000EE8CF7EF0010E49
:10504000E8CF7FF052EC18F020EE60F0430EDE6EF9
:10505000460EDE6E38C131F1376B372B366B4DECB7
:105060000BF0210EDE6E4FEC0CF0000EE8CF7FF05F
:1050700056EC18F01200680E37EC19F0690E37EC98
:1050800019F0000EE8CFF4F1190EE8CFF5F1780E23
:10509000E8CFF6F1520EE8CFF7F19F0EE8CFF8F126
:1050A000F2EC0CF0230EA7EC0EF0E8CFF4F1190EA1
:1050B000E8CFF5F1780EE8CFF6F1520EE8CFF7F130
:1050C0009F0EE8CFF8F1B2EC0CF025EE33F0100EA5
:1050D0000A6F096B230EA7EC0EF0E8CFF4F11C0E5B
:1050E0000925E8CFF5F11C0E0925E8CFF6F1092BCB
:1050F000092B640EE8CFF7F1DECFF8F1D890F83342
:10510000D890F833640EF8279D0EF861F86FF2EC32
:105110000CF00A2FDFD725EE43F0100E0A6F096B53
:10512000230EA7EC0EF0E8CFF4F1560E0925E8CFD8
:10513000F5F1560E0925E8CFF6F1092B092B640E7F
:10514000E8CFF7F1DECFF8F1D890F833D890F83304
:10515000640EF8279D0EF861F86FF2EC0CF00A2F40
:10516000DFD7540EE8CF7DF0200EE8CF7CF056EC70
:1051700018F020EE60F04E0EDE6E320EDE6E4FEC5A
:105180000CF0540EE8CF7DF05A0EE8CF7CF056ECD0
:1051900018F020EE60F0480EDE6E650EDE6E4FEC0D
:1051A0000CF063C50AF120EE60F015EE33F00A2B27
:1051B000E6CF31F10A2FFCD7376B372B366B4DEC2E
:1051C0000BF0250EDE6E200EDE6E540EE8CF7DF065
:1051D0003E0EE8CF7CF0000EE8CF7EF056EC18F0E3
:1051E0004FEC0CF01E9F230EA7EC0EF0E8CFF4F16D
:1051F000490EE8CFF5F14A0EE8CFF6F1790EE8CF87
:10520000F7F19D0EE8CFF8F1B2EC0CF0230EA7EC0D
:105210000EF0E8CFF4F13D0EE8CFF5F1540EE8CFF3
:10522000F6F1790EE8CFF7F17A0EE8CFF8F1F2EC6B
:105230000CF0230EA7EC0EF0E8CFF4F1410EE8CF0E
:10524000F5F1500EE8CFF6F1820EE8CFF7F1830EBC
:10525000E8CFF8F1F2EC0CF0230EA7EC0EF0E8CF5B
:10526000F4F1410EE8CFF5F1500EE8CFF6F18B0ED8
:10527000E8CFF7F18C0EE8CFF8F1F2EC0CF0230E4A
:10528000A7EC0EF0E8CFF4F1410EE8CFF5F1500EA7
:10529000E8CFF6F1940EE8CFF7F1950EE8CFF8F1EC
:1052A000F2EC0CF0230EA7EC0EF0E8CFF4F13D0E7B
:1052B000E8CFF5F1540EE8CFF6F19D0EE8CFF7F107
:1052C0009E0EE8CFF8F1F2EC0CF0120088EC2AF018
:1052D000010EE8CF7FF0030E8EEC09F0000EE8CF50
:1052E0007FF0440E8EEC09F0450E8EEC09F0460E70
:1052F0008EEC09F0470E8EEC09F0480E8EEC09F0AA
:10530000490E8EEC09F04A0E8EEC09F0120088EC82
:105310002AF0010EE8CF7FF0030E8EEC09F0000EAC
:10532000E8CF7FF04B0E8EEC09F04C0E8EEC09F0BE
:105330004D0E8EEC09F04E0E8EEC09F04F0E8EECF9
:1053400009F0500E8EEC09F0510E8EEC09F01200AF
:1053500088EC2AF0010EE8CF7FF00F0E8BEC09F0FD
:10536000000EE8CF7FF0100E8BEC09F0110E8BECE5
:1053700009F0120E8BEC09F0130E8BEC09F0120001
:105380002AB512006A0E37EC19F0A80EE8CF7CF0AF
:10539000410EE8CF7DF0000EE8CF7EF0000EE8CFA2
:1053A0007FF020EE60F018C531F1316708D056EC7F
:1053B00018F0070E84EC09F04FEC0CF012008CC1D1
:1053C0004BF18DC14CF10A0E4D6F4E6B37EC0AF06C
:1053D0004867476958C1E8FF476103D047C118F5DE
:1053E0002FD08CC14BF18DC14CF10A0E4D6F4E6B1D
:1053F00037EC0AF047C14BF148C14CF1CFC14DF138
:105400004E6B1AEC0AF047C153F148C154F158C130
:10541000E8FF640DF3CF51F1F4CF52F103EC0AF041
:105420001EA70CD047C14BF148C14CF1640E4D6F23
:105430004E6B37EC0AF047C118F502D058C118F589
:10544000040E7AEC18F018C531F1326B1E8F030E82
:1054500056EC0BF01E9F4FEC0CF056EC18F01200BF
:1054600030EC80F001011A0E8BEC09F020EE60F0B8
:10547000230EDE6E63C531F163C50AF11E8F376BF3
:10548000372B366B4DEC0BF0200EDE6E280EDE6EE9
:10549000100E0A6105D04E0EDE6E320EDE6E04D0A6
:1054A000480EDE6E650EDE6E290EDE6E200EDE6E9E
:1054B000640EE8CF7DF0190EE8CF7CF0000EE8CF47
:1054C0007EF056EC18F04FEC0CF020EE60F015EE8C
:1054D00033F00A2BE6CF31F10A2FFCD7376B372B8D
:1054E000366B4DEC0BF0250EDE6E200EDE6E640E7C
:1054F000E8CF7DF0320EE8CF7CF0000EE8CF7EF0F2
:1055000056EC18F04FEC0CF01E9F1200000E03D06A
:10551000230EA7EC0EF0E8CFF4F1000EE8CFF5F182
:105520001A0EE8CFF6F1000EE8CFF7F19F0EE8CFA4
:10553000F8F1F2EC0CF012002AB5120027BF1200AD
:1055400029BB12002AB912006B0E37EC19F05A0E63
:10555000E8CF7CF0000EE8CF7DF0000EE8CF7EF0C3
:10556000020E7AEC18F020EE60F0430EDE6E4E0E66
:10557000DE6E530EDE6E3A0EDE6E65C531F11E8FA5
:10558000376B372B366B4DEC0BF01E9F250EDE6E06
:105590004FEC0CF0120065C531F10F0EA7EC0EF0C8
:1055A000315DD8A01200570E37EC19F0AF0EE8CFDE
:1055B0007CF02D0EE8CF7DF0000EE8CF7EF0000EDF
:1055C000E8CF7FF0020E7AEC18F020EE60F0430E88
:1055D000DE6E4E0EDE6E530EDE6E3A0EDE6E65C56C
:1055E00031F11E8F376B372B366B4DEC0BF01E9F56
:1055F000250EDE6E4FEC0CF01200400ED1EC0BF0DD
:10560000010EA86229D0C80EE8CF7CF0000EE8CFCA
:105610007DF0000EE8CF7EF0000EE8CF7FF04EEC7C
:1056200018F020EE60F0400E316F180E326F312B03
:1056300027EC2BF07D0EA86201D004D0A8CFDEFFAE
:10564000322FF5D74FEC0CF056EC18F0120031C1A8
:10565000A9FFFAEC0BF01200180E386FC80EE8CF55
:105660007CF0000EE8CF7DF095EC1BF0120028B125
:1056700064D06D0E37EC19F0000EE8CF7DF0000E0F
:10568000E8CF7EF01E8F020E0A6F0A0E096F326B92
:10569000322B040E0A2720EE60F0470EDE6E32C178
:1056A00031F1376B372B366B4DEC0BF03A0EDE6E6B
:1056B0000AC1A9FFFAEC0BF0A8CF31F1376B372BF9
:1056C000366B4DEC0BF02F0EDE6EA92AFAEC0BF0C8
:1056D000A8CF31F1376B372B366B4DEC0BF0200E2A
:1056E000DE6E32511B0FD1EC0BF0A8CF31F1376BCE
:1056F000372B366B34EC0BF06D0EDE6E1B0ED1ECDF
:105700000BF032C131F1A832312FFDD7D8B004D01F
:105710004A0E4FEC0EF002D056EC18F0190E092785
:10572000000EE8CF7DF009C17CF04FEC0CF056EC98
:1057300018F0050E3263ACD71200000EE8CF7DF0F2
:10574000000EE8CF7EF01E8F230E0A6F0A0E096F3F
:10575000E56B0A2BE52B190E0927000EE8CF7DF02B
:1057600009C17CF020EE60F0530EDE6E500EDE6E4E
:10577000E5C131F1376B372B366B4DEC0BF03A0E40
:10578000DE6E200EDE6E0AC1A9FFFAEC0BF0A8CF88
:1057900031F1326B030E56EC0BF04FEC0CF0030EB4
:1057A000E563D7D7210ED1EC0BF0A8CFD0F1D0050F
:1057B000040DF350070FA96EFAEC0BF0A8CF32F1ED
:1057C000D005040DF350060FA96EFAEC0BF0A8CF2C
:1057D00031F1000EE8CF7DF06E0EE8CF7CF020EEC8
:1057E00060F0440EDE6E690EDE6E6C0EDE6E3A0EFA
:1057F000DE6E376B372B366B4DEC0BF02F0EDE6EFB
:1058000032C131F1376B372B366B4DEC0BF04FEC6F
:105810000CF01E9F120024BD12001A0ED1EC0BF0EA
:10582000A8CF0AF1690E0A611200630E0A65120020
:1058300031C14BF132C14CF1640E4D6F4E6B1AEC1D
:105840000AF00AC14DF14E6B5EEC0AF047C131F12E
:1058500048C132F112003A6F010EBC27000EBD2381
:10586000BDAF02D0BC6BBD6B3A2FF6D712003A6FBA
:10587000010EBC5F000EBD5BBDAF02D07F0EBD6FE1
:105880003A2FF6D712009CD8010EBC27000EBD237C
:105890002291BDAF1200BC6BBD6B2281120022B3FE
:1058A0001CD822A30BD82283000EBC2BBD2322912F
:1058B000BDAF1200BC6BBD6B228112003A6FC58078
:1058C000A3D8A60EC96EA0D894D8BDC1C9FF9CD8D4
:1058D00090D8BCC1C9FF98D88CD83AC1C9FF94D818
:1058E00088D812003A6B3B6B219F219DC5848CD8D0
:1058F000C5808AD8A60EC96E87D8C5BCF7D73BC16C
:10590000C9FF82D876D83AC1C9FF7ED872D8C5827D
:105910007BD8A70EC96E78D86CD8C58675D821BD3E
:1059200005D0218DFD0EC962219D11D021BF05D06A
:10593000218FFD0EC96209D00AD0FE0EC96205D0C2
:105940003AC1BCF13BC1BDF10DD0219F219D010E9B
:105950003A27000E3B233BBF03D0C58855D8DDD77F
:10596000BC6BBD6BC58450D8219F219D1200C5849E
:105970004BD8C58049D8A60EC96E46D8C5BCF7D746
:10598000BDC1C9FF41D835D8BCC1C9FF3DD831D848
:10599000C5823AD8A70EC96E37D82BD8C58634D859
:1059A000C950C58431D81200E2DF010EBC27000EB9
:1059B000BD232291BDAF1200BC6BBD6B22811200D2
:1059C0003A6FC58021D8A60EC96E1ED812D8BDC1A7
:1059D000C9FF1AD80ED8BCC1C9FF16D80AD83AC117
:1059E000C9FF12D806D8C5840FD8060E04EC0BF0F8
:1059F0001200C5BC01D812004D0E37EC19F0818899
:105A00000BD89E96C36B1200C32F01D0F5D79EA66C
:105A1000FBD7C36B9E961200C66A4E0E37EC19F088
:105A2000C56AC76A949694888296090EC36F828667
:105A3000000082B804D082968296C32FF8D794864D
:105A4000C66A0A0E04EC0BF0000EC76E280EC66E76
:105A5000000EC56E080EC86E81984F0E37EC19F017
:105A60001200249528955AEC0DF02493249724993C
:105A7000BB6BBA6BC06B010EE8CF7FF00C0E8EECE7
:105A800009F0000EE8CF7FF0A46BA56B0CEC2DF0B5
:105A900072EC2CF0386B396B050EB96F010EE8CF44
:105AA0007FF00C0E8EEC09F0000EE8CF7FF0219D08
:105AB000219F010EA427000EA523A5BF27D0010E0C
:105AC00037EC2CF0B7EC2CF021BD05D0218DFA0E6F
:105AD000C962219D10D021BF05D0218FFA0EC96265
:105AE00007D809D0BCC1BEF1BDC1BFF1C02B13D0D6
:105AF000219F219D1200010E3827000E392339BF46
:105B000001D0D7D724A928EF11F02CD0C051D8B498
:105B1000F9D7248327D0030E2BEC2CF024A704D034
:105B2000A651C063BAD264D024B31CD0D1DA050E1A
:105B3000B96316D0C0C1ABF1BEC1A9F1BFC1AAF112
:105B4000A4C190F1A5C191F138C1F0F139C1A7F11B
:105B5000030EA927000EAA23030E905F000E915B8F
