:020000040000FA
:1000000047EF48F0FFFFFFFF08D0FFFFFFFFFFFFB4
:10001000FFFFFFFFFFFFFFFF00D0E0CF02F1010174
:10002000D8CF01F1E8CF00F181509EB05AEC39F001
:10003000F2B441EC39F0A1B256EC39F09EBA01ECC1
:1000400039F0F2B22FEC39F0F0B035EC39F000C1F4
:10005000E8FF01C1D8FF02C1E0FF1000FFFFFFFF72
:10006000FFFFFFFFFFFFFFFFFFFFFFFFFFFFFFFFA0
:10007000001210180606080A0A0C0606080A060AE4
:1000800006060808060E06060A0A08140C0A060ADE
:100090000806060610101010101010101010101086
:1000A0001010101010101010101010101010101050
:1000B000101010101014161416120C140E14141420
:1000C0000E180A0608080A060C0A08080808060698
:1000D000040A0C120A0A0A060A0E1408080612126A
:1000E000040E140806100E0C060608060606060680
:1000F000080804040A16161614080A080806060A50
:100100000808040A0C08060C0A141010101010102D
:1001100010101010101010101010101010101010DF
:1001200010101010101010101010140E0E0E0808E1
:10013000061414141414141414141414141414148D
:10014000141414141414141414141414141414146F
:100150001414141414141414141414140A0A0A0889
:100160000808080E0614100A100C060606060608F3
:10017000020E0E080808060606060A0A0408040EFF
:100180001412140E0A0E0C100E0A0A0A0E0C10009D
:10019000FFFFFFFFFFFFFFFFFFFFFFFFFFFFFFFF6F
:1001A000FFFFFFFFFFFFFFFFFFFFFFFFFFFFFFFF5F
:1001B000FFFFFFFFFFFFFFFFFFFFFFFFFFFFFFFF4F
:1001C00000000019000241024102142314411423CB
:1001D000145F147D14B973020018000032020A1E65
:1001E0000A370A500A690A8214232041205F209BA3
:1001F000060037020E02280232021423640064193A
:10020000644B646400002823282328232823282300
:100210002823282328232823282328232823282386
:100220002823282328232823282328232823282376
:100230002823282328232823282328232823282366
:1002400028232823282300230041005F007D009BF2
:1002500000B900D700230041005F007D009B00B97A
:1002600000D7669600006CD86CD8640000000000CF
:10027000000000000000000000000000000000007E
:10028000000028021423147D557D557D557D557D34
:1002900000000A02000000001423144114020000B0
:1002A000145F0A020009557D0012001B0024002D76
:1002B0000036643264196432644B64646400641907
:1002C00014414141414164320A000A190A320A4B81
:1002D0006432557D6978693C4102149B2A483C028E
:1002E00034603478644BA07D000802270230557DCD
:1002F000144128232823282328232823282328239C
:100300002823282328232823282328232823282395
:100310002823282328232823282328232823282385
:100320002823282328232823282328232823282375
:1003300028230D02145F00020230000000000000BC
:1003400000230041005F007D009B00B900D700231F
:100350000041005F007D009B00B900D700230041F1
:10036000005F007D009B00B900D700230041005FC3
:10037000007D009B00B900D700230041005F007D95
:10038000009B00B900D700230041005F007D009B67
:1003900000B900D70A02557D020C6419640064009C
:1003A00064196400020C64641441021E147D1E0270
:1003B000142364196432644B646464006432000082
:1003C00014232802692369236923010141A8073006
:1003D0007887022700D80A080A10000018020023B4
:1003E0000041005F007D145F1441145F147D149B75
:1003F000643264005A36145F147D149BFFFFFFFFC4
:10040000FFFFFFFFFFFFFFFFFFFFFFFFFFFFFFFFFC
:10041000FFFFFFFFFFFFFFFFFFFFFFFFFFFFFFFFEC
:10042000FFFFFFFFFFFFFFFFFFFFFFFFFFFFFFFFDC
:100430004275696C64696E67204D4432204861736F
:10044000687D506C6561736520576169742E2E2E2E
:100450007D7D4865696E72696368735765696B6114
:100460006D70204F535443327D7D4D656E753F7DD9
:100470004D656E753A7D4C6F67626F6F6B7D47613E
:10048000732053657475707D5365742054696D6570
:100490007D7D5265736574204D656E757D7D5365F8
:1004A0007475707D457869747D7D576169742E2EF1
:1004B0007D7D4D443220486173683A7D44657361A7
:1004C000747D496E746572666163657D5374617293
:1004D000747D446174617D7D4865616465727D7D74
:1004E00050726F66696C657D446F6E652E7D4361E9
:1004F0006E63656C2052657365747D7D54696D65AE
:100500003A7D446174653A7D53657420486F757215
:10051000737D52657365742E2E2E7D7D4C6F6762E0
:100520006F6F6B7D437573746F6D2046756E63746A
:10053000696F6E7320497D7D5265736574204D65CA
:100540006E757D7D5365742054696D653A7D4D6F80
:1005500072657D7D4465636F706C616E7D7D476102
:10056000736C6973747D4D6F72657D7D45786974B8
:100570007D7D4E6F466C797D537461727420446941
:100580007665205B636D5D7D456E642044697665AC
:100590002020205B636D5D7D456E642044656C6149
:1005A000792020205B735D7D506F776572204F66E8
:1005B000662020205B735D7D5072652D6D656E75C4
:1005C000202020205B735D7D76656C6F6369747994
:1005D0005B6D2F6D696E5D7D57616B652D7570204C
:1005E000205B6D4261725D7D6D61782E5375726620
:1005F0002E5B6D4261725D7D474620646973706C4D
:10060000617920205B255D7D6D696E2E204F322043
:100610004469732E5B255D7D44697665206D656E4A
:10062000757320205B735D7D5361747572617465B1
:10063000207820205B255D7D44657361747572614F
:10064000746520785B255D7D4E6F466C7920526124
:1006500074696F205B255D7D474620616C61726D1A
:10066000203120205B255D7D434E5373686F7720DA
:10067000737572665B255D7D4465636F204F6666AA
:100680007365745B646D5D7D70704F32206C6F7745
:10069000205B634261725D7D70704F3220686967D4
:1006A000685B634261725D7D70704F322073686F6A
:1006B000775B634261725D7D73616D706C696E67BB
:1006C000207261746520207D44697669736F7220A1
:1006D00054656D702020207D44697669736F7220A7
:1006E0004465636F6461747D44697669736F7220D9
:1006F0004E6F74557365317D44697669736F7220EE
:1007000070704F322020207D44697669736F7220AB
:10071000446562756720207D44697669736F722035
:100720004E6F74557365327D434E5373686F7720F7
:10073000646976655B255D7D4C6F67626F6F6B20CA
:100740006F6666736574207D4C61737420446563C5
:100750006F2061745B6D5D7D456E642041706E6FCE
:1007600065205B6D696E5D7D53686F7720566261B1
:100770007474205B3D315D7D546869732070726FC5
:100780006772616D2069737D6469737472696275E3
:1007900074656420696E207468657D7D686F70651E
:1007A00020746861742069742077696C6C206265BC
:1007B0007D7D75736566756C2C2062757420574954
:1007C00054484F55547D414E592057415252414E45
:1007D00054593B20776974686F75747D6576656ED2
:1007E0002074686520696D706C6965647D7D7761D2
:1007F0007272616E7479206F667D4D455243484137
:100800004E544142494C495459206F727D7D4649AE
:10081000544E45535320464F5220417D504152542F
:100820004943554C415220505552504F53452E7D0F
:100830005365652074686520474E552047656E6591
:1008400072616C7D5075626C6963204C6963656E82
:10085000736520666F727D7D6D6F7265206465744F
:1008600061696C733A7D7777772E6865696E726916
:100870006368737765696B616D702E64657D44652F
:10088000636F73746F707D7D6D2F6D696E7D4E6FBC
:100890002053746F707D4465636F73756D7D44691B
:1008A000766574696D657D7D44657074687D4669A3
:1008B000727374204761733F7D7D44656661756C1A
:1008C000743A7D7D4D696E757465737D4D6F6E7480
:1008D0006820207D446179202020207D5965617247
:1008E0002020207D536574207D7D47617323207D0A
:1008F0005965737D43757272656E743A7D7D53657B
:10090000747570204D656E753A7D437573746F6DA7
:100910002046756E6374696F6E73497D4465636FBD
:10092000747970653A7D5A482D4C3136204F437D9D
:100930004761756765202020207D47617567657D6B
:100940005A482D4C31362043437D416374697665A6
:10095000204761733F207D7D476173205365747527
:1009600070202D204761736C6973747D44657074C9
:1009700068202B7D4465707468202D7D4261636B17
:100980007D7D43435220536574506F696E74204DD2
:10099000656E757D43435220536574506F696E7464
:1009A000204D656E757D5350237D42617474657270
:1009B0007920496E666F7D7D42617474657279201D
:1009C000496E666F726D6174696F6E7D4379636C99
:1009D00065733A7D41706E6F657D4C617374204321
:1009E0006F6D706C6574653A7D7D4C6F776573745F
:1009F0002056626174743A7D4C6F77657374206120
:100A0000743A7D7D546D696E3A7D546D61783A7D9E
:100A1000536574204761737D4F32202B7D7D4F32AB
:100A2000202D7D7D4865202B7D7D4865202D7D7D99
:100A3000457869747D7D44656C6574657D7D44652C
:100A40006275673A7D7D4F4E207D4F46467D4465F9
:100A50006C2E20616C6C7D7D556E6578706563745D
:100A600065642072657365742066726F6D7D44697C
:100A700076656D6F64652120506C656173652068D3
:100A8000656C707D616E64207265706F7274207425
:100A90006865204465627567207D496E666F726D7A
:100AA0006174696F6E2062656C6F77217D7D426134
:100AB000696C6F75747D41706E6F65202020207D9C
:100AC00044657363656E747D537572666163657D9D
:100AD000517569743F7D4D6F72657D7D436F6E66A4
:100AE00069726D3A7D7D4D656E7520323A7D436148
:100AF0006E63656C7D7D4F4B217D53746F707761A4
:100B0000742E7D7D3A2E2E2E2E2E2E2E2E2E3A7DBA
:100B10002870704F323A7D7D42617229207D4E6F80
:100B20007420757365642121217D4C31362D474633
:100B3000204F437D437573746F6D2046756E6374EB
:100B4000696F6E7349497D7D4746204C6F77202041
:100B5000202020205B255D7D47462048696768206E
:100B6000202020205B255D7D436F6C6F7223204227
:100B7000617474657279207D436F6C6F72232053AA
:100B800074616E646172647D436F6C6F7223204484
:100B90006976656D61736B7D436F6C6F722320574F
:100BA00061726E696E67737D53686F7720736563DA
:100BB000732E205B3D315D7D6E6F742075736564AF
:100BC000202020202020207D6E6F742075736564A6
:100BD000202020202020207D4176722E2044657028
:100BE0007468205B3D315D7D426C696E6B204761AE
:100BF0007320205B3D315D7D446570746857617280
:100C00006E5B6D4261725D7D434E53207761726E03
:100C1000696E67205B255D7D4746207761726E694E
:100C20006E6720205B255D7D70704F32207761728A
:100C30006E5B634261725D7D56656C2E7761726E8C
:100C40005B6D2F6D696E5D7D54696D65206F6666A5
:100C5000736574205B735D7D6E6F7420757365645E
:100C6000202020202020207D6E6F74207573656405
:100C7000202020202020207D6E6F742075736564F5
:100C8000202020202020207D6E6F742075736564E5
:100C9000202020202020207D6E6F742075736564D5
:100CA000202020202020207D6E6F742075736564C5
:100CB000202020202020207D6E6F742075736564B5
:100CC000202020202020207D6E6F742075736564A5
:100CD000202020202020207D6E6F74207573656495
:100CE000202020202020207D6E6F74207573656485
:100CF000202020202020207D6E6F74207573656475
:100D0000202020202020207D6E6F74207573656464
:100D1000202020202020207D6E6F74207573656454
:100D2000202020202020207D6E6F74207573656444
:100D3000202020202020207D6E6F74207573656434
:100D4000202020202020207D437573746F6D204665
:100D5000756E6374696F6E732049497D53686F7750
:100D6000204C6963656E73657D7D53696D2E2052DD
:100D70006573756C74733A7D4E4F542055534544DA
:100D800021212121217D70704F32202B7D7D7070BB
:100D90004F32202D7D7D44696C2E7D7D4465636FCF
:100DA000747970653A205A482D4C3136204F437D76
:100DB000466F72204F70656E204369726375697467
:100DC0002020207D4469766572732E2053757070E3
:100DD0006F7274732035207D5472696D6978204775
:100DE000617365732E2020202020207D436F6E6666
:100DF000696775726520796F757220676173207DF0
:100E0000696E204761737365747570206D656E75CA
:100E10002E20207D436865636B20434631312026B8
:100E2000204346313220217D4465636F74797065BB
:100E30003A204761756765202020207D44697665EA
:100E400074696D652077696C6C20626520696E7DC0
:100E50004D696E757465733A5365636F6E64732E76
:100E60002020207D4F535443322077696C6C206ED4
:100E70006F7420202020207D636F6D707574652055
:100E80004465636F2C204E6F466C797D74696D6587
:100E900020616E642044657361742E2D2020207DB6
:100EA00074696D6520617420616C6C2120202020A4
:100EB0002020207D4465636F747970653A5A482D0F
:100EC0004C3136204343207D466F72202853656D98
:100ED000692D29436C6F73656420207D43697263BB
:100EE0007569742072656272656174686572737D7C
:100EF000436F6E666967757265207468652033207C
:100F00002020207D536574506F696E747320696E64
:100F100020434352202D207D5365747570206D65EC
:100F20006E752E2035206261696C2D7D6F7574732E
:100F30002061726520617661696C61626C652E7DED
:100F40004465636F747970653A2041706E6F6520F7
:100F50002020207D4F535443322077696C6C2064ED
:100F60006973706C6179207D656163682064657365
:100F700063656E742073657061722D7D6174656C3C
:100F80007920696E204D696E3A5365632E20207D6D
:100F900057696C6C2074656D706F72616C6C792030
:100FA0007365747D73616D706C65726174652074B6
:100FB0006F2031207365637D4E6F204465636F2021
:100FC00063616C63756C6174696F6E7D4465636F9A
:100FD000747970653A204C31362D4746204F437D59
:100FE0004465636F6D7072657373696F6E206361C2
:100FF0006C2D207D63756C6174696F6E73207769E9
:10100000746820746865207D47462D4D6574686F4F
:1010100064202847465F6C6F2F47467D5F686929CB
:101020002E20436865636B20434633322026207DA3
:101030004346333321204F70656E204369726375D8
:101040006974207D776974682044656570205374E5
:101050006F70732E2020207D4465636F74797065F6
:101060003A204C31362D47462043437D4465636F1B
:101070006D7072657373696F6E2063616C2D207D76
:1010800063756C6174696F6E73207769746820741E
:101090006865207D47462D4D6574686F642028473C
:1010A000465F6C6F2F47467D5F6869292E20436835
:1010B00065636B20434633322026207D434633331D
:1010C00021436C6F73656420436972637569747D35
:1010D0007769746820446565702053746F70732E4F
:1010E0002020207D4465636F6D6F646520636861B7
:1010F0006E6765642120207D4C31362D47462043A4
:10110000437D4E6F7420666F756E647D53657450B9
:101110006F696E747D7D4E6F204465636F7D47728D
:10112000617068737D7D446973706C61797D4E6F09
:10113000206465636F7D536561726368206D6F64C1
:10114000756C657D457869747D7D52657365742025
:1011500043462C4761732026204465636F7D4469B4
:101160007361626C65206D6F64756C657D7D53691C
:101170006D756C61746F727D4F5354432053696D6C
:10118000756C61746F727D7D5374617274204469F3
:1011900076657D7D2B20316D7D7D2D20316D7D7DB2
:1011A0002B31306D7D7D2D31306D7D7D45786974BD
:1011B0007D7D6E6F74207573657D787D4461746587
:1011C00020666F726D61743A7D7D53657475702011
:1011D0004D656E7520323A7D4D4D444459597D7DA3
:1011E00044444D4D59597D7D59594D4D44447D7D63
:1011F0004F535443207D4261696C7D7D416972206B
:101200007D7D41697220207D43616C6962726174E9
:10121000657D4D61782044657074687D6E6F747D66
:10122000666F756E64217D7D6D563A7D4E657720C3
:101230004346206164646564217D4E657720437573
:1012400073746F6D46756E6374696F6E737D7765C9
:1012500072652061646465642120436865636B7D09
:101260004346204920616E64204346204949204D71
:10127000656E757D666F722044657461696C73215B
:101280007D7D53616C696E6974793A7D426F7474C7
:101290006F6D2054696D653A7D7D4D61782E2044D7
:1012A000657074683A7D43616C63756C6174652028
:1012B0004465636F7D7D53686F77204465636F700D
:1012C0006C616E7D4C656164205469737D7D4C65F5
:1012D0006164205469737D7D53746F7077617463AA
:1012E000687D5265736574204C6F67626F6F6B7DAC
:1012F0005265626F6F74204F5354437D526573651E
:1013000074204465636F646174617D7D2B8B01D8AB
:101310001200268D05D8269D12002B8B01D81200B5
:101320000B6F800EA66EF86A010EF76EBC0EF66E9D
:101330000BC14BF1000E2BBB010E4C6FD8904B37FD
:101340004C37020E4B27000E4C234B51F6264C51C6
:10135000F722090026ADF5CF7DF0090026ADF5CFC7
:101360007CF0000EE8CF7EF00D6B0E6BF76AF86A2A
:10137000700EF66E01D02B9B0900F5500D27000E64
:101380000E230B2FF9D72BBBF6D7F86A300E0D259D
:10139000F66E040E0E21F76E26AD20EE60F0090009
:1013A0007D0EF56201D00AD0F5CFDEFF09007D0E7B
:1013B000F56201D003D0F5CFDEFFF1D726AD4EECBC
:1013C0000CF0120031C14BF132C14CF13C0E4D6FAB
:1013D0004E6B4FD847C132F14BC131F11200D8905A
:1013E00045334433462FFBD71200D8904A33493354
:1013F00048334733462FF9D712004851FF08486F4A
:101400004751D890FF08476F12001E975351515D06
:101410004F6F54515259506FD8A812001E874FC1B8
:1014200053F150C154F1516952695351515D4F6F9D
:1014300054515259506F1200496B4A6B4B514D0336
:10144000F350476FF450486F4B514E03F350482709
:10145000F45049234C514D03F3504827F45049238D
:10146000D8B04A2B4C514E03F3504927F4504A232D
:101470001200476B486B4D514E11D8B4FF0C010E52
:10148000466F4EBF05D0462BD8904D374E37F9D713
:10149000D890473748374D514B5F4E51D8A04E2911
:1014A0004C5FD8B005D04D514B274E514C2301D045
:1014B00047814607D8B41200D8904E334D33E8D751
:1014C000200E466F4A514C6F49514B6F4851526F35
:1014D0004751516F4A6B496B486B476B546B536B69
:1014E000D890513752374B374C37533754374E51CA
:1014F000545DD8A47EEF0AF04D51535DD8A088EF1B
:101500000AF04D51535FD8A054074E51545FD88014
:101510004737483749374A37462F70EF0AF01200ED
:10152000D89074337333752FFBD71200D89079336A
:10153000783377337633752FF9D712007751FF0858
:10154000776F7651D890FF08766F120029978251F5
:10155000805D7E6F835181597F6FD8A812002987E3
:101560007EC182F17FC183F1806981698251805D92
:101570007E6F835181597F6F1200786B796B7A513E
:101580007C03F350766FF450776F7A517D03F350FC
:101590007727F45078237B517C03F3507727F4505E
:1015A0007823D8B0792B7B517D03F3507827F45002
:1015B000792312000A6FE6EF0AF000000000000035
:1015C000000000000000000000000000000000001B
:1015D000000000000000000000000000000000000B
:1015E00000000000000000000000000000000000FB
:1015F00000000000000000000000000000000000EB
:10160000000000000A2FDDEF0AF01200096F12EF50
:101610000BF00000000000000000000000000000CF
:1016200000000000000000000000000000000000BA
:1016300000000000000000000000000000000000AA
:10164000000000000000000000000000000000009A
:101650000000000000000000000000000000630E19
:10166000DAEC0AF0092F09EF0BF01200630E31617A
:10167000316F31C133F1346B1E950A0E396F356B02
:1016800067D8010E396F356B1E8562D8120031C1E3
:1016900033F1346B1E85F1D731C133F1346B1E95B4
:1016A000640E396F356B54D8E8D7249F366F1E8B84
:1016B000362B362F1E9B228B362B362F229B31C189
:1016C00033F132C134F11E95100E396F270E356F8C
:1016D0001EAD3ED8E80E396F030E356F22BB07D022
:1016E00024BF03D01E85362D1E9522B91E851EAD42
:1016F0002FD81E9D640E396F356B26B924D022BBBE
:1017000009D024BF03D01E85362D1E9522B91E8513
:1017100022BB1E851DD80A0E396F356B22BB09D03E
:1017200024BF03D01E85362D1E9522B91E8522BBEF
:101730001E8528B708D00CD8010E396F356B1E8571
:1017400023A506D823952699376B372B22991200AB
:10175000386B3551345DD8A00ED004E13951335D7A
:10176000D8A009D03551345F3951335FD8A0340740
:10177000382B1E85EED7372F1200372B300E382529
:101780001EB504D01EBF04D0200E01D0248FDE6E03
:10179000362F12002E0EDE6E22891200A96E2DD079
:1017A000A96E27D02A91010EAA6E690E03D0259149
:1017B000AA6A640EAD6E228F040EA96E9D9A9E9A3F
:1017C000818646D8AECFA8FF818825BF0FD015D817
:1017D0008198A8CFADFF36D8A93EF3D781969E9ABF
:1017E0009D8AAA6A259F229FB4EF48F0FF0EAD6E36
:1017F000F5D7A69EA69CA6801200A69EA69CA684AF
:10180000F29E550EA76EAA0EA76EA682F28EA6B203
:10181000FED7A6941200948C948E240EAC6E900E7B
:10182000AB6E080EB86EB06A220EAF6EAE6A9E6ADC
:101830009D8A1200AC6AAB6A9D9A949C949E829C8D
:10184000829E1200ABAE12000000ACA2FBD71200C9
:101850009E9A259F426B436B9EBA120000000000C7
:10186000000000009EBA120000000000000000000E
:101870009EBA120000000000000000009EBA120094
:1018800000000000000000009EBA1200432FE4D7C1
:10189000422FE1D7AB98AB88258F1200DE6A7BC060
:1018A000F7F17AC0F6F134EC5AF00101F7C17BF0A0
:1018B000F6C17AF01200106F10C17DF0210E2DD903
:1018C000D8901035000ED8B0010E2CD9D890103514
:1018D00029D912000F6F0FC17CF0200E1ED9000E07
:1018E00021D90F511FD91200220E17D984807AC036
:1018F00083FF809480847BC083FF80948084210E4A
:101900000CD9D8901035000ED8B0010E0BD9D89054
:101910001037102907D9200E00D9000E03D90F5116
:1019200001D9220EFAD884807AC083FF8094808403
:101930007BC083FF809480841200220EEED88480C6
:101940007AC083FF809480847BC083FF80948084EE
:101950001200836A80968194809A84948094849201
:101960001200F1514EEC0EF0F2C11BF11B51B2DF2F
:10197000F4515BEC0CF0E1DF1B2B1B51F363F6D74A
:101980001B51A8DFF4515BEC0CF0D7DFF2C11BF167
:101990001B51A0DFF5515BEC0CF0CFDF1B2B1B5173
:1019A000F363F6D71B5196DFF5515BEC0CF0C5DF06
:1019B000F4C11BF11B517FDFF2518CDF95DF1B2B34
:1019C0001B51F563F7D7F4C11BF11B5174DFF351C1
:1019D00081DF8ADF1B2B1B51F563F7D755EC18F01D
:1019E0001200F1514EEC0EF0350E97D8F4C11BF1F8
:1019F000D8901B35000ED8B0010E94D8D8901B3566
:101A000091D8360E8AD8F5C11BF1D8901B35000E3F
:101A1000D8B0010E87D8D8901B3584D8370E7DD822
:101A2000F2C11BF11B517ED8F3C11BF11B517AD8B7
:101A3000200E73D8000E76D8F2C11BF11B5172D85C
:101A4000210E6BD8F4C11BF1D8901B35000ED8B015
:101A5000010E68D8D8901B3565D8220E5ED8F2C129
:101A60001BF1F3C11CF11B511C5F1C2BF4C11BF1BA
:101A7000F5C11DF11B511D5F1D2B84801DC11BF184
:101A80007AC083FF809480847BC083FF80948084AD
:101A90007AC083FF809480847BC083FF809480849D
:101AA0001B2FEED71C2FEAD7000E37D855EC18F0B5
:101AB0001200350E32D8000E35D8000E33D8360E4F
:101AC0002CD8010E2FD83F0E2DD8370E26D8000E59
:101AD00029D8EF0E27D8200E20D8000E23D8000ECC
:101AE00021D8210E1AD8000E1DD8000E1BD8220EA8
:101AF00014D88480836A0A0E1D6F1E0E1C6F1B6B28
:101B000080948084809480841B2FFAD71C2FF7D771
:101B10001D2FF3D7000E01D812008490836E80949D
:101B2000808412008480836E80948084120080966A
:101B3000200E06EC0BF081840000809A0000848265
:101B4000FA0E06EC0BF0848400008492020EDAECAC
:101B50000AF084820A0E06EC0BF0240EDEDF020E81
:101B6000DCDF000EDFDF000EDDDF030ED6DF000E50
:101B7000D9DF300ED7DF180ED0DF000ED3DF280EEE
:101B8000D1DFF80ECADF000ECDDF0F0ECBDFF90E6E
:101B9000C4DF000EC7DF0F0EC5DF100EBEDF000E64
:101BA000C1DF000EBFDF0CD884DF8086200E06EC7C
:101BB0000BF0050EB2DF000EB5DF010EB3DF120031
:101BC000700EABDF1F0EAEDF000EACDF710EA5DFB7
:101BD000230EA8DF800EA6DF720E9FDF2A0EA2DF83
:101BE000800EA0DF730E99DF150E9CDF110E9ADFB9
:101BF000740E93DF1C0E96DF110E94DF750E8DDFD1
:101C00001B0E90DF150E8EDF760E87DF1A0E8ADF31
:101C1000150E88DF770E81DF1C0E84DF180E82DF41
:101C2000780E7BDF210E7EDF150E7CDF1200700E3A
:101C300074DF140E77DF000E75DF710E6EDF170E86
:101C400071DF000E6FDF720E68DF150E6BDF800E26
:101C500069DF730E62DF150E65DF110E63DF740E30
:101C60005CDF140E5FDF0B0E5DDF750E56DF1B0EA3
:101C700059DF150E57DF760E50DF130E53DF0E0EB1
:101C800051DF770E4ADF1C0E4DDF180E4BDF780E4A
:101C900044DF150E47DF0E0E45DF12002D6F2DC1FC
:101CA0002EF1030E2E17000E2E4F500E2E4FA00EAB
:101CB0002E4FF80E2F6F2DC12EF11C0E2E172E4316
:101CC0002E43000E2E4F040E2E4F080E2E4F0C0EDC
:101CD0002E4F100E2E4F140E2E4F200E2E4F3F0E55
:101CE000306F30332F3330332F3330332F332DC118
:101CF0002EF12D6B30332D3330332D3330332D33E4
:101D0000E00E2E172E432E432E432E432E43000E5D
:101D10002E4F040E2E4F080E2E4F0C0E2E4F100E6F
:101D20002E4F140E2E4F200E2E4F3F0E306F30339D
:101D30002D3330332D3330332D3330332D33303397
:101D40002D332DC17AF02FC17BF01200E26F1F0EF0
:101D5000E26505D0010EAA6E200EE25F01D0AA6AEC
:101D6000E251040DF350820FA96EF9EC0BF0A8506C
:101D7000AA6A1200E26F1F0EE26505D0010EAA6E7C
:101D8000200EE25F01D0AA6AE251040DF350820FE7
:101D9000A96EF9EC0BF0A8CF31F1A92AF9EC0BF000
:101DA000A8CF32F1AA6A12009A0EE16F298D03D0F2
:101DB000240EE16F299D1E8F59EC0DF0010EB96FB5
:101DC000209920971F99A96BA46B219D219FB9ECA5
:101DD00029F0010EE8CF7FF029AD04D0BA0E90ECC7
:101DE00009F003D01B0E90EC09F0000EE8CF7FF055
:101DF00055EC18F0010E29AD000EAA6EB76B2091BC
:101E00002093140EE8CF7DF0230EE8CF7CF020EE77
:101E100060F0A9C131F1000E29BD200E312731C17A
:101E2000DAF1376B372B366B47EC0BF03A0EDE6E80
:101E3000200EDE6E4EEC0CF0E151A92590EC09F07D
:101E40001F0EDA5DD8B415D0260EDA5DD8B411D0E5
:101E5000270EDA5DD8B40DD0280EDA5DD8B409D0DB
:101E6000290EDA5DD8B405D02A0EDA5DD8B401D0D7
:101E700003D0010EDA6F01D0DA6B140EE8CF7DF0DB
:101E8000410EE8CF7CF020EE60F02B0EDE6E2F0EC0
:101E9000DE6E2D0EDE6E3A0EDE6E200EDE6E2B0E28
:101EA00021BD2D0EDE6E4EEC0CF0140EE8CF7DF051
:101EB0005F0EE8CF7CF020EE60F0310EDE6E2F0E6C
:101EC000DE6E310EDE6E300EDE6E3A0EDE6E200EEF
:101ED000DE6E310EDE6E300E21BFDE6E200EDE6E47
:101EE0004EEC0CF0140EE8CF7DF07D0EE8CF7CF0C8
:101EF00020EE60F0590E89EC09F0A451800FA96E14
:101F0000F9EC0BF0A8CF31F1A451810FA96EF9ECD7
:101F10000BF0A8CF32F1329F376B372B366B36512F
:101F200055EC0BF02C0EDE6E310EA8AE380EDA67D3
:101F3000310EDE6E350EA8BEDE6E420EDE6E200E57
:101F4000DE6E200EDE6E200EDE6E4EEC0CF0140EF9
:101F5000E8CF7DF09B0EE8CF7CF020EE60F0610EC4
:101F600089EC09F0A451820FA96EF9EC0BF0A8CF0F
:101F700031F1A451830FA96EF9EC0BF0A8CF32F127
:101F8000376B372B366B365155EC0BF0200EDE6E6F
:101F9000200EDE6E200EDE6E4EEC0CF00B0E90EC82
:101FA00009F024EC11F0D0EC1BF0F7EC2FF020B38B
:101FB0000FD020B11AD01FB3B4EF48F01FB116EC08
:101FC0003CF01FB1F6EC41F01F911FB91CD0EDD7CA
:101FD000B92B070EB96302D0010EB96FB76BD0EC05
:101FE0001BF024EC11F02093E0D7AA6A010E29BD62
:101FF000AA6EB94F0FD0B94F17D0B94F19D0B94FFA
:102000001BD0B94F39D0020E29AD010EB96FAA6AA3
:10201000C0EF11F0A92BA9BBA96BA951040DF3CFF7
:10202000A4F1010EB96FE4D6217D020EB96FE0D69E
:10203000217F030EB96FDCD6A451800FA96EF9EC95
:102040000BF0A8CF31F1A451810FA96EF9EC0BF080
:10205000A8CF32F1329FA451820FA96E31C1A8FFDF
:10206000FDEC0BF0A451830FA96E32C1A8FFFDEC6B
:102070000BF0040EB96FBCD6A451820FA96EF9EC17
:102080000BF0A8CF31F1A451830FA96EF9EC0BF03E
:10209000A8CF32F1A451810FA96EF9EC0BF0A8CFB3
:1020A000A5F1010EDA6305D031673169312B326B4E
:1020B00016D021AD0BD0010E21BF0A0E315F000EEC
:1020C000A5BF325B7F0E32BF326F09D0010E21BF38
:1020D0000A0E3127000EA5BF322332BF326BA45146
:1020E000820FA96E31C1A8FFFDEC0BF0A451830F44
:1020F000A96E32C1A8FFFDEC0BF0050EB96F78D6C2
:10210000E26F1F0EE26505D0010EAA6E200EE25F9F
:1021100001D0AA6AE251040DF350800FA96EF9ECC8
:102120000BF0A8CF31F1A92AF9EC0BF0A8CF32F1CE
:10213000AA6A1200CE4F14D0CE4F19D01200CE4F43
:102140000FD0CE4F14D0CE4F19D0CE4F1ED0CE4F81
:1021500023D0CE4F28D0CE4F2FD0CE4F34D0120028
:102160000B0E3DD8EAEC10F0020ECE6F12000C0EF2
:1021700049D8EAEC10F0030ECE6F1200110E2FD8E2
:10218000EAEC10F0040ECE6F1200120E3BD8EAEC0F
:1021900010F0050ECE6F1200130E34D8EAEC10F0DA
:1021A000060ECE6F1200060ECE6F1D0E3ED8EAEC64
:1021B00010F0070ECE6F1200200E24D8EAEC10F0BB
:1021C000080ECE6F1200210E1DD8EAEC10F0010EA1
:1021D000CE6F1200316F3167120023EF27F0386F96
:1021E000BAEC0EF031C151F132C152F1385180ECEC
:1021F00010F031C153F132C154F105EC0AF01EA7C1
:10220000FF0C000C386FBAEC0EF031C153F132C143
:1022100054F1385180EC10F031C151F132C152F11A
:1022200005EC0AF01EA7FF0C000C386FBAEC0EF09C
:1022300031C153F132C154F1CEC151F1526B05ECB1
:102240000AF01EA7FF0C000C2397239912002A976F
:102250008196010EB96F1E9F59EC0DF0B76B1F9957
:10226000209120931F8F208760EC1CF0D0EC1BF096
:102270002397239955EC11F020B124D01FAFB4EF70
:1022800048F01FB116EC3CF01FB1F6EC41F01FB165
:102290004CEC3BF01FB177EC46F01F911FB9B4EF47
:1022A00048F01FB3B4EF48F0E5D723A908D0208346
:1022B000B92B060EB96518D0010EB96F15D023B72A
:1022C00020811200B94FD5EF2CF0B94F8EEF33F0CB
:1022D000B94F27EF13F0B94FBDEF11F0B94F7AEFB7
:1022E00011F0B94FB4EF48F0B76B20B7D0EC1BF04A
:1022F00023991200010EB96F1E9F59EC0DF0B76BB8
:102300001F99209120931F8F2087B4EC1CF0D0ECF4
:102310001BF02397239955EC11F0050EB96304D0F7
:10232000060EB96FD0EC1BF020B115D01FAF8FD7C0
:102330001FB116EC3CF01FB1F6EC41F01FB14CECB4
:102340003BF01FB177EC46F01F911FB980D71FB348
:10235000B4EF48F0E0D7B94FCDEF14F0B94F4EEFDE
:1023600031F0B94F70EF32F0B94FBFEF49F0B94FCC
:10237000BFEF49F0050EB96F6ED72A97010EB96FFE
:102380001E9F59EC0DF07EEC1CF0B76B1F9920914D
:1023900020931F8F20870AEC12F0B6EC12F0D0ECDD
:1023A0001BF02397239955EC11F020B117D01FAFE4
:1023B000B4EF48F01FB116EC3CF01FB1F6EC41F061
:1023C0001FB14CEC3BF01FB177EC46F01F911FB9E9
:1023D000B4EF48F01FB3B4EF48F0E5D7B94FD8EFEA
:1023E0000EF0B94FD4EF0EF0B94FACD0B94F03D0C7
:1023F000B94F5CD036D02A87220ED0EC0BF0A82A39
:10240000060EA86201D0A86AFDEC0BF0040EB96FAD
:102410002399BBD7220ED0EC0BF0A86604D0650E32
:1024200090EC09F01200A82E04D0660E90EC09F092
:102430001200A82E04D0680E90EC09F01200A82E0D
:1024400004D08A0E90EC09F01200A82E04D0980E49
:1024500090EC09F01200A82E1200EC0E90EC09F09E
:1024600012002AA7B4EF48F059EC0DF0B9EC29F0AE
:10247000010EE8CF7FF0EB0E90EC09F0000EE8CFF4
:102480007FF0220ED0EC0BF0070EA802F350C10F24
:10249000B96F070E386FB95190EC09F0B92B382F8E
:1024A000FAD71E0E68EC49F0B4EF48F0010EB96F90
:1024B0001E9F59EC0DF09CEC1CF0B76B1F992091FE
:1024C00020931F8F208718EC13F0F2EC12F0D0EC61
:1024D0001BF02397239955EC11F0040EB96304D037
:1024E000060EB96FD0EC1BF020B117D01FAFB4EFC0
:1024F00048F01FB116EC3CF01FB1F6EC41F01FB1F3
:102500004CEC3BF01FB177EC46F01F911FB9BDEFCB
:1025100011F01FB3B4EF48F0DED7B94F54D0B94F24
:1025200074D0B94F07D0B94F28D7B94F26D7050E69
:10253000B96F26D748EC49F063EC49F0030EB96F48
:102540002399B6D71A0ED0EC0BF0A82A630EA86414
:102550000AD0690EA86007D01A0ECEEC0BF0030E5D
:10256000B96F239912D7640EA86EF6D71A0ED0EC65
:102570000BF0630EA86421D8690EA8601ED85F0E08
:10258000E8CF7CF0530EE8CF7DF0000EE8CF7EF070
:1025900020EE60F0A8CF31F1326B1E8F030E55ECA8
:1025A0000BF01E9F6B0EDE6E670EDE6E2F0EDE6E64
:1025B0006C0EDE6E4EEC0CF01200640EA86E1A0E5D
:1025C000CEEC0BF012005B0ED0EC0BF0A82A020E42
:1025D000A86401D0A86A5B0ECEEC0BF0010EB96FB7
:1025E00023996BD75B0ED0EC0BF0A86604D0030EDA
:1025F0008DEC09F01200A82E04D0040E8DEC09F029
:102600001200050E8DEC09F01200270ED0EC0BF035
:10261000A82A010EA86401D0A86A270ECEEC0BF000
:102620002985010EA8622995020EB96F239945D715
:10263000270ED0EC0BF0A86603D0830E90EC09F0C7
:10264000A806A866F6D6820E90EC09F01200010EDC
:10265000B96F59EC0DF0CFEC1CF0B76B1F992091BE
:1026600020931F8F2087CFEC1CF0D0EC1BF023971A
:10267000239955EC11F020B116D01FAFE8D51FB14A
:1026800016EC3CF01FB1F6EC41F01FB14CEC3BF006
:102690001FB177EC46F01F911FB927EF11F01FB360
:1026A000B4EF48F0E6D7B94F08D0B94F3AD0B94F98
:1026B00016D0B94F05D0B94F20D0030EB96FCBD586
:1026C0003EEC20F0B96FB96701D0F7D7A9EC0CF058
:1026D000000E9B6E7E0ED36EFF0000EF00F03EEC0E
:1026E00020F0B96FB96701D0E8D759EC0DF0190E99
:1026F00090EC09F0A6EC14F0E0D73EEC20F0B96FB6
:10270000B96701D0DAD759EC0DF0190E90EC09F049
:102710008CC100F58DC101F520EC80F00101B4EF12
:1027200048F03EEC20F0B96FB96701D0C6D759EC3C
:102730000DF0190E90EC09F08CC100F58DC101F57A
:1027400020EC80F00101AA6A030EA96E326B150E0F
:10275000E5D8150EE3D8150EE1D8150EDFD8150E05
:10276000DDD8150EDBD8010EA86E210ECEEC0BF0D5
:10277000A86A220ECEEC0BF0A86A230ECEEC0BF06A
:10278000000EA86A270ECEEC0BF0A86A5A0ECEEC0B
:102790000BF0A86A5B0ECEEC0BF0640E1A0ECEECBA
:1027A0000BF01F0EA86E1B0ECEEC0BF0A86A1C0ED1
:1027B000CEEC0BF0A86A1D0ECEEC0BF0A86A1E0E34
:1027C000CEEC0BF0A86A1F0ECEEC0BF0A86A200E20
:1027D000CEEC0BF0640EA86E240ECEEC0BF0250EA2
:1027E000CEEC0BF0260ECEEC0BF0010ECB6FCC6BCB
:1027F0007F0EA96E326B640E91D81E0E8FD8F00E2C
:102800008DD8780E8BD8050E89D8070E87D8040E80
:10281000326F328F880E82D8040E326F328F4C0E98
:102820007DD8140E7BD8140E79D81E0E77D86E0E74
:1028300075D85A0E73D83C0E71D8640E6FD80A0E34
:102840006DD80A0E6BD8130E69D8A00E67D8960EF5
:1028500065D80A0E63D8060E61D8060E5FD8000E42
:102860005DD8000E5BD8000E59D8000E57D8140E54
:1028700055D8326B328F000E51D8030E4FD80A0E46
:102880004DD8000E4BD8010EAA6E7F0EA96E326B8A
:102890001E0E44D85A0E42D8C70E40D8FF0E3ED85E
:1028A0003E0E3CD8E00E3AD8000E38D8000E36D88E
:1028B000000E34D8000E32D8000E30D8320E326FEF
:1028C000328FC80E2BD8650E29D8650E27D8A10ED9
:1028D00025D80F0E23D82A0E21D8000E1FD8000E9F
:1028E0001DD8000E1BD8000E19D8000E17D8000EE8
:1028F00015D8000E13D8000E11D8000E0FD8000EF8
:102900000DD8000E0BD8000E09D8000E07D8000E07
:1029100005D8000E03D8AA6AB4EF48F0316FA92A8F
:1029200031C1A8FFFDEC0BF0A92A32C1A8FFFDECD4
:102930000BF0A92A31C1A8FFFDEC0BF0A92A329FA8
:1029400032C1A8FFFDEC0BF0326B1200BC6BBD6B0B
:10295000020E356F366B400E396F22933A693A5149
:10296000D5EC2BF0392FFAD7C5848AEC2CF0070E62
:1029700006EC0BF0362FEFD7352FECD72293BC6B3C
:10298000BD6BFD0EC9EC2BF0FD0EC9EC2BF0FE0E5D
:10299000C9EC2BF0BC6BBD6B120059EC0DF020950F
:1029A00020992097B76B209120931F992191219313
:1029B0002195BA6BB9EC29F0010EE8CF7FF01D0E1E
:1029C00090EC09F0000EE8CF7FF0160E90EC09F0C5
:1029D000170E90EC09F007EC15F0180E90EC09F0CA
:1029E0002397239923B7CCEC15F023B998EC15F075
:1029F00020B942D01FB116EC3CF01FB1F6EC41F00B
:102A00001F911FB991D01FB3B4EF48F0EBD7460E1A
:102A1000E8CF7DF0410EE8CF7CF020EE60F005C1FC
:102A200031F1376B372B366B47EC0BF03A0EDE6E1D
:102A300004C131F1376B372B366B47EC0BF0200EAE
:102A4000DE6E200EDE6E4EEC0CF0460EE8CF7DF012
:102A50005F0EE8CF7CF020EE60F007C1EEF106C11A
:102A6000EFF108C1F0F1A7EC22F0200EDE6E200E8F
:102A7000DE6E4EEC0CF0120007C131F1314F1F0E2B
:102A8000314F1C0E314F1F0E314F1E0E314F1F0E96
:102A9000314F1E0E314F1F0E314F1F0E314F1E0E84
:102AA000314F1F0E314F1E0E314F1F0E066502D0E3
:102AB000010E066F200EE8CF7DF09B0EE8CF7CF074
:102AC000080E386F4AEC1BF0050E0A6F036B1F915E
:102AD0001FA1FED71F9125EC15F0460EE8CF7DF023
:102AE000410EE8CF7CF020EE60F005C131F1376B8C
:102AF000372B366B47EC0BF03A0EDE6E04C131F12A
:102B0000376B372B366B47EC0BF03A0EDE6E03C19A
:102B100031F1376B372B366B47EC0BF0200EDE6E46
:102B20004EEC0CF00A2FD4D7010EB96F7CEF11F0E8
:102B300021B12089BA2BBAC1BBF1BB4F2085BB4F55
:102B40002185BB4F2183BB4F2181200EE8CF7DF033
:102B50009B0EE8CF7CF020EE60F05E0E89EC09F071
:102B6000BAC1BBF1BB2F04D05A0E89EC09F00FD0CB
:102B7000BB2F04D05B0E89EC09F009D0BB2F04D029
:102B80005C0E89EC09F003D05D0E89EC09F04EEC87
:102B90000CF024EC11F012002399036B21B120D02A
:102BA00021B310D021B515D020B506D0052B170EB6
:102BB00005651CD0056B1AD0042B3B0E046516D09E
:102BC000046B14D0062B1F0E066510D0010E066F85
:102BD0000DD0072B0C0E076509D0010E076F06D02C
:102BE000082B140E086502D0080E086F07EC15F0CC
:102BF00024EC11F012007B6B080E7A6F6BC17CF134
:102C00006CC17DF1BDEC0AF0100E7627270E7723FC
:102C100071C180F172C181F176C182F177C183F116
:102C2000A6EC0AF07EC184F17FC185F129B71ED0E0
:102C3000229584C17AF185C17BF184C17CF185C183
:102C40007DF1BDEC0AF0110E756F96EC0AF084C1AF
:102C500080F185C181F176C182F177C183F1A6EC63
:102C60000AF07EC186F17FC187F117D0228584C129
:102C70007AF185C17BF184C17CF185C17DF1BDEC28
:102C80000AF00F0E756F96EC0AF084517627855185
:102C9000772376C186F177C187F169C180F16AC176
:102CA00081F1FA0E826F836BA6EC0AF07EC17AF195
:102CB0007FC17BF184C17CF185C17DF1BDEC0AF05F
:102CC00076C173F177C174F10C0E756F90EC0AF058
:102CD00073C176F174C177F129A70DD063517627BE
:102CE00064517723100E7627270E772376C188F15B
:102CF00077C189F10FD063C180F164C181F176C1E0
:102D000082F177C183F1A6EC0AF07EC176F17FC132
:102D100077F1E8D765C167F166C168F1C80E67272A
:102D2000000E682367C17AF168C17BF184C17CF130
:102D300085C17DF1BDEC0AF076C173F177C174F104
:102D40000D0E756F90EC0AF073C18AF174C18BF1AE
:102D500061C173F162C174F1010E756F90EC0AF0FC
:102D600073518A2774518B23B80E8A270B0E8B233D
:102D70006FC180F170C181F188C182F189C183F195
:102D8000A6EC0AF07EC17AF17FC17BF18AC17CF1A9
:102D90008BC17DF1BDEC0AF00C0E756F96EC0AF05C
:102DA00029B79EEC0AF0E80E7627030E772376C14A
:102DB0008CF177C18DF124AD04D0C5C18CF1C6C1B1
:102DC0008DF16DC167F16EC168F1640E6727000E69
:102DD000682367C17AF168C17BF186C17CF187C144
:102DE0007DF1BDEC0AF00B0E756F96EC0AF0239D99
:102DF00022B509D0C80E7627000E772376C196F14A
:102E000077C197F11200C80E806F816B76C182F195
:102E100077C183F1A6EC0AF029B7238D7EC196F124
:102E20007FC197F11200C7D8A00E3C6F0C0E576FF0
:102E3000FBD81200D6D856C170F155C16FF11200FF
:102E4000BAD8900EF2D7CDD856C172F155C171F1F2
:102E50001200B1D80D0E576F540E3C6FE5D8C1D893
:102E600056C15AF155C159F10D0E576F580E3C6FAE
:102E7000DBD8B7D856C15CF155C15BF10D0E576F69
:102E8000640E3C6FD1D8ADD856C15EF155C15DF12D
:102E90000D0E576F680E3C6FC7D8A3D856C160F1AE
:102EA00055C15FF15AC162F1D8906233D890623354
:102EB000D890623359C161F1D8805AA1D89061335A
:102EC000D8805AA3D8906133D8805AA5D89061335E
:102ED0005BC163F1D8805CA1D8906333D8805CA3D8
:102EE000D8906333D8805CA5D8906333D8805CA732
:102EF000D8906333D8805CA9D8906333D8805CAB1A
:102F0000D89063335CC164F1D88059A1D890643300
:102F1000D88059A3D8906433D88059A5D890643309
:102F2000D8906433D8906433D89064335EC165F12F
:102F3000D8805DAFD8906537D8805DADD8906537C3
:102F4000666B5EBF66835EBD668160C169F1D880D5
:102F50005FAFD89069376A6B60BF6A815DC16BF102
:102F60006B9D5BB16B8D6B9F5BB36B8F6C6B5BB55C
:102F70006C815BB76C835BB96C855BBB6C876E6B7C
:102F80005FC16DF16D9F229F120080820000808ED4
:102F9000000000000000000000000000809E120001
:102FA00080920000808E0000000000000000000001
:102FB0000000809E1200E9DFF3DFE7DFF1DFE5DFED
:102FC000EFDFE3DFEDDFE1DFEBDFDFDFE9DFDDDFD9
:102FD000E7DFDBDFE5DFE4DFE3DFE2DFE1DFE0DFE8
:102FE0001200080E576F10D83CC156F1080E576FEB
:102FF0000BD83CC155F1808E00000000000000009D
:1030000000000000809E1200808E00000000000082
:10301000000000000000809E80A8D89080B8D88072
:103020003C37572FF1D71200809E8082030E575FE6
:10303000808E000000000000000000000000809E64
:10304000000000000000000000000000808E000072
:1030500000000000000000000000809E0000000052
:103060000000000000000000808E00000000000052
:10307000000000000000809E3CAF80923CBF808238
:10308000D8903C37808E0000000000000000000057
:103090000000809E572FF0D71200240EA6EC0EF0F1
:1030A00007D0250EA6EC0EF003D0230EA6EC0EF0F2
:1030B0002D6F000E2D6301D018D0040E2D6301D0AA
:1030C00014D0080E2D6301D010D0C00E2D6301D096
:1030D0000CD0C40E2D6301D008D0C80E2D6301D0D2
:1030E00004D02D514EEC0EF01200FF0E4EEC0EF0FF
:1030F0001200D96FD94F08D0D94F2DD0D94F39D020
:10310000D94F45D0D94F59D032C134F131C133F103
:103110008FC132F18EC131F191EC2BF031C151F1FF
:1031200032C152F12B0EBAEC0EF031C153F132C163
:1031300054F105EC0AF01EA707D055EC18F034C185
:1031400032F133C131F1120051EC18F034C132F1D7
:1031500033C131F1120065C531F12C0EA6EC0EF031
:10316000315DD8B003D055EC18F0120051EC18F0D6
:10317000120032C531F12D0EA6EC0EF0315DD8B043
:1031800003D055EC18F0120051EC18F0120047C1B2
:1031900051F148C152F12E0EA6EC0EF0640DF3CFA2
:1031A00053F1F4CF54F105EC0AF01EA703D055EC0F
:1031B00018F0120051EC18F012001EA708D044C1FC
:1031C00031F12F0EA6EC0EF0315DD8B003D055ECE6
:1031D00018F0120051EC18F01200D96FD7C1D8F1D5
:1031E000D6C1D7F1D5C1D6F1D4C1D5F1D3C1D4F16F
:1031F000D9C1D3F129A51200C80EE8CF7CF0640E26
:10320000E8CF7DF0000EE8CF7EF0000EE8CF7FF033
:1032100055EC18F020EE60F0D351DE6ED451DE6E26
:10322000D551DE6ED651DE6ED751DE6ED851DE6ED0
:10323000200EDE6E4EEC0CF01200819697EC0DF035
:1032400059EC0DF055EC18F0000EE8CF7FF0850E2C
:1032500090EC09F0860E90EC09F0870E90EC09F0E6
:10326000880E90EC09F0640EE8CF7CF00A0EE8CFEF
:103270007DF0000EE8CF7EF0000EE8CF7FF055EC39
:1032800018F020EE60F0D351DE6ED451DE6ED551D1
:10329000DE6ED651DE6ED751DE6ED851DE6E2E0E4A
:1032A000DE6E200EDE6E1EC131F1376B372B366BB2
:1032B0004CEC0BF0200EDE6E1FC131F1376B372B5B
:1032C000366B4CEC0BF04EEC0CF07D0EE8CF7CF046
:1032D0000A0EE8CF7DF0000EE8CF7EF0000EE8CFBA
:1032E0007FF055EC18F020EE60F020C131F1376B23
:1032F000372B366B4CEC0BF0200EDE6E21C131F11A
:10330000376B372B366B4CEC0BF0200EDE6E22C188
:1033100031F1376B372B366B4CEC0BF0200EDE6E39
:1033200023C131F1376B372B366B4CEC0BF0200E91
:10333000DE6E24C131F1376B372B366B4CEC0BF062
:103340004EEC0CF0960EE8CF7CF00A0EE8CF7DF044
:10335000000EE8CF7EF0000EE8CF7FF055EC18F0BD
:1033600020EE60F025C131F1376B372B366B4CEC1A
:103370000BF0200EDE6E26C131F1376B372B366B2A
:103380004CEC0BF0200EDE6E27C131F1376B372B82
:10339000366B4CEC0BF0200EDE6E28C131F1376B32
:1033A000372B366B4CEC0BF0200EDE6E29C131F161
:1033B000376B372B366B4CEC0BF04EEC0CF023A735
:1033C000FED7819812004DEC18F00B0E8DEC09F031
:1033D000560E90EC09F0570E90EC09F055EC18F0F1
:1033E0001200000EE8CFF1F13C0EE8CFF2F1EF0E43
:1033F000E8CFF3F15A0EE8CFF4F19F0EE8CFF5F1E4
:10340000F1EC0CF039EC1DF0A6EC1DF01200E9DF38
:103410004DEC18F0540E90EC09F055EC18F0080E35
:10342000386F910EE8CF7CF0000EE8CF7DF04AECCB
:103430001BF012002AB512007A0EEDEC18F0B90E4E
:10344000E8CF7CF0770EE8CF7DF0010EE8CF7EF07C
:10345000000EE8CF7FF055EC18F020EE60F022C5AA
:1034600031F1376B372B366B4CEC0BF0270EDE6EE1
:103470004EEC0CF0000EE8CF7EF01200B2DF4DEC07
:1034800018F0550E90EC09F055EC18F012002AB522
:1034900012001FBF31D0790EEDEC18F04DEC18F092
:1034A000520E90EC09F055EC18F0760EE8CF7CF057
:1034B0005E0EE8CF7DF0010EE8CF7EF0000EE8CF83
:1034C0007FF055EC18F020EE60F02BC531F1376B32
:1034D000372B366B36EC0BF06D0EDE6E24C531F1FA
:1034E000376B372B366B36EC0BF0270EDE6E4EEC5F
:1034F0000CF0000EE8CF7EF02AB51200780EEDEC4D
:1035000018F0B90EE8CF7CF0770EE8CF7DF0010E11
:10351000E8CF7EF0000EE8CF7FF055EC18F020EEFB
:1035200060F031C531F1C70E3161316F1E9F376BCD
:10353000372B366B4CEC0BF0270EDE6E4EEC0CF09E
:1035400032C531F1080EA6EC0EF0316101D067D71B
:10355000770EEDEC18F0910EE8CF7CF0000EE8CF7E
:103560007DF0000EE8CF7EF0030E79EC18F020EE2F
:1035700060F0470EDE6E460EDE6E3A0EDE6E32C52F
:1035800031F1376B372B366B4CEC0BF0250EDE6EC2
:10359000200EDE6E4EEC0CF055EC18F01200410ED1
:1035A000E8CF7CF0690EE8CF7DF0000EE8CF7EF02A
:1035B00055EC18F020EE60F0E8C131F11E8F376B4A
:1035C000372B366B4CEC0BF01E9F6D0EDE6E690ECA
:1035D000DE6E6E0EDE6E200EDE6E4EEC0CF05F0EBA
:1035E000E8CF7CF0640EE8CF7DF0000EE8CF7EF0EF
:1035F00055EC18F020EE60F0E9C131F11E8F376B09
:10360000372B366B4CEC0BF01E9F6D0EDE6E200ED2
:10361000DE6E4EEC0CF012002AB51200760EEDECC8
:1036200018F05A0EE8CF7CF0000EE8CF7DF0000EC7
:10363000E8CF7EF0050E79EC18F020EE60F02D0E4C
:103640001EB72B0EDE6E44C131F1376B372B366B54
:1036500036EC0BF0530E89EC09F04EEC0CF055EC07
:1036600018F02A891200080E386F5A0EE8CF7CF045
:10367000000EE8CF7DF02A990DD0060E386F020EAD
:10368000E8CF7CF0730EE8CF7DF004D0010EE8CFD8
:103690007EF003D0000EE8CF7EF020EE60F0200E2A
:1036A000DE6E382FFCD74EEC0CF0000EE8CF7EF02B
:1036B0001200630EEDEC18F0320EE8CF7CF0000E35
:1036C000E8CF7DF0000EE8CF7EF0000EE8CF7FF06F
:1036D00055EC18F020EE60F019C131F1316705D0DA
:1036E0001AC131F1316701D039D02CAF34D0B62FA7
:1036F00001D034D02C8F060EB66125D819C131F116
:103700001AC132F1E2EC09F0325131C132F1316FBC
:10371000490EDE6E6E0EDE6E740EDE6E3A0EDE6EDC
:10372000376B372B366B47EC0BF03A0EDE6E32C13F
:1037300031F1376B372B366B47EC0BF0200EDE6E1A
:103740004EEC0CF012002C9F050EB66F12002C8F61
:10375000050EB66F1200B62F01D0CCD72C9F060EE7
:10376000B661F5DF05C131F1376B372B366B47ECAE
:103770000BF03A0EDE6E04C131F1376B372B366B2E
:1037800047EC0BF03A0EDE6E03C131F1376B372B8D
:10379000366B47EC0BF0200EDE6E4EEC0CF0120098
:1037A000230EE8CF7CF0000EE8CF7DF0000EE8CFCE
:1037B0007EF0000EE8CF7FF055EC18F020EE60F0C0
:1037C000B80EDE6E4EEC0CF0410EE8CF7CF0000E31
:1037D000E8CF7DF0000EE8CF7EF0000EE8CF7FF05E
:1037E00020EE60F0B80EDE6E4EEC0CF05F0EE8CF0F
:1037F0007CF0000EE8CF7DF0000EE8CF7EF0000EEA
:10380000E8CF7FF020EE60F0B80EDE6E4EEC0CF0EC
:103810007D0EE8CF7CF0000EE8CF7DF0000EE8CF03
:103820007EF0000EE8CF7FF020EE60F0B80EDE6E86
:103830004EEC0CF09B0EE8CF7CF0000EE8CF7DF054
:10384000000EE8CF7EF0000EE8CF7FF055EC18F0C8
:1038500020EE60F0B80EDE6E4EEC0CF0B90EE8CF44
:103860007CF0000EE8CF7DF0000EE8CF7EF0000E79
:10387000E8CF7FF020EE60F0B80EDE6E4EEC0CF07C
:10388000B9C138F1384F230E384F410E384F5F0E13
:10389000384F7D0E384F9B0E384FB90EE8CF7CF075
:1038A000000EE8CF7DF0000EE8CF7EF0000EE8CFEE
:1038B0007FF020EE60F0B70EDE6E4EEC0CF01200E2
:1038C000B9EC29F0010EE8CF7FF0050E90EC09F07D
:1038D000000EE8CF7FF0060E90EC09F0070E90EC9A
:1038E00009F0090E90EC09F00A0E90EC09F08E0E2A
:1038F00090EC09F00B0E90EC09F01200B9EC29F0F5
:10390000010EE8CF7FF0620E90EC09F0000EE8CFD8
:103910007FF0630E90EC09F0990E90EC09F0140E14
:103920008DEC09F0640E90EC09F08E0E90EC09F02D
:103930000B0E90EC09F01200B9EC29F0010EE8CF63
:103940007FF0020E8DEC09F0000EE8CF7FF0010E43
:103950008DEC09F0810E90EC09F0BB0E90EC09F0B3
:103960000B0E90EC09F01200B9EC29F0010EE8CF33
:103970007FF0900E90EC09F0000EE8CF7FF0080E7B
:1039800090EC09F06E0E90EC09F0710E90EC09F0DD
:10399000F70E90EC09F00B0E90EC09F01200B9EC68
:1039A00029F0010EE8CF7FF01C0E90EC09F0000E1C
:1039B000E8CF7FF0150E90EC09F0F50E90EC09F0D1
:1039C0001C0E8DEC09F01D0E8DEC09F01E0E8DEC19
:1039D00009F00B0E90EC09F01200B9EC29F0010E81
:1039E000E8CF7FF0F80E90EC09F0000EE8CF7FF002
:1039F000F90E90EC09F0150E8DEC09F0160E8DEC19
:103A000009F0170E8DEC09F0180E8DEC09F00B0E75
:103A100090EC09F01200650EEDEC18F096C198F1EB
:103A200097C199F1640EE8CF7CF0000EE8CF7DF0ED
:103A3000000EE8CF7EF0000EE8CF7FF055EC18F0D6
:103A400020EE60F02D0E23BDDE6E96C131F197C1E0
:103A500032F1030E376F1E8F020E55EC0BF01E9FD6
:103A6000B00EDE6E430EDE6E200EDE6E4EEC0CF0FF
:103A700012002AB51200750EEDEC18F096C198F1FF
:103A800097C199F1D80EE8CF7CF0410EE8CF7DF0D8
:103A9000000EE8CF7EF0000EE8CF7FF055EC18F076
:103AA00020EE60F02D0E23BDDE6E96C131F197C180
:103AB00032F1030E376F1E8F020E55EC0BF01E9F76
:103AC000B00EDE6E200EDE6E4EEC0CF01200740EA8
:103AD000EDEC18F0780EE8CF7CF0000EE8CF7DF02A
:103AE000000EE8CF7EF0040E79EC18F020EE60F0C6
:103AF000700EDE6E700EDE6E4F0EDE6E320EDE6EFD
:103B00003A0EDE6E47C131F148C132F12887010E0D
:103B100055EC0BF02897200EDE6E4EEC0CF055ECB9
:103B200018F012000A0E386F780EE8CF7CF0000E05
:103B3000E8CF7DF04AEC1BF01200C00EE8CF7CF01D
:103B4000410EE8CF7DF0050E386FA4D529BB1200D9
:103B50002AB51200000EE8CF7FF0C4EC1DF02BADAB
:103B600012002A0EA6EC0EF0316F010E3163120026
:103B70002C772CA71200010EE8CF7FF0C4EC1DF0CB
:103B8000000EE8CF7FF01200730EEDEC18F0C00EBF
:103B9000E8CF7CF0410EE8CF7DF0000EE8CF7EF05C
:103BA00055EC18F0640E10C531F1D880315511C5AF
:103BB00031F1D8803157090EA6EC0EF011C532F163
:103BC000316501D005D0326703D0050E386F62D55C
:103BD000150E31630ED032670CD020EE60F0080E67
:103BE00086EC09F0200E2BBD2A0EDE6E4EEC0CF09A
:103BF000120020EE60F01E8F376B372B366B4CECCB
:103C00000BF02F0EDE6E11C531F1376B372B366B93
:103C10004CEC0BF0200E2BBD2A0EDE6E1E9F4EECE0
:103C20000CF01200550EE8CF7DF0000EE8CF7EF0CC
:103C3000000EE8CF7FF0AA6A220ED0EC0BF0A86647
:103C400020D07D0EE8CF7CF055EC18F020EE60F02F
:103C50004F0EDE6E4EEC0CF0550EE8CF7DF0000EF0
:103C6000E8CF7EF0000EE8CF7FF0960EE8CF7CF034
:103C700055EC18F020EE60F0430EDE6E4EEC0CF0CA
:103C80001200A806A86601D01200A806A86629D0CE
:103C90007D0EE8CF7CF055EC18F020EE60F0430E7E
:103CA000DE6E550EE8CF7DF0000EE8CF7EF0000E00
:103CB000E8CF7FF04EEC0CF0960EE8CF7CF055ECA0
:103CC00018F020EE60F0430EDE6E550EE8CF7DF06A
:103CD000000EE8CF7EF0000EE8CF7FF04EEC0CF047
:103CE0001200A806A86601D01200A806A86629D06E
:103CF0007D0EE8CF7CF020EE60F0470EDE6E550EB4
:103D0000E8CF7DF0000EE8CF7EF0000EE8CF7FF028
:103D100055EC18F04EEC0CF0960EE8CF7CF020EE4F
:103D200060F0460EDE6E550EE8CF7DF0000EE8CF57
:103D30007EF0000EE8CF7FF055EC18F04EEC0CF062
:103D400012007D0EE8CF7CF020EE60F0470EDE6EB4
:103D5000550EE8CF7DF0000EE8CF7EF0000EE8CFE4
:103D60007FF055EC18F04EEC0CF0960EE8CF7CF09E
:103D700020EE60F0460EDE6E550EE8CF7DF0000EB0
:103D8000E8CF7EF0000EE8CF7FF055EC18F04EEC57
:103D90000CF01200000EE8CFF1F1190EE8CFF2F1AD
:103DA000780EE8CFF3F1520EE8CFF4F19F0EE8CF92
:103DB000F5F1F1EC0CF028B15ED06D0EEDEC18F0E1
:103DC0005A0EE8CF7DF0000EE8CF7EF01E8F020E77
:103DD0000A6F000E096F326B322B040E0A2720EE99
:103DE00060F0470EDE6E32C131F1376B372B366B28
:103DF0004CEC0BF03A0EDE6E200EDE6E0AC1A9FF0F
:103E0000F9EC0BF0A8CF31F1376B372B366B4CEC5C
:103E10000BF02F0EDE6EA92AF9EC0BF0A8CF31F1D2
:103E2000376B372B366B4CEC0BF01B0ED0EC0BF0DA
:103E300032C131F1A832312FFDD7D8B004D04A0EAB
:103E40004EEC0EF002D055EC18F0210ED0EC0BF039
:103E5000A850326301D009D0190E09275A0EE8CFB5
:103E60007DF009C17CF04EEC0CF055EC18F0050E1D
:103E70003263B2D712005A0EE8CF7DF0000EE8CFC1
:103E80007EF01E8F230E0A6F000E096FE46B0A2B63
:103E9000E42B190E09275A0EE8CF7DF009C17CF0FA
:103EA00020EE60F0530EDE6E500EDE6EE4C131F196
:103EB000376B372B366B4CEC0BF03A0EDE6E200E68
:103EC000DE6E0AC1A9FFF9EC0BF0A8CF31F1326B1D
:103ED000030E55EC0BF04EEC0CF0030EE463D7D759
:103EE000210ED0EC0BF0A8CFD0F1D005040DF3508B
:103EF000070FA96EF9EC0BF0A8CF32F1D005040D35
:103F0000F350060FA96EF9EC0BF0A8CF31F15A0E61
:103F1000E8CF7DF0640EE8CF7CF020EE60F0440E38
:103F2000DE6E690EDE6E6C0EDE6E3A0EDE6E376B86
:103F3000372B366B4CEC0BF02F0EDE6E32C131F1AD
:103F4000376B372B366B4CEC0BF04EEC0CF01E9FA6
:103F50001200710EEDEC18F029BB120027BF120001
:103F600028A123D0870EE8CF7CF05A0EE8CF7DF051
:103F7000000EE8CF7EF0000EE8CF7FF055EC18F091
:103F800020EE60F0240ED0EC0BF0A8CF31F1326BB4
:103F9000030E55EC0BF0420EDE6E610EDE6E720EFD
:103FA000DE6E1E9F4EEC0CF057D0820EE8CF7CF0F8
:103FB000640EE8CF7DF0010EE8CF7EF0000EE8CF72
:103FC0007FF055EC18F0210ED0EC0BF0A8CFD0F11B
:103FD000D005040DF350070FA96EF9EC0BF0A8CF34
:103FE00011F5D005040DF350060FA96EF9EC0BF096
:103FF000A8CFCFF111C50AF1D880640E0A55D88038
:10400000A856A8CF10F5640E10C531F1D8803155EF
:1040100011C531F1D880315711C532F1150E316318
:1040200006D0326704D0090E8DEC09F015D020EED1
:1040300060F01E8F376B372B366B4CEC0BF02F0E6E
:10404000DE6E11C531F1376B372B366B4CEC0BF054
:104050001E9F4EEC0CF000D0000EE8CFF1F17A0E6E
:10406000E8CFF2F1AF0EE8CFF3F1520EE8CFF4F162
:104070009F0EE8CFF5F1B1EC0CF01200000EE8CF86
:10408000F1F1440EE8CFF2F1920EE8CFF3F1220EF7
:10409000E8CFF4F1650EE8CFF5F1F1EC0CF0230E6A
:1040A000A6EC0EF0E8CFF1F1460EE8CFF2F1900E5B
:1040B000E8CFF3F1230EE8CFF4F1640EE8CFF5F189
:1040C000B1EC0CF08F0E90EC09F0910E90EC09F031
:1040D000920E90EC09F0010EB96F000EE8CFF1F1ED
:1040E000600EE8CFF2F18F0EE8CFF3F1270EE8CFA4
:1040F000F4F1330EE8CFF5F1F1EC0CF0B9C138F181
:10410000600E384F600E384F780EE8CF7CF0270EE7
:10411000E8CF7DF0000EE8CF7EF0000EE8CF7FF014
:1041200055EC18F020EE60F0B70EDE6E4EEC0CF0A1
:104130001F992091209323992397B76B640E06EC67
:104140000BF0F7EC2FF020B315D020B10ED01FB13B
:1041500016EC3CF01FB1F6EC41F01F911FB903D0F3
:104160001FB301D0EED7000C010CB94FFCD7B94FEB
:10417000FBD7F9D7B92B030EB96302D0010EB96F83
:10418000ACD7720EEDEC18F08FC132F18EC131F167
:1041900091EC2BF0270E326171D02ABB65EC21F037
:1041A0002A9B20EE60F0030E526FE80E516F32C171
:1041B00054F131C153F1532B000E542305EC0AF096
:1041C0001EA780D8180EE8CF7CF0000EE8CF7DF057
:1041D000020EE8CF7EF0000EE8CF7FF0010E79EC02
:1041E00018F0000E526F630E516F32C154F131C19D
:1041F00053F105EC0AF01EA70AD01E8F2887376BF3
:10420000372B366B365155EC0BF01E9F02D0300E1B
:10421000DE6E4EEC0CF02897010EE8CF7EF0320EE9
:10422000E8CF7CF0280EE8CF7DF0010E79EC18F095
:104230008FC132F18EC131F191EC2BF020EE60F0A4
:104240002E0EDE6E000E526F090E516F32C154F108
:1042500031C153F105EC0AF01EA707D0040E376FE9
:104260002385000E55EC0BF002D0300EDE6E4EECC6
:104270000CF02395000EE8CF7EF012002AAB65EC1F
:1042800021F020EE60F0180EE8CF7CF0000EE8CFB1
:104290007DF0020EE8CF7EF0000EE8CF7FF0010E39
:1042A00079EC18F028871E8F376B372B366B365119
:1042B00055EC0BF01E9F4EEC0CF02897000EE8CF4B
:1042C0007EF01200200EDE6E1200000EE8CFF1F13B
:1042D000180EE8CFF2F15A0EE8CFF3F1000EE8CF56
:1042E000F4F15A0EE8CFF5F1F1EC0CF02A8B120044
:1042F000680EEDEC18F0960EE8CF7CF0000EE8CFDB
:104300007DF0000EE8CF7EF0000EE8CF7FF055EC98
:1043100018F020EE60F00E0E89EC09F0200EDE6E33
:1043200020C531F121C532F1E2EC09F01E8F315187
:1043300032C131F1326F376B372B366B4CEC0BF0EF
:104340003A0EDE6E32C131F1376B372B366B47ECEC
:104350000BF01E9F4EEC0CF01200670EEDEC18F007
:104360007D0EE8CF7CF0000EE8CF7DF0000EE8CFA8
:104370007EF0000EE8CF7FF055EC18F020EE60F0F4
:10438000230E89EC09F0200EDE6ECBC131F1CCC1D9
:1043900032F1E2EC09F01E8F315132C131F1326F4E
:1043A000376B372B366B4CEC0BF03A0EDE6E32C1AE
:1043B00031F1310731BF316B376B372B366B47EC3F
:1043C0000BF01E9F4EEC0CF012001FBD1200620E8F
:1043D000EDEC18F0190EE8CF7CF0000EE8CF7DF080
:1043E000000EE8CF7EF0000EE8CF7FF055EC18F01D
:1043F00020EE60F08CC131F18DC132F11E8F376B30
:10440000372B366B365155EC0BF01E9F6D0EDE6E62
:10441000620EDE6E610EDE6E720EDE6E200EDE6EDF
:104420004EEC0CF01200660EEDEC18F01F0EA6EC30
:104430000EF0316F010E316323D0AF0EE8CF7CF068
:10444000000EE8CF7DF0000EE8CF7EF0000EE8CF42
:104450007FF055EC18F020EE60F0C1C131F1C2C11F
:1044600032F1010E376F23851E8F020E55EC0BF0D3
:104470001E9F560EDE6E200EDE6E4EEC0CF012000D
:10448000230EA6EC0EF0E8CFF1F1AE0EE8CFF2F17C
:10449000C20EE8CFF3F1000EE8CFF4F11F0EE8CF23
:1044A000F5F1B1EC0CF0040E516F100E526FC1C15A
:1044B00053F1C2C154F105EC0AF01EB745D0AC0E61
:1044C000536F0D0E546FC1C151F1C2C152F105ECD1
:1044D0000AF01EB736D04FC14BF150C14CF1140E4B
:1044E0004D6F4E6B39EC0AF047C10AF1020E0A65B6
:1044F0000A6F230EA6EC0EF0E8CFF1F1B50EE8CF6F
:10450000F2F1BB0EE8CFF3F11F0EE8CFF4F1210E6C
:10451000E8CFF5F1F1EC0CF0220EA6EC0EF0E8CFAE
:10452000F1F1B00EE8CFF2F1C00EE8CFF3F1010ED9
:10453000E8CFF4F10AC1F5F1F1EC0CF055EC18F00C
:104540001200010E0A6FD5D71E0E0A6FD2D75B0E6E
:10455000D0EC0BF0A8660ED0EEC131F11E8F376B98
:10456000372B366B47EC0BF01E9F2F0EDE6EEFC124
:1045700031F112D05B0ED0EC0BF0A82E1FD0EFC1A2
:1045800031F11E8F376B372B366B47EC0BF01E9FCC
:104590002F0EDE6EEEC131F11E8F376B372B366B6F
:1045A00047EC0BF01E9F2F0EDE6EF0C131F11E8F17
:1045B000376B372B366B47EC0BF01200F0C131F143
:1045C0001E8F376B372B366B47EC0BF01E9F2F0E71
:1045D000DE6EEEC131F11E8F376B372B366B47EC39
:1045E0000BF01E9F2F0EDE6EEFC131F11E8F376B69
:1045F000372B366B47EC0BF012005B0ED0EC0BF058
:10460000A86615D0EEC131F11E8F376B372B366B94
:1046100047EC0BF01E9F2F0EDE6EEFC131F11E8FA7
:10462000376B372B366B47EC0BF01E9F12005B0E7F
:10463000D0EC0BF0A82EE6D7EFC131F11E8F376B0F
:10464000372B366B47EC0BF01E9F2F0EDE6EEEC144
:1046500031F11E8F376B372B366B47EC0BF01E9FFB
:104660001200640EEDEC18F04B0EE8CF7CF0000E5B
:10467000E8CF7DF0000EE8CF7EF0000EE8CF7FF0AF
:1046800055EC18F020EE60F007C1EEF106C1EFF135
:1046900008C1F0F1A7EC22F04EEC0CF01200000E75
:1046A000E8CFF1F1000EE8CFF2F11A0EE8CFF3F106
:1046B000410EE8CFF4F1640EE8CFF5F1F1EC0CF027
:1046C00012002AB51200700EEDEC18F0B80EE8CF0B
:1046D0007CF0000EE8CF7DF0010EE8CF7EF0000EFA
:1046E000E8CF7FF055EC18F020EE60F090C131F18A
:1046F00091C132F191EC2BF01E8F2385030E55EC06
:104700000BF01E9F1E9D4EEC0CF0000EE8CF7EF0CD
:1047100012001FBF1200410EEDEC18F027BF92D01F
:1047200029BB90D0260EA6EC0EF0316F010E31633E
:1047300001D088D0A4C131F1A5C132F11E9F20EE75
:1047400060F0376B372B366B1E8D365155EC0BF006
:10475000140EE8CF7CF0780EE8CF7DF0010EE8CFA4
:104760007EF055EC18F04EEC0CF0000EE8CF7EF029
:1047700012001FBF12004DEC18F08C0E90EC09F0E7
:1047800055EC18F0550EE8CF7CF05A0EE8CF7DF0CE
:10479000010EE8CF7EF055EC18F0DFC131F11E9F1D
:1047A00020EE60F0376B372B366B4CEC0BF03A0E8B
:1047B000DE6EE0C131F1376B372B366B47EC0BF017
:1047C0004EEC0CF0000EE8CF7EF01200000EE8CFA9
:1047D000F1F13C0EE8CFF2F1770EE8CFF3F15A0E8B
:1047E000E8CFF4F19F0EE8CFF5F1F1EC0CF01200F8
:1047F0004DEC18F08B0E90EC09F055EC18F0910E82
:10480000E8CF7CF05A0EE8CF7DF0010EE8CF7EF0C5
:1048100055EC18F0DAC131F120EE60F0376B372B30
:10482000366B4CEC0BF03A0EDE6EDBC131F1376BC0
:10483000372B366B47EC0BF04EEC0CF0000EE8CF4C
:104840007EF01200A4C131F1A5C132F11E9F1E8D70
:1048500020EE60F0376B372B366B1E8D365155ECE2
:104860000BF03A0EDE6EA6C131F1376B372B366B8B
:1048700047EC0BF0140EE8CF7CF05A0EE8CF7DF039
:10488000010EE8CF7EF055EC18F04EEC0CF01E9DBA
:10489000000EE8CF7EF01200000EE8CFF1F1360EE8
:1048A000E8CFF2F1660EE8CFF3F13E0EE8CFF4F177
:1048B0009F0EE8CFF5F1F1EC0CF012001FBF1200D3
:1048C000560EEDEC18F04DEC18F01B0E8DEC09F0C7
:1048D00055EC18F0500EE8CF7CF06E0EE8CF7DF06E
:1048E000000EE8CF7EF055EC18F020EE60F017C116
:1048F00031F118C132F1020E315F000E325BE2EC91
:1049000009F031C10AF132C131F1326B000E1E9F44
:104910001E8D376B372B366B1E8D365155EC0BF0D9
:104920003A0EDE6E0AC131F1376B372B366B47EC2E
:104930000BF01E9F4EEC0CF0550EEDEC18F0500EE7
:10494000E8CF7CF03E0EE8CF7DF0000EE8CF7EF0A1
:1049500055EC18F020EE60F092C131F193C132F1C4
:1049600091EC2BF01E8F2385030E55EC0BF01E9F50
:104970006D0EDE6E200EDE6E4EEC0CF01200610E3F
:10498000EDEC18F0000EE8CF7CF0000EE8CF7DF0E3
:10499000000EE8CF7EF0000EE8CF7FF055EC18F067
:1049A00020EE60F0060E86EC09F0AA6AA96AF9EC1E
:1049B0000BF0A8CF31F1A92AF9EC0BF0A8CF32F116
:1049C0001E8F376B372B366B365155EC0BF0200EA4
:1049D000DE6E560EDE6E010E316F1E8F376B372B7B
:1049E000366B4CEC0BF02E0EDE6E460E316F1E8FCA
:1049F000376B372B366B47EC0BF01E9F4EEC0CF0F1
:104A000012006F0EEDEC18F04FEC23F01F0E90EC3F
:104A100009F028B107D0200E90EC09F07A0E90EC46
:104A200009F006D0EE0E90EC09F0890E90EC09F03A
:104A3000210E90EC09F0220E90EC09F012006F0E9E
:104A4000EDEC18F0F00E90EC09F0F10E90EC09F09E
:104A5000190E8DEC09F0930E90EC09F0F40E90EC29
:104A600009F01200640EE8CF7DF0000EE8CF7CF074
:104A7000000EE8CF7EF055EC18F020EE60F0530EFB
:104A8000DE6E650EDE6E6C0EDE6E180ED0EC0BF078
:104A9000A8CF31F11E9F376B372B366B36EC0BF0FE
:104AA0002F0EDE6E190ED0EC0BF0A8CF31F1376B64
:104AB000372B366B36EC0BF04EEC0CF07B0E90EC9B
:104AC00009F07C0E90EC09F07D0E90EC09F07E0E62
:104AD00090EC09F01200FE0E90EC09F0FA0E90EC4A
:104AE00009F0FB0E90EC09F0FC0E90EC09F0FD0EC5
:104AF00090EC09F01200230EA6EC0EF0E8CFF1F1D5
:104B00007C2B7CC0F2F17CC0F3F1120EF3277A0EFD
:104B1000E8CFF4F1312731078A0E3161316F31C1AD
:104B2000F5F1F1EC0CF0000EE8CFF1F17CC0F2F100
:104B30007CC0F3F1120EF32731C1F4F1F42B8B0E8C
:104B4000E8CFF5F1F1EC0CF01200000EE8CFF1F136
:104B500032C1F2F17D0EE8CFF3F1640EE8CFF4F14B
:104B60009F0EE8CFF5F1F1EC0CF012006E0EEDECBB
:104B700018F02BC531F1316706D089EC26F0EF0E25
:104B800090EC09F01200E469E70EE56F190EE527D5
:104B9000E42BCFEC25F0050EE463F8D712001E8F4E
:104BA000640EE8CF7DF0E5C17CF0E5C132F115EE91
:104BB0002BF0E451E3CF31F13151D8B4A5EF25F01A
:104BC00020EE60F0376B372B366B4CEC0BF06D0E34
:104BD000DE6E4EEC0CF08C0EE8CF7DF0E5C17CF083
:104BE00015EE24F0E451E3CF31F120EE60F0376BA5
:104BF000372B366B47EC0BF0270EDE6E4EEC0CF0CD
:104C00007BEC25F012006D0EEDEC18F0640EE8CF91
:104C10007DF0000EE8CF7EF01E8F020E0A6FE70EC9
:104C2000096F326B322B040E0A27190E0927640E06
:104C3000E8CF7DF009C17CF020EE60F0470EDE6E1B
:104C400032C131F1376B372B366B4CEC0BF03A0E2F
:104C5000DE6E0AC1A9FFF9EC0BF0A8CF31F1376B7A
:104C6000372B366B4CEC0BF02F0EDE6EA92AF9ECCD
:104C70000BF0A8CF31F1376B372B366B4CEC0BF0C8
:104C80001B0ED0EC0BF032C131F1A832312FFDD721
:104C90004A0ED8A04EEC0EF04EEC0CF055EC18F08D
:104CA000050E3263BFD71200640EE8CF7DF0000E10
:104CB000E8CF7EF01E8F230E0A6FE70E096FE46BBC
:104CC0000A2BE42B190E092709C17CF0640EE8CFEA
:104CD0007DF020EE60F0530EDE6E500EDE6EE4C10D
:104CE00031F1376B372B366B4CEC0BF03A0EDE6E36
:104CF0000AC1A9FFF9EC0BF0A8CF31F1326B030E1A
:104D000055EC0BF04EEC0CF0030EE463D9D71E9F6C
:104D10001200000EE8CFF1F1000EE8CFF2F1B90E6B
:104D2000E8CFF3F1520EE8CFF4F19F0EE8CFF5F1A2
:104D3000F1EC0CF012006C0EEDEC18F0000EE8CF68
:104D40007CF0550EE8CF7DF0000EE8CF7EF0000E2F
:104D5000E8CF7FF055EC18F020EE60F0B80EDE6E74
:104D60004EEC0CF0190EE8CF7CF0550EE8CF7DF03C
:104D7000000EE8CF7EF0000EE8CF7FF055EC18F083
:104D800020EE60F0B80EDE6E4EEC0CF0320EE8CF86
:104D90007CF0550EE8CF7DF0000EE8CF7EF0000EDF
:104DA000E8CF7FF055EC18F020EE60F0B80EDE6E24
:104DB0004EEC0CF04B0EE8CF7CF0550EE8CF7DF0BA
:104DC000000EE8CF7EF0000EE8CF7FF055EC18F033
:104DD00020EE60F0B80EDE6E4EEC0CF0640EE8CF04
:104DE0007CF0550EE8CF7DF0000EE8CF7EF0000E8F
:104DF000E8CF7FF055EC18F020EE60F0B80EDE6ED4
:104E00004EEC0CF0B9C138F1000E384F000E384F9F
:104E1000190E384F320E384F4B0E384F640EE8CF14
:104E20007CF0550EE8CF7DF0000EE8CF7EF0000E4E
:104E3000E8CF7FF055EC18F020EE60F0B70EDE6E94
:104E40004EEC0CF01200000EE8CFF1F1380EE8CF76
:104E5000F2F1580EE8CFF3F1450EE8CFF4F1730EFE
:104E6000E8CFF5F1F1EC0CF0230EA6EC0EF0E8CF54
:104E7000F1F13A0EE8CFF2F1560EE8CFF3F1460E1B
:104E8000E8CFF4F1720EE8CFF5F1B1EC0CF03C0E86
:104E9000E8CF7CF0470EE8CF7DF0000EE8CF7EF043
:104EA000010EE8CF7FF051EC18F020EE60F0430ED9
:104EB000DE6E460EDE6E38C131F1376B372B366B46
:104EC0004CEC0BF0210EDE6E4EEC0CF0000EE8CF39
:104ED0007FF055EC18F01200680EEDEC18F0690E3A
:104EE000EDEC18F0000EE8CFF1F1190EE8CFF2F179
:104EF000780EE8CFF3F1520EE8CFF4F19F0EE8CF31
:104F0000F5F1F1EC0CF0230EA6EC0EF0E8CFF1F188
:104F1000190EE8CFF2F1780EE8CFF3F1520EE8CF98
:104F2000F4F19F0EE8CFF5F1B1EC0CF025EE33F083
:104F3000100E0A6F096B230EA6EC0EF0E8CFF1F10C
:104F40001C0E0925E8CFF2F11C0E0925E8CFF3F17C
:104F5000092B092B640EE8CFF4F1DECFF5F1D890E0
:104F6000F533D890F533640EF5279D0EF561F56F96
:104F7000F1EC0CF00A2FDFD725EE43F0100E0A6F8C
:104F8000096B230EA6EC0EF0E8CFF1F1560E0925C1
:104F9000E8CFF2F1560E0925E8CFF3F1092B092BE2
:104FA000640EE8CFF4F1DECFF5F1D890F533D89068
:104FB000F533640EF5279D0EF561F56FF1EC0CF0FD
:104FC0000A2FDFD7540EE8CF7DF0200EE8CF7CF01B
:104FD00055EC18F020EE60F04E0EDE6E320EDE6EF6
:104FE0004EEC0CF0540EE8CF7DF05A0EE8CF7CF07A
:104FF00055EC18F020EE60F0480EDE6E650EDE6EA9
:105000004EEC0CF063C50AF120EE60F015EE33F0C3
:105010000A2BE6CF31F10A2FFCD7376B372B366BD3
:105020004CEC0BF0250EDE6E200EDE6E540EE8CF3B
:105030007DF03E0EE8CF7CF0000EE8CF7EF055EC20
:1050400018F04EEC0CF01E9F230EA6EC0EF0E8CFED
:10505000F1F1490EE8CFF2F14A0EE8CFF3F1790E03
:10506000E8CFF4F19D0EE8CFF5F1B1EC0CF0230E92
:10507000A6EC0EF0E8CFF1F13D0EE8CFF2F1540EC0
:10508000E8CFF3F1790EE8CFF4F17A0EE8CFF5F13D
:10509000F1EC0CF0230EA6EC0EF0E8CFF1F1410E8E
:1050A000E8CFF2F1500EE8CFF3F1820EE8CFF4F141
:1050B000830EE8CFF5F1F1EC0CF0230EA6EC0EF028
:1050C000E8CFF1F1410EE8CFF2F1500EE8CFF3F165
:1050D0008B0EE8CFF4F18C0EE8CFF5F1F1EC0CF08B
:1050E000230EA6EC0EF0E8CFF1F1410EE8CFF2F17D
:1050F000500EE8CFF3F1940EE8CFF4F1950EE8CF1F
:10510000F5F1F1EC0CF0230EA6EC0EF0E8CFF1F186
:105110003D0EE8CFF2F1540EE8CFF3F19D0EE8CF4B
:10512000F4F19E0EE8CFF5F1F1EC0CF01200B9ECC1
:1051300029F0010EE8CF7FF0030E90EC09F0000E8D
:10514000E8CF7FF0440E90EC09F0450E90EC09F0AA
:10515000460E90EC09F0470E90EC09F0480E90ECEA
:1051600009F0490E90EC09F04A0E90EC09F012009B
:10517000B9EC29F0010EE8CF7FF0030E90EC09F0B6
:10518000000EE8CF7FF04B0E90EC09F04C0E90EC47
:1051900009F04D0E90EC09F04E0E90EC09F04F0E18
:1051A00090EC09F0500E90EC09F0510E90EC09F0E3
:1051B0001200B9EC29F0010EE8CF7FF00F0E8DEC54
:1051C00009F0000EE8CF7FF0100E8DEC09F0110E03
:1051D0008DEC09F0120E8DEC09F0130E8DEC09F038
:1051E00012002AB512006A0EEDEC18F0A80EE8CFF6
:1051F0007CF0410EE8CF7DF0000EE8CF7EF0000E8F
:10520000E8CF7FF020EE60F018C531F1316708D0AB
:1052100055EC18F0070E86EC09F04EEC0CF012007D
:105220008CC14BF18DC14CF10A0E4D6F4E6B39ECB8
:105230000AF04867476958C1E8FF476103D047C192
:1052400018F52FD08CC14BF18DC14CF10A0E4D6F6A
:105250004E6B39EC0AF047C14BF148C14CF1CFC15C
:105260004DF14E6B1CEC0AF047C153F148C154F1AB
:1052700058C1E8FF640DF3CF51F1F4CF52F105ECC2
:105280000AF01EA70CD047C14BF148C14CF1640E87
:105290004D6F4E6B39EC0AF047C118F502D058C17A
:1052A00018F5040E79EC18F018C531F1326B1E8F29
:1052B000030E55EC0BF01E9F4EEC0CF055EC18F065
:1052C000120030EC80F001011A0E8DEC09F020EE96
:1052D00060F0230EDE6E63C531F163C50AF11E8FE7
:1052E000376B372B366B4CEC0BF0200EDE6E280E36
:1052F000DE6E100E0A6105D04E0EDE6E320EDE6ED0
:1053000004D0480EDE6E650EDE6E290EDE6E200EB7
:10531000DE6E640EE8CF7DF0190EE8CF7CF0000E53
:10532000E8CF7EF055EC18F04EEC0CF020EE60F07B
:1053300015EE33F00A2BE6CF31F10A2FFCD7376B8D
:10534000372B366B4CEC0BF0250EDE6E200EDE6E2E
:10535000640EE8CF7DF0320EE8CF7CF0000EE8CF8F
:105360007EF055EC18F04EEC0CF01E9F1200000E73
:1053700003D0230EA6EC0EF0E8CFF1F1000EE8CF3B
:10538000F2F11A0EE8CFF3F1000EE8CFF4F19F0E20
:10539000E8CFF5F1F1EC0CF012002AB5120027BFAE
:1053A000120029BB12002AB912006B0EEDEC18F0A6
:1053B0005A0EE8CF7CF0000EE8CF7DF0000EE8CF6B
:1053C0007EF0020E79EC18F020EE60F0430EDE6EF7
:1053D0004E0EDE6E530EDE6E3A0EDE6E65C531F198
:1053E0001E8F376B372B366B4CEC0BF01E9F250E48
:1053F000DE6E4EEC0CF0120065C531F10F0EA6EC1E
:105400000EF0315DD8A01200570EEDEC18F0AF0E83
:10541000E8CF7CF02D0EE8CF7DF0000EE8CF7EF0D7
:10542000000EE8CF7FF0020E79EC18F020EE60F06D
:10543000430EDE6E4E0EDE6E530EDE6E3A0EDE6EE6
:1054400065C531F11E8F376B372B366B4CEC0BF08B
:105450001E9F250EDE6E4EEC0CF01200400ED0ECBE
:105460000BF0010EA86229D0C80EE8CF7CF0000E28
:10547000E8CF7DF0000EE8CF7EF0000EE8CF7FF0A1
:105480004DEC18F020EE60F0400E316F180E326FC8
:10549000312B58EC2AF07D0EA86201D004D0A8CFA1
:1054A000DEFF322FF5D74EEC0CF055EC18F0120061
:1054B00031C1A9FFF9EC0BF01200180E386FC80EBD
:1054C000E8CF7CF0000EE8CF7DF04AEC1BF0120034
:1054D000000EE8CFF1F1000EE8CFF2F1EF0EE8CFC9
:1054E000F3F1520EE8CFF4F19F0EE8CFF5F1F1ECB5
:1054F0000CF012004FC20AF14EC209F1095303E049
:1055000087EC2AF01200F20E90EC09F01200090E5E
:10551000E46FE70EE56F12EE50F0190EE52794ECFC
:105520002AF0E42FFAD712001E8F640EE8CF7DF028
:10553000E5C17CF0E5C132F1E6CF31F1315120EE29
:1055400060F0376B372B366B4CEC0BF06D0EDE6E6C
:105550004EEC0CF08C0EE8CF7DF0E5C17CF0E6CF90
:1055600031F120EE60F0376B372B366B47EC0BF0E8
:10557000270EDE6E4EEC0CF0120028B164D06D0EDA
:10558000EDEC18F0000EE8CF7DF0000EE8CF7EF0D5
:105590001E8F020E0A6F0A0E096F326B322B040E39
:1055A0000A2720EE60F0470EDE6E32C131F1376B14
:1055B000372B366B4CEC0BF03A0EDE6E0AC1A9FFAE
:1055C000F9EC0BF0A8CF31F1376B372B366B4CEC85
:1055D0000BF02F0EDE6EA92AF9EC0BF0A8CF31F1FB
:1055E000376B372B366B4CEC0BF0200EDE6E3251E6
:1055F0001B0FD0EC0BF0A8CF31F1376B372B366B8C
:1056000036EC0BF06D0EDE6E1B0ED0EC0BF032C1E3
:1056100031F1A832312FFDD7D8B004D04A0E4EEC6C
:105620000EF002D055EC18F0190E0927000EE8CF45
:105630007DF009C17CF04EEC0CF055EC18F0050E35
:105640003263ACD71200000EE8CF7DF0000EE8CF39
:105650007EF01E8F230E0A6F0A0E096FE46B0A2B71
:10566000E42B190E0927000EE8CF7DF009C17CF06C
:1056700020EE60F0530EDE6E500EDE6EE4C131F1AE
:10568000376B372B366B4CEC0BF03A0EDE6E200E80
:10569000DE6E0AC1A9FFF9EC0BF0A8CF31F1326B35
:1056A000030E55EC0BF04EEC0CF0030EE463D7D771
:1056B000210ED0EC0BF0A8CFD0F1D005040DF350A3
:1056C000070FA96EF9EC0BF0A8CF32F1D005040D4D
:1056D000F350060FA96EF9EC0BF0A8CF31F1000ED4
:1056E000E8CF7DF06E0EE8CF7CF020EE60F0440E47
:1056F000DE6E690EDE6E6C0EDE6E3A0EDE6E376B9F
:10570000372B366B4CEC0BF02F0EDE6E32C131F1C5
:10571000376B372B366B4CEC0BF04EEC0CF01E9FBE
:10572000120024BD12001A0ED0EC0BF0A8CF0AF123
:10573000690E0A611200630E0A65120031C14BF155
:1057400032C14CF1640E4D6F4E6B1CEC0AF00AC175
:105750004DF14E6B60EC0AF047C131F148C132F1B6
:1057600012003A6F010EBC27000EBD23BDAF02D060
:10577000BC6BBD6B3A2FF6D712003A6F010EBC5FBF
:10578000000EBD5BBDAF02D07F0EBD6F3A2FF6D7C6
:1057900012009CD8010EBC27000EBD232291BDAF84
:1057A0001200BC6BBD6B2281120022B31CD822A355
:1057B0000BD82283000EBC2BBD232291BDAF12005B
:1057C000BC6BBD6B228112003A6FC580A3D8A60EB8
:1057D000C96EA0D894D8BDC1C9FF9CD890D8BCC10F
:1057E000C9FF98D88CD83AC1C9FF94D888D812007C
:1057F0003A6B3B6B219F219DC5848CD8C5808AD88C
:10580000A60EC96E87D8C5BCF7D73BC1C9FF82D8E1
:1058100076D83AC1C9FF7ED872D8C5827BD8A70E88
:10582000C96E78D86CD8C58675D821BD05D0218DB4
:10583000FD0EC962219D11D021BF05D0218FFD0E23
:10584000C96209D00AD0FE0EC96205D03AC1BCF1C6
:105850003BC1BDF10DD0219F219D010E3A27000EC5
:105860003B233BBF03D0C58855D8DDD7BC6BBD6B90
:10587000C58450D8219F219D1200C5844BD8C58076
:1058800049D8A60EC96E46D8C5BCF7D7BDC1C9FF59
:1058900041D835D8BCC1C9FF3DD831D8C5823AD826
:1058A000A70EC96E37D82BD8C58634D8C950C58441
:1058B00031D81200E2DF010EBC27000EBD23229179
:1058C000BDAF1200BC6BBD6B228112003A6FC58068
:1058D00021D8A60EC96E1ED812D8BDC1C9FF1AD8CC
:1058E0000ED8BCC1C9FF16D80AD83AC1C9FF12D810
:1058F00006D8C5840FD8060E06EC0BF01200C5BC06
:1059000001D812004D0EEDEC18F081880BD89E9650
:10591000C36B1200C32F01D0F5D79EA6FBD7C36B74
:105920009E961200C66A4E0EEDEC18F0C56AC76A64
:10593000949694888296090EC36F8286000082B87E
:1059400004D082968296C32FF8D79486C66A0A0E30
:1059500006EC0BF0000EC76E280EC66E000EC56E6C
:10596000080EC86E81984F0EEDEC18F01200C46F4F
:10597000C580D0DF900EC96ECDDFC1DFC4C1C9FFC5
:10598000C9DFBDDFC584C6DF12009E96C580C2DFB9
:10599000910EC96EBFDFB3DFC586BCDFC9CFC4F1CE
:1059A000C588B8DFC584B6DF12002495289559EC68
:1059B0000DF0249324972499BB6BBA6BC06B010E36
:1059C000E8CF7FF00C0E90EC09F0000EE8CF7FF0EE
:1059D000A46BA56B92EC2CF0F8EC2BF0386B396BC8
:1059E000050EB96F010EE8CF7FF00C0E90EC09F0B8
:1059F000000EE8CF7FF0219D219F010EA427000E0D
:105A0000A523A5BF27D0010EBDEC2BF03DEC2CF05B
:105A100021BD05D0218DFA0EC962219D10D021BF74
:105A200005D0218FFA0EC96207D809D0BCC1BEF1DA
:105A3000BDC1BFF1C02B13D0219F219D1200010ECB
:105A40003827000E392339BF01D0D7D724A927EF33
:105A500011F02CD0C051D8B4F9D7248327D0030E2D
:105A6000B1EC2BF024A704D0A651C063BAD264D005
:105A700024B31CD0D1DA050EB96316D0C0C1ABF186
:105A8000BEC1A9F1BFC1AAF1A4C190F1A5C191F114
:105A900038C1EDF139C1A7F1030EA927000EAA23E1
:105AA000030E905F000E915BB92F9BD224A97DD786
:105AB000B9EC29F0010EE8CF7FF01A0E90EC09F056
:105AC000000EE8CF7FF00B0E90EC09F01F992091AB
:105AD0002093209723992397B76B010E24B5AC51DF
