:020000040000FA
:04000000ABEF47F02B
:0200080008D01E
:0800180000D0E0CF02F101016C
:10002000D8CF01F1E8CF00F181509EB07DEC38F0DF
:10003000F2B464EC38F0A1B279EC38F09EBA23EC5B
:1000400038F0F2B252EC38F0F0B058EC38F000C1B1
:0C005000E8FF01C1D8FF02C1E0FF100072
:10010000001210180606080A0A0C0606080A060A53
:1001100006060808060E06060A0A08140C0A060A4D
:1001200008060606101010101010101010101010F5
:1001300010101010101010101010101010101010BF
:10014000101010101014161416120C140E1414148F
:100150000E180A0608080A060C0A08080808060607
:10016000040A0C120A0A0A060A0E140808061212D9
:10017000040E140806100E0C0606080606060606EF
:10018000080804040A16161614080A080806060ABF
:100190000808040A0E140A0C0A141010101010108B
:1001A000101010101010101010101010101010104F
:1001B000101010101010101010101410120E08084B
:1001C00006141414141414141414141414141414FD
:1001D00014141414141414141414141414141414DF
:1001E0001414141414141414141414140A0A0A08F9
:1001F0000808080E0614100A100C06060606060863
:10020000020E0E080808060606060A0A0408040E6E
:100210001412140E0A0E0C100E0A0A0A0E0C10000C
:100300000000010F0019010F0002010F4102010F4F
:100310004102010F1423010F1441010F1423010F97
:10032000145F010F147D010F14B9010F7302010F47
:100330000018010F0000010F3202010F0A1E010F09
:100340000A37010F0A50010F0A69010F0A82010FD3
:100350001423010F2041010F205F010F209B010F8B
:100360000600010F3702010F0E02010F2802010FD4
:100370003202010F1423010F6400010F6419010FF1
:10038000644B010F6464010F0000010F2823010F6B
:100390002823010F2823010F2823010F2823010FF1
:1003A0002823010F2823010F2823010F2823010FE1
:1003B0002823010F2823010F2823010F2823010FD1
:1003C0002823010F2823010F2823010F2823010FC1
:1003D0002823010F2823010F2823010F2823010FB1
:1003E0002823010F2823010F2823010F2823010FA1
:1003F0002823010F2823010F2823010F2823010F91
:100400002823010F2823010F2823010F0023010FA8
:100410000041010F005F010F007D010F009B010FE4
:1004200000B9010F00D7010F0023010F0041010F98
:10043000005F010F007D010F009B010F00B9010F4C
:1004400000D7010F6696010F0000010F6CD8010F55
:100450006CD8010F6400010F0000010F0000010FB4
:100460000000010F0000010F0000010F0000010F4C
:100470000000010F0000010F0000010F0000010F3C
:100480000000010F2802010F1423010F147D010F3A
:10049000557D010F557D010F557D020F557D010FD3
:1004A0000000010F0A02010F0000010F0000010F00
:1004B0001423010F1441010F1402010F0000010F5A
:1004C000145F010F0A02010F0009010F557D020F91
:1004D0000012010F001B010F0024010F002D010F5E
:1004E0000036010F6432010F6419010F6432010FED
:1004F000644B010F6464010F6400010F6419010F64
:100500001441010F4141010F4141010F6432010FBC
:100510000A00010F0A19010F0A32010F0A4B010FDD
:100520006432010F557D010F6978010F693C010F9D
:100530004102010F149B010F2A48010F3C02010FD9
:100540003460010F3478010F644B010F0000010F7C
:100550000008010F0227010F0230010F557D010F26
:100560001441010F2823010F2823010F2823010F15
:100570002823010F2823010F2823010F2823010F0F
:100580002823010F2823010F2823010F2823010FFF
:100590002823010F2823010F2823010F2823010FEF
:1005A0002823010F2823010F2823010F2823010FDF
:1005B0002823010F2823010F2823010F2823010FCF
:1005C0002823010F2823010F2823010F2823010FBF
:1005D0002823010F2823010F2823010F2823010FAF
:1005E0002823010F0D02010F000000000201010F7E
:1005F0000230010F0000010F0000010F0000010F89
:100600000023010F0041010F005F010F007D010F6A
:10061000009B010F00B9010F00D7010F0023010F4C
:100620000041010F005F010F007D010F009B010FD2
:1006300000B9010F00D7010F0023010F0041010F86
:10064000005F010F007D010F009B010F00B9010F3A
:1006500000D7010F0023010F0041010F005F010FC0
:10066000007D010F009B010F00B9010F00D7010FA2
:100670000023010F0041010F005F010F007D010FFA
:10068000009B010F00B9010F00D7010F0023010FDC
:100690000041010F005F010F007D010F009B010F62
:1006A00000B9010F00D7010F0A02010F557D010F9C
:1006B000020C010F6419010F6400010F6400010FA7
:1006C0006419010F6400010F020C010F6464010F33
:1006D0001441010F021E010F147D010F1E02010FB4
:1006E0001423010F6419010F6432010F644B010FD1
:1006F0006464010F6400010F6432010F0000000FF9
:100700001423010F2802010F6923010F6923010F30
:100710006923010F0101010F41A8010F0730010BEF
:100720007887010F0227010F00D8010F0A08010F77
:100730000A10010F0000010F1802010F0023010F22
:100740000041010F007D010F009B010F145F010F9D
:100750001441010F145F010F147D010F149B010F51
:100760006432010F6400010F5A36010F145F010F4C
:08077000147D010F149B010F21
:1007B0004275696C64696E67204D443220486173EC
:1007C000687D506C6561736520576169742E2E2EAB
:1007D0007D7D4865696E72696368735765696B6191
:1007E0006D70204F535443327D7D4D656E753F7D56
:1007F0004D656E753A7D4C6F67626F6F6B7D4761BB
:10080000732053657475707D5365742054696D65EC
:100810007D7D5265736574204D656E757D7D536574
:100820007475707D457869747D7D576169742E2E6D
:100830007D7D4D443220486173683A7D4465736123
:10084000747D496E746572666163657D537461720F
:10085000747D446174617D7D4865616465727D7DF0
:1008600050726F66696C657D446F6E652E7D436165
:100870006E63656C2052657365747D7D54696D652A
:100880003A7D446174653A7D53657420486F757292
:10089000737D52657365742E2E2E7D7D4C6F67625D
:1008A0006F6F6B7D437573746F6D2046756E6374E7
:1008B000696F6E7320497D7D5265736574204D6547
:1008C0006E757D7D5365742054696D653A7D4D6FFD
:1008D00072657D7D4465636F706C616E7D7D47617F
:1008E000736C6973747D4D6F72657D7D4578697435
:1008F0007D7D4E6F466C797D5374617274204469BE
:100900007665205B636D5D7D456E64204469766528
:100910002020205B636D5D7D456E642044656C61C5
:10092000792020205B735D7D506F776572204F6664
:10093000662020205B735D7D5072652D6D656E7540
:10094000202020205B735D7D76656C6F6369747910
:100950005B6D2F6D696E5D7D57616B652D757020C8
:10096000205B6D4261725D7D6D61782E537572669C
:100970002E5B6D4261725D7D474620646973706CC9
:10098000617920205B255D7D6D696E2E204F3220C0
:100990004469732E5B255D7D44697665206D656EC7
:1009A000757320205B735D7D53617475726174652E
:1009B000207820205B255D7D4465736174757261CC
:1009C000746520785B255D7D4E6F466C79205261A1
:1009D00074696F205B255D7D474620616C61726D97
:1009E000203120205B255D7D474620616C61726D62
:1009F000203220205B255D7D4465636F204F666655
:100A00007365745B646D5D7D70704F32206C6F77C1
:100A1000205B634261725D7D70704F322068696750
:100A2000685B634261725D7D73686F772070704FA1
:100A3000325B634261725D7D73616D706C696E677C
:100A4000207261746520207D44697669736F72201D
:100A500054656D702020207D44697669736F722023
:100A60004465636F6461747D44697669736F722055
:100A70004E6F74557365307D44697669736F72206B
:100A800070704F322020207D44697669736F722028
:100A9000446562756720207D44697669736F7220B2
:100AA0004E6F74557365327D73686F7720434E5374
:100AB000202020205B255D7D4C6F67626F6F6B206F
:100AC0006F6666736574207D4C6173742044656342
:100AD0006F2061745B6D5D7D456E642041706E6F4B
:100AE00065205B6D696E5D7D53686F77205662612E
:100AF0007474205B3D315D7D546869732070726F42
:100B00006772616D2069737D64697374726962755F
:100B100074656420696E207468657D7D686F70659A
:100B200020746861742069742077696C6C20626538
:100B30007D7D75736566756C2C20627574205749D0
:100B400054484F55547D414E592057415252414EC1
:100B500054593B20776974686F75747D6576656E4E
:100B60002074686520696D706C6965647D7D77614E
:100B70007272616E7479206F667D4D4552434841B3
:100B80004E544142494C495459206F727D7D46492B
:100B9000544E45535320464F5220417D50415254AC
:100BA0004943554C415220505552504F53452E7D8C
:100BB0005365652074686520474E552047656E650E
:100BC00072616C7D5075626C6963204C6963656EFF
:100BD000736520666F727D7D6D6F726520646574CC
:100BE00061696C733A7D7777772E6865696E726993
:100BF0006368737765696B616D702E64657D4465AC
:100C0000636F73746F707D7D6D2F6D696E7D4E6F38
:100C10002053746F707D4465636F73756D7D446997
:100C2000766574696D657D7D44657074687D46691F
:100C3000727374204761733F7D7D44656661756C96
:100C4000743A7D7D4D696E757465737D4D6F6E74FC
:100C50006820207D446179202020207D59656172C3
:100C60002020207D536574207D7D47617323207D86
:100C70005965737D43757272656E743A7D7D5365F7
:100C8000747570204D656E753A7D437573746F6D24
:100C90002046756E6374696F6E73497D4465636F3A
:100CA000747970653A7D5A482D4C3136204F437D1A
:100CB0004761756765202020207D47617567657DE8
:100CC0005A482D4C31362043437D41637469766523
:100CD000204761733F207D7D4761732053657475A4
:100CE00070202D204761736C6973747D4465707446
:100CF00068202B7D4465707468202D7D4261636B94
:100D00007D7D43435220536574506F696E74204D4E
:100D1000656E757D43435220536574506F696E74E0
:100D2000204D656E757D5350237D426174746572EC
:100D30007920496E666F7D7D426174746572792099
:100D4000496E666F726D6174696F6E7D4379636C15
:100D500065733A7D41706E6F657D4C61737420439D
:100D60006F6D706C6574653A7D7D4C6F77657374DB
:100D70002056626174743A7D4C6F7765737420619C
:100D8000743A7D7D546D696E3A7D546D61783A7D1B
:100D9000536574204761737D4F32202B7D7D4F3228
:100DA000202D7D7D4865202B7D7D4865202D7D7D16
:100DB000457869747D7D44656C6574657D7D4465A9
:100DC0006275673A7D7D4F4E207D4F46467D446576
:100DD0006C2E20616C6C7D7D556E657870656374DA
:100DE00065642072657365742066726F6D7D4469F9
:100DF00076656D6F64652120506C65617365206850
:100E0000656C707D616E64207265706F72742074A1
:100E10006865204465627567207D496E666F726DF6
:100E20006174696F6E2062656C6F77217D7D4261B0
:100E3000696C6F75747D41706E6F65202020207D18
:100E400044657363656E747D537572666163657D19
:100E5000517569743F7D4D6F72657D7D436F6E6620
:100E600069726D3A7D7D4D656E7520323A7D4361C4
:100E70006E63656C7D7D4F4B217D53746F70776120
:100E8000742E7D7D4E4F5420555345442121212100
:100E9000217D4E4F542055534544212121212121AC
:100EA00021212121217D4E6F742075736564217D80
:100EB0004E6F7420757365642121217D4C31362D70
:100EC0004746204F437D437573746F6D2046756EA2
:100ED0006374696F6E7349497D7D4746204C6F7717
:100EE0002020202020205B255D7D47462048696723
:100EF0006820202020205B255D7D436F6C6F72236E
:100F00002042617474657279207D436F6C6F722327
:100F1000205374616E646172647D436F6C6F7223E1
:100F200020446976656D61736B7D6E6F7420757397
:100F30006564202020202020207D53686F77207357
:100F40006563732E205B3D315D7D6E6F742075731C
:100F50006564202020202020207D6E6F7420757312
:100F60006564202020202020207D4176722E2044A0
:100F700065707468205B3D315D7D6E6F74207573A4
:100F80006564202020202020207D6E6F74207573E2
:100F90006564202020202020207D6E6F74207573D2
:100FA0006564202020202020207D6E6F74207573C2
:100FB0006564202020202020207D6E6F74207573B2
:100FC0006564202020202020207D6E6F74207573A2
:100FD0006564202020202020207D6E6F7420757392
:100FE0006564202020202020207D6E6F7420757382
:100FF0006564202020202020207D6E6F7420757372
:101000006564202020202020207D6E6F7420757361
:101010006564202020202020207D6E6F7420757351
:101020006564202020202020207D6E6F7420757341
:101030006564202020202020207D6E6F7420757331
:101040006564202020202020207D6E6F7420757321
:101050006564202020202020207D6E6F7420757311
:101060006564202020202020207D6E6F7420757301
:101070006564202020202020207D6E6F74207573F1
:101080006564202020202020207D6E6F74207573E1
:101090006564202020202020207D6E6F74207573D1
:1010A0006564202020202020207D6E6F74207573C1
:1010B0006564202020202020207D6E6F74207573B1
:1010C0006564202020202020207D6E6F74207573A1
:1010D0006564202020202020207D437573746F6D6F
:1010E0002046756E6374696F6E732049497D4E6F3B
:1010F000742055736564212121212121217D4E6FAA
:101100007420557365642121212121212121217D14
:101110004E4F54205553454421212121217D70708B
:101120004F32202B7D7D70704F32202D7D7D4469A4
:101130006C2E7D7D4465636F747970653A205A48E2
:101140002D4C3136204F437D466F72204F70656EB7
:1011500020436972637569742020207D4469766537
:1011600072732E20537570706F7274732035207DEA
:101170005472696D69782047617365732E20202051
:101180002020207D436F6E66696775726520796FD8
:10119000757220676173207D696E20476173736586
:1011A000747570206D656E752E20207D43686563B3
:1011B0006B20434631312026204346313220217DA9
:1011C0004465636F747970653A204761756765207F
:1011D0002020207D4469766574696D652077696C8F
:1011E0006C20626520696E7D4D696E757465733A19
:1011F0005365636F6E64732E2020207D4F535443DC
:10120000322077696C6C206E6F7420202020207D46
:10121000636F6D70757465204465636F2C204E6F2D
:10122000466C797D74696D6520616E6420446573D8
:1012300061742E2D2020207D74696D6520617420DD
:10124000616C6C21202020202020207D4465636F6C
:10125000747970653A5A482D4C3136204343207DCD
:10126000466F72202853656D692D29436C6F736535
:101270006420207D436972637569742072656272AF
:10128000656174686572737D436F6E6669677572B8
:1012900065207468652033202020207D53657450BC
:1012A0006F696E747320696E20434352202D207D38
:1012B0005365747570206D656E752E2035206261E2
:1012C000696C2D7D6F757473206172652061766124
:1012D000696C61626C652E7D4465636F74797065BD
:1012E0003A2041706E6F65202020207D4F5354437B
:1012F000322077696C6C20646973706C6179207D31
:10130000656163682064657363656E7420736570DE
:1013100061722D7D6174656C7920696E204D696EF6
:101320003A5365632E20207D57696C6C2074656D7F
:10133000706F72616C6C79207365747D73616D7010
:101340006C657261746520746F2031207365637DF4
:101350004E6F204465636F2063616C63756C6174CC
:10136000696F6E7D4465636F747970653A204C31A6
:10137000362D4746204F437D4465636F6D7072651F
:101380007373696F6E2063616C2D207D63756C6172
:1013900074696F6E73207769746820746865207D46
:1013A00047462D4D6574686F64202847465F6C6F13
:1013B0002F47467D5F6869292E20436865636B204F
:1013C000434633322026207D4346333321204F705D
:1013D000656E2043697263756974207D77697468EE
:1013E00020446565702053746F70732E2020207D1B
:1013F0004465636F747970653A204C31362D4746E9
:101400002043437D4465636F6D7072657373696FCC
:101410006E2063616C2D207D63756C6174696F6EE5
:1014200073207769746820746865207D47462D4D68
:101430006574686F64202847465F6C6F2F47467D50
:101440005F6869292E20436865636B204346333209
:101450002026207D4346333321436C6F736564201F
:10146000436972637569747D776974682044656542
:10147000702053746F70732E2020207D4465636F3D
:101480006D6F6465206368616E6765642120207DEF
:101490004C31362D47462043437D4E6F7420666F96
:1014A000756E647D536574506F696E747D7D4E6F8B
:1014B000204465636F7D4772617068737D7D446908
:1014C00073706C61797D4E6F206465636F7D5365C9
:1014D00061726368206D6F64756C657D45786974B1
:1014E0007D7D52657365742043462C4761732026C9
:1014F000204465636F7D44697361626C65206D6F24
:1015000064756C657D7D53696D756C61746F727DFA
:101510004F5354432053696D756C61746F727D7DB8
:10152000537461727420446976657D7D2B20316D22
:101530007D7D2D20316D7D7D2B31306D7D7D2D317B
:10154000306D7D7D457869747D7D6E6F7420757317
:10155000657D787D4461746520666F726D61743A53
:101560007D7D5365747570204D656E7520323A7DB2
:101570004D4D444459597D7D44444D4D59597D7DCF
:1015800059594D4D44447D7D4F535443207D426114
:10159000696C7D7D416972207D7D41697220207D6D
:1015A00043616C6962726174657D4D617820446548
:1015B0007074687D6E6F747D666F756E64217D7D5D
:1015C0006D563A7D4E6577204346206164646564BC
:1015D000217D4E657720437573746F6D46756E631C
:1015E00074696F6E737D776572652061646465648C
:1015F0002120436865636B7D4346204920616E640A
:10160000204346204949204D656E757D666F7220E6
:1016100044657461696C73217D7D53616C696E6989
:1016200074793A7D426F74746F6D2054696D653AB8
:101630007D7D4D61782E2044657074683A7D4361EC
:101640006C63756C617465204465636F7D7D536860
:101650006F77204465636F706C616E7D4C6561646B
:10166000205469737D7D4C656164205469737D7D70
:1016700053746F7077617463687D5265736574200D
:101680004C6F67626F6F6B7D5265626F6F74204F36
:101690005354437D5265736574204465636F646180
:1016A00074617D7D2C8B01D81200278D05D8279D74
:1016B00012002C8B01D812000B6F800EA66EF86AF8
:1016C000020EF76EFC0EF66E0BC14CF1000E2CBB39
:1016D000010E4D6F040E4E6F4F6BEFEC0BF0485147
:1016E000F6264951F7220900F55027BD02D0E8CF70
:1016F0007DF00900F55027BD02D0E8CF7CF009004D
:10170000F5500108E8CF7EF00900F5CF1BF10D6B15
:101710000E6BF66AF86A010EF76E01D02C9B090079
:10172000F5500D27000E0E230B2FF9D72CBBF6D743
:10173000F86AB00E0D25F66E070E0E21F76E27AD76
:1017400020EE60F009007D0EF56201D00AD0F55060
:10175000DE6E09007D0EF56201D003D0F550DE6E1D
:10176000F1D727AD25EC0EF0120032C14CF133C198
:101770004DF13C0E4E6F4F6B4FD848C133F14CC109
:1017800032F11200D89046334533472FFBD7120071
:10179000D8904B334A3349334833472FF9D7120097
:1017A0004951FF08496F4851D890FF08486F12000F
:1017B0001F975451525D506F55515359516FD8A8CE
:1017C00012001F8750C154F151C155F1526953693C
:1017D0005451525D506F55515359516F12004A6B1D
:1017E0004B6B4C514E03F350486FF450496F4C51C2
:1017F0004F03F3504927F4504A234D514E03F35001
:101800004927F4504A23D8B04B2B4D514F03F35086
:101810004A27F4504B231200486B496B4E514F112D
:10182000D8B4FF0C010E476F4FBF05D0472BD8909F
:101830004E374F37F9D7D890483749374E514C5F1C
:101840004F51D8A04F294D5FD8B005D04E514C27ED
:101850004F514D2301D048814707D8B41200D8908A
:101860004F334E33E8D7200E476F4B514D6F4A51DF
:101870004C6F4951536F4851526F4B6B4A6B496BD8
:10188000486B556B546BD890523753374C374D37A4
:10189000543755374F51555DD8A451EF0CF04E5188
:1018A000545DD8A05BEF0CF04E51545FD8A05507A3
:1018B0004F51555FD880483749374A374B37472F04
:1018C00043EF0CF01200D89075337433762FFBD7AA
:1018D0001200D8907A33793378337733762FF9D76B
:1018E00012007851FF08786F7751D890FF08776F12
:1018F00012002A978351815D7F6F84518259806FD6
:10190000D8A812002A877FC183F180C184F1816940
:1019100082698351815D7F6F84518259806F12008B
:10192000796B7A6B7B517D03F350776FF450786F4E
:101930007B517E03F3507827F45079237C517D034B
:10194000F3507827F4507923D8B07A2B7C517E035A
:10195000F3507927F4507A2312000A6FB9EF0CF094
:101960000000000000000000000000000000000077
:101970000000000000000000000000000000000067
:101980000000000000000000000000000000000057
:101990000000000000000000000000000000000047
:1019A000000000000000000000000A2FB0EF0CF063
:1019B0001200096FE5EF0CF00000000000000000CD
:1019C0000000000000000000000000000000000017
:1019D0000000000000000000000000000000000007
:1019E00000000000000000000000000000000000F7
:1019F00000000000000000000000000000000000E7
:101A000000000000630EADEC0CF0092FDCEF0CF0D1
:101A10001200630E3261326F32C134F1356B1F95A3
:101A20000A0E3A6F366B67D8010E3A6F366B1F8518
:101A300062D8120032C134F1356B1F85F1D732C143
:101A400034F1356B1F95640E3A6F366B54D8E8D776
:101A5000259F376F1F8B372B372F1F9B238B372BE0
:101A6000372F239B32C134F133C135F11F95100E4E
:101A70003A6F270E366F1FAD3ED8E80E3A6F030E51
:101A8000366F23BB07D025BF03D01F85372D1F9589
:101A900023B91F851FAD2FD81F9D640E3A6F366B7B
:101AA00027B924D023BB09D025BF03D01F85372DEC
:101AB0001F9523B91F8523BB1F851DD80A0E3A6FBA
:101AC000366B23BB09D025BF03D01F85372D1F954B
:101AD00023B91F8523BB1F8529B708D00CD8010E59
:101AE0003A6F366B1F8524A506D824952799386B45
:101AF000382B23991200396B3651355DD8A00ED0A2
:101B000004E13A51345DD8A009D03651355F3A51DD
:101B1000345FD8A03507392B1F85EED7382F120038
:101B2000382B300E39251FB504D01FBF04D0200E2E
:101B300001D0258FDE6E372F12002E0EDE6E238928
:101B40001200A96E31D0A96E2BD02B91010EAA6E76
:101B5000690E03D02691AA6A640EAD6E238F040E1F
:101B6000A96E9D9A9E9A34EC4AF049D8AECFA8FF50
:101B700026EC4AF026BF11D017D828EC4AF0A8CF9F
:101B8000ADFF37D8A93EF1D736EC4AF09E9A9D8A30
:101B9000AA6A269F239F15EF48F0FF0EAD6EF4D77B
:101BA000A69EA69CA6801200A69EA69CA684F29E37
:101BB000550EA76EAA0EA76EA682F28EA6B2FED70B
:101BC000A6941200948C948E240EAC6E900EAB6E84
:101BD000080EB86EB06A220EAF6EAE6A9E6A9D8A1B
:101BE0001200AC6AAB6A9D9A949C949E829C829EE1
:101BF0001200ABAE12000000ACA2FBD712009E9AFE
:101C0000269F436B446B9EBA120000000000000048
:101C100000009EBA120000000000000000009EBA02
:101C2000120000000000000000009EBA1200000038
:101C30000000000000009EBA1200442FE4D7432F9A
:101C4000E1D7AB98AB88268F1200DE6A7BC0FAF131
:101C50007AC0F9F134EC5AF00101FAC17BF0F9C114
:101C60007AF01200106F10C17DF0210E2DD9D8909E
:101C70001035000ED8B0010E2CD9D890103529D9C6
:101C800012000F6F0FC17CF0200E1ED9000E21D95B
:101C90000F511FD91200220E17D984807AC083FFFA
:101CA000809480847BC083FF80948084210E0CD933
:101CB000D8901035000ED8B0010E0BD9D89010373F
:101CC000102907D9200E00D9000E03D90F5101D9D0
:101CD000220EFAD884807AC083FF809480847BC0EF
:101CE00083FF809480841200220EEED884807AC014
:101CF00083FF809480847BC083FF80948084120063
:101D0000836A80968194809A84948094849212004D
:101D1000F45125EC10F0F5C11CF11C51B2DFF75164
:101D200032EC0EF0E1DF1C2B1C51F663F6D71C5190
:101D3000A8DFF75132EC0EF0D7DFF5C11CF11C51D2
:101D4000A0DFF85132EC0EF0CFDF1C2B1C51F663F4
:101D5000F6D71C5196DFF85132EC0EF0C5DFF7C113
:101D60001CF11C517FDFF5518CDF95DF1C2B1C51C2
:101D7000F863F7D7F7C11CF11C5174DFF65181DF0E
:101D80008ADF1C2B1C51F863F7D72AEC1AF01200DB
:101D9000F45125EC10F0350E97D8F7C11CF1D8900E
:101DA0001C35000ED8B0010E94D8D8901C3591D8AF
:101DB000360E8AD8F8C11CF1D8901C35000ED8B068
:101DC000010E87D8D8901C3584D8370E7DD8F5C140
:101DD0001CF11C517ED8F6C11CF11C517AD8200E82
:101DE00073D8000E76D8F5C11CF11C5172D8210EA3
:101DF0006BD8F7C11CF1D8901C35000ED8B0010E7D
:101E000068D8D8901C3565D8220E5ED8F5C11CF173
:101E1000F6C11DF11C511D5F1D2BF7C11CF1F8C14E
:101E20001EF11C511E5F1E2B84801EC11CF17AC046
:101E300083FF809480847BC083FF809480847AC0F9
:101E400083FF809480847BC083FF809480841C2FD8
:101E5000EED71D2FEAD7000E37D82AEC1AF0120061
:101E6000350E32D8000E35D8000E33D8360E2CD8A9
:101E7000010E2FD83F0E2DD8370E26D8000E29D8A8
:101E8000EF0E27D8200E20D8000E23D8000E21D820
:101E9000210E1AD8000E1DD8000E1BD8220E14D801
:101EA0008480836A0A0E1E6F1E0E1D6F1C6B809449
:101EB0008084809480841C2FFAD71D2FF7D71E2F83
:101EC000F3D7000E01D812008490836E8094808432
:101ED00012008480836E8094808412008096200E8D
:101EE000D9EC0CF081840000809A00008482FA0E04
:101EF000D9EC0CF0848400008492020EADEC0CF05E
:101F000084820A0ED9EC0CF0240EDEDF020EDCDF38
:101F1000000EDFDF000EDDDF030ED6DF000ED9DF9F
:101F2000300ED7DF180ED0DF000ED3DF280ED1DF42
:101F3000F80ECADF000ECDDF0F0ECBDFF90EC4DFC7
:101F4000000EC7DF0F0EC5DF100EBEDF000EC1DFB3
:101F5000000EBFDF0CD884DF8086200ED9EC0CF099
:101F6000050EB2DF000EB5DF010EB3DF1200700EFA
:101F7000ABDF1F0EAEDF000EACDF710EA5DF230E50
:101F8000A8DF800EA6DF720E9FDF2A0EA2DF800E72
:101F9000A0DF730E99DF150E9CDF110E9ADF740E11
:101FA00093DF1C0E96DF110E94DF750E8DDF1B0E76
:101FB00090DF150E8EDF760E87DF1A0E8ADF150E84
:101FC00088DF770E81DF1C0E84DF180E82DF780E2B
:101FD0007BDF210E7EDF150E7CDF1200700E74DFBA
:101FE000140E77DF000E75DF710E6EDF170E71DFD6
:101FF000000E6FDF720E68DF150E6BDF800E69DF7B
:10200000730E62DF150E65DF110E63DF740E5CDF89
:10201000140E5FDF0B0E5DDF750E56DF1B0E59DFF2
:10202000150E57DF760E50DF130E53DF0E0E51DF05
:10203000770E4ADF1C0E4DDF180E4BDF780E44DFA3
:10204000150E47DF0E0E45DF12002E6F2EC12FF149
:10205000030E2F17000E2F4F500E2F4FA00E2F4F95
:10206000F80E306F2EC12FF11C0E2F172F432F4368
:10207000000E2F4F040E2F4F080E2F4F0C0E2F4F18
:10208000100E2F4F140E2F4F200E2F4F3F0E316F7B
:102090003133303331333033313330332EC12FF1DC
:1020A0002E6B31332E3331332E3331332E33E00E5A
:1020B0002F172F432F432F432F432F43000E2F4F14
:1020C000040E2F4F080E2F4F0C0E2F4F100E2F4FB8
:1020D000140E2F4F200E2F4F3F0E316F31332E3302
:1020E00031332E3331332E3331332E3331332E33DC
:1020F0002EC17AF030C17BF01200E46F1F0EE46550
:1021000005D0010EAA6E200EE45F01D0AA6AE45148
:10211000040DF350820FA96ED0EC0DF0A850AA6AFE
:102120001200E46F1F0EE46505D0010EAA6E200EAA
:10213000E45F01D0AA6AE451040DF350820FA96E46
:10214000D0EC0DF0A8CF32F1A92AD0EC0DF0A8CF39
:1021500033F1AA6A12009A0EE36F2A8D03D0240E7F
:10216000E36F2A9D1F8F30EC0FF0010EBA6F21999B
:1021700021972099AA6BA56B229D229FFDEC29F047
:10218000010EE8CF7FF02AAD04D0BA0E5CEC0BF064
:1021900003D01B0E5CEC0BF0000EE8CF7FF0010EBD
:1021A0002AAD000EAA6EB86B21912193140EE8CFD0
:1021B0007DF0230EE8CF7CF020EE60F0AAC132F172
:1021C000000E2ABD200E322732C1DCF1386B382BCD
:1021D000376B1AEC0DF03A0EDE6E200EDE6E25EC3B
:1021E0000EF0E351AA255CEC0BF01F0EDC5DD8B4B9
:1021F00011D0260EDC5DD8B40DD0270EDC5DD8B42E
:1022000009D0280EDC5DD8B405D0290EDC5DD8B429
:1022100001D003D0010EDC6F01D0DC6B140EE8CFCF
:102220007DF0410EE8CF7CF020EE60F02B0EDE6EEC
:102230002F0EDE6E2D0EDE6E3A0EDE6E200EDE6E80
:102240002B0E22BD2D0EDE6E25EC0EF0140EE8CF07
:102250007DF05F0EE8CF7CF020EE60F0310EDE6E98
:102260002F0EDE6E310EDE6E300EDE6E3A0EDE6E3C
:10227000200EDE6E310EDE6E300E22BFDE6E200EC0
:10228000DE6E25EC0EF0140EE8CF7DF07D0EE8CF6B
:102290007CF020EE60F0590E55EC0BF0A551800F4C
:1022A000A96ED0EC0DF0A8CF32F1A551810FA96E27
:1022B000D0EC0DF0A8CF33F1339F386B382B376B50
:1022C000375128EC0DF0280EDE6E310EA8AE380E18
:1022D000DC67310EDE6E350EA8BEDE6E420EDE6E9F
:1022E000290EDE6E200EDE6E200EDE6E200EDE6EFD
:1022F00025EC0EF0140EE8CF7DF09B0EE8CF7CF0BD
:1023000020EE60F0610E55EC0BF0A551820FA96E26
:10231000D0EC0DF0A8CF32F1A551830FA96ED0EC0F
:102320000DF0A8CF33F1386B382B376B375128ECD1
:102330000DF0200EDE6E200EDE6E200EDE6E25EC21
:102340000EF00B0E5CEC0BF0F7EC12F014EC1DF041
:1023500007EC2FF021B30FD021B11AD020B315EF25
:1023600048F020B12CEC3BF020B12BEC41F0209157
:1023700020B91CD0EDD7BA2B070EBA6302D0010EDC
:10238000BA6FB86B14EC1DF0F7EC12F02193E0D7A4
:10239000AA6A010E2ABDAA6EBA4F0FD0BA4F17D043
:1023A000BA4F19D0BA4F1BD0BA4F39D0020E2AAD4E
:1023B000010EBA6FAA6AA8EF13F0AA2BAABBAA6BE8
:1023C000AA51040DF3CFA5F1010EBA6FE8D6227D14
:1023D000020EBA6FE4D6227F030EBA6FE0D6A55183
:1023E000800FA96ED0EC0DF0A8CF32F1A551810F6E
:1023F000A96ED0EC0DF0A8CF33F1339FA551820F19
:10240000A96E32C1A8FFD4EC0DF0A551830FA96EBF
:1024100033C1A8FFD4EC0DF0040EBA6FC0D6A5519D
:10242000820FA96ED0EC0DF0A8CF32F1A551830F29
:10243000A96ED0EC0DF0A8CF33F1A551810FA96E94
:10244000D0EC0DF0A8CFA6F1010EDC6305D0326709
:102450003269322B336B16D022AD0BD0010E22BF66
:102460000A0E325F000EA6BF335B7F0E33BF336FA1
:1024700009D0010E22BF0A0E3227000EA6BF332359
:1024800033BF336BA551820FA96E32C1A8FFD4ECC4
:102490000DF0A551830FA96E33C1A8FFD4EC0DF048
:1024A000050EBA6F7CD6E46F1F0EE46505D0010EF1
:1024B000AA6E200EE45F01D0AA6AE451040DF35025
:1024C000800FA96ED0EC0DF0A8CF32F1A92AD0EC84
:1024D0000DF0A8CF33F1AA6A1200CF4F14D0CF4F1E
:1024E00019D01200CF4F0FD0CF4F14D0CF4F19D0EB
:1024F000CF4F1ED0CF4F23D0CF4F28D0CF4F2FD08C
:10250000CF4F34D012000B0E3DD8BDEC12F0020EAE
:10251000CF6F12000C0E49D8BDEC12F0030ECF6F36
:102520001200110E2FD8BDEC12F0040ECF6F120066
:10253000120E3BD8BDEC12F0050ECF6F1200130E39
:1025400034D8BDEC12F0060ECF6F1200060ECF6F1E
:102550001D0E3ED8BDEC12F0070ECF6F1200200EFC
:1025600024D8BDEC12F0080ECF6F1200210E1DD83A
:10257000BDEC12F0010ECF6F1200326F3267120005
:102580003EEF28F0396F91EC10F032C152F133C1B7
:1025900053F1395153EC12F032C154F133C155F1BA
:1025A000D8EC0BF01FA7FF0C000C396F91EC10F06A
:1025B00032C154F133C155F1395153EC12F032C1EB
:1025C00052F133C153F1D8EC0BF01FA7FF0C000CF4
:1025D000396F91EC10F032C154F133C155F1CFC1D4
:1025E00052F1536BD8EC0BF01FA7FF0C000C280E18
:1025F0002BA3C80EE56F050ED9EC0CF081B008D006
:10260000E52FF9D781B006D02B83248724991200B7
:1026100081A2F1D7249724992B9332EC4AF012002F
:102620002B97010EBA6F1F9F30EC0FF0B86B2099FB
:1026300021912193208F2187AEEC1DF014EC1DF029
:10264000249724993DEC13F021B124D020AF15EF4D
:1026500048F020B12CEC3BF020B12BEC41F020B144
:102660006AEC3AF020B1D8EC45F0209120B915EF92
:1026700048F020B315EF48F0E5D724A908D021830E
:10268000BA2B060EBA6518D0010EBA6F15D024B752
:1026900021811200BA4FC1EF2BF0BA4F7FEF33F018
:1026A000BA4F07EF15F0BA4FA5EF13F0BA4F62EF2C
:1026B00013F0BA4F15EF48F0B86B21B714EC1DF0CA
:1026C00024991200010EBA6F1F9F30EC0FF0B86B07
:1026D000209921912193208F2187FFEC1DF014EC8C
:1026E0001DF0249724993DEC13F0050EBA6304D035
:1026F000060EBA6F14EC1DF021B115D020AF90D7A3
:1027000020B12CEC3BF020B12BEC41F020B16AEC75
:102710003AF020B1D8EC45F0209120B981D720B310
:1027200015EF48F0E0D7BA4FAAEF16F0BA4F3FEFD7
:1027300031F0BA4F61EF32F0BA4F19EF49F0BA4FAA
:1027400019EF49F0050EBA6F6ED72B97010EBA6FCD
:102750001F9F30EC0FF0CCEC1DF0B86B209921914D
:102760002193208F2187F2EC13F096EC14F014ECF7
:102770001DF0249724993DEC13F021B117D020AF20
:1027800015EF48F020B12CEC3BF020B12BEC41F0E0
:1027900020B16AEC3AF020B1D8EC45F0209120B994
:1027A00015EF48F020B315EF48F0E5D7BA4FAFEF7B
:1027B00010F0BA4FABEF10F0BA4FA4D0BA4F03D01D
:1027C000BA4F5CD036D02B87220EA3EC0DF0A82A8E
:1027D000060EA86201D0A86AD4EC0DF0040EBA6F00
:1027E0002499BBD7220EA3EC0DF0A86604D0650E89
:1027F0005CEC0BF01200A82E04D0660E5CEC0BF023
:102800001200A82E04D0680E5CEC0BF01200A82E6B
:1028100004D08A0E5CEC0BF01200A82E04D0980EA7
:102820005CEC0BF01200A82E1200EC0E5CEC0BF02E
:1028300012002BA715EF48F030EC0FF0FDEC29F05B
:10284000010EE8CF7FF0EB0E5CEC0BF0000EE8CF52
:102850007FF0220EA3EC0DF0070EA802F350C10F7B
:10286000BA6F070E396FBA515CEC0BF0BA2B392FE7
:10287000FAD71E0EC2EC48F015EF48F0010EBA6F01
:102880001F9F30EC0FF0EAEC1DF0B86B20992191FE
:102890002193208F2187F8EC14F0D2EC14F014EC83
:1028A0001DF0249724993DEC13F0030EBA6304D075
:1028B000060EBA6F14EC1DF021B117D020AF15EF42
:1028C00048F020B12CEC3BF020B12BEC41F020B1D2
:1028D0006AEC3AF020B1D8EC45F0209120B9A5EF90
:1028E00013F020B315EF48F0DED7BA4F4CD0BA4FF3
:1028F0006CD0BA4F2AD7BA4F28D7BA4F26D7050E71
:10290000BA6F26D71A0EA3EC0DF0A82A630EA8649E
:102910000AD0690EA86007D01A0EA1EC0DF0030EC4
:10292000BA6F24991AD7640EA86EF6D71A0EA3ECC4
:102930000DF0630EA86421D8690EA8601ED85F0E42
:10294000E8CF7CF0530EE8CF7DF0000EE8CF7EF0AC
:1029500020EE60F0A8CF32F1336B1F8F030E28EC0E
:102960000DF01F9F6B0EDE6E670EDE6E2F0EDE6E9D
:102970006C0EDE6E25EC0EF01200640EA86E1A0EC0
:10298000A1EC0DF012005B0EA3EC0DF0A82A020ED4
:10299000A86401D0A86A5B0EA1EC0DF0010EBA6F1D
:1029A000249973D75B0EA3EC0DF0A86604D0030E38
:1029B00059EC0BF01200A82E04D0040E59EC0BF0C9
:1029C0001200050E59EC0BF01200270EA3EC0DF0CF
:1029D000A82A010EA86401D0A86A270EA1EC0DF068
:1029E0002A85010EA8622A95020EBA6F24994DD746
:1029F000270EA3EC0DF0A86603D0830E5CEC0BF061
:102A0000A806A866FED6820E5CEC0BF01200010E42
:102A1000BA6F30EC0FF01AEC1EF0B86B20992191D0
:102A20002193208F21871AEC1EF014EC1DF02497BF
:102A300024993DEC13F021B116D020AFF1D520B18F
:102A40002CEC3BF020B12BEC41F020B16AEC3AF0D9
:102A500020B1D8EC45F0209120B910EF13F020B34D
:102A600015EF48F0E6D7BA4F08D0BA4F3AD0BA4F70
:102A700016D0BA4F05D0BA4F20D0030EBA6FD3D5B7
:102A800090EC20F0BA6FBA6701D0F7D780EC0EF067
:102A9000000E9B6E7E0ED36EFF0000EF00F090ECF8
:102AA00020F0BA6FBA6701D0E8D730EC0FF0190EFA
:102AB0005CEC0BF083EC16F0E0D790EC20F0BA6FF2
:102AC000BA6701D0DAD730EC0FF0190E5CEC0BF0DE
:102AD0008DC100F58EC101F520EC80F0010115EFEC
:102AE00048F090EC20F0BA6FBA6701D0C6D730EC4E
:102AF0000FF0190E5CEC0BF08DC100F58EC101F5E5
:102B000020EC80F00101AA6A030EA96E336B150E4A
:102B1000E2D8150EE0D8150EDED8150EDCD8150E4D
:102B2000DAD8150ED8D8010EA86E210EA1EC0DF042
:102B3000A86A220EA1EC0DF0A86A230EA1EC0DF0FC
:102B4000000EA86A270EA1EC0DF0A86A5A0EA1EC9F
:102B50000DF0A86A5B0EA1EC0DF0640E1A0EA1EC4C
:102B60000DF01F0EA86E1B0EA1EC0DF0A86A1C0E36
:102B7000A1EC0DF0A86A1D0EA1EC0DF0A86A1E0EC6
:102B8000A1EC0DF0A86A1F0EA1EC0DF0A86A200EB2
:102B9000A1EC0DF0640EA86E240EA1EC0DF0250E34
:102BA000A1EC0DF0260EA1EC0DF0010ECC6FCD6B5B
:102BB0007F0EA96E336B640E8ED81E0E8CD8F00E6D
:102BC0008AD8780E88D8050E86D8070E84D8040EC9
:102BD000336F338F880E7FD8040E336F338F4C0ED4
:102BE0007AD8140E78D8140E76D81E0E74D86E0EBD
:102BF00072D85A0E70D83C0E6ED8640E6CD8780E0F
:102C00006AD80A0E68D8130E66D8A00E64D8960E3D
:102C100062D80A0E60D8060E5ED8060E5CD8000E8A
:102C20005AD8000E58D80C0E56D8000E54D8140E90
:102C300052D8336B338F000E4ED8030E4CD80A0E89
:102C40004AD8000E48D8010EAA6E7F0EA96E336BCB
:102C50001E0E41D85A0E3FD8DF0E3DD8FF0E3BD88E
:102C6000E00E39D8000E37D8000E35D8000E33D814
:102C7000000E31D8000E2FD8000E2DD8000E2BD804
:102C8000000E29D8000E27D8000E25D8000E23D814
:102C9000000E21D8000E1FD8000E1DD8000E1BD824
:102CA000000E19D8000E17D8000E15D8000E13D834
:102CB000000E11D8000E0FD8000E0DD8000E0BD844
:102CC000000E09D8000E07D8000E05D8000E03D854
:102CD000AA6A15EF48F0326FA92A32C1A8FFD4ECD6
:102CE0000DF0A92A33C1A8FFD4EC0DF0A92A32C1F6
:102CF000A8FFD4EC0DF0A92A339F33C1A8FFD4EC70
:102D00000DF0336B1200BD6BBE6B020E366F376B6E
:102D1000400E3A6F23933B693B51BFEC2AF03A2FA8
:102D2000FAD7C58475EC2BF0070ED9EC0CF0372FD1
:102D3000EFD7362FECD72393BD6BBE6BFD0EB3ECF4
:102D40002AF0FD0EB3EC2AF0FE0EB3EC2AF0BD6BB8
:102D5000BE6B120030EC0FF0219521992197B86BD2
:102D6000219121932099229122932295BB6BFDEC16
:102D700029F0010EE8CF7FF01D0E5CEC0BF0000E89
:102D8000E8CF7FF0160E5CEC0BF0170E5CEC0BF04E
:102D9000E4EC16F0180E5CEC0BF02497249924B7A1
:102DA000A9EC17F024B975EC17F021B942D020B185
:102DB0002CEC3BF020B12BEC41F0209120B991D0CC
:102DC00020B315EF48F0EBD7460EE8CF7DF0410E6B
:102DD000E8CF7CF020EE60F005C132F1386B382B83
:102DE000376B1AEC0DF03A0EDE6E04C132F1386B1F
:102DF000382B376B1AEC0DF0200EDE6E200EDE6ED7
:102E000025EC0EF0460EE8CF7DF05F0EE8CF7CF0AB
:102E100020EE60F007C1F1F106C1F2F108C1F3F153
:102E20000CEC23F0200EDE6E200EDE6E25EC0EF094
:102E3000120007C132F1324F1F0E324F1C0E324FBB
:102E40001F0E324F1E0E324F1F0E324F1E0E324FCC
:102E50001F0E324F1F0E324F1E0E324F1F0E324FBB
:102E60001E0E324F1F0E066502D0010E066F200E99
:102E7000E8CF7DF09B0EE8CF7CF0080E396F8EEC2A
:102E80001CF0050E0A6F036B209120A1FED7209144
:102E900002EC17F0460EE8CF7DF0410EE8CF7CF053
:102EA00020EE60F005C132F1386B382B376B1AEC2D
:102EB0000DF03A0EDE6E04C132F1386B382B376BF1
:102EC0001AEC0DF03A0EDE6E03C132F1386B382B7E
:102ED000376B1AEC0DF0200EDE6E25EC0EF00A2F8B
:102EE000D4D7010EBA6F64EF13F022B12189BB2B46
:102EF000BBC1BCF1BC4F2185BC4F2285BC4F228396
:102F0000BC4F2281200EE8CF7DF09B0EE8CF7CF0F5
:102F100020EE60F05E0E55EC0BF0BBC1BCF1BC2F97
:102F200004D05A0E55EC0BF00FD0BC2F04D05B0E22
:102F300055EC0BF009D0BC2F04D05C0E55EC0BF017
:102F400003D05D0E55EC0BF025EC0EF0F7EC12F013
:102F500012002499036B22B120D022B310D022B5E5
:102F600015D021B506D0052B170E05651CD0056BB5
:102F70001AD0042B3B0E046516D0046B14D0062B1C
:102F80001F0E066510D0010E066F0DD0072B0C0E1C
:102F9000076509D0010E076F06D0082B140E0865CF
:102FA00002D0080E086FE4EC16F0F7EC12F01200F5
:102FB0007C6B080E7B6F6CC17DF16DC17EF190EC76
:102FC0000CF0100E7727270E782372C181F173C1A0
:102FD00082F177C183F178C184F179EC0CF07FC183
:102FE00085F180C186F12AB71ED0239585C17BF17A
:102FF00086C17CF185C17DF186C17EF190EC0CF03B
:10300000110E766F69EC0CF085C181F186C182F1F9
:1030100077C183F178C184F179EC0CF07FC187F13D
:1030200080C188F117D0238585C17BF186C17CF1F1
:1030300085C17DF186C17EF190EC0CF00F0E766FAC
:1030400069EC0CF0855177278651782377C187F199
:1030500078C188F16AC181F16BC182F1FA0E836F88
:10306000846B79EC0CF07FC17BF180C17CF185C170
:103070007DF186C17EF190EC0CF077C174F178C1DE
:1030800075F10C0E766F63EC0CF074C177F175C1BD
:1030900078F12AA70DD06451772765517823100E57
:1030A0007727270E782377C189F178C18AF10FD06D
:1030B00064C181F165C182F177C183F178C184F186
:1030C00079EC0CF07FC177F180C178F1E8D766C167
:1030D00068F167C169F1C80E6827000E692368C1ED
:1030E0007BF169C17CF185C17DF186C17EF190ECF7
:1030F0000CF077C174F178C175F10D0E766F63EC49
:103100000CF074C18BF175C18CF162C174F163C1B3
:1031100075F1010E766F63EC0CF074518B277551CD
:103120008C23B80E8B270B0E8C2370C181F171C1DB
:1031300082F189C183F18AC184F179EC0CF07FC1FD
:103140007BF180C17CF18BC17DF18CC17EF190EC73
:103150000CF00C0E766F69EC0CF02AB771EC0CF0E9
:10316000E80E7727030E782377C18DF178C18EF1B1
:1031700025AD04D0C6C18DF1C7C18EF16EC168F115
:103180006FC169F1640E6827000E692368C17BF185
:1031900069C17CF187C17DF188C17EF190EC0CF0B2
:1031A0000B0E766F69EC0CF0249D23B509D0C80E88
:1031B0007727000E782377C197F178C198F1120034
:1031C000C80E816F826B77C183F178C184F179EC8D
:1031D0000CF02AB7248D7FC197F180C198F11200BD
:1031E000C7D8A00E3D6F0C0E586FFBD81200D6D872
:1031F00057C171F156C170F11200BAD8900EF2D7D2
:10320000CDD857C173F156C172F11200B1D80D0E6D
:10321000586F540E3D6FE5D8C1D857C15BF156C108
:103220005AF10D0E586F580E3D6FDBD8B7D857C105
:103230005DF156C15CF10D0E586F640E3D6FD1D833
:10324000ADD857C15FF156C15EF10D0E586F680ED3
:103250003D6FC7D8A3D857C161F156C160F15BC1BA
:1032600063F1D8906333D8906333D89063335AC1F5
:1032700062F1D8805BA1D8906233D8805BA3D890EC
:103280006233D8805BA5D89062335CC164F1D8808A
:103290005DA1D8906433D8805DA3D8906433D88082
:1032A0005DA5D8906433D8805DA7D8906433D8806A
:1032B0005DA9D8906433D8805DABD89064335DC18C
:1032C00065F1D8805AA1D8906533D8805AA3D89098
:1032D0006533D8805AA5D8906533D8906533D89097
:1032E0006533D89065335FC166F1D8805EAFD89002
:1032F0006637D8805EADD8906637676B5FBF6783EF
:103300005FBD678161C16AF1D88060AFD8906A37CC
:103310006B6B61BF6B815EC16CF16C9D5CB16C8D40
:103320006C9F5CB36C8F6D6B5CB56D815CB76D83AE
:103330005CB96D855CBB6D876F6B60C16EF16E9F14
:10334000239F120080820000808E00000000000099
:10335000000000000000809E120080920000808E1D
:10336000000000000000000000000000809E12002D
:10337000E9DFF3DFE7DFF1DFE5DFEFDFE3DFEDDFFD
:10338000E1DFEBDFDFDFE9DFDDDFE7DFDBDFE5DF2D
:10339000E4DFE3DFE2DFE1DFE0DF1200080E586F79
:1033A00010D83DC157F1080E586F0BD83DC156F1EA
:1033B000808E000000000000000000000000809EE1
:1033C0001200808E000000000000000000000000DD
:1033D000809E80A8D89080B8D8803D37582FF1D7EC
:1033E0001200809E8082030E585F808E00000000D5
:1033F0000000000000000000809E000000000000AF
:10340000000000000000808E0000000000000000AE
:1034100000000000809E000000000000000000008E
:103420000000808E0000000000000000000000008E
:10343000809E3DAF80923DBF8082D8903D37808E88
:10344000000000000000000000000000809E582FD7
:10345000F0D71200230E7DEC10F025EC10F01200D6
:10346000240E7DEC10F025EC10F01200DB6FD9C1BA
:10347000DAF1D8C1D9F1D7C1D8F1D6C1D7F1D5C1C8
:10348000D6F1DBC1D5F12AA51200C80EE8CF7CF039
:10349000640EE8CF7DF0000EE8CF7EF0000EE8CF9E
:1034A0007FF02AEC1AF020EE60F0D551DE6ED65196
:1034B000DE6ED751DE6ED851DE6ED951DE6EDA5136
:1034C000DE6E200EDE6E25EC0EF012002AEC4AF0C5
:1034D0003AEC4AF06EEC0FF030EC0FF02AEC1AF0F8
:1034E000850E5CEC0BF0860E5CEC0BF0870E5CEC52
:1034F0000BF0880E5CEC0BF0640EE8CF7CF00A0E4B
:10350000E8CF7DF0000EE8CF7EF0000EE8CF7FF030
:103510002AEC1AF020EE60F0D551DE6ED651DE6E48
:10352000D751DE6ED851DE6ED951DE6EDA51DE6EC5
:103530002E0EDE6E200EDE6E1FC132F1386B382B80
:10354000376B1FEC0DF0200EDE6E20C132F1386BB0
:10355000382B376B1FEC0DF025EC0EF07D0EE8CF0D
:103560007CF00A0EE8CF7DF0000EE8CF7EF0000E72
:10357000E8CF7FF02AEC1AF020EE60F021C132F1A2
:10358000386B382B376B1FEC0DF0200EDE6E22C12E
:1035900032F1386B382B376B1FEC0DF0200EDE6EDE
:1035A00023C132F1386B382B376B1FEC0DF0200E36
:1035B000DE6E24C132F1386B382B376B1FEC0DF007
:1035C000200EDE6E25C132F1386B382B376B1FECC5
:1035D0000DF025EC0EF0960EE8CF7CF00A0EE8CF49
:1035E0007DF0000EE8CF7EF0000EE8CF7FF02AECF1
:1035F0001AF020EE60F026C132F1386B382B376BB1
:103600001FEC0DF0200EDE6E27C132F1386B382B27
:10361000376B1FEC0DF0200EDE6E28C132F1386BD7
:10362000382B376B1FEC0DF0200EDE6E29C132F106
:10363000386B382B376B1FEC0DF0200EDE6E2AC175
:1036400032F1386B382B376B1FEC0DF025EC0EF098
:1036500024A7FED728EC4AF0120030EC1AF00B0E2B
:1036600059EC0BF0560E5CEC0BF0570E5CEC0BF0CB
:103670002AEC1AF01200000EE8CFF4F13C0EE8CF6D
:10368000F5F1EF0EE8CFF6F15A0EE8CFF7F19F0E05
:10369000E8CFF8F1C8EC0EF084EC1EF0EEEC1EF072
:1036A0001200E9DF30EC1AF0540E5CEC0BF02AEC5F
:1036B0001AF0080E396F910EE8CF7CF0000EE8CFBB
:1036C0007DF08EEC1CF012002BB512007A0E36EC59
:1036D0001AF0B90EE8CF7CF0770EE8CF7DF0010E3E
:1036E000E8CF7EF0000EE8CF7FF02AEC1AF020EE53
:1036F00060F022C532F1386B382B376B1FEC0DF0C0
:10370000270EDE6E25EC0EF0000EE8CF7EF01200E4
:10371000B2DF30EC1AF0550E5CEC0BF02AEC1AF02C
:1037200012002BB5120020BF31D0790E36EC1AF002
:1037300030EC1AF0520E5CEC0BF02AEC1AF0760E1C
:10374000E8CF7CF05E0EE8CF7DF0010EE8CF7EF092
:10375000000EE8CF7FF02AEC1AF020EE60F02BC5C7
:1037600032F1386B382B376B09EC0DF06D0EDE6ED5
:1037700024C532F1386B382B376B09EC0DF0270E6E
:10378000DE6E25EC0EF0000EE8CF7EF02BB51200B9
:10379000780E36EC1AF0B90EE8CF7CF0770EE8CF51
:1037A0007DF0010EE8CF7EF0000EE8CF7FF02AEC2E
:1037B0001AF020EE60F031C532F1C70E3261326F7F
:1037C0001F9F386B382B376B1FEC0DF0270EDE6E0A
:1037D00025EC0EF032C532F1080E7DEC10F03261AE
:1037E00001D067D7770E36EC1AF0910EE8CF7CF057
:1037F000000EE8CF7DF0000EE8CF7EF02AEC1AF044
:1038000020EE60F0470EDE6E460EDE6E3A0EDE6E85
:1038100032C532F1386B382B376B1FEC0DF0250EAB
:10382000DE6E200EDE6E25EC0EF01200410EE8CFAB
:103830007CF0690EE8CF7DF0000EE8CF7EF02AEC38
:103840001AF020EE60F0EBC132F11F8F386B382B8D
:10385000376B1FEC0DF01F9F6D0EDE6E690EDE6E76
:103860006E0EDE6E200EDE6E25EC0EF05F0EE8CFE3
:103870007CF0640EE8CF7DF0000EE8CF7EF02AECFD
:103880001AF020EE60F0ECC132F11F8F386B382B4C
:10389000376B1FEC0DF01F9F6D0EDE6E200EDE6E7F
:1038A00025EC0EF012002BB51200760E36EC1AF055
:1038B0005A0EE8CF7CF0000EE8CF7DF0000EE8CF86
:1038C0007EF02AEC1AF020EE60F02D0E1FB72B0EC2
:1038D000DE6E45C132F1386B382B376B09EC0DF0D9
:1038E000530E55EC0BF025EC0EF02B891200080E50
:1038F000396F5A0EE8CF7CF0000EE8CF7DF02B999F
:103900000DD0060E396F020EE8CF7CF0730EE8CFB3
:103910007DF004D0010EE8CF7EF003D0000EE8CF9A
:103920007EF020EE60F0200EDE6E392FFCD725EC05
:103930000EF0000EE8CF7EF01200630E36EC1AF0A7
:10394000320EE8CF7CF0000EE8CF7DF0000EE8CF1D
:103950007EF0000EE8CF7FF02AEC1AF020EE60F047
:1039600019C132F1326705D01AC132F1326701D084
:1039700039D02DAF34D0B72F01D034D02D8F060ED3
:10398000B76125D819C132F11AC133F1B5EC0BF08A
:10399000335132C133F1326F490EDE6E6E0EDE6E80
:1039A000740EDE6E3A0EDE6E386B382B376B1AEC07
:1039B0000DF03A0EDE6E33C132F1386B382B376BB7
:1039C0001AEC0DF0200EDE6E25EC0EF012002D9F8D
:1039D000050EB76F12002D8F050EB76F1200B72FAF
:1039E00001D0CCD72D9F060EB761F5DF05C132F1AE
:1039F000386B382B376B1AEC0DF03A0EDE6E04C1C3
:103A000032F1386B382B376B1AEC0DF03A0EDE6E54
:103A100003C132F1386B382B376B1AEC0DF0200EE6
:103A2000DE6E25EC0EF01200230EE8CF7CF0000EC7
:103A3000E8CF7DF0000EE8CF7EF0000EE8CF7FF0FB
:103A40002AEC1AF020EE60F0B80EDE6E25EC0EF0D7
:103A5000410EE8CF7CF0000EE8CF7DF0000EE8CFFD
:103A60007EF0000EE8CF7FF02AEC1AF020EE60F036
:103A7000B80EDE6E25EC0EF05F0EE8CF7CF0000E87
:103A8000E8CF7DF0000EE8CF7EF0000EE8CF7FF0AB
:103A90002AEC1AF020EE60F0B80EDE6E25EC0EF087
:103AA0007D0EE8CF7CF0000EE8CF7DF0000EE8CF71
:103AB0007EF0000EE8CF7FF02AEC1AF020EE60F0E6
:103AC000B80EDE6E25EC0EF09B0EE8CF7CF0000EFB
:103AD000E8CF7DF0000EE8CF7EF0000EE8CF7FF05B
:103AE0002AEC1AF020EE60F0B80EDE6E25EC0EF037
:103AF000B90EE8CF7CF0000EE8CF7DF0000EE8CFE5
:103B00007EF0000EE8CF7FF02AEC1AF020EE60F095
:103B1000B80EDE6E25EC0EF0BAC139F1394F230E26
:103B2000394F410E394F5F0E394F7D0E394F9B0E85
:103B3000394FB90EE8CF7CF0000EE8CF7DF0000ED3
:103B4000E8CF7EF0000EE8CF7FF02AEC1AF020EEEE
:103B500060F0B70EDE6E25EC0EF01200FDEC29F0E1
:103B6000010EE8CF7FF0050E5CEC0BF0000EE8CF05
:103B70007FF0060E5CEC0BF0070E5CEC0BF0090E10
:103B80005CEC0BF00A0E5CEC0BF08E0E5CEC0BF0B8
:103B90000B0E5CEC0BF01200FDEC29F0010EE8CFEF
:103BA0007FF0620E5CEC0BF0000EE8CF7FF0630E4E
:103BB0005CEC0BF0990E5CEC0BF0140E59EC0BF076
:103BC000640E5CEC0BF08E0E5CEC0BF00B0E5CEC00
:103BD0000BF01200FDEC29F0010EE8CF7FF0020E91
:103BE00059EC0BF0000EE8CF7FF0010E59EC0BF012
:103BF000810E5CEC0BF00B0E5CEC0BF01200FDEC9C
:103C000029F0010EE8CF7FF0900E5CEC0BF0000E77
:103C1000E8CF7FF0080E5CEC0BF06E0E5CEC0BF066
:103C2000710E5CEC0BF0F70E5CEC0BF00B0E5CEC29
:103C30000BF01200FDEC29F0010EE8CF7FF01C0E16
:103C40005CEC0BF0000EE8CF7FF0150E5CEC0BF097
:103C5000F50E5CEC0BF01C0E59EC0BF01D0E59EC44
:103C60000BF01E0E59EC0BF00B0E5CEC0BF012007F
:103C7000FDEC29F0010EE8CF7FF0F80E5CEC0BF0C4
:103C8000000EE8CF7FF0F90E5CEC0BF0150E59EC4E
:103C90000BF0160E59EC0BF0170E59EC0BF0180E3A
:103CA00059EC0BF00B0E5CEC0BF01200650E36ECD1
:103CB0001AF097C199F198C19AF1640EE8CF7CF09F
:103CC000000EE8CF7DF0000EE8CF7EF0000EE8CFCA
:103CD0007FF02AEC1AF020EE60F02D0E24BDDE6E8F
:103CE00097C132F198C133F1030E386F1F8F020E66
:103CF00028EC0DF01F9FB00EDE6E430EDE6E200E20
:103D0000DE6E25EC0EF012002BB51200750E36ECAF
:103D10001AF097C199F198C19AF1D80EE8CF7CF0CA
:103D2000410EE8CF7DF0000EE8CF7EF0000EE8CF28
:103D30007FF02AEC1AF020EE60F02D0E24BDDE6E2E
:103D400097C132F198C133F1030E386F1F8F020E05
:103D500028EC0DF01F9FB00EDE6E200EDE6E25ECFF
:103D60000EF01200740E36EC1AF0780EE8CF7CF0EC
:103D7000000EE8CF7DF0000EE8CF7EF02AEC1AF0BE
:103D800020EE60F0700EDE6E700EDE6E4F0EDE6E98
:103D9000320EDE6E3A0EDE6E48C132F149C133F1A9
:103DA0002987010E28EC0DF02997200EDE6E25ECF8
:103DB0000EF012000A0E396F780EE8CF7CF0000E7C
:103DC000E8CF7DF08EEC1CF01200C00EE8CF7CF046
:103DD000410EE8CF7DF0050E396FA0D52ABB120049
:103DE0002BB51200730E36EC1AF0C00EE8CF7CF043
:103DF000410EE8CF7DF0000EE8CF7EF0000EE8CF58
:103E00007FF02AEC1AF0640E10C532F1D8803255DA
:103E100011C532F1D8803257090E7DEC10F011C572
:103E200033F1326501D005D0336703D0050E396F09
:103E300075D5150E32630ED033670CD020EE60F0CE
:103E4000080E52EC0BF0200E2CBD2A0EDE6E25EC77
:103E50000EF0120020EE60F01F8F386B382B376B9E
:103E60001FEC0DF02F0EDE6E11C532F1386B382BC2
:103E7000376B1FEC0DF0200E2CBD2A0EDE6E1F9F3F
:103E800025EC0EF01200550EE8CF7DF0000EE8CFC5
:103E90007EF0000EE8CF7FF0AA6A220EA3EC0DF0B0
:103EA000A86620D07D0EE8CF7CF02AEC1AF020EE38
:103EB00060F04F0EDE6E25EC0EF0550EE8CF7DF073
:103EC000000EE8CF7EF0000EE8CF7FF0960EE8CF30
:103ED0007CF02AEC1AF020EE60F0430EDE6E25EC4A
:103EE0000EF01200A806A86601D01200A806A86667
:103EF00029D07D0EE8CF7CF02AEC1AF020EE60F09D
:103F0000430EDE6E550EE8CF7DF0000EE8CF7EF05A
:103F1000000EE8CF7FF025EC0EF0960EE8CF7CF097
:103F20002AEC1AF020EE60F0430EDE6E550EE8CF5C
:103F30007DF0000EE8CF7EF0000EE8CF7FF025EC9C
:103F40000EF01200A806A86601D01200A806A86606
:103F500029D07D0EE8CF7CF020EE60F0470EDE6EBB
:103F6000550EE8CF7DF0000EE8CF7EF0000EE8CFD2
:103F70007FF02AEC1AF025EC0EF0960EE8CF7CF0DC
:103F800020EE60F0460EDE6E550EE8CF7DF0000E9E
:103F9000E8CF7EF0000EE8CF7FF02AEC1AF025EC97
:103FA0000EF012007D0EE8CF7CF020EE60F0470EA0
:103FB000DE6E550EE8CF7DF0000EE8CF7EF0000EED
:103FC000E8CF7FF02AEC1AF025EC0EF0960EE8CF41
:103FD0007CF020EE60F0460EDE6E550EE8CF7DF0F0
:103FE000000EE8CF7EF0000EE8CF7FF02AEC1AF04A
:103FF00025EC0EF01200710E36EC1AF02ABB1200FE
:1040000028BF120029A123D0870EE8CF7CF05A0EDA
:10401000E8CF7DF0000EE8CF7EF0000EE8CF7FF015
:104020002AEC1AF020EE60F0240EA3EC0DF0A8CFDD
:1040300032F1336B030E28EC0DF0420EDE6E610E92
:10404000DE6E720EDE6E1F9F25EC0EF057D0820ED4
:10405000E8CF7CF0640EE8CF7DF0010EE8CF7EF073
:10406000000EE8CF7FF02AEC1AF0210EA3EC0DF041
:10407000A8CFD1F1D105040DF350070FA96ED0ECF4
:104080000DF0A8CF11F5D105040DF350060FA96E60
:10409000D0EC0DF0A8CFD0F111C50AF1D880640E94
:1040A0000A55D880A856A8CF10F5640E10C532F175
:1040B000D880325511C532F1D880325711C533F14D
:1040C000150E326306D0336704D0090E59EC0BF09D
:1040D00015D020EE60F01F8F386B382B376B1FEC3C
:1040E0000DF02F0EDE6E11C532F1386B382B376BA9
:1040F0001FEC0DF01F9F25EC0EF000D0000EE8CF56
:10410000F4F17A0EE8CFF5F1AF0EE8CFF6F1520EEA
:10411000E8CFF7F19F0EE8CFF8F188EC0EF012002F
:10412000000EE8CFF4F1440EE8CFF5F1920EE8CF9F
:10413000F6F1220EE8CFF7F1650EE8CFF8F1C8EC02
:104140000EF0230E7DEC10F0E8CFF4F1460EE8CF30
:10415000F5F1900EE8CFF6F1230EE8CFF7F1640EFB
:10416000E8CFF8F188EC0EF08F0E5CEC0BF0910EBE
:104170005CEC0BF0920E5CEC0BF0010EBA6F000ED3
:10418000E8CFF4F1600EE8CFF5F18F0EE8CFF6F14D
:10419000270EE8CFF7F1330EE8CFF8F1C8EC0EF0B8
:1041A000BAC139F1600E394F600E394F780EE8CF41
:1041B0007CF0270EE8CF7DF0000EE8CF7EF0000EF9
:1041C000E8CF7FF02AEC1AF020EE60F0B70EDE6E3A
:1041D00025EC0EF020992191219324992497B86B16
:1041E000640ED9EC0CF007EC2FF021B315D021B1FF
:1041F0000ED020B12CEC3BF020B12BEC41F0209103
:1042000020B903D020B301D0EED7000C010CBA4F77
:10421000FCD7BA4FFBD7F9D7BA2B030EBA6302D03B
:10422000010EBA6FACD7720E36EC1AF090C133F1B2
:104230008FC132F17BEC2AF0270E33616FD02BBB9C
:10424000B4EC21F02B9B20EE60F0030E536FE80ED0
:10425000526F33C155F132C154F1542B000E552326
:10426000D8EC0BF01FA77DD8180EE8CF7CF0000E1D
:10427000E8CF7DF0020EE8CF7EF0000EE8CF7FF0B1
:104280002AEC1AF0000E536F630E526F33C155F1D2
:1042900032C154F1D8EC0BF01FA70AD01F8F298729
:1042A000386B382B376B375128EC0DF01F9F02D03D
:1042B000300EDE6E25EC0EF02997010EE8CF7EF071
:1042C000320EE8CF7CF0280EE8CF7DF02AEC1AF011
:1042D00090C133F18FC132F17BEC2AF020EE60F017
:1042E0002E0EDE6E000E536F090E526F33C155F164
:1042F00032C154F1D8EC0BF01FA707D0040E386F71
:104300002485000E28EC0DF002D0300EDE6E25EC78
:104310000EF02495000EE8CF7EF012002BABB4EC2B
:1043200021F020EE60F0180EE8CF7CF0000EE8CF10
:104330007DF0020EE8CF7EF0000EE8CF7FF02AEC91
:104340001AF029871F8F386B382B376B375128ECC1
:104350000DF01F9F25EC0EF02997000EE8CF7EF0A0
:104360001200200EDE6E1200000EE8CFF4F1180EDF
:10437000E8CFF5F15A0EE8CFF6F1000EE8CFF7F1ED
:104380005A0EE8CFF8F1C8EC0EF02B8B1200680E35
:1043900036EC1AF0960EE8CF7CF0000EE8CF7DF0F8
:1043A000000EE8CF7EF0000EE8CF7FF02AEC1AF086
:1043B00020EE60F00E0E55EC0BF0200EDE6E20C5E8
:1043C00032F121C533F1B5EC0BF01F8F325133C1FF
:1043D00032F1336F386B382B376B1FEC0DF03A0E20
:1043E000DE6E33C132F1386B382B376B1AEC0DF0BF
:1043F0001F9F25EC0EF01200670E36EC1AF07D0EB2
:10440000E8CF7CF0000EE8CF7DF0000EE8CF7EF024
:10441000000EE8CF7FF02AEC1AF020EE60F0230EB9
:1044200055EC0BF0200EDE6ECCC132F1CDC133F174
:10443000B5EC0BF01F8F325133C132F1336F386B53
:10444000382B376B1FEC0DF03A0EDE6E33C132F1B4
:10445000320732BF326B386B382B376B1AEC0DF0EA
:104460001F9F25EC0EF0120020BD1200620E36ECEC
:104470001AF0190EE8CF7CF0000EE8CF7DF0000EA8
:10448000E8CF7EF0000EE8CF7FF02AEC1AF020EEA5
:1044900060F08DC132F18EC133F11F8F386B382B34
:1044A000376B375128EC0DF01F9F6D0EDE6E620EDC
:1044B000DE6E610EDE6E720EDE6E200EDE6E25EC9E
:1044C0000EF01200660E36EC1AF01F0E7DEC10F0A6
:1044D000326F010E326323D0AF0EE8CF7CF0000EB6
:1044E000E8CF7DF0000EE8CF7EF0000EE8CF7FF041
:1044F0002AEC1AF020EE60F0C2C132F1C3C133F1F0
:10450000010E386F24851F8F020E28EC0DF01F9FBF
:10451000560EDE6E200EDE6E25EC0EF01200230E1F
:104520007DEC10F0E8CFF4F1AE0EE8CFF5F1C20E5D
:10453000E8CFF6F1000EE8CFF7F11F0EE8CFF8F163
:1045400088EC0EF0100E526F0E0E536FC2C154F174
:10455000C3C155F1D8EC0BF01FB748D0B80E546F5B
:104560000B0E556FC2C152F1C3C153F1D8EC0BF021
:104570001FB739D050C14CF151C14DF1140E4E6FDF
:104580004F6B0CEC0CF048C10AF1020E0A650A6F81
:10459000230E7DEC10F0E8CFF4F1B50EE8CFF5F185
:1045A000BB0EE8CFF6F11F0EE8CFF7F1210EE8CFF2
:1045B000F8F188EC0EF0220E7DEC10F0E8CFF4F16B
:1045C000AF0EE8CFF5F1C10EE8CFF6F1010EE8CF5E
:1045D000F7F10AC1F8F1C8EC0EF0230E7DEC10F0F3
:1045E00025EC10F01200010E0A6FD2D71E0E0A6FD2
:1045F000230E7DEC10F0E8CFF4F1B50EE8CFF5F125
:10460000BB0EE8CFF6F11F0EE8CFF7F1210EE8CF91
:10461000F8F1C8EC0EF0CFD75B0EA3EC0DF0A86656
:104620000ED0F1C132F11F8F386B382B376B1AEC7B
:104630000DF01F9F2F0EDE6EF2C132F112D05B0E15
:10464000A3EC0DF0A82E1FD0F2C132F11F8F386BF2
:10465000382B376B1AEC0DF01F9F2F0EDE6EF1C159
:1046600032F11F8F386B382B376B1AEC0DF01F9F10
:104670002F0EDE6EF3C132F11F8F386B382B376B84
:104680001AEC0DF01200F3C132F11F8F386B382B8A
:10469000376B1AEC0DF01F9F2F0EDE6EF1C132F159
:1046A0001F8F386B382B376B1AEC0DF01F9F2F0EB6
:1046B000DE6EF2C132F11F8F386B382B376B1AEC7C
:1046C0000DF012005B0EA3EC0DF0A86615D0F1C141
:1046D00032F11F8F386B382B376B1AEC0DF01F9FA0
:1046E0002F0EDE6EF2C132F11F8F386B382B376B15
:1046F0001AEC0DF01F9F12005B0EA3EC0DF0A82E1C
:10470000E6D7F2C132F11F8F386B382B376B1AECBA
:104710000DF01F9F2F0EDE6EF1C132F11F8F386B2F
:10472000382B376B1AEC0DF01F9F1200640E36EC1D
:104730001AF04B0EE8CF7CF0000EE8CF7DF0000EB3
:10474000E8CF7EF0000EE8CF7FF02AEC1AF020EEE2
:1047500060F007C1F1F106C1F2F108C1F3F10CEC10
:1047600023F025EC0EF01200000EE8CFF4F1000E5D
:10477000E8CFF5F11A0EE8CFF6F1410EE8CFF7F1E8
:10478000640EE8CFF8F1C8EC0EF012002BB5120061
:10479000700E36EC1AF0B80EE8CF7CF0000EE8CFC1
:1047A0007DF0010EE8CF7EF0000EE8CF7FF02AEC1E
:1047B0001AF020EE60F091C132F192C133F17BEC3E
:1047C0002AF01F8F2485030E28EC0DF01F9F1F9DDC
:1047D00025EC0EF0000EE8CF7EF0120020BF120094
:1047E000410E36EC1AF028BF92D02ABB90D0260E8C
:1047F0007DEC10F0326F010E326301D088D0A5C17C
:1048000032F1A6C133F11F9F20EE60F0386B382BD8
:10481000376B1F8D375128EC0DF0140EE8CF7CF06C
:10482000780EE8CF7DF0010EE8CF7EF02AEC1AF08A
:1048300025EC0EF0000EE8CF7EF0120020BF120033
:1048400030EC1AF08C0E5CEC0BF02AEC1AF0550EE2
:10485000E8CF7CF05A0EE8CF7DF0010EE8CF7EF075
:104860002AEC1AF0E1C132F11F9F20EE60F0386BA4
:10487000382B376B1FEC0DF03A0EDE6EE2C132F1D1
:10488000386B382B376B1AEC0DF025EC0EF0000E60
:10489000E8CF7EF01200000EE8CFF4F13C0EE8CF36
:1048A000F5F1770EE8CFF6F15A0EE8CFF7F19F0E4B
:1048B000E8CFF8F1C8EC0EF0120030EC1AF08B0ED5
:1048C0005CEC0BF02AEC1AF0910EE8CF7CF05A0E5B
:1048D000E8CF7DF0010EE8CF7EF02AEC1AF0DCC1C3
:1048E00032F120EE60F0386B382B376B1FEC0DF097
:1048F0003A0EDE6EDDC132F1386B382B376B1AECB5
:104900000DF025EC0EF0000EE8CF7EF01200A5C1F0
:1049100032F1A6C133F11F9F1F8D20EE60F0386B7E
:10492000382B376B1F8D375128EC0DF03A0EDE6EA9
:10493000A7C132F1386B382B376B1AEC0DF0140E1F
:10494000E8CF7CF05A0EE8CF7DF0010EE8CF7EF084
:104950002AEC1AF025EC0EF01F9D000EE8CF7EF039
:104960001200000EE8CFF4F1360EE8CFF5F1660E36
:10497000E8CFF6F13E0EE8CFF7F19F0EE8CFF8F161
:10498000C8EC0EF0120020BF1200560E36EC1AF0E2
:1049900030EC1AF01B0E59EC0BF02AEC1AF0500E0A
:1049A000E8CF7CF06E0EE8CF7DF0000EE8CF7EF011
:1049B0002AEC1AF020EE60F017C132F118C133F181
:1049C000020E325F000E335BB5EC0BF032C10AF120
:1049D00033C132F1336B000E1F9F1F8D386B382BA4
:1049E000376B1F8D375128EC0DF03A0EDE6E0AC181
:1049F00032F1386B382B376B1AEC0DF01F9F25EC1A
:104A00000EF0550E36EC1AF0500EE8CF7CF03E0E4C
:104A1000E8CF7DF0000EE8CF7EF02AEC1AF020EE11
:104A200060F093C132F194C133F17BEC2AF01F8F17
:104A30002485030E28EC0DF01F9F6D0EDE6E200EF8
:104A4000DE6E25EC0EF01200610E36EC1AF0000E50
:104A5000E8CF7CF0000EE8CF7DF0000EE8CF7EF0CE
:104A6000000EE8CF7FF02AEC1AF020EE60F0060E80
:104A700052EC0BF0AA6AA96AD0EC0DF0A8CF32F183
:104A8000A92AD0EC0DF0A8CF33F11F8F386B382B4B
:104A9000376B375128EC0DF0200EDE6E560EDE6EB1
:104AA000010E326F1F8F386B382B376B1FEC0DF0F8
:104AB0002E0EDE6E340E326F1F8F386B382B376B35
:104AC0001AEC0DF01F9F25EC0EF012006F0E36EC65
:104AD0001AF0B4EC23F01F0E5CEC0BF029B107D0F8
:104AE000200E5CEC0BF07A0E5CEC0BF006D0EE0EB8
:104AF0005CEC0BF0890E5CEC0BF0210E5CEC0BF027
:104B0000220E5CEC0BF012006F0E36EC1AF0F00E79
:104B10005CEC0BF0F10E5CEC0BF0190E59EC0BF0A9
:104B2000930E5CEC0BF0F40E5CEC0BF01200640ED8
:104B3000E8CF7DF0000EE8CF7CF0000EE8CF7EF0ED
:104B40002AEC1AF020EE60F0530EDE6E650EDE6E7B
:104B50006C0EDE6E180EA3EC0DF0A8CF32F11F9F85
:104B6000386B382B376B09EC0DF02F0EDE6E190EFB
:104B7000A3EC0DF0A8CF32F1386B382B376B09EC72
:104B80000DF025EC0EF07B0E5CEC0BF07C0E5CEC7B
:104B90000BF07D0E5CEC0BF07E0E5CEC0BF012006B
:104BA000FE0E5CEC0BF0FA0E5CEC0BF0FB0E5CEC1A
:104BB0000BF0FC0E5CEC0BF0FD0E5CEC0BF012004D
:104BC000230E7DEC10F0E8CFF4F17CC0F5F17CC051
:104BD000F6F1140EF6277A0EE8CFF7F132273207F6
:104BE0008A0E3261326F32C1F8F1C8EC0EF0000E5D
:104BF000E8CFF4F17CC0F5F17CC0F6F1140EF62795
:104C000032C1F7F1F72B8B0EE8CFF8F1C8EC0EF0BC
:104C10001200000EE8CFF4F133C1F5F17D0EE8CFBC
:104C2000F6F1640EE8CFF7F19F0EE8CFF8F1C8EC8B
:104C30000EF012006E0E36EC1AF02BC532F1326710
:104C400006D09AEC27F0EF0E5CEC0BF012001F8FF1
:104C5000640EE8CF7DF0000EE8CF7CF0336F41ECBE
:104C60000EF020EE60F02BC532F13251D8B409EFCE
:104C700026F0386B382B376B1FEC0DF06D0EDE6EA7
:104C800025EC0EF08C0EE8CF7DF0000EE8CF7CF026
:104C900020EE60F024C532F1386B382B376B1AECFC
:104CA0000DF0270EDE6E25EC0EF0E0EC25F0640E24
:104CB000E8CF7DF0190EE8CF7CF0336F41EC0EF0B9
:104CC00020EE60F02CC532F13251D8B409EF26F055
:104CD000386B382B376B1FEC0DF06D0EDE6E25EC4C
:104CE0000EF08C0EE8CF7DF0190EE8CF7CF020EEB0
:104CF00060F025C532F1386B382B376B1AEC0DF0AC
:104D0000270EDE6E25EC0EF0E0EC25F0640EE8CF09
:104D10007DF0320EE8CF7CF0336F41EC0EF020EEE8
:104D200060F02DC532F13251D8B409EF26F0386B5E
:104D3000382B376B1FEC0DF06D0EDE6E25EC0EF090
:104D40008C0EE8CF7DF0320EE8CF7CF020EE60F0E4
:104D500026C532F1386B382B376B1AEC0DF0270E65
:104D6000DE6E25EC0EF0E0EC25F0640EE8CF7DF071
:104D70004B0EE8CF7CF0336F41EC0EF020EE60F08C
:104D80002EC532F13251D8B409EF26F0386B382BEA
:104D9000376B1FEC0DF06D0EDE6E25EC0EF08C0EF9
:104DA000E8CF7DF04B0EE8CF7CF020EE60F027C519
:104DB00032F1386B382B376B1AEC0DF0270EDE6EA4
:104DC00025EC0EF0E0EC25F0640EE8CF7DF0640EEB
:104DD000E8CF7CF0336F41EC0EF020EE60F02FC591
:104DE00032F13251D8B409EF26F0386B382B376BDB
:104DF0001FEC0DF06D0EDE6E25EC0EF08C0EE8CF84
:104E00007DF0640EE8CF7CF020EE60F028C532F132
:104E1000386B382B376B1AEC0DF0270EDE6E25EC55
:104E20000EF0E0EC25F012006D0E36EC1AF0640E78
:104E3000E8CF7DF0000EE8CF7EF01F8F020E0A6FE4
:104E4000E70E096F336B332B040E0A27190E09275F
:104E5000640EE8CF7DF009C17CF020EE60F0470ED3
:104E6000DE6E33C132F1386B382B376B1FEC0DF02F
:104E70003A0EDE6E0AC1A9FFD0EC0DF0A8CF32F1D8
:104E8000386B382B376B1FEC0DF02F0EDE6EA92A16
:104E9000D0EC0DF0A8CF32F1386B382B376B1FEC0C
:104EA0000DF01B0EA3EC0DF033C132F1A832322FFE
:104EB000FDD70F0ED8A00A0E1B6F25EC0EF00F0EBB
:104EC0001B6F050E3363BFD71200640EE8CF7DF071
:104ED000000EE8CF7EF01F8F230E0A6FE70E096FDA
:104EE000E66B0A2BE62B190E092709C17CF0640E2C
:104EF000E8CF7DF020EE60F0530EDE6E500EDE6ED9
:104F0000E6C132F1386B382B376B1FEC0DF03A0EDF
:104F1000DE6E0AC1A9FFD0EC0DF0A8CF32F1336BE1
:104F2000030E28EC0DF025EC0EF0030EE663D9D746
:104F30001F9F1200000EE8CFF4F1000EE8CFF5F14C
:104F40007D0EE8CFF6F1520EE8CFF7F19F0EE8CFD5
:104F5000F8F1C8EC0EF012006C0E36EC1AF0000EF0
:104F6000E8CF7CF0550EE8CF7DF0000EE8CF7EF064
:104F7000000EE8CF7FF02AEC1AF020EE60F0B80EB9
:104F8000DE6E25EC0EF0190EE8CF7CF0550EE8CF62
:104F90007DF0000EE8CF7EF0000EE8CF7FF02AEC27
:104FA0001AF020EE60F0B80EDE6E25EC0EF0320E38
:104FB000E8CF7CF0550EE8CF7DF0000EE8CF7EF014
:104FC000000EE8CF7FF02AEC1AF020EE60F0B80E69
:104FD000DE6E25EC0EF04B0EE8CF7CF0550EE8CFE0
:104FE0007DF0000EE8CF7EF0000EE8CF7FF02AECD7
:104FF0001AF020EE60F0B80EDE6E25EC0EF0640EB6
:10500000E8CF7CF0550EE8CF7DF0000EE8CF7EF0C3
:10501000000EE8CF7FF02AEC1AF020EE60F0B80E18
:10502000DE6E25EC0EF0BAC139F1000E394F000EDC
:10503000394F190E394F320E394F4B0E394F640E1E
:10504000E8CF7CF0550EE8CF7DF0000EE8CF7EF083
:10505000000EE8CF7FF02AEC1AF020EE60F0B70ED9
:10506000DE6E25EC0EF012007F0E5CEC0BF0800E75
:105070005CEC0BF0840E5CEC0BF01200000EE8CF41
:10508000F4F1380EE8CFF5F1580EE8CFF6F1450E01
:10509000E8CFF7F1730EE8CFF8F1C8EC0EF0230E6D
:1050A0007DEC10F0E8CFF4F13A0EE8CFF5F1560EB2
:1050B000E8CFF6F1460EE8CFF7F1720EE8CFF8F13F
:1050C00088EC0EF03C0EE8CF7CF0470EE8CF7DF088
:1050D000000EE8CF7EF0010EE8CF7FF030EC1AF042
:1050E00020EE60F0430EDE6E460EDE6E39C132F108
:1050F000386B382B376B1FEC0DF0210EDE6E25EC74
:105100000EF0000EE8CF7FF02AEC1AF01200680EC5
:1051100036EC1AF0690E36EC1AF0230E7DEC10F026
:10512000E8CFF4F1190EE8CFF5F1780EE8CFF6F1FB
:10513000520EE8CFF7F19F0EE8CFF8F188EC0EF0B1
:1051400025EE33F0100E0A6F096B230E7DEC10F084
:10515000E8CFF4F11C0E0925E8CFF5F11C0E092566
:10516000E8CFF6F1092B092B640EE8CFF7F1DECF7B
:10517000F8F1D890F833D890F833640EF8279D0EE4
:10518000F861F86FC8EC0EF00A2FDFD725EE43F078
:10519000100E0A6F096B230E7DEC10F0E8CFF4F1CE
:1051A000560E0925E8CFF5F1560E0925E8CFF6F1A0
:1051B000092B092B640EE8CFF7F1DECFF8F1D89078
:1051C000F833D890F833640EF8279D0EF861F86F25
:1051D000C8EC0EF00A2FDFD7540EE8CF7DF0200E7A
:1051E000E8CF7CF02AEC1AF020EE60F04E0EDE6E76
:1051F000320EDE6E25EC0EF0540EE8CF7DF05A0E26
:10520000E8CF7CF02AEC1AF020EE60F0480EDE6E5B
:10521000650EDE6E25EC0EF01200FDEC29F0010E9D
:10522000E8CF7FF0030E5CEC0BF0000EE8CF7FF0D0
:10523000440E5CEC0BF0450E5CEC0BF0460E5CECA7
:105240000BF0470E5CEC0BF0480E5CEC0BF0490EDB
:105250005CEC0BF04A0E5CEC0BF01200FDEC29F05C
:10526000010EE8CF7FF0030E5CEC0BF0000EE8CFF0
:105270007FF04B0E5CEC0BF04C0E5CEC0BF04D0E2B
:105280005CEC0BF04E0E5CEC0BF04F0E5CEC0BF09C
:10529000500E5CEC0BF0510E5CEC0BF01200FDECD0
:1052A00029F0010EE8CF7FF00F0E59EC0BF0000E45
:1052B000E8CF7FF0100E59EC0BF0110E59EC0BF00B
:1052C000120E59EC0BF0130E59EC0BF012002BB52B
:1052D00012006A0E36EC1AF0A80EE8CF7CF0410EF0
:1052E000E8CF7DF0000EE8CF7EF0000EE8CF7FF033
:1052F0002AEC1AF020EE60F018C532F1326706D0C1
:10530000070E52EC0BF025EC0EF012008DC14CF1A3
:105310008EC14DF10A0E4E6F4F6B0CEC0CF04967CD
:10532000486959C1E8FF486103D048C118F502D067
:1053300059C118F518C532F1336B1F8F030E28ECD5
:105340000DF01F9F25EC0EF0120030EC80F00101F3
:105350001A0E59EC0BF020EE60F0230EDE6E63C5E2
:1053600032F163C50AF11F8F386B382B376B1FEC96
:105370000DF0200EDE6E280EDE6E100E0A6105D0D6
:105380004E0EDE6E320EDE6E04D0480EDE6E650E00
:10539000DE6E290EDE6E200EDE6E640EE8CF7DF02E
:1053A000190EE8CF7CF0000EE8CF7EF02AEC1AF060
:1053B00025EC0EF020EE60F015EE33F00A2BE6CF70
:1053C00032F10A2FFCD7386B382B376B1FEC0DF0FE
:1053D000250EDE6E200EDE6E640EE8CF7DF0320EFE
:1053E000E8CF7CF0000EE8CF7EF02AEC1AF025EC36
:1053F0000EF01F9F1200000E03D0230E7DEC10F064
:10540000E8CFF4F1000EE8CFF5F11A0EE8CFF6F18F
:10541000000EE8CFF7F19F0EE8CFF8F1C8EC0EF0E0
:1054200012002BB5120028BF12002ABB12002BB9A4
:1054300012006B0E36EC1AF05A0EE8CF7CF0000E1C
:10544000E8CF7DF0000EE8CF7EF02AEC1AF020EED7
:1054500060F0430EDE6E4E0EDE6E530EDE6E3A0EC2
:10546000DE6E65C532F11F8F386B382B376B1FEC42
:105470000DF01F9F250EDE6E25EC0EF01200400E83
:10548000A3EC0DF0010EA86229D0C80EE8CF7CF085
:10549000000EE8CF7DF0000EE8CF7EF0000EE8CFE2
:1054A0007FF030EC1AF020EE60F0400E326F180EF4
:1054B000336F322B69EC2AF07D0EA86201D004D044
:1054C000A8CFDEFF332FF5D725EC0EF02AEC1AF02B
:1054D000120032C1A9FFD0EC0DF01200180E396F86
:1054E000C80EE8CF7CF0000EE8CF7DF08EEC1CF00B
:1054F00012001200120025BD12001A0EA3EC0DF0CE
:10550000A8CF0AF1690E0A611200630E0A65120043
:1055100032C14CF133C14DF1640E4E6F4F6BEFEC65
:105520000BF00AC14EF14F6B33EC0CF048C132F175
:1055300049C133F112003B6F010EBD27000EBE239F
:10554000BEAF02D0BD6BBE6B3B2FF6D712003B6FD8
:10555000010EBD5F000EBE5BBEAF02D07F0EBE6F00
:105560003B2FF6D712009CD8010EBD27000EBE239C
:105570002391BEAF1200BD6BBE6B2381120023B31B
:105580001CD823A30BD82383000EBD2BBE2323914D
:10559000BEAF1200BD6BBE6B238112003B6FC58096
:1055A000A4D8A60EC96EA1D894D8BEC1C9FF9DD8F3
:1055B00090D8BDC1C9FF99D88CD83BC1C9FF95D837
:1055C00088D812003B6B3C6B229F229DC5848DD8EE
:1055D000C5808BD8A60EC96E88D8C5BCF7D73CC18C
:1055E000C9FF83D876D83BC1C9FF7FD872D8C5829E
:1055F0007CD8A70EC96E79D86CD8C58676D822BD5E
:1056000005D0228DFD0EC962229D11D022BF05D08A
:10561000228FFD0EC96209D00AD0FE0EC96205D0E4
:105620003BC1BDF13CC1BEF10DD0229F229D010EB8
:105630003B27000E3C233CBF03D0C58856D8DDD79E
:10564000BD6BBE6BC58451D8229F229D1200C584BC
:105650004CD8C5804AD8A60EC96E47D8C5BCF7D766
:10566000BEC1C9FF42D835D8BDC1C9FF3ED831D867
:10567000C5823BD8A70EC96E38D82BD8C58635D879
:10568000C950C58432D81200E2DF010EBD27000EDA
:10569000BE232391BEAF1200BD6BBE6B23811200EF
:1056A0003B6FC58022D8A60EC96E1FD812D8BEC1C6
:1056B000C9FF1BD80ED8BDC1C9FF17D80AD83BC136
:1056C000C9FF13D806D8C58410D8060ED9EC0CF043
:1056D0001200C5BC01D812004D0E36EC1AF026ECB3
:1056E0004AF00BD89E96C46B1200C42F01D0F4D799
:1056F0009EA6FBD7C46B9E961200C66A4E0E36EC71
:105700001AF0C56AC76A949694888296090EC46F87
:105710008286000082B804D082968296C42FF8D781
:105720009486C66A0A0ED9EC0CF0000EC76E280EDD
:10573000C66E000EC56E080EC86E28EC4AF04F0EFD
:1057400036EC1AF01200C56FC580CFDF900EC96E1F
:10575000CCDFBFDFC5C1C9FFC8DFBBDFC584C5DF84
:1057600012009E96C580C1DF910EC96EBEDFB1DF0B
:10577000C586BBDFC9CFC5F1C588B7DFC584B5DF36
:1057800012002595299530EC0FF025932597259942
:10579000BC6BBB6BC16B010EE8CF7FF00C0E5CECF9
:1057A0000BF0000EE8CF7FF0A56BA66B7DEC2BF025
:1057B000E2EC2AF0396B3A6B050EBA6F010EE8CFB6
:1057C0007FF00C0E5CEC0BF0000EE8CF7FF0229D1A
:1057D000229F010EA527000EA623A6BF27D0010EEB
:1057E000A7EC2AF027EC2BF022BD05D0228DFA0E73
:1057F000C962229D10D022BF05D0228FFA0EC96245
:1058000007D809D0BDC1BFF1BEC1C0F1C12B13D0B3
:10581000229F229D1200010E3927000E3A233ABF23
:1058200001D0D7D725A910EF13F02CD0C151D8B48F
:10583000F9D7258327D0030E9BEC2AF025A704D0A7
:10584000A751C163DED264D025B31CD0F5DA050EB2
:10585000BA6316D0C1C1ACF1BFC1AAF1C0C1ABF1EE
:10586000A5C191F1A6C192F139C1F0F13AC1A8F1F7
:10587000030EAA27000EAB23030E915F000E925B6E
:10588000BA2FBFD225A97DD7FDEC29F0010EE8CFB4
:105890007FF01A0E5CEC0BF0000EE8CF7FF00B0EE1
:1058A0005CEC0BF020992191219321972499249766
:1058B000B86B010E25B5AD51BA6F2595259914EC3D
:1058C0001DF007EC2FF021B3A7D221B10ED020B1EB
:1058D0002CEC3BF020B12BEC41F0209120B910EFE3
:1058E00013F020B315EF48F0ECD72191060EBA6300
:1058F00002D010EF13F0BAC1ADF12585BB51050DF3
:10590000F350BA25A76F30EC0FF02587C16B43D752
:10591000259781EC1CF0000EE8CF7CF0000EE8CF5C
:105920007DF020EE60F0230EDE6E1C0E91EC10F088
:10593000326703D0336701D016D0010E3227000E34
:10594000332332C152F133C153F1A7C154F1556B26
:10595000D8EC0BF050C132F151C133F11F8F0A0E58
:1059600028EC0DF007D0A7C132F1386B382B376B1C
:105970001AEC0DF0200EDE6E44EC2BF0C9CF32F1A4
:1059800044EC2BF0C9CF32F1BDC1AFF1BEC1AEF1D5
:10599000200E9BEC2AF027EC2BF0C9CFA9F1AFC168
:1059A000BDF1AEC1BEF132C1F1F144EC2BF0C9CF73
:1059B000F2F144EC2BF0C9CFF3F10CEC23F0200E04
:1059C000DE6E44EC2BF0C9CF32F1386B382B376BDD
:1059D0001AEC0DF03A0EDE6E44EC2BF0C9CF32F12A
:1059E000386B382B376B1AEC0DF025EC0EF0190ED6
:1059F000E8CF7CF0050EE8CF7DF020EE60F044ECBF
:105A00002BF0C9CF32F144EC2BF0C9CF33F132C1C6
:105A10004CF133C14DF1A40E4E6F4F6B0CEC0CF0FA
:105A200048C1C6F149C1C7F1C62B000EC7231F8F5D
:105A3000030E28EC0DF06D0EDE6E200EDE6E44ECD3
:105A40002BF0C9CF32F144EC2BF0C9CF33F132C186
:105A50004CF133C14DF13C0E4E6F4F6BEFEC0BF040
:105A60001F8F386B382B376B375128EC0DF0270E12
:105A7000DE6E44EC2BF0C9CF32F132514827000ED4
:105A8000492348C14CF149C14DF19F0E4E6F4F6BF8
:105A90000CEC0CF048C14CF149C14DF1A9514E6FCD
:105AA0004F6B0CEC0CF048C1C8F149C1C9F1C82BCF
:105AB000000EC9231F8F386B382B376B1AEC0DF093
:105AC000220EDE6E200EDE6E44EC2BF0C9CF32F1DA
:105AD00044EC2BF0C9CF33F1030E386F1F8F020E49
:105AE00028EC0DF0B00EDE6E430EDE6E25EC0EF0EF
:105AF000320EE8CF7CF0050EE8CF7DF020EE60F0AE
:105B000044EC2BF0C9CF32F144EC2BF0C9CF33F188
:105B10001F8F386B382B376B375128EC0DF06D0E1B
:105B2000DE6E620EDE6E610EDE6E720EDE6E200EB8
:105B3000DE6E440EDE6E650EDE6E730EDE6E610E80
:105B4000DE6E740EDE6E200EDE6E44EC2BF0C9CFDE
:105B500032F144EC2BF0C9CF33F1B5EC0BF01F8FD1
:105B6000325133C132F1336F386B382B376B1FEC46
:105B70000DF03A0EDE6E33C132F1386B382B376BD5
:105B80001AEC0DF01F9F25EC0EF044EC2BF044ECCA
:105B90002BF044EC2BF044EC2BF044EC2BF044ECD9
:105BA0002BF044EC2BF044EC2BF044EC2BF044ECC9
:105BB0002BF044EC2BF044EC2BF044EC2BF044ECB9
:105BC0002BF044EC2BF044EC2BF044EC2BF044ECA9
:105BD0002BF044EC2BF0C9CFB1F1B199B19BB19D41
:105BE000B19FB12BB1C1EBF144EC2BF0C9CFB2F1B5
:105BF000B299B29BB29DB29FB2C1ECF144EC2BF0D2
:105C0000C9CFB3F144EC2BF0C9CFB4F144EC2BF085
:105C1000C9CFB5F144EC2BF0C9CFB6F144EC2BF071
:105C200044EC2BF0010EE8CFF4F14B0EE8CFF5F188
:105C3000EF0EE8CFF6F1000EE8CFF7F19F0EE8CFB8
:105C4000F8F1C8EC0EF044EC2BF0B86B44EC2BF000
:105C50009E0E386F229F050EB96F4B0EDC6FB9296F
:105C600032EC0EF0C8C1CAF1C9C1CBF1CB2B61D85F
:105C700022BF23D0C6C14EF1C7C14FF132C14CF192
:105C800033C14DF10CEC0CF04B0E482776EC2EF0A6
:105C900048C1DCF1485141EC0EF0B92BB95132EC5E
