:020000040000FA
:04000000FBEF48F0DA
:0200080008D01E
:0800180000D0E0CF02F101016C
:10002000D8CF01F1E8CF00F181509EB002EC3AF058
:10003000F2B4E9EC39F0A1B2FEEC39F09EBAA9ECC9
:1000400039F0F2B2D7EC39F0F0B0DDEC39F000C1A4
:0C005000E8FF01C1D8FF02C1E0FF100072
:10007000001210180606080A0A0C0606080A060AE4
:1000800006060808060E06060A0A08140C0A060ADE
:100090000806060610101010101010101010101086
:1000A0001010101010101010101010101010101050
:1000B000101010101014161416120C140E14141420
:1000C0000E180A0608040A060C0A0808080806069C
:1000D000040A0C120A0A0A060A0E1408080612126A
:1000E000040E140806100E0C060608060606060680
:1000F000080804040A16161614080A080806060A50
:100100000808040A0C08060C0A141010101010102D
:1001100010101010101010101010101010101010DF
:1001200010101010101010101010140E0E0E0808E1
:10013000061414141414141414141414141414148D
:10014000141414141414141414141414141414146F
:100150001414141414141414141414140A0A0A0889
:100160000808080E0614100A100C060606060608F3
:10017000020E0E080808060606060A060408040E03
:100180001412140E0A0E0C100E0A0A0A0E0C10009D
:1001C00000000019000241024102142314411423CB
:1001D000145F147D14B973020018000032020A1E65
:1001E0000A370A500A690A8214232041205F209BA3
:1001F000060037020E02280232021423641964003A
:10020000644B646400002823282328232823282300
:100210002823282328232823282328232823282386
:100220002823282328232823282328232823282376
:100230002823282328232823282328232823282366
:1002400028232823282300230041005F007D009BF2
:1002500000B900D700230041005F007D009B00B97A
:1002600000D7669600006CD887D8640000000000B4
:10027000000000000000000000000000000000007E
:10028000000028021423147D557D557D557D557D34
:1002900000000A02000000001423144114020000B0
:1002A000145F0A020009557D0012001B0024002D76
:1002B0000036643264196432644B64646400641907
:1002C00014414141414164320A000A190A320A4B81
:1002D0006432557D6978693C4102149B2A483C028E
:1002E00034603478644BA07D000802270230557DCD
:1002F000144128232823282328232823282328239C
:100300002823282328232823282328232823282395
:100310002823282328232823282328232823282385
:100320002823282328232823282328232823282375
:1003300028230D02145F00020230000000000000BC
:1003400000230041005F007D009B00B900D700231F
:100350000041005F007D009B00B900D700230041F1
:10036000005F007D009B00B900D700230041005FC3
:10037000007D009B00B900D700230041005F007D95
:10038000009B00B900D700230041005F007D009B67
:1003900000B900D70A02557D020C640064006400B5
:1003A00064196400020C64641441021E147D1E0270
:1003B000142364196432644B646464006432000082
:1003C00014232802692369236923010132A8073015
:1003D0007887022700D80A080A10000018020023B4
:1003E0000041005F007D145F1441145F147D149B75
:0C03F000643264005A36145F147D149BC4
:100430004275696C64696E67204D4432204861736F
:10044000687D506C6561736520576169742E2E2E2E
:100450007D7D4865696E72696368735765696B6114
:100460006D70204F535443327D7D4D656E753F7DD9
:100470004D656E753A7D4C6F67626F6F6B7D47613E
:10048000732053657475707D5365742054696D6570
:100490007D7D5265736574204D656E757D7D5365F8
:1004A0007475707D457869747D7D576169742E2EF1
:1004B0007D7D4D443220486173683A7D44657361A7
:1004C000747D496E746572666163657D5374617293
:1004D000747D446174617D7D4865616465727D7D74
:1004E00050726F66696C657D446F6E652E7D4361E9
:1004F0006E63656C2052657365747D7D54696D65AE
:100500003A7D446174653A7D53657420486F757215
:10051000737D52657365742E2E2E7D7D4C6F6762E0
:100520006F6F6B7D437573746F6D2046756E63746A
:10053000696F6E7320497D7D5265736574204D65CA
:100540006E757D7D5365742054696D653A7D4D6F80
:1005500072657D7D4465636F706C616E7D7D476102
:10056000736C6973747D4D6F72657D7D45786974B8
:100570007D7D4E6F466C797D537461727420446941
:100580007665205B636D5D7D456E642044697665AC
:100590002020205B636D5D7D456E642044656C6149
:1005A000792020205B735D7D506F776572204F66E8
:1005B000662020205B735D7D5072652D6D656E75C4
:1005C000202020205B735D7D76656C6F6369747994
:1005D0005B6D2F6D696E5D7D57616B652D7570204C
:1005E000205B6D4261725D7D6D61782E5375726620
:1005F0002E5B6D4261725D7D474620646973706C4D
:10060000617920205B255D7D6D696E2E204F322043
:100610004469732E5B255D7D44697665206D656E4A
:10062000757320205B735D7D5361747572617465B1
:10063000207820205B255D7D44657361747572614F
:10064000746520785B255D7D4E6F466C7920526124
:1006500074696F205B255D7D474620616C61726D1A
:10066000203120205B255D7D434E5373686F7720DA
:10067000737572665B255D7D4465636F204F6666AA
:100680007365745B646D5D7D70704F32206C6F7745
:10069000205B634261725D7D70704F3220686967D4
:1006A000685B634261725D7D70704F322073686F6A
:1006B000775B634261725D7D73616D706C696E67BB
:1006C000207261746520207D44697669736F7220A1
:1006D00054656D702020207D44697669736F7220A7
:1006E0004465636F6461747D44697669736F7220D9
:1006F0004E6F74557365317D44697669736F7220EE
:1007000070704F322020207D44697669736F7220AB
:10071000446562756720207D44697669736F722035
:100720004E6F74557365327D434E5373686F7720F7
:10073000646976655B255D7D4C6F67626F6F6B20CA
:100740006F6666736574207D4C61737420446563C5
:100750006F2061745B6D5D7D456E642041706E6FCE
:1007600065205B6D696E5D7D53686F7720566261B1
:100770007474205B3D315D7D546869732070726FC5
:100780006772616D2069737D6469737472696275E3
:1007900074656420696E207468657D7D686F70651E
:1007A00020746861742069742077696C6C206265BC
:1007B0007D7D75736566756C2C2062757420574954
:1007C00054484F55547D414E592057415252414E45
:1007D00054593B20776974686F75747D6576656ED2
:1007E0002074686520696D706C6965647D7D7761D2
:1007F0007272616E7479206F667D4D455243484137
:100800004E544142494C495459206F727D7D4649AE
:10081000544E45535320464F5220417D504152542F
:100820004943554C415220505552504F53452E7D0F
:100830005365652074686520474E552047656E6591
:1008400072616C7D5075626C6963204C6963656E82
:10085000736520666F727D7D6D6F7265206465744F
:1008600061696C733A7D7777772E6865696E726916
:100870006368737765696B616D702E64657D44652F
:10088000636F73746F707D7D6D2F6D696E7D4E6FBC
:100890002053746F707D5454537D44697665746938
:1008A0006D657D7D44657074687D466972737420E2
:1008B0004761733F7D7D44656661756C743A7D7DEB
:1008C0004D696E757465737D4D6F6E746820207D03
:1008D000446179202020207D596561722020207D8F
:1008E000536574207D7D47617323207D5965737D39
:1008F00043757272656E743A7D7D536574757020B0
:100900004D656E753A7D437573746F6D2046756ED7
:100910006374696F6E73497D4465636F7479706544
:100920003A7D5A482D4C3136204F437D47617567DB
:1009300065202020207D47617567657D5A482D4CD4
:1009400031362043437D4163746976652047617386
:100950003F207D7D476173205365747570202D2085
:100960004761736C6973747D4465707468202B7D76
:100970004465707468202D7D4261636B7D7D4343C7
:100980005220536574506F696E74204D656E757D8D
:1009900043435220536574506F696E74204D656EE9
:1009A000757D5350237D4261747465727920496E60
:1009B000666F7D7D4261747465727920496E666FE1
:1009C000726D6174696F6E7D4379636C65733A7D96
:1009D00041706E6F657D4C61737420436F6D706CF8
:1009E0006574653A7D7D4C6F7765737420566261DE
:1009F00074743A7D4C6F776573742061743A7D7DB1
:100A0000546D696E3A7D546D61783A7D53657420FA
:100A10004761737D4F32202B7D7D4F32202D7D7DB0
:100A20004865202B7D7D4865202D7D7D4578697446
:100A30007D7D44656C6574657D7D44656275673A4E
:100A40007D7D4F4E207D4F46467D44656C2E206156
:100A50006C6C7D7D556E657870656374656420721D
:100A6000657365742066726F6D7D446976656D6F20
:100A700064652120506C656173652068656C707DCC
:100A8000616E64207265706F7274207468652044B2
:100A900065627567207D496E666F726D6174696FFE
:100AA0006E2062656C6F77217D7D4261696C6F7528
:100AB000747D41706E6F65202020207D44657363D6
:100AC000656E747D537572666163657D5175697479
:100AD0003F7D4D6F72657D7D436F6E6669726D3AC5
:100AE0007D7D4D656E7520323A7D43616E63656C28
:100AF0007D7D4F4B217D53746F707761742E7D7DAA
:100B00003A2E2E2E2E2E2E2E2E2E3A7D2870704FFF
:100B1000323A7D7D42617229207D4E6F742075735B
:100B200065642121217D4C31362D4746204F437D80
:100B3000437573746F6D2046756E6374696F6E7361
:100B400049497D7D4746204C6F772020202020207A
:100B50005B255D7D4746204869676820202020206E
:100B60005B255D7D436F6C6F7223204261747465F9
:100B70007279207D436F6C6F7223205374616E64B1
:100B80006172647D436F6C6F722320446976656D7A
:100B900061736B7D436F6C6F7223205761726E6956
:100BA0006E67737D53686F7720736563732E205B68
:100BB0003D315D7D4469766520636C6F636B205BBE
:100BC0003D315D7D5761726E4365696C696E675B2F
:100BD0003D315D7D4176722E204465707468205BE6
:100BE0003D315D7D426C696E6B2047617320205BF7
:100BF0003D315D7D44657074685761726E5B6D4216
:100C000061725D7D434E53207761726E696E67201D
:100C10005B255D7D4746207761726E696E67202097
:100C20005B255D7D70704F32207761726E5B634231
:100C300061725D7D56656C2E7761726E5B6D2F6D96
:100C4000696E5D7D54696D65206F6666736574209D
:100C50005B735D7D6E6F742075736564202020204A
:100C60002020207D6E6F7420757365642020202005
:100C70002020207D6E6F74207573656420202020F5
:100C80002020207D6E6F74207573656420202020E5
:100C90002020207D6E6F74207573656420202020D5
:100CA0002020207D6E6F74207573656420202020C5
:100CB0002020207D6E6F74207573656420202020B5
:100CC0002020207D6E6F74207573656420202020A5
:100CD0002020207D6E6F7420757365642020202095
:100CE0002020207D6E6F7420757365642020202085
:100CF0002020207D6E6F7420757365642020202075
:100D00002020207D6E6F7420757365642020202064
:100D10002020207D6E6F7420757365642020202054
:100D20002020207D6E6F7420757365642020202044
:100D30002020207D6E6F7420757365642020202034
:100D40002020207D437573746F6D2046756E63742B
:100D5000696F6E732049497D53686F77204C6963D2
:100D6000656E73657D7D53696D2E20526573756C5C
:100D700074733A7D4E4F542055534544212121210F
:100D8000217D70704F32202B7D7D70704F32202D71
:100D90007D7D44696C2E7D7D4465636F74797065DB
:100DA0003A205A482D4C3136204F437D466F7220F1
:100DB0004F70656E20436972637569742020207DD1
:100DC0004469766572732E20537570706F727473F8
:100DD0002035207D5472696D697820476173657391
:100DE0002E2020202020207D436F6E66696775725B
:100DF0006520796F757220676173207D696E204769
:100E000061737365747570206D656E752E20207D1D
:100E1000436865636B2043463131202620434631C9
:100E20003220217D4465636F747970653A20476193
:100E3000756765202020207D4469766574696D653D
:100E40002077696C6C20626520696E7D4D696E75D6
:100E50007465733A5365636F6E64732E2020207D32
:100E60004F535443322077696C6C206E6F7420208E
:100E70002020207D636F6D70757465204465636FFD
:100E80002C204E6F466C797D74696D6520616E64AF
:100E90002044657361742E2D2020207D74696D655A
:100EA00020617420616C6C21202020202020207D76
:100EB0004465636F747970653A5A482D4C31362019
:100EC0004343207D466F72202853656D692D294369
:100ED0006C6F73656420207D43697263756974204B
:100EE00072656272656174686572737D436F6E6668
:100EF0006967757265207468652033202020207D25
:100F0000536574506F696E747320696E2043435249
:100F1000202D207D5365747570206D656E752E20B3
:100F200035206261696C2D7D6F7574732061726507
:100F300020617661696C61626C652E7D4465636FCA
:100F4000747970653A2041706E6F65202020207D95
:100F50004F535443322077696C6C20646973706C12
:100F60006179207D656163682064657363656E7473
:100F70002073657061722D7D6174656C7920696E76
:100F8000204D696E3A5365632E20207D57696C6C45
:100F90002074656D706F72616C6C79207365747DFF
:100FA00073616D706C657261746520746F2031209F
:100FB0007365637D4E6F204465636F2063616C636E
:100FC000756C6174696F6E7D4465636F747970656B
:100FD0003A204C31362D4746204F437D4465636FA0
:100FE0006D7072657373696F6E2063616C2D207D07
:100FF00063756C6174696F6E7320776974682074AF
:101000006865207D47462D4D6574686F64202847CC
:10101000465F6C6F2F47467D5F6869292E204368C5
:1010200065636B20434633322026207D43463333AD
:1010300021204F70656E2043697263756974207D4D
:101040007769746820446565702053746F70732EDF
:101050002020207D4465636F747970653A204C319F
:10106000362D47462043437D4465636F6D7072653E
:101070007373696F6E2063616C2D207D63756C6185
:1010800074696F6E73207769746820746865207D59
:1010900047462D4D6574686F64202847465F6C6F26
:1010A0002F47467D5F6869292E20436865636B2062
:1010B000434633322026207D4346333321436C6F31
:1010C00073656420436972637569747D77697468B8
:1010D00020446565702053746F70732E2020207D2E
:1010E0004465636F6D6F6465206368616E676564F6
:1010F0002120207D4C31362D47462043437D4E6FC5
:101100007420666F756E647D536574506F696E747C
:101110007D7D4E6F204465636F7D4772617068739B
:101120007D7D446973706C61797D4E6F2064656369
:101130006F7D536561726368206D6F64756C657D4A
:10114000457869747D7D52657365742043462C47EC
:1011500061732026204465636F7D44697361626C0E
:1011600065206D6F64756C657D7D53696D756C610F
:10117000746F727D4F5354432053696D756C617465
:101180006F727D7D537461727420446976657D7DD4
:101190002B20316D7D7D2D20316D7D7D2B31306D8E
:1011A0007D7D2D31306D7D7D457869747D7D6E6FDF
:1011B00074207573657D787D4461746520666F72F7
:1011C0006D61743A7D7D5365747570204D656E75E3
:1011D00020323A7D4D4D444459597D7D44444D4D16
:1011E00059597D7D59594D4D44447D7D4F5354434C
:1011F000207D4261696C7D7D416972207D7D416900
:101200007220207D43616C6962726174657D4D61FD
:10121000782E7D7D6E6F747D666F756E64217D7D29
:101220006D563A7D4E65772043462061646465645F
:10123000217D4E657720437573746F6D46756E63BF
:1012400074696F6E737D776572652061646465642F
:101250002120436865636B7D4346204920616E64AD
:10126000204346204949204D656E757D666F72208A
:1012700044657461696C73217D7D53616C696E692D
:1012800074793A7D426F74746F6D2054696D653A5C
:101290007D7D4D61782E2044657074683A7D436190
:1012A0006C63756C617465204465636F7D7D536804
:1012B0006F77204465636F706C616E7D4C6561640F
:1012C000205469737D7D4C656164205469737D7D14
:1012D00053746F7077617463687D526573657420B1
:1012E0004C6F67626F6F6B7D5265626F6F74204FDA
:1012F0005354437D5265736574204465636F646124
:1013000074617D7D2B8B01D81200268D05D8269D1A
:1013100012002B8B01D812000B6F800EA66EF86A9C
:10132000010EF76EBC0EF66E0BC14BF1000E2BBB1F
:10133000010E4C6FD8904B374C37020E4B27000EE6
:101340004C234B51F6264C51F722090026ADF5CF20
:101350007DF0090026ADF5CF7CF0000EE8CF7EF0E1
:101360000D6B0E6BF76AF86A700EF66E01D02B9B50
:101370000900F5500D27000E0E230B2FF9D72BBBBC
:10138000F6D7F86A300E0D25F66E040E0E21F76EB4
:1013900026AD20EE60F009007D0EF56201D00AD086
:1013A000F5CFDEFF09007D0EF56201D003D0F5CF49
:1013B000DEFFF1D726AD4DEC0CF0120031C14BF140
:1013C00032C14CF13C0E4D6F4E6B4FD847C132F1DC
:1013D0004BC131F11200D89045334433462FFBD72F
:1013E0001200D8904A33493348334733462FF9D750
:1013F00012004851FF08486F4751D890FF08476FC7
:1014000012001E975351515D4F6F54515259506FF6
:10141000D8B012001E874FC153F150C154F1516929
:1014200052695351515D4F6F54515259506F1200D0
:10143000496B4A6B4B514D03F350476FF450486F63
:101440004B514E03F3504827F45049234C514D0360
:10145000F3504827F4504923D8B04A2B4C514E033F
:10146000F3504927F4504A231200476B486B4D5103
:101470004E11D8B4FF0C010E466F4EBF05D0462B5F
:10148000D8904D374E37F9D7D890473748374D5118
:101490004B5F4E51D8A04E294C5FD8B005D04D516E
:1014A0004B274E514C2301D047814607D8B4120038
:1014B000D8904E334D33E8D7200E466F4A514C6FCB
:1014C00049514B6F4851526F4751516F4A6B496BAD
:1014D000486B476B546B536BD890513752374B372F
:1014E0004C37533754374E51545DD8A47AEF0AF035
:1014F0004D51535DD8A084EF0AF04D51535FD8A0F1
:1015000054074E51545FD8804737483749374A37D8
:10151000462F6CEF0AF01200D89074337333752F96
:10152000FBD71200D8907933783377337633752F21
:10153000F9D712007751FF08776F7651D890FF08DE
:10154000766F120029978251805D7E6F8351815999
:101550007F6FD8B0120029877EC182F17FC183F1ED
:10156000806981698251805D7E6F835181597F6F6F
:101570001200786B796B7A517C03F350766FF450DC
:10158000776F7A517D03F3507727F45078237B519E
:101590007C03F3507727F4507823D8B0792B7B5114
:1015A0007D03F3507827F450792312000A6FE2EF9D
:1015B0000AF0000000000000000000000000000031
:1015C000000000000000000000000000000000001B
:1015D000000000000000000000000000000000000B
:1015E00000000000000000000000000000000000FB
:1015F0000000000000000000000000000A2FD9EFEA
:101600000AF01200096F0EEF0BF00000000000005E
:1016100000000000000000000000000000000000CA
:1016200000000000000000000000000000000000BA
:1016300000000000000000000000000000000000AA
:10164000000000000000000000000000000000009A
:10165000000000000000630ED6EC0AF0092F05EF31
:101660000BF01200630E3161316F31C133F1346B15
:101670001E950A0E396F356B6AD8010E396F356BBE
:101680001E8565D81200630E3161316F31C133F1AF
:10169000346B1E85EED731C133F1346B1E95640E69
:1016A000396F356B54D8E5D7249F366F1E8B362B98
:1016B000362F1E9B228B362B362F229B31C133F1C6
:1016C00032C134F11E95100E396F270E356F1EADE5
:1016D0003ED8E80E396F030E356F22BB07D024BF0A
:1016E00003D01E85362D1E9522B91E851EAD2FD81E
:1016F0001E9D640E396F356B26B924D022BB09D0EC
:1017000024BF03D01E85362D1E9522B91E8522BB0F
:101710001E851DD80A0E396F356B22BB09D024BF38
:1017200003D01E85362D1E9522B91E8522BB1E852F
:1017300028B708D00CD8010E396F356B1E8523A54C
:1017400006D823952699376B372B22991200386BD0
:101750003551345DD8A00ED004E13951335DD8A0A5
:1017600009D03551345F3951335FD8A03407382B55
:101770001E85EED7372F1200372B300E38251EB5B9
:1017800004D01EBF04D0200E01D0248FDE6E362F71
:1017900012002E0EDE6E22891200A96E2DD0A96EC7
:1017A00027D02A91010EAA6E690E03D02591AA6A4C
:1017B000640EAD6E228F040EA96E9D9A9E9A81864C
:1017C00046D8AECFA8FF818825BF0FD015D8819805
:1017D000A8CFADFF36D8A93EF3D781969E9A9D8AB1
:1017E000AA6A259F229F66EF49F0FF0EAD6EF5D7DE
:1017F000A69EA69CA6801200A69EA69CA684F29EEB
:10180000550EA76EAA0EA76EA682F28EA6B2FED7BE
:10181000A6941200948C948E240EAC6E900EAB6E37
:10182000080EB86EB06A220EAF6EAE6A9E6A9D8ACE
:101830001200AC6AAB6A9D9A949C949E829C829E94
:101840001200ABAE12000000ACA2FBD712009E9AB1
:10185000259F426B436B9EBA1200000000000000FF
:1018600000009EBA120000000000000000009EBAB6
:10187000120000000000000000009EBA12000000EC
:101880000000000000009EBA1200432FE4D7422F50
:10189000E1D7AB98AB88258F1200DE6A7BC0FAF1E6
:1018A0007AC0F9F134EC5AF00101FAC17BF0F9C1C8
:1018B0007AF01200106F10C17DF0210E2DD9D89052
:1018C0001035000ED8B0010E2CD9D890103529D97A
:1018D00012000F6F0FC17CF0200E1ED9000E21D90F
:1018E0000F511FD91200220E17D984807AC083FFAE
:1018F000809480847BC083FF80948084210E0CD9E7
:10190000D8901035000ED8B0010E0BD9D8901037F2
:10191000102907D9200E00D9000E03D90F5101D983
:10192000220EFAD884807AC083FF809480847BC0A2
:1019300083FF809480841200220EEED884807AC0C7
:1019400083FF809480847BC083FF80948084120016
:10195000836A80968194809A849480948492120001
:10196000F4514DEC0EF0F5C11BF11B51B2DFF751F4
:101970005AEC0CF0E1DF1B2B1B51F663F6D71B5121
:10198000A8DFF7515AEC0CF0D7DFF5C11BF11B5162
:10199000A0DFF8515AEC0CF0CFDF1B2B1B51F66384
:1019A000F6D71B5196DFF8515AEC0CF0C5DFF7C1A2
:1019B0001BF11B517FDFF5518CDF95DF1B2B1B517A
:1019C000F863F7D7F7C11BF11B5174DFF65181DFC4
:1019D0008ADF1B2B1B51F863F7D754EC18F0120069
:1019E000F4514DEC0EF0350E97D8F7C11BF1D8909D
:1019F0001B35000ED8B0010E94D8D8901B3591D865
:101A0000360E8AD8F8C11BF1D8901B35000ED8B01D
:101A1000010E87D8D8901B3584D8370E7DD8F5C1F4
:101A20001BF11B517ED8F6C11BF11B517AD8200E39
:101A300073D8000E76D8F5C11BF11B5172D8210E58
:101A40006BD8F7C11BF1D8901B35000ED8B0010E32
:101A500068D8D8901B3565D8220E5ED8F5C11BF129
:101A6000F6C11CF11B511C5F1C2BF7C11BF1F8C107
:101A70001DF11B511D5F1D2B84801DC11BF17AC000
:101A800083FF809480847BC083FF809480847AC0AD
:101A900083FF809480847BC083FF809480841B2F8D
:101AA000EED71C2FEAD7000E37D854EC18F01200EE
:101AB000350E32D8000E35D8000E33D8360E2CD85D
:101AC000010E2FD83F0E2DD8370E26D8000E29D85C
:101AD000EF0E27D8200E20D8000E23D8000E21D8D4
:101AE000210E1AD8000E1DD8000E1BD8220E14D8B5
:101AF0008480836A0A0E1D6F1E0E1C6F1B6B809400
:101B00008084809480841B2FFAD71C2FF7D71D2F39
:101B1000F3D7000E01D812008490836E80948084E5
:101B200012008480836E8094808412008096200E40
:101B300002EC0BF081840000809A00008482FA0E8F
:101B400002EC0BF0848400008492020ED6EC0AF0C2
:101B500084820A0E02EC0BF0240EDEDF020EDCDFC4
:101B6000000EDFDF000EDDDF030ED6DF000ED9DF53
:101B7000300ED7DF180ED0DF000ED3DF280ED1DFF6
:101B8000F80ECADF000ECDDF0F0ECBDFF90EC4DF7B
:101B9000000EC7DF0F0EC5DF100EBEDF000EC1DF67
:101BA000000EBFDF0CD884DF8086200E02EC0BF025
:101BB000050EB2DF000EB5DF010EB3DF1200700EAE
:101BC000ABDF1F0EAEDF000EACDF710EA5DF230E04
:101BD000A8DF800EA6DF720E9FDF2A0EA2DF800E26
:101BE000A0DF730E99DF150E9CDF110E9ADF740EC5
:101BF00093DF1C0E96DF110E94DF750E8DDF1B0E2A
:101C000090DF150E8EDF760E87DF1A0E8ADF150E37
:101C100088DF770E81DF1C0E84DF180E82DF780EDE
:101C20007BDF210E7EDF150E7CDF1200700E74DF6D
:101C3000140E77DF000E75DF710E6EDF170E71DF89
:101C4000000E6FDF720E68DF150E6BDF800E69DF2E
:101C5000730E62DF150E65DF110E63DF740E5CDF3D
:101C6000140E5FDF0B0E5DDF750E56DF1B0E59DFA6
:101C7000150E57DF760E50DF130E53DF0E0E51DFB9
:101C8000770E4ADF1C0E4DDF180E4BDF780E44DF57
:101C9000150E47DF0E0E45DF12002D6F2DC12EF100
:101CA000030E2E17000E2E4F500E2E4FA00E2E4F4D
:101CB000F80E2F6F2DC12EF11C0E2E172E432E4322
:101CC000000E2E4F040E2E4F080E2E4F0C0E2E4FD0
:101CD000100E2E4F140E2E4F200E2E4F3F0E306F33
:101CE00030332F3330332F3330332F332DC12EF198
:101CF0002D6B30332D3330332D3330332D33E00E15
:101D00002E172E432E432E432E432E43000E2E4FCE
:101D1000040E2E4F080E2E4F0C0E2E4F100E2E4F6F
:101D2000140E2E4F200E2E4F3F0E306F30332D33BA
:101D300030332D3330332D3330332D3330332D3397
:101D40002DC17AF02FC17BF01200E26F1F0EE26509
:101D500005D0010EAA6E200EE25F01D0AA6AE25100
:101D6000040DF350820FA96EF8EC0BF0A850AA6A8C
:101D70001200E26F1F0EE26505D0010EAA6E200E62
:101D8000E25F01D0AA6AE251040DF350820FA96EFE
:101D9000F8EC0BF0A8CF31F1A92AF8EC0BF0A8CFA2
:101DA00032F1AA6A12009A0EE16F298D03D0240E37
:101DB000E16F299D1E8F58EC0DF0010EB96F20992F
:101DC00020971F99A96BA46B219D219FD4EC2AF029
:101DD000010EE8CF7FF029AD04D0BA0E8CEC09F0EB
:101DE00003D01B0E8CEC09F0000EE8CF7FF054EC12
:101DF00018F0010E29AD000EAA6EB76B209120934A
:101E0000140EE8CF7DF0230EE8CF7CF020EE60F0DA
:101E1000A9C131F1000E29BD200E312731C1DAF1FF
:101E2000376B372B366B43EC0BF03A0EDE6E200E21
:101E3000DE6E4DEC0CF0E151A9258CEC09F01F0E83
:101E4000DA5DD8B415D0260EDA5DD8B411D0270EDD
:101E5000DA5DD8B40DD0280EDA5DD8B409D0290ED9
:101E6000DA5DD8B405D02A0EDA5DD8B401D003D03B
:101E7000010EDA6F01D0DA6B140EE8CF7DF0410E5F
:101E8000E8CF7CF020EE60F02B0EDE6E2F0EDE6EC3
:101E90002D0EDE6E3A0EDE6E200EDE6E2B0E21BD96
:101EA0002D0EDE6E4DEC0CF0140EE8CF7DF05F0EC3
:101EB000E8CF7CF020EE60F0310EDE6E2F0EDE6E8D
:101EC000310EDE6E300EDE6E3A0EDE6E200EDE6EEF
:101ED000310EDE6E300E21BFDE6E200EDE6E4DEC5A
:101EE0000CF0140EE8CF7DF07D0EE8CF7CF020EEF4
:101EF00060F0590E85EC09F0A451800FA96EF8EC42
:101F00000BF0A8CF31F1A451810FA96EF8EC0BF0C2
:101F1000A8CF32F1329F376B372B366B365154ECEA
:101F20000BF02C0EDE6E310EA8AE380EDA67310ED5
:101F3000DE6E350EA8BEDE6E420EDE6E200EDE6E4A
:101F4000200EDE6E200EDE6E4DEC0CF0140EE8CF8F
:101F50007DF09B0EE8CF7CF020EE60F0610E85EC0A
:101F600009F0A451820FA96EF8EC0BF0A8CF31F163
:101F7000A451830FA96EF8EC0BF0A8CF32F1376BA8
:101F8000372B366B365154EC0BF0200EDE6E200EE4
:101F9000DE6E200EDE6E4DEC0CF00B0E8CEC09F0BC
:101FA00023EC11F049EC1CF09FEC30F020B30FD083
:101FB00020B11AD01FB366EF49F01FB1BEEC3CF060
:101FC0001FB1B0EC42F01F911FB91CD0EDD7B92B57
:101FD000070EB96302D0010EB96FB76B49EC1CF064
:101FE00023EC11F02093E0D7AA6A010E29BDAA6E56
:101FF000B94F0FD0B94F17D0B94F19D0B94F1BD027
:10200000B94F39D0020E29AD010EB96FAA6ABFEFE0
:1020100011F0A92BA9BBA96BA951040DF3CFA4F111
:10202000010EB96FE4D6217D020EB96FE0D6217F93
:10203000030EB96FDCD6A451800FA96EF8EC0BF03B
:10204000A8CF31F1A451810FA96EF8EC0BF0A8CF05
:1020500032F1329FA451820FA96E31C1A8FFFCEC6E
:102060000BF0A451830FA96E32C1A8FFFCEC0BF05A
:10207000040EB96FBCD6A451820FA96EF8EC0BF018
:10208000A8CF31F1A451830FA96EF8EC0BF0A8CFC3
:1020900032F1A451810FA96EF8EC0BF0A8CFA5F195
:1020A000010EDA6305D031673169312B326B16D0FE
:1020B00021AD0BD0010E21BF0A0E315F000EA5BF6E
:1020C000325B7F0E32BF326F09D0010E21BF0A0E84
:1020D0003127000EA5BF322332BF326BA451820FCD
:1020E000A96E31C1A8FFFCEC0BF0A451830FA96EBF
:1020F00032C1A8FFFCEC0BF0050EB96F78D6E26F89
:102100001F0EE26505D0010EAA6E200EE25F01D01F
:10211000AA6AE251040DF350800FA96EF8EC0BF09F
:10212000A8CF31F1A92AF8EC0BF0A8CF32F1AA6AB6
:102130001200CE4F14D0CE4F19D01200CE4F0FD078
:10214000CE4F14D0CE4F19D0CE4F1ED0CE4F23D06D
:10215000CE4F28D0CE4F2FD0CE4F34D012000B0E02
:102160003DD8E9EC10F0020ECE6F12000C0E49D8EB
:10217000E9EC10F0030ECE6F1200110E2FD8E9EC2F
:1021800010F0040ECE6F1200120E3BD8E9EC10F0E6
:10219000050ECE6F1200130E34D8E9EC10F0060EC7
:1021A000CE6F1200060ECE6F1D0E3ED8E9EC10F079
:1021B000070ECE6F1200200E24D8E9EC10F0080EA6
:1021C000CE6F1200210E1DD8E9EC10F0010ECE6F7B
:1021D0001200316F316712003EEF28F0386FB9EC12
:1021E0000EF031C151F132C152F138517FEC10F093
:1021F00031C153F132C154F101EC0AF01EA7FF0CBA
:10220000000C386FB9EC0EF031C153F132C154F10A
:1022100038517FEC10F031C151F132C152F101EC73
:102220000AF01EA7FF0C000C386FB9EC0EF031C19C
:1022300053F132C154F1CEC151F1526B01EC0AF0AD
:102240001EA7FF0C000C2397239912002A97819652
:10225000010EB96F1E9F58EC0DF0B76B1F992091BE
:1022600020931F8F2087A3EC1CF049EC1CF02397D0
:10227000239954EC11F020B124D01FAF66EF49F040
:102280001FB1BEEC3CF01FB1B0EC42F01FB1F4EC5A
:102290003BF01FB131EC47F01F911FB966EF49F0D9
:1022A0001FB366EF49F0E5D723A908D02083B92BE7
:1022B000060EB96518D0010EB96F15D023B720816D
:1022C0001200B94F7DEF2DF0B94F36EF34F0B94F12
:1022D00026EF13F0B94FBCEF11F0B94F79EF11F0C1
:1022E000B94F66EF49F0B76B20B749EC1CF0239962
:1022F0001200010EB96F1E9F58EC0DF0B76B1F99BD
:10230000209120931F8F2087F7EC1CF049EC1CF0E4
:102310002397239954EC11F0050EB96304D0060EEF
:10232000B96F49EC1CF020B115D01FAF8FD71FB18A
:10233000BEEC3CF01FB1B0EC42F01FB1F4EC3BF04E
:102340001FB131EC47F01F911FB980D71FB366EF63
:1023500049F0E0D7B94FCCEF14F0B94FF6EF31F0B8
:10236000B94F18EF33F0B94F71EF4AF0B94F71EF31
:102370004AF0050EB96F6ED72A97010EB96F1E9FEE
:1023800058EC0DF0C1EC1CF0B76B1F992091209315
:102390001F8F208709EC12F0B5EC12F049EC1CF00D
:1023A0002397239954EC11F020B117D01FAF66EF9B
:1023B00049F01FB1BEEC3CF01FB1B0EC42F01FB1D0
:1023C000F4EC3BF01FB131EC47F01F911FB966EF01
:1023D00049F01FB366EF49F0E5D7B94FD7EF0EF0DC
:1023E000B94FD3EF0EF0B94FACD0B94F03D0B94FBE
:1023F0005CD036D02A87220ECFEC0BF0A82A060E2E
:10240000A86201D0A86AFCEC0BF0040EB96F239906
:10241000BBD7220ECFEC0BF0A86604D0650E8CEC77
:1024200009F01200A82E04D0660E8CEC09F0120000
:10243000A82E04D0680E8CEC09F01200A82E04D04F
:102440008A0E8CEC09F01200A82E04D0980E8CECA9
:1024500009F01200A82E1200EC0E8CEC09F012000C
:102460002AA766EF49F058EC0DF0D4EC2AF0010EE3
:10247000E8CF7FF0EB0E8CEC09F0000EE8CF7FF098
:10248000220ECFEC0BF0070EA802F350C10FB96F6C
:10249000070E386FB9518CEC09F0B92B382FFAD7E9
:1024A0001E0E1AEC4AF066EF49F0010EB96F1E9F3E
:1024B00058EC0DF0DFEC1CF0B76B1F9920912093C6
:1024C0001F8F208717EC13F0F1EC12F049EC1CF091
:1024D0002397239954EC11F0040EB96304D0060E2F
:1024E000B96F49EC1CF020B117D01FAF66EF49F06F
:1024F0001FB1BEEC3CF01FB1B0EC42F01FB1F4ECE8
:102500003BF01FB131EC47F01F911FB9BCEF11F048
:102510001FB366EF49F0DED7B94F54D0B94F74D02E
:10252000B94F07D0B94F28D7B94F26D7050EB96F85
:1025300026D7FAEC49F015EC4AF0030EB96F23994F
:10254000B6D71A0ECFEC0BF0A82A630EA8640AD0F7
:10255000690EA86007D01A0ECDEC0BF0030EB96F10
:10256000239912D7640EA86EF6D71A0ECFEC0BF093
:10257000630EA86421D8690EA8601ED85F0EE8CF4C
:102580007CF0530EE8CF7DF0000EE8CF7EF020EE19
:1025900060F0A8CF31F1326B1E8F030E54EC0BF0BC
:1025A0001E9F6B0EDE6E670EDE6E2F0EDE6E6C0EE5
:1025B000DE6E4DEC0CF01200640EA86E1A0ECDEC1F
:1025C0000BF012005B0ECFEC0BF0A82A020EA864F1
:1025D00001D0A86A5B0ECDEC0BF0010EB96F239908
:1025E0006BD75B0ECFEC0BF0A86604D0030E89EC22
:1025F00009F01200A82E04D0040E89EC09F0120094
:10260000050E89EC09F01200270ECFEC0BF0A82A7A
:10261000010EA86401D0A86A270ECDEC0BF0298525
:10262000010EA8622995020EB96F239945D7270E8E
:10263000CFEC0BF0A86603D0830E8CEC09F0A80653
:10264000A866F6D6820E8CEC09F01200010EB96F66
:1026500058EC0DF012EC1DF0B76B1F9920912093F0
:102660001F8F208712EC1DF049EC1CF02397239953
:1026700054EC11F020B116D01FAFE8D51FB1BEEC5D
:102680003CF01FB1B0EC42F01FB1F4EC3BF01FB1D5
:1026900031EC47F01F911FB926EF11F01FB366EF21
:1026A00049F0E6D7B94F08D0B94F3AD0B94F16D054
:1026B000B94F05D0B94F20D0030EB96FCBD58CECF4
:1026C00020F0B96FB96701D0F7D7A8EC0CF0000E75
:1026D0009B6E7E0ED36EFF0000EF00F08CEC20F0BE
:1026E000B96FB96701D0E8D758EC0DF0190E8CEC32
:1026F00009F0A5EC14F0E0D78CEC20F0B96FB967C5
:1027000001D0DAD758EC0DF0190E8CEC09F08CC121
:1027100000F58DC101F520EC80F0010166EF49F074
:102720008CEC20F0B96FB96701D0C6D758EC0DF02A
:10273000190E8CEC09F08CC100F58DC101F520EC6F
:1027400080F00101AA6A030EA96E326B150EE5D85E
:10275000150EE3D8150EE1D8150EDFD8150EDDD80D
:10276000150EDBD8010EA86E210ECDEC0BF0A86A79
:10277000220ECDEC0BF0A86A230ECDEC0BF0000E70
:10278000A86A270ECDEC0BF0A86A5A0ECDEC0BF020
:10279000A86A5B0ECDEC0BF0640E1A0ECDEC0BF0BC
:1027A0001F0EA86E1B0ECDEC0BF0A86A1C0ECDEC14
:1027B0000BF0A86A1D0ECDEC0BF0A86A1E0ECDEC36
:1027C0000BF0A86A1F0ECDEC0BF0A86A200ECDEC22
:1027D0000BF0640EA86E240ECDEC0BF0250ECDECA4
:1027E0000BF0260ECDEC0BF0010ECB6FCC6B7F0EF9
:1027F000A96E326B640E91D81E0E8FD8F00E8DD854
:10280000780E8BD8050E89D8070E87D8040E326F44
:10281000328F880E82D8040E326F328F4C0E7DD8E4
:10282000140E7BD8140E79D81E0E77D86E0E75D87C
:102830005A0E73D83C0E71D8640E6FD80A0E6DD83C
:102840000A0E6BD8130E69D8A00E67D8960E65D8FD
:102850000A0E63D8060E61D8060E5FD8000E5DD84A
:10286000000E5BD8000E59D8000E57D8140E55D85C
:10287000326B328F000E51D8030E4FD80A0E4DD84E
:10288000000E4BD8010EAA6E7F0EA96E326B1E0E83
:1028900044D85A0E42D8C70E40D8FF0E3ED83E0E3E
:1028A0003CD8E00E3AD8000E38D8000E36D8010ECB
:1028B00034D8000E32D8000E30D8320E326F328F3C
:1028C000C80E2BD8650E29D8650E27D8A10E25D89D
:1028D0000F0E23D82A0E21D8000E1FD8000E1DD8A7
:1028E000000E1BD8000E19D8000E17D8000E15D8F0
:1028F000000E13D8000E11D8000E0FD8000E0DD800
:10290000000E0BD8000E09D8000E07D8000E05D80F
:10291000000E03D8AA6A66EF49F0316FA92A31C1C7
:10292000A8FFFCEC0BF0A92A32C1A8FFFCEC0BF0CD
:10293000A92A31C1A8FFFCEC0BF0A92A329F32C1B1
:10294000A8FFFCEC0BF0326B1200BC6BBD6B020EEF
:10295000356F366B400E396F22933A693A519BECD2
:102960002CF0392FFAD7C58450EC2DF0070E02EC6D
:102970000BF0362FEFD7352FECD72293BC6BBD6B06
:10298000FD0E8FEC2CF0FD0E8FEC2CF0FE0E8FEC7C
:102990002CF0BC6BBD6B120058EC0DF0209520990B
:1029A0002097B76B209120931F9921912193219516
:1029B000BA6BD4EC2AF0010EE8CF7FF01D0E8CEC40
:1029C00009F0000EE8CF7FF0160E8CEC09F0170E20
:1029D0008CEC09F006EC15F0180E8CEC09F023973E
:1029E000239923B7CBEC15F023B997EC15F020B958
:1029F00042D01FB1BEEC3CF01FB1B0EC42F01F91D1
:102A00001FB991D01FB366EF49F0EBD7460EE8CF60
:102A10007DF0410EE8CF7CF020EE60F005C131F191
:102A2000376B372B366B43EC0BF03A0EDE6E04C17E
:102A300031F1376B372B366B43EC0BF0200EDE6E2B
:102A4000200EDE6E4DEC0CF0460EE8CF7DF05F0EF2
:102A5000E8CF7CF020EE60F007C1F1F106C1F2F1A1
:102A600008C1F3F1FEEC22F0200EDE6E200EDE6EC9
:102A70004DEC0CF0120007C131F1314F1F0E314FF8
:102A80001C0E314F1F0E314F1E0E314F1F0E314F96
:102A90001E0E314F1F0E314F1F0E314F1E0E314F84
:102AA0001F0E314F1E0E314F1F0E066502D0010E54
:102AB000066F200EE8CF7DF09B0EE8CF7CF0080E6D
:102AC000386F97EC1BF0050E0A6F036B1F911FA167
:102AD000FED71F9124EC15F0460EE8CF7DF0410E95
:102AE000E8CF7CF020EE60F005C131F1376B372B79
:102AF000366B43EC0BF03A0EDE6E04C131F1376BEE
:102B0000372B366B43EC0BF03A0EDE6E03C131F11E
:102B1000376B372B366B43EC0BF0200EDE6E4DEC33
:102B20000CF00A2FD4D7010EB96F7BEF11F021B151
:102B30002089BA2BBAC1BBF1BB4F2085BB4F218581
:102B4000BB4F2183BB4F2181200EE8CF7DF09B0E30
:102B5000E8CF7CF020EE60F05E0E85EC09F0BAC1A3
:102B6000BBF1BB2F04D05A0E85EC09F00FD0BB2F60
:102B700004D05B0E85EC09F009D0BB2F04D05C0EAD
:102B800085EC09F003D05D0E85EC09F04DEC0CF0FE
:102B900023EC11F012002399036B21B120D021B353
:102BA00010D021B515D020B506D0052B170E056520
:102BB0001CD0056B1AD0042B3B0E046516D0046B99
:102BC00014D0062B1F0E066510D0010E066F0DD017
:102BD000072B0C0E076509D0010E076F06D0082BD6
:102BE000140E086502D00A0E086F06EC15F023ECEF
:102BF00011F012007B6B080E7A6F6BC17CF16CC117
:102C00007DF1B9EC0AF0100E7627270E772371C1FB
:102C100080F172C181F176C182F177C183F1A2ECBA
:102C20000AF07EC184F17FC185F129B71ED02295BB
:102C300084C17AF185C17BF184C17CF185C17DF1CC
:102C4000B9EC0AF0110E756F92EC0AF084C180F1B4
:102C500085C181F176C182F177C183F1A2EC0AF0DE
:102C60007EC186F17FC187F117D0228584C17AF1B8
:102C700085C17BF184C17CF185C17DF1B9EC0AF09D
:102C80000F0E756F92EC0AF08451762785517723E9
:102C900076C186F177C187F169C180F16AC181F19E
:102CA000FA0E826F836BA2EC0AF07EC17AF17FC1CB
:102CB0007BF184C17CF185C17DF1B9EC0AF076C16C
:102CC00073F177C174F10C0E756F8CEC0AF073C15F
:102CD00076F174C177F129A70DD06351762764513D
:102CE0007723100E7627270E772376C188F177C1D8
:102CF00089F10FD063C180F164C181F176C182F1A5
:102D000077C183F1A2EC0AF07EC176F17FC177F141
:102D1000E8D765C167F166C168F1C80E6727000E84
:102D2000682367C17AF168C17BF184C17CF185C1F8
:102D30007DF1B9EC0AF076C173F177C174F10D0E33
:102D4000756F8CEC0AF073C18AF174C18BF161C1AB
:102D500073F162C174F1010E756F8CEC0AF073515E
:102D60008A2774518B23B80E8A270B0E8B236FC1D1
:102D700080F170C181F188C182F189C183F1A2EC37
:102D80000AF07EC17AF17FC17BF18AC17CF18BC1EF
:102D90007DF1B9EC0AF00C0E756F92EC0AF029B7D0
:102DA0009AEC0AF0E80E7627030E772376C18CF1B1
:102DB00077C18DF124AD04D0C5C18CF1C6C18DF1B0
:102DC0006DC167F16EC168F1640E6727000E68235C
:102DD00067C17AF168C17BF186C17CF187C17DF161
:102DE000B9EC0AF00B0E756F92EC0AF0239D22B538
:102DF00009D0C80E7627000E772376C196F177C1E9
:102E000097F11200C80E806F816B76C182F177C195
:102E100083F1A2EC0AF029B7238D7EC196F17FC120
:102E200097F11200C7D8A00E3C6F0C0E576FFBD85D
:102E30001200D6D856C170F155C16FF11200BAD840
:102E4000900EF2D7CDD856C172F155C171F1120072
:102E5000B1D80D0E576F540E3C6FE5D8C1D856C18E
:102E60005AF155C159F10D0E576F580E3C6FDBD812
:102E7000B7D856C15CF155C15BF10D0E576F640EAA
:102E80003C6FD1D8ADD856C15EF155C15DF10D0E84
:102E9000576F680E3C6FC7D8A3D856C160F155C1B3
:102EA0005FF15AC162F1D8906233D8906233D89002
:102EB000623359C161F1D8805AA1D8906133D8806A
:102EC0005AA3D8906133D8805AA5D89061335BC19A
:102ED00063F1D8805CA1D8906333D8805CA3D8908C
:102EE0006333D8805CA5D8906333D8805CA7D89032
:102EF0006333D8805CA9D8906333D8805CABD8901A
:102F000063335CC164F1D88059A1D8906433D88010
:102F100059A3D8906433D88059A5D8906433D890F9
:102F20006433D8906433D89064335EC165F1D8803F
:102F30005DAFD8906537D8805DADD8906537666B4A
:102F40005EBF66835EBD668160C169F1D8805FAF98
:102F5000D89069376A6B60BF6A815DC16BF16B9D08
:102F60005BB16B8D6B9F5BB36B8F6C6B5BB56C8177
:102F70005BB76C835BB96C855BBB6C876E6B5FC149
:102F80006DF16D9F229F120080820000808E0000F4
:102F900000000000000000000000809E12008092EF
:102FA0000000808E00000000000000000000000013
:102FB000809E1200E9DFF3DFE7DFF1DFE5DFEFDF1F
:102FC000E3DFEDDFE1DFEBDFDFDFE9DFDDDFE7DFE1
:102FD000DBDFE5DFE4DFE3DFE2DFE1DFE0DF12009C
:102FE000080E576F10D83CC156F1080E576F0BD81A
:102FF0003CC155F1808E0000000000000000000080
:103000000000809E1200808E000000000000000082
:1030100000000000809E80A8D89080B8D8803C37FF
:10302000572FF1D71200809E8082030E575F808E4B
:10303000000000000000000000000000809E000072
:1030400000000000000000000000808E0000000072
:103050000000000000000000809E00000000000052
:10306000000000000000808E000000000000000052
:1030700000000000809E3CAF80923CBF8082D890D0
:103080003C37808E000000000000000000000000BF
:10309000809E572FF0D71200240EA5EC0EF007D01B
:1030A000250EA5EC0EF003D0230EA5EC0EF02D6F2F
:1030B000000E2D6301D018D0040E2D6301D014D062
:1030C000080E2D6301D010D0C00E2D6301D00CD09E
:1030D000C40E2D6301D008D0C80E2D6301D004D0DA
:1030E0002D514DEC0EF01200FF0E4DEC0EF01200C3
:1030F000D96FD94F53D0D94F78D0D94F84D0D94F29
:1031000090D0D94FA6D0D94F2CD0D94F00D08CC158
:103110004BF18DC14CF10A0E4D6F4E6B35EC0AF040
:1031200047C14BF148C14CF1A8CF4DF14E6B18ECA3
:103130000AF0496713D047C151F148C152F12E0E30
:10314000A5EC0EF0640DF3CF53F1F4CF54F101EC84
:103150000AF01EA703D054EC18F0120050EC18F03F
:103160001200280EA5EC0EF0316F010E316310D065
:103170002BC531F131078FC14CF18EC14BF1640E7B
:103180004D6F4E6B35EC0AF04751315DD8B003D02E
:1031900054EC18F0120050EC18F0120032C134F167
:1031A00031C133F18FC132F18EC131F157EC2CF0C6
:1031B00031C151F132C152F12B0EB9EC0EF031C1D7
:1031C00053F132C154F101EC0AF01EA707D054ECC0
:1031D00018F034C132F133C131F1120050EC18F063
:1031E00034C132F133C131F1120065C531F12C0E19
:1031F000A5EC0EF0315DD8B003D054EC18F01200FD
:1032000050EC18F0120032C531F12D0EA5EC0EF085
:10321000315DD8B003D054EC18F0120050EC18F027
:103220001200496713D047C151F148C152F12E0E27
:10323000A5EC0EF0640DF3CF53F1F4CF54F101EC93
:103240000AF01EA703D054EC18F0120050EC18F04E
:1032500012001EA708D044C131F12F0EA5EC0EF0CC
:10326000315DD8B003D054EC18F0120050EC18F0D7
:103270001200D96FD7C1D8F1D6C1D7F1D5C1D6F1D7
:10328000D4C1D5F1D3C1D4F1D9C1D3F129A512004C
:10329000C80EE8CF7CF0640EE8CF7DF0000EE8CFDA
:1032A0007EF0000EE8CF7FF054EC18F020EE60F0D6
:1032B000D351DE6ED451DE6ED551DE6ED651DE6E48
:1032C000D751DE6ED851DE6E200EDE6E4DEC0CF066
:1032D0001200819696EC0DF058EC0DF054EC18F0BD
:1032E000000EE8CF7FF0850E8CEC09F0860E8CEC9A
:1032F00009F0870E8CEC09F0880E8CEC09F0640E56
:10330000E8CF7CF00A0EE8CF7DF0000EE8CF7EF02B
:10331000000EE8CF7FF054EC18F020EE60F0D351AF
:10332000DE6ED451DE6ED551DE6ED651DE6ED751D3
:10333000DE6ED851DE6E2E0EDE6E200EDE6E1EC1EB
:1033400031F1376B372B366B4BEC0BF0200EDE6E0A
:103350001FC131F1376B372B366B4BEC0BF04DEC5B
:103360000CF07D0EE8CF7CF00A0EE8CF7DF0000E69
:10337000E8CF7EF0000EE8CF7FF054EC18F020EE9E
:1033800060F020C131F1376B372B366B4BEC0BF013
:10339000200EDE6E21C131F1376B372B366B4BECD3
:1033A0000BF0200EDE6E22C131F1376B372B366BFE
:1033B0004BEC0BF0200EDE6E23C131F1376B372B57
:1033C000366B4BEC0BF0200EDE6E24C131F1376B07
:1033D000372B366B4BEC0BF04DEC0CF0960EE8CF28
:1033E0007CF00A0EE8CF7DF0000EE8CF7EF0000EF4
:1033F000E8CF7FF054EC18F020EE60F025C131F1F9
:10340000376B372B366B4BEC0BF0200EDE6E26C184
:1034100031F1376B372B366B4BEC0BF0200EDE6E39
:1034200027C131F1376B372B366B4BEC0BF0200E8D
:10343000DE6E28C131F1376B372B366B4BEC0BF05E
:10344000200EDE6E29C131F1376B372B366B4BEC1A
:103450000BF04DEC0CF023A7FED7819812004CEC3A
:1034600018F00B0E89EC09F0560E8CEC09F0570E93
:103470008CEC09F054EC18F01200000EE8CFF4F1D7
:103480003C0EE8CFF5F1EF0EE8CFF6F15A0EE8CF9B
:10349000F7F19F0EE8CFF8F1F0EC0CF07CEC1DF0AA
:1034A000F4EC1DF01200E9DF4CEC18F0540E8CEC3B
:1034B00009F054EC18F0080E386F910EE8CF7CF04C
:1034C000000EE8CF7DF097EC1BF012002AB5120039
:1034D0007A0E39EC19F0B90EE8CF7CF0770EE8CF10
:1034E0007DF0010EE8CF7EF0000EE8CF7FF054ECC7
:1034F00018F020EE60F022C531F1376B372B366BB8
:103500004BEC0BF0270EDE6E4DEC0CF0000EE8CF0E
:103510007EF01200B2DF4CEC18F0550E8CEC09F086
:1035200054EC18F012002AB512001FBF32D0790EE9
:1035300039EC19F04CEC18F0520E8CEC09F054EC0C
:1035400018F0760EE8CF7CF05E0EE8CF7DF0010E2D
:10355000E8CF7EF0000EE8CF7FF0060E78EC18F092
:1035600020EE60F02BC531F1376B372B366B32EC28
:103570000BF06D0EDE6E24C531F1376B372B366BD9
:1035800032EC0BF0270EDE6E4DEC0CF0000EE8CFA7
:103590007EF02AB51200780E39EC19F0B90EE8CF9A
:1035A0007CF0770EE8CF7DF0010EE8CF7EF0000EC4
:1035B000E8CF7FF054EC18F020EE60F031C531F127
:1035C000C70E3161316F1E9F376B372B366B4BEC5B
:1035D0000BF0270EDE6E4DEC0CF032C531F1080E0B
:1035E000A5EC0EF0316101D066D7770E39EC19F0F9
:1035F000910EE8CF7CF0000EE8CF7DF0000EE8CF12
:103600007EF0030E78EC18F020EE60F0470EDE6ED0
:10361000460EDE6E3A0EDE6E32C531F1376B372B59
:10362000366B4BEC0BF0250EDE6E200EDE6E4DEC95
:103630000CF054EC18F01200410EE8CF7CF0690E4B
:10364000E8CF7DF0000EE8CF7EF054EC18F020EECD
:1036500060F0EBC131F11E8F376B372B366B4BECC3
:103660000BF01E9F6D0EDE6E690EDE6E6E0EDE6E50
:10367000200EDE6E4DEC0CF05F0EE8CF7CF0640E99
:10368000E8CF7DF0000EE8CF7EF054EC18F020EE8D
:1036900060F0ECC131F11E8F376B372B366B4BEC82
:1036A0000BF01E9F6D0EDE6E200EDE6E4DEC0CF0EC
:1036B00012002AB51200760E39EC19F05A0EE8CF36
:1036C0007CF0000EE8CF7DF0000EE8CF7EF0050E16
:1036D00078EC18F020EE60F02D0E1EB72B0EDE6E8B
:1036E00044C131F1376B372B366B32EC0BF0530E94
:1036F00085EC09F04DEC0CF054EC18F02A8912001E
:10370000080E386F5A0EE8CF7CF0000EE8CF7DF03F
:103710002A990DD0060E386F020EE8CF7CF0730E9A
:10372000E8CF7DF004D0010EE8CF7EF003D0000E8C
:10373000E8CF7EF020EE60F0200EDE6E382FFCD752
:103740004DEC0CF0000EE8CF7EF01200270EA5EC39
:103750000EF0316F010E316312001FBF1200020E16
:10376000E8CF7CF0400EE8CF7DF0000EE8CF7EF091
:10377000000EE8CF7FF054EC18F020EE60F005C1A9
:1037800031F1376B372B366B43EC0BF03A0EDE6EB4
:1037900004C131F1376B372B366B43EC0BF04DEC3A
:1037A0000CF01200630E39EC19F0320EE8CF7CF009
:1037B000010EE8CF7DF0000EE8CF7EF0000EE8CFDE
:1037C0007FF054EC18F020EE60F019C131F1316750
:1037D00005D01AC131F1316701D039D02CAF34D0C6
:1037E000B62F01D034D02C8F060EB66125D819C162
:1037F00031F11AC132F1DEEC09F0325131C132F14E
:10380000316F490EDE6E6E0EDE6E740EDE6E3A0E97
:10381000DE6E376B372B366B43EC0BF03A0EDE6EF9
:1038200032C131F1376B372B366B43EC0BF0200E86
:10383000DE6E4DEC0CF012002C9F050EB66F1200E0
:103840002C8F050EB66F1200B62F01D0CCD72C9F4F
:10385000060EB661F5DF05C131F1376B372B366BDC
:1038600043EC0BF03A0EDE6E04C131F1376B372BAF
:10387000366B43EC0BF03A0EDE6E03C131F1376B61
:10388000372B366B43EC0BF0200EDE6E4DEC0CF05C
:103890001200230EE8CF7CF0000EE8CF7DF0000E82
:1038A000E8CF7EF0000EE8CF7FF054EC18F020EE69
:1038B00060F0B80EDE6E4DEC0CF0410EE8CF7CF0FF
:1038C00020EE60F0B80EDE6E4DEC0CF05F0EE8CF2F
:1038D0007CF020EE60F0B80EDE6E4DEC0CF07D0E4C
:1038E000E8CF7CF020EE60F0B80EDE6E4DEC0CF010
:1038F0009B0EE8CF7CF054EC18F020EE60F0B80E90
:10390000DE6E4DEC0CF0B90EE8CF7CF020EE60F0EE
:10391000B80EDE6E4DEC0CF0B9C138F1384F230E05
:10392000384F410E384F5F0E384F7D0E384F9B0E8B
:10393000384FB90EE8CF7CF020EE60F0B70EDE6EA7
:103940004DEC0CF01200D4EC2AF0010EE8CF7FF021
:10395000050E8CEC09F0000EE8CF7FF0060E8CEC23
:1039600009F0070E8CEC09F0090E8CEC09F00A0E38
:103970008CEC09F08E0E8CEC09F00B0E8CEC09F03F
:103980001200D4EC2AF0010EE8CF7FF0620E8CEC2E
:1039900009F0000EE8CF7FF0630E8CEC09F0990E71
:1039A0008CEC09F0140E89EC09F0640E8CEC09F033
:1039B0008E0E8CEC09F00B0E8CEC09F01200D4EC9E
:1039C0002AF0010EE8CF7FF0020E89EC09F0000E1C
:1039D000E8CF7FF0010E89EC09F0810E8CEC09F044
:1039E000BB0E8CEC09F00B0E8CEC09F01200D4EC41
:1039F0002AF0010EE8CF7FF0900E8CEC09F0000E5B
:103A0000E8CF7FF0080E8CEC09F06E0E8CEC09F01C
:103A1000710E8CEC09F0F70E8CEC09F00B0E8CECAF
:103A200009F01200D4EC2AF0010EE8CF7FF01C0E52
:103A30008CEC09F0000EE8CF7FF0150E8CEC09F04D
:103A4000F50E8CEC09F01C0E89EC09F01D0E89ECCA
:103A500009F01E0E89EC09F00B0E8CEC09F0120037
:103A6000D4EC2AF0010EE8CF7FF0F80E8CEC09F0D0
:103A7000000EE8CF7FF0F90E8CEC09F0150E89EC02
:103A800009F0160E89EC09F0170E89EC09F0180EF2
:103A900089EC09F00B0E8CEC09F01200650E39EC84
:103AA00019F096C198F197C199F1640EE8CF7CF0B6
:103AB000010EE8CF7DF0000EE8CF7EF0000EE8CFDB
:103AC0007FF054EC18F020EE60F02D0E23BDDE6E7A
:103AD00096C131F197C132F1030E376F1E8F020E7E
:103AE00054EC0BF01E9FB00EDE6E430EDE6E200E09
:103AF000DE6E4DEC0CF012002AB51200750E39EC9A
:103B000019F096C198F197C199F1D80EE8CF7CF0E1
:103B1000320EE8CF7DF0000EE8CF7EF0000EE8CF49
:103B20007FF054EC18F020EE60F02D0E23BDDE6E19
:103B300096C131F197C132F1030E376F1E8F020E1D
:103B400054EC0BF01E9FB00EDE6E200EDE6E4DECC0
:103B50000CF01200740E39EC19F0780EE8CF7CF0FE
:103B6000000EE8CF7DF0000EE8CF7EF0040E78EC7A
:103B700018F020EE60F0700EDE6E700EDE6E4F0EEE
:103B8000DE6E320EDE6E3A0EDE6E496710D047C131
:103B900031F148C132F12887010E54EC0BF028971F
:103BA000200EDE6E4DEC0CF054EC18F012003E0EC0
:103BB000DE6E360EDE6E2E0EDE6E360EDE6EF0D74A
:103BC0000A0E386F780EE8CF7CF0000EE8CF7DF05B
:103BD00097EC1BF01200C00EE8CF7CF0320EE8CF5D
:103BE0007DF0050E386FA3D529BB12002AB512004F
:103BF000000EE8CF7FF012EC1EF02BAD12002A0E63
:103C0000A5EC0EF0316F010E316312002C772CA75A
:103C10001200010EE8CF7FF012EC1EF0000EE8CF8C
:103C20007FF01200730E39EC19F0C00EE8CF7CF073
:103C3000320EE8CF7DF0000EE8CF7EF054EC18F0A5
:103C4000640E10C531F1D880315511C531F1D880DD
:103C50003157090EA5EC0EF011C532F1316501D0D6
:103C600005D0326703D0050E386F61D5150E31636C
:103C70000ED032670CD020EE60F0080E82EC09F016
:103C8000200E2BBD2A0EDE6E4DEC0CF0120020EE45
:103C900060F01E8F376B372B366B4BEC0BF02F0E13
:103CA000DE6E11C531F1376B372B366B4BEC0BF0F9
:103CB000200E2BBD2A0EDE6E1E9F4DEC0CF0120066
:103CC000550EE8CF7DF0000EE8CF7EF0000EE8CF75
:103CD0007FF0AA6A220ECFEC0BF0A86620D07D0EF2
:103CE000E8CF7CF054EC18F020EE60F04F0EDE6E62
:103CF0004DEC0CF0550EE8CF7DF0000EE8CF7EF0D5
:103D0000000EE8CF7FF0960EE8CF7CF054EC18F070
:103D100020EE60F0430EDE6E4DEC0CF01200A806B3
:103D2000A86601D01200A806A86629D07D0EE8CFAB
:103D30007CF054EC18F020EE60F0430EDE6E550E71
:103D4000E8CF7DF0000EE8CF7EF0000EE8CF7FF0E8
:103D50004DEC0CF0960EE8CF7CF054EC18F020EE11
:103D600060F0430EDE6E550EE8CF7DF0000EE8CF1A
:103D70007EF0000EE8CF7FF04DEC0CF01200A806AC
:103D8000A86601D01200A806A86629D07D0EE8CF4B
:103D90007CF020EE60F0470EDE6E550EE8CF7DF031
:103DA000000EE8CF7EF0000EE8CF7FF054EC18F064
:103DB0004DEC0CF0960EE8CF7CF020EE60F0460E55
:103DC000DE6E550EE8CF7DF0000EE8CF7EF0000EDF
:103DD000E8CF7FF054EC18F04DEC0CF012007D0EA3
:103DE000E8CF7CF020EE60F0470EDE6E550EE8CF97
:103DF0007DF0000EE8CF7EF0000EE8CF7FF054ECAF
:103E000018F04DEC0CF0960EE8CF7CF020EE60F050
:103E1000460EDE6E550EE8CF7DF0000EE8CF7EF048
:103E2000000EE8CF7FF054EC18F04DEC0CF01200CF
:103E3000000EE8CFF4F1190EE8CFF5F1780EE8CFD7
:103E4000F6F1520EE8CFF7F19F0EE8CFF8F1F0EC63
:103E50000CF028B15ED06D0E39EC19F05A0EE8CF97
:103E60007DF0000EE8CF7EF01E8F020E0A6F000E6E
:103E7000096F326B322B040E0A2720EE60F0470EDA
:103E8000DE6E32C131F1376B372B366B4BEC0BF0FA
:103E90003A0EDE6E200EDE6E0AC1A9FFF8EC0BF0C2
:103EA000A8CF31F1376B372B366B4BEC0BF02F0E65
:103EB000DE6EA92AF8EC0BF0A8CF31F1376B372B67
:103EC000366B4BEC0BF01B0ECFEC0BF032C131F12B
:103ED000A832312FFDD7D8B004D04A0E4DEC0EF0E9
:103EE00002D054EC18F0210ECFEC0BF0A850326346
:103EF00001D009D0190E09275A0EE8CF7DF009C16B
:103F00007CF04DEC0CF054EC18F0050E3263B2D797
:103F100012005A0EE8CF7DF0000EE8CF7EF01E8F23
:103F2000230E0A6F000E096FE56B0A2BE52B190EA5
:103F300009275A0EE8CF7DF009C17CF020EE60F031
:103F4000530EDE6E500EDE6EE5C131F1376B372B4E
:103F5000366B4BEC0BF03A0EDE6E200EDE6E0AC1B5
:103F6000A9FFF8EC0BF0A8CF31F1326B030E54EC43
:103F70000BF04DEC0CF0030EE563D7D7210ECFEC20
:103F80000BF0A8CFD0F1D005040DF350070FA96EA8
:103F9000F8EC0BF0A8CF32F1D005040DF350060F6A
:103FA000A96EF8EC0BF0A8CF31F15A0EE8CF7DF0F6
:103FB000640EE8CF7CF020EE60F0440EDE6E690EF9
:103FC000DE6E6C0EDE6E3A0EDE6E376B372B366BA6
:103FD0004BEC0BF02F0EDE6E32C131F1376B372B0D
:103FE000366B4BEC0BF04DEC0CF01E9F1200710E7B
:103FF00039EC19F029BB120027BF120028A123D0E9
:10400000870EE8CF7CF05A0EE8CF7DF0000EE8CFA7
:104010007EF0000EE8CF7FF054EC18F020EE60F058
:10402000240ECFEC0BF0A8CF31F1326B030E54EC21
:104030000BF0420EDE6E610EDE6E720EDE6E1E9FA5
:104040004DEC0CF057D0820EE8CF7CF0640EE8CF38
:104050007DF0010EE8CF7EF0000EE8CF7FF054EC4B
:1040600018F0210ECFEC0BF0A8CFD0F1D005040D45
:10407000F350070FA96EF8EC0BF0A8CF11F5D0059F
:10408000040DF350060FA96EF8EC0BF0A8CFCFF19A
:1040900011C50AF1D880640E0A55D880A856A8CF59
:1040A00010F5640E10C531F1D880315511C531F1CC
:1040B000D880315711C532F1150E316306D0326701
:1040C00004D0090E89EC09F015D020EE60F01E8FA7
:1040D000376B372B366B4BEC0BF02F0EDE6E11C5AA
:1040E00031F1376B372B366B4BEC0BF01E9F4DECE1
:1040F0000CF000D0000EE8CFF4F17A0EE8CFF5F125
:10410000AF0EE8CFF6F1520EE8CFF7F19F0EE8CFF1
:10411000F8F1B0EC0CF01200000EE8CFF4F1440E10
:10412000E8CFF5F1920EE8CFF6F1220EE8CFF7F1E5
:10413000650EE8CFF8F1F0EC0CF0230EA5EC0EF0D4
:10414000E8CFF4F1460EE8CFF5F1900EE8CFF6F1A6
:10415000230EE8CFF7F1640EE8CFF8F1B0EC0CF0E5
:104160008F0E8CEC09F0910E8CEC09F0920E8CEC19
:1041700009F0010EB96F000EE8CFF4F1600EE8CF40
:10418000F5F18F0EE8CFF6F1270EE8CFF7F1330EF9
:10419000E8CFF8F1F0EC0CF0B9C138F1600E384F0F
:1041A000600E384F780EE8CF7CF0270EE8CF7DF018
:1041B000000EE8CF7EF0000EE8CF7FF054EC18F050
:1041C00020EE60F0B70EDE6E4DEC0CF01F992091E2
:1041D000209323992397B76B640E02EC0BF09FECAE
:1041E00030F020B315D020B10ED01FB1BEEC3CF0A2
:1041F0001FB1B0EC42F01F911FB903D01FB301D023
:10420000EED7000C010CB94FFCD7B94FFBD7F9D74B
:10421000B92B030EB96302D0010EB96FACD7720E81
:1042200039EC19F08FC132F18EC131F157EC2CF01D
:10423000270E326171D02ABBB3EC21F02A9B20EE0D
:1042400060F0030E526FE80E516F32C154F131C16C
:1042500053F1532B000E542301EC0AF01EA780D813
:10426000180EE8CF7CF0000EE8CF7DF0020EE8CF0C
:104270007EF0000EE8CF7FF0010E78EC18F0000E13
:10428000526F630E516F32C154F131C153F101ECE1
:104290000AF01EA70AD01E8F2887376B372B366B84
:1042A000365154EC0BF01E9F02D0300EDE6E4DECFA
:1042B0000CF02897010EE8CF7EF0320EE8CF7CF0AC
:1042C000280EE8CF7DF0010E78EC18F08FC132F1A6
:1042D0008EC131F157EC2CF020EE60F02E0EDE6E28
:1042E000000E526F090E516F32C154F131C153F1BA
:1042F00001EC0AF01EA707D0040E376F2385000ECD
:1043000054EC0BF002D0300EDE6E4DEC0CF0239529
:10431000000EE8CF7EF012002AABB3EC21F020EEC5
:1043200060F0180EE8CF7CF0000EE8CF7DF0020EB2
:10433000E8CF7EF0000EE8CF7FF0010E78EC18F0A9
:1043400028871E8F376B372B366B365154EC0BF0AA
:104350001E9F4DEC0CF02897000EE8CF7EF0120067
:10436000200EDE6E1200000EE8CFF4F1180EE8CF3A
:10437000F5F15A0EE8CFF6F1000EE8CFF7F15A0E3C
:10438000E8CFF8F1F0EC0CF02A8B1200680E39EC53
:1043900019F0960EE8CF7CF0010EE8CF7DF0000E0C
:1043A000E8CF7EF0000EE8CF7FF054EC18F020EE5E
:1043B00060F00E0E85EC09F0200EDE6E20C531F1A6
:1043C00021C532F1DEEC09F01E8F315132C131F1DD
:1043D000326F376B372B366B4BEC0BF03A0EDE6ED1
:1043E00032C131F1376B372B366B43EC0BF01E9F2C
:1043F0004DEC0CF01200670E39EC19F07D0EE8CF91
:104400007CF0010EE8CF7DF0000EE8CF7EF0000ECC
:10441000E8CF7FF054EC18F020EE60F0230E85EC2E
:1044200009F0200EDE6ECBC131F1CCC132F1DEECF1
:1044300009F01E8F315132C131F1326F376B372B9A
:10444000366B4BEC0BF03A0EDE6E32C131F13107B8
:1044500031BF316B376B372B366B43EC0BF01E9F44
:104460004DEC0CF012001FBD1200620E39EC19F079
:10447000190EE8CF7CF0010EE8CF7DF0000EE8CFFA
:104480007EF0000EE8CF7FF054EC18F020EE60F0E4
:104490008CC131F18DC132F11E8F376B372B366BEA
:1044A000365154EC0BF01E9F6D0EDE6E620EDE6E0A
:1044B000610EDE6E720EDE6E200EDE6E4DEC0CF0C6
:1044C0001200660E39EC19F01F0EA5EC0EF0316FDC
:1044D000010E316323D0AF0EE8CF7CF0010EE8CFA0
:1044E0007DF0000EE8CF7EF0000EE8CF7FF054ECB8
:1044F00018F020EE60F0C1C131F1C2C132F1010EFD
:10450000376F23851E8F020E54EC0BF01E9F560E44
:10451000DE6E200EDE6E4DEC0CF01200230EA5ECCC
:104520000EF0E8CFF4F1AE0EE8CFF5F1C20EE8CF11
:10453000F6F1010EE8CFF7F1200EE8CFF8F1B0EC7C
:104540000CF0040E516F100E526FC1C153F1C2C175
:1045500054F101EC0AF01EB74ED0AC0E536F0D0EA5
:10456000546FC1C151F1C2C152F101EC0AF01EB742
:104570003FD04FC14BF150C14CF1140E4D6F4E6BFB
:1045800035EC0AF047C10AF10A2B030E0A650A6FDF
:10459000230EA5EC0EF0E8CFF4F1B50EE8CFF5F15F
:1045A000BB0EE8CFF6F1200EE8CFF7F1220EE8CFF0
:1045B000F8F1F0EC0CF0220EA5EC0EF0E8CFF4F1DF
:1045C000B00EE8CFF5F1C00EE8CFF6F1020EE8CF5D
:1045D000F7F10AC1F8F1F0EC0CF0F46B0AC1F7F155
:1045E000F72B1F0EF86FF0EC0CF054EC18F01200E3
:1045F000010E0A6FCDD71E0E0A6FCAD75B0ECFEC25
:104600000BF0A8660ED0F1C131F11E8F376B372B3E
:10461000366B43EC0BF01E9F2F0EDE6EF2C131F1B4
:1046200012D05B0ECFEC0BF0A82E1FD0F2C131F1EF
:104630001E8F376B372B366B43EC0BF01E9F2F0E04
:10464000DE6EF1C131F11E8F376B372B366B43ECC9
:104650000BF01E9F2F0EDE6EF3C131F11E8F376BF4
:10466000372B366B43EC0BF01200F3C131F11E8F88
:10467000376B372B366B43EC0BF01E9F2F0EDE6E25
:10468000F1C131F11E8F376B372B366B43EC0BF0DA
:104690001E9F2F0EDE6EF2C131F11E8F376B372B4E
:1046A000366B43EC0BF012005B0ECFEC0BF0A86600
:1046B00015D0F1C131F11E8F376B372B366B43ECC0
:1046C0000BF01E9F2F0EDE6EF2C131F11E8F376B85
:1046D000372B366B43EC0BF01E9F12005B0ECFECBA
:1046E0000BF0A82EE6D7F2C131F11E8F376B372BB6
:1046F000366B43EC0BF01E9F2F0EDE6EF1C131F1D5
:104700001E8F376B372B366B43EC0BF01E9F12005E
:10471000640E39EC19F04B0EE8CF7CF0010EE8CFB7
:104720007DF0000EE8CF7EF0000EE8CF7FF054EC75
:1047300018F020EE60F007C1F1F106C1F2F108C1F6
:10474000F3F1FEEC22F04DEC0CF01200000EE8CF7D
:10475000F4F1000EE8CFF5F11A0EE8CFF6F1410EB4
:10476000E8CFF7F1640EE8CFF8F1F0EC0CF01200AE
:10477000700E39EC19F090C131F191C132F157EC62
:104780002CF0270E32611DD020EE60F054EC18F0B2
:10479000B80EE8CF7CF0000EE8CF7DF0010EE8CF38
:1047A0007EF0000EE8CF7FF01E8F2385030E54ECC1
:1047B0000BF01E9F1E9D4DEC0CF0000EE8CF7EF01E
:1047C00012002CAD04EC24F020EE60F054EC18F054
:1047D000B80EE8CF7CF0000EE8CF7DF0010EE8CFF8
:1047E0007EF0000EE8CF7FF028871E8F376B372BC7
:1047F000366B365154EC0BF01E9F4DEC0CF02897A5
:10480000000EE8CF7EF01200000EE8CFF4F1B80EF3
:10481000E8CFF5F1D70EE8CFF6F1000EE8CFF7F1CB
:10482000290EE8CFF8F1F0EC0CF02C8D12001FBF30
:104830001200410E39EC19F027BF92D029BB90D05D
:10484000260EA5EC0EF0316F010E316301D088D039
:10485000A4C131F1A5C132F11E9F20EE60F0376B8B
:10486000372B366B1E8D365154EC0BF0140EE8CFFF
:104870007CF0780EE8CF7DF0010EE8CF7EF054ECAE
:1048800018F04DEC0CF0000EE8CF7EF012001FBFC8
:1048900012004CEC18F08C0E8CEC09F054EC18F073
:1048A000550EE8CF7CF05A0EE8CF7DF0010EE8CF30
:1048B0007EF054EC18F0DFC131F11E9F20EE60F065
:1048C000376B372B366B4BEC0BF03A0EDE6EE0C1DC
:1048D00031F1376B372B366B43EC0BF04DEC0CF0B2
:1048E000000EE8CF7EF01200000EE8CFF4F13C0E8F
:1048F000E8CFF5F1770EE8CFF6F15A0EE8CFF7F1F1
:104900009F0EE8CFF8F1F0EC0CF012004CEC18F030
:104910008B0E8CEC09F054EC18F0910EE8CF7CF083
:104920005A0EE8CF7DF0010EE8CF7EF054EC18F07F
:10493000DAC131F120EE60F0376B372B366B4BEC80
:104940000BF03A0EDE6EDBC131F1376B372B366B75
:1049500043EC0BF04DEC0CF0000EE8CF7EF01200B3
:10496000A4C131F1A5C132F11E9F1E8D20EE60F071
:10497000376B372B366B1E8D365154EC0BF03A0EDD
:10498000DE6EA6C131F1376B372B366B43EC0BF083
:10499000140EE8CF7CF05A0EE8CF7DF0010EE8CF80
:1049A0007EF054EC18F04DEC0CF01E9D000EE8CF9C
:1049B0007EF01200000EE8CFF4F1360EE8CFF5F1EC
:1049C000660EE8CFF6F13E0EE8CFF7F19F0EE8CF86
:1049D000F8F1F0EC0CF012001FBF1200560E39EC8B
:1049E00019F04CEC18F01B0E89EC09F054EC18F09F
:1049F000500EE8CF7CF06E0EE8CF7DF0000EE8CFD1
:104A00007EF054EC18F020EE60F017C131F118C1BF
:104A100032F1020E315F000E325BDEEC09F031C183
:104A20000AF132C131F1326B000E1E9F1E8D376BC1
:104A3000372B366B1E8D365154EC0BF03A0EDE6E72
:104A40000AC131F1376B372B366B43EC0BF01E9FED
:104A50004DEC0CF0550E39EC19F0500EE8CF7CF00F
:104A60003E0EE8CF7DF0000EE8CF7EF054EC18F05B
:104A700020EE60F092C131F193C132F157EC2CF08D
:104A80001E8F2385030E54EC0BF01E9F6D0EDE6E01
:104A9000200EDE6E4DEC0CF01200610E39EC19F0B8
:104AA000000EE8CF7CF0010EE8CF7DF0000EE8CFDD
:104AB0007EF0000EE8CF7FF054EC18F020EE60F0AE
:104AC000060E82EC09F0AA6AA96AF8EC0BF0A8CFEE
:104AD00031F1A92AF8EC0BF0A8CF32F11E8F376B19
:104AE000372B366B365154EC0BF0200EDE6E560E23
:104AF000DE6E010E316F1E8F376B372B366B4BEC32
:104B00000BF02E0EDE6E490E316F1E8F376B372B7A
:104B1000366B43EC0BF01E9F4DEC0CF012006F0E49
:104B200039EC19F0A6EC23F028B10AD0200E8CEC59
:104B300009F01F0E8CEC09F07A0E8CEC09F009D00C
:104B4000EE0E8CEC09F01F0E8CEC09F0890E8CEC4B
:104B500009F0210E8CEC09F0220E8CEC09F0120009
:104B60006F0E39EC19F0F00E8CEC09F0F10E8CECB4
:104B700009F0190E89EC09F0930E8CEC09F0F40E93
:104B80008CEC09F01200640EE8CF7DF0000EE8CF47
:104B90007CF0000EE8CF7EF054EC18F020EE60F0D0
:104BA000530EDE6E650EDE6E6C0EDE6E180ECFECF2
:104BB0000BF0A8CF31F11E9F376B372B366B32ECE1
:104BC0000BF02F0EDE6E190ECFEC0BF0A8CF31F1EB
:104BD000376B372B366B32EC0BF04DEC0CF07B0E59
:104BE0008CEC09F07C0E8CEC09F07D0E8CEC09F05D
:104BF0007E0E8CEC09F01200FE0E8CEC09F0FA0E21
:104C00008CEC09F0FB0E8CEC09F0FC0E8CEC09F03E
:104C1000FD0E8CEC09F01200230EA5EC0EF0E8CF8F
:104C2000F4F132C17CF07C2B7CC0F5F17CC0F6F154
:104C3000120EF6277A0EE8CFF7F13127D8B0316996
:104C400031078A0E3161316F31C1F8F1F0EC0CF0AF
:104C5000000EE8CFF4F17CC0F5F17CC0F6F1120E45
:104C6000F62731C1F7F1F72B8B0EE8CFF8F1F0EC16
:104C70000CF01200EE0EE8CFF6F103D0B80EE8CF3C
:104C8000F6F1000EE8CFF4F132C1F5F1640EE8CF91
:104C9000F7F19F0EE8CFF8F1F0EC0CF0278112004D
:104CA000000EE7630CD000D06E0E39EC19F02BC566
:104CB00031F131671AD0EF0E8CEC09F01200E4C12B
:104CC000E8F1E6C1E9F1E70EE56F030EE627190EFC
:104CD000E527E42B9AEC26F00F0EE463F6D7E8C143
:104CE000E4F1E9C1E6F127811200E76B1D0EA5ECA6
:104CF0000EF0E66FE469E70EE56F190EE527E42B89
:104D00009AEC26F01D0EA5EC0EF0E66F040EE6619F
:104D100003D0030EE66F03D0060EE66FE42B030EFE
:104D2000E627190EE527E42B9AEC26F0070EE4633C
:104D3000F6D712001E8F640EE8CF7DF0E5C17CF03F
:104D4000E5C132F12BC5E8FFE6613AEF26F0E6C196
:104D500031F120EE60F0376B372B366B43EC0BF004
:104D60006D0EDE6E4DEC0CF08C0EE8CF7DF0E5C1E3
:104D70007CF010EEE1F0E451E3CF31F1312B20EE85
:104D800060F0376B372B366B43EC0BF0270EDE6E83
:104D90004DEC0CF0316740DF12006E0E39EC19F06B
:104DA0002BC531F1316704D0EF0E8CEC09F0120005
:104DB000E469E70EE56F190EE527E42BE4EC26F035
:104DC000050EE463F8D712001E8F640EE8CF7DF065
:104DD000E5C17CF0E5C132F115EE2BF0E451E3CFF3
:104DE00031F13151D8B43EEF26F020EE60F0376B50
:104DF000372B366B4BEC0BF06D0EDE6E4DEC0CF082
:104E00008C0EE8CF7DF0E5C17CF015EE24F0E45186
:104E1000E3CF31F120EE60F0376B372B366B43EC8C
:104E20000BF0270EDE6E4DEC0CF03167F5DE120054
:104E30006D0E39EC19F0640EE8CF7DF0000EE8CF6E
:104E40007EF01E8F020E0A6FE70E096F326B322B57
:104E5000040E0A27190E0927640EE8CF7DF009C158
:104E60007CF020EE60F0470EDE6E32C131F1376B20
:104E7000372B366B4BEC0BF03A0EDE6E0AC1A9FFF6
:104E8000F8EC0BF0A8CF31F1376B372B366B4BECCE
:104E90000BF02F0EDE6EA92AF8EC0BF0A8CF31F143
:104EA000376B372B366B4BEC0BF0A906F8EC0BF09D
:104EB000070E78EC18F01B0ECFEC0BF032C131F17D
:104EC000A832312FFDD74A0ED8A04DEC0EF04DEC94
:104ED0000CF054EC18F0050E3263B9D71200640ED2
:104EE000E8CF7DF0000EE8CF7EF01E8F230E0A6F14
:104EF000E70E096FE46B0A2BE42B190E092709C191
:104F00007CF0640EE8CF7DF020EE60F0530EDE6E94
:104F1000500EDE6EE4C131F1376B372B366B4BEC44
:104F20000BF03A0EDE6E0AC1A9FFF8EC0BF0A8CF29
:104F300031F1326B030E54EC0BF04DEC0CF0030E20
:104F4000E463D9D71E9F1200000EE8CFF4F1000EE3
:104F5000E8CFF5F1B90EE8CFF6F1520EE8CFF7F150
:104F60009F0EE8CFF8F1F0EC0CF012006C0E39EC6B
:104F700019F0000EE8CF7CF0550EE8CF7DF0000E62
:104F8000E8CF7EF0000EE8CF7FF054EC18F020EE72
:104F900060F0B80EDE6E4DEC0CF0190EE8CF7CF030
:104FA000550EE8CF7DF0000EE8CF7EF0000EE8CF82
:104FB0007FF054EC18F020EE60F0B80EDE6E4DEC91
:104FC0000CF0320EE8CF7CF0550EE8CF7DF0000EED
:104FD000E8CF7EF0000EE8CF7FF054EC18F020EE22
:104FE00060F0B80EDE6E4DEC0CF04B0EE8CF7CF0AE
:104FF000550EE8CF7DF0000EE8CF7EF0000EE8CF32
:105000007FF054EC18F020EE60F0B80EDE6E4DEC40
:105010000CF0640EE8CF7CF0550EE8CF7DF0000E6A
:10502000E8CF7EF0000EE8CF7FF054EC18F020EED1
:1050300060F0B80EDE6E4DEC0CF0B9C138F1000E28
:10504000384F000E384F190E384F320E384F4B0E76
:10505000384F640EE8CF7CF0550EE8CF7DF0000E9F
:10506000E8CF7EF0000EE8CF7FF054EC18F020EE91
:1050700060F0B70EDE6E4DEC0CF01200000EE8CFC3
:10508000F4F1380EE8CFF5F1580EE8CFF6F1450E01
:10509000E8CFF7F1730EE8CFF8F1F0EC0CF0230E47
:1050A000A5EC0EF0E8CFF4F13A0EE8CFF5F1560E8C
:1050B000E8CFF6F1460EE8CFF7F1720EE8CFF8F13F
:1050C000B0EC0CF03C0EE8CF7CF0470EE8CF7DF062
:1050D000000EE8CF7EF0010EE8CF7FF050EC18F024
:1050E00020EE60F0430EDE6E460EDE6E38C131F10A
:1050F000376B372B366B4BEC0BF0210EDE6E4DEC25
:105100000CF0000EE8CF7FF054EC18F01200680E9F
:1051100039EC19F0690E39EC19F0000EE8CFF4F112
:10512000190EE8CFF5F1780EE8CFF6F1520EE8CF80
:10513000F7F19F0EE8CFF8F1F0EC0CF0230EA5ECA0
:105140000EF0E8CFF4F1190EE8CFF5F1780EE8CFC4
:10515000F6F1520EE8CFF7F19F0EE8CFF8F1B0EC80
:105160000CF025EE33F0100E0A6F096B230EA5EC40
:105170000EF0E8CFF4F11C0E0925E8CFF5F11C0E76
:105180000925E8CFF6F1092B092B640EE8CFF7F1DA
:10519000DECFF8F1D890F833D890F833640EF827C2
:1051A0009D0EF861F86FF0EC0CF00A2FDFD725EEBA
:1051B00043F0100E0A6F096B230EA5EC0EF0E8CF3A
:1051C000F4F1560E0925E8CFF5F1560E0925E8CF82
:1051D000F6F1092B092B640EE8CFF7F1DECFF8F1D9
:1051E000D890F833D890F833640EF8279D0EF86104
:1051F000F86FF0EC0CF00A2FDFD7540EE8CF7DF0FB
:10520000200EE8CF7CF054EC18F020EE60F04E0E4B
:10521000DE6E320EDE6E4DEC0CF0540EE8CF7DF0FB
:105220005A0EE8CF7CF054EC18F020EE60F0480EF7
:10523000DE6E650EDE6E4DEC0CF063C50AF120EEFD
:1052400060F015EE33F00A2BE6CF31F10A2FFCD7D0
:10525000376B372B366B4BEC0BF0250EDE6E200ECA
:10526000DE6E540EE8CF7DF03E0EE8CF7CF0000EEF
:10527000E8CF7EF054EC18F04DEC0CF01E9F230E9E
:10528000A5EC0EF0E8CFF4F1490EE8CFF5F14A0EA7
:10529000E8CFF6F1790EE8CFF7F19D0EE8CFF8F1FF
:1052A000B0EC0CF0230EA5EC0EF0E8CFF4F13D0EBF
:1052B000E8CFF5F1540EE8CFF6F1790EE8CFF7F12B
:1052C0007A0EE8CFF8F1F0EC0CF0230EA5EC0EF01E
:1052D000E8CFF4F1410EE8CFF5F1500EE8CFF6F14A
:1052E000820EE8CFF7F1830EE8CFF8F1F0EC0CF086
:1052F000230EA5EC0EF0E8CFF4F1410EE8CFF5F166
:10530000500EE8CFF6F18B0EE8CFF7F18C0EE8CF18
:10531000F8F1F0EC0CF0230EA5EC0EF0E8CFF4F170
:10532000410EE8CFF5F1500EE8CFF6F1940EE8CF3C
:10533000F7F1950EE8CFF8F1F0EC0CF0230EA5ECA8
:105340000EF0E8CFF4F13D0EE8CFF5F1540EE8CFC2
:10535000F6F19D0EE8CFF7F19E0EE8CFF8F1F0ECF4
:105360000CF01200D4EC2AF0010EE8CF7FF0030E0F
:105370008CEC09F0000EE8CF7FF0440E8CEC09F0C5
:10538000450E8CEC09F0460E8CEC09F0470E8CECC7
:1053900009F0480E8CEC09F0490E8CEC09F04A0E2D
:1053A0008CEC09F01200D4EC2AF0010EE8CF7FF06B
:1053B000030E8CEC09F0000EE8CF7FF04B0E8CEC66
:1053C00009F04C0E8CEC09F04D0E8CEC09F04E0EF1
:1053D0008CEC09F04F0E8CEC09F0500E8CEC09F0BF
:1053E000510E8CEC09F01200D4EC2AF0010EE8CF3B
:1053F0007FF00F0E89EC09F0000EE8CF7FF0100E61
:1054000089EC09F0110E89EC09F0120E89EC09F013
:10541000130E89EC09F012002AB512006A0E39EC5D
:1054200019F0A80EE8CF7CF0320EE8CF7DF0000E28
:10543000E8CF7EF0000EE8CF7FF020EE60F018C5D8
:1054400031F1316708D054EC18F0070E82EC09F006
:105450004DEC0CF012008CC14BF18DC14CF10A0ED9
:105460004D6F4E6B35EC0AF04867476958C1E8FF4D
:10547000476103D047C118F52FD08CC14BF18DC1C6
:105480004CF10A0E4D6F4E6B35EC0AF047C14BF1F3
:1054900048C14CF1CFC14DF14E6B18EC0AF047C139
:1054A00053F148C154F158C1E8FF640DF3CF51F1F5
:1054B000F4CF52F101EC0AF01EA70CD047C14BF11A
:1054C00048C14CF1640E4D6F4E6B35EC0AF047C18C
:1054D00018F502D058C118F5040E78EC18F018C56C
:1054E00031F1326B1E8F030E54EC0BF01E9F4DEC0E
:1054F0000CF054EC18F0120030EC80F001011A0EA0
:1055000089EC09F020EE60F0230EDE6E63C531F108
:1055100063C50AF11E8F376B372B366B4BEC0BF0E4
:10552000200EDE6E280EDE6E100E0A6105D04E0EC5
:10553000DE6E320EDE6E04D0480EDE6E650EDE6E5E
:10554000290EDE6E200EDE6E640EE8CF7DF0190EA1
:10555000E8CF7CF0000EE8CF7EF054EC18F04DEC74
:105560000CF020EE60F015EE33F00A2BE6CF31F1AF
:105570000A2FFCD7376B372B366B4BEC0BF0250E15
:10558000DE6E200EDE6E640EE8CF7DF0320EE8CFC8
:105590007CF0000EE8CF7EF054EC18F04DEC0CF0EF
:1055A0001E9F1200000E03D0230EA5EC0EF0E8CFD4
:1055B000F4F1000EE8CFF5F11A0EE8CFF6F1000E87
:1055C000E8CFF7F19F0EE8CFF8F1F0EC0CF0120005
:1055D0002AB5120027BF120029BB12002AB91200F7
:1055E0006B0E39EC19F05A0EE8CF7CF0000EE8CFC4
:1055F0007DF0000EE8CF7EF0020E78EC18F020EE81
:1056000060F0430EDE6E4E0EDE6E530EDE6E3A0E10
:10561000DE6E65C531F11E8F376B372B366B4BEC69
:105620000BF01E9F250EDE6E4DEC0CF0120065C5D2
:1056300031F10F0EA5EC0EF0315DD8A01200570E1F
:1056400039EC19F0AF0EE8CF7CF02D0EE8CF7DF0ED
:10565000000EE8CF7EF0000EE8CF7FF0020E78EC6F
:1056600018F020EE60F0430EDE6E4E0EDE6E530E2E
:10567000DE6E3A0EDE6E65C531F11E8F376B372B4D
:10568000366B4BEC0BF01E9F250EDE6E4DEC0CF0D6
:105690001200400ECFEC0BF0010EA86229D0C80E0C
:1056A000E8CF7CF0000EE8CF7DF0000EE8CF7EF072
:1056B000000EE8CF7FF04CEC18F020EE60F0400ECA
:1056C000316F180E326F312B73EC2BF07D0EA86208
:1056D00001D004D0A8CFDEFF322FF5D74DEC0CF06F
:1056E00054EC18F0120031C1A9FFF8EC0BF01200D5
:1056F000180E386FC80EE8CF7CF0000EE8CF7DF0B2
:1057000097EC1BF0120028B164D06D0E39EC19F043
:10571000000EE8CF7DF0000EE8CF7EF01E8F020E67
:105720000A6F0A0E096F326B322B040E0A2720EE25
:1057300060F0470EDE6E32C131F1376B372B366BBE
:105740004BEC0BF03A0EDE6E0AC1A9FFF8EC0BF041
:10575000A8CF31F1376B372B366B4BEC0BF02F0E9C
:10576000DE6EA92AF8EC0BF0A8CF31F1376B372B9E
:10577000366B4BEC0BF0200EDE6E32511B0FCFEC74
:105780000BF0A8CF31F1376B372B366B32EC0BF0C7
:105790006D0EDE6E1B0ECFEC0BF032C131F1A83274
:1057A000312FFDD7D8B004D04A0E4DEC0EF002D008
:1057B00054EC18F0190E0927000EE8CF7DF009C14E
:1057C0007CF04DEC0CF054EC18F0050E3263ACD7C5
:1057D0001200000EE8CF7DF0000EE8CF7EF01E8FA5
:1057E000230E0A6F0A0E096FE56B0A2BE52B190EC3
:1057F0000927000EE8CF7DF009C17CF020EE60F0B3
:10580000530EDE6E500EDE6EE5C131F1376B372B75
:10581000366B4BEC0BF03A0EDE6E200EDE6E0AC1DC
:10582000A9FFF8EC0BF0A8CF31F1326B030E54EC6A
:105830000BF04DEC0CF0030EE563D7D7210ECFEC47
:105840000BF0A8CFD0F1D005040DF350070FA96ECF
:10585000F8EC0BF0A8CF32F1D005040DF350060F91
:10586000A96EF8EC0BF0A8CF31F1000EE8CF7DF077
:105870006E0EE8CF7CF020EE60F0440EDE6E690E16
:10588000DE6E6C0EDE6E3A0EDE6E376B372B366BCD
:105890004BEC0BF02F0EDE6E32C131F1376B372B34
:1058A000366B4BEC0BF04DEC0CF01E9F120024BD40
:1058B00012001A0ECFEC0BF0A8CF0AF1690E0A61A4
:1058C0001200630E0A65120031C14BF132C14CF176
:1058D000640E4D6F4E6B18EC0AF00AC14DF14E6B21
:1058E0005CEC0AF047C131F148C132F112003A6F65
:1058F000010EBC27000EBD23BDAF02D0BC6BBD6B3B
:105900003A2FF6D712003A6F010EBC5F000EBD5B56
:10591000BDAF02D07F0EBD6F3A2FF6D712009CD8D4
:10592000010EBC27000EBD232291BDAF1200BC6B3F
:10593000BD6B2281120022B31CD822A30BD8228374
:10594000000EBC2BBD232291BDAF1200BC6BBD6B02
:10595000228112003A6FC580A3D8A60EC96EA0D8C6
:1059600094D8BDC1C9FF9CD890D8BCC1C9FF98D8F4
:105970008CD83AC1C9FF94D888D812003A6B3B6BD7
:10598000219F219DC5848CD8C5808AD8A60EC96E5A
:1059900087D8C5BCF7D73BC1C9FF82D876D83AC1F2
:1059A000C9FF7ED872D8C5827BD8A70EC96E78D8B9
:1059B0006CD8C58675D821BD05D0218DFD0EC96274
:1059C000219D11D021BF05D0218FFD0EC96209D0C4
:1059D0000AD0FE0EC96205D03AC1BCF13BC1BDF18F
:1059E0000DD0219F219D010E3A27000E3B233BBF86
:1059F00003D0C58855D8DDD7BC6BBD6BC58450D8E6
:105A0000219F219D1200C5844BD8C58049D8A60E80
:105A1000C96E46D8C5BCF7D7BDC1C9FF41D835D876
:105A2000BCC1C9FF3DD831D8C5823AD8A70EC96ECE
:105A300037D82BD8C58634D8C950C58431D8120080
:105A4000E2DF010EBC27000EBD232291BDAF120084
:105A5000BC6BBD6B228112003A6FC58021D8A60EA7
:105A6000C96E1ED812D8BDC1C9FF1AD80ED8BCC184
:105A7000C9FF16D80AD83AC1C9FF12D806D8C584BA
:105A80000FD8060E02EC0BF01200C5BC01D81200B4
:105A90004D0E39EC19F081880BD89E96C36B12001D
:105AA000C32F01D0F5D79EA6FBD7C36B9E961200DD
:105AB000C66A4E0E39EC19F0C56AC76A9496948886
:105AC0008296090EC36F8286000082B804D0829647
:105AD0008296C32FF8D79486C66A0A0E02EC0BF0A2
:105AE000000EC76E280EC66E000EC56E080EC86E7C
:105AF00081984F0E39EC19F012002495289558EC36
:105B00000DF0249324972499BB6BBA6BC06B010EE4
:105B1000E8CF7FF00C0E8CEC09F0000EE8CF7FF0A0
:105B2000A46BA56B58EC2DF0BEEC2CF0386B396BE8
:105B3000050EB96F010EE8CF7FF00C0E8CEC09F06A
:105B4000000EE8CF7FF0219D219F010EA427000EBB
:105B5000A523A5BF27D0010E83EC2CF003EC2DF07C
