:020000040000FA
:0400000051EF49F083
:0200080008D01E
:0800180000D0E0CF02F101016C
:10002000D8CF01F1E8CF00F181509EB01EEC3AF03C
:10003000F2B405EC3AF0A1B21AEC3AF09EBAC4EC74
:1000400039F0F2B2F3EC39F0F0B0F9EC39F000C16C
:0C005000E8FF01C1D8FF02C1E0FF100072
:10010000001210180606080A0A0C0606080A060A53
:1001100006060808060E06060A0A08140C0A060A4D
:1001200008060606101010101010101010101010F5
:1001300010101010101010101010101010101010BF
:10014000101010101014161416120C140E1414148F
:100150000E180A0608080A060C0A08080808060607
:10016000040A0C120A0A0A060A0E140808061212D9
:10017000040E140806100E0C0606080606060606EF
:10018000080804040A16161614080A080806060ABF
:100190000808040A0E140A0C0A141010101010108B
:1001A000101010101010101010101010101010104F
:1001B00010101010101010101010140E120E08084D
:1001C00006141414141414141414141414141414FD
:1001D00014141414141414141414141414141414DF
:1001E0001414141414141414141414140A0A0A08F9
:1001F0000808080E0614100A100C06060606060863
:10020000020E0E080808060606060A0A0408040E6E
:100210001412140E0A0E0C100E0A0A0A0E0C10000C
:100300000000010F0019010F0002010F4102010F4F
:100310004102010F1423010F1441010F1423010F97
:10032000145F010F147D010F14B9010F7302010F47
:100330000018010F0000010F3202010F0A1E010F09
:100340000A37010F0A50010F0A69010F0A82010FD3
:100350001423010F2041010F205F010F209B010F8B
:100360000600010F3702010F0E02010F2802010FD4
:100370003202010F1423010F6400010F6419010FF1
:10038000644B010F6464010F0000010F2823010F6B
:100390002823010F2823010F2823010F2823010FF1
:1003A0002823010F2823010F2823010F2823010FE1
:1003B0002823010F2823010F2823010F2823010FD1
:1003C0002823010F2823010F2823010F2823010FC1
:1003D0002823010F2823010F2823010F2823010FB1
:1003E0002823010F2823010F2823010F2823010FA1
:1003F0002823010F2823010F2823010F2823010F91
:100400002823010F2823010F2823010F0023010FA8
:100410000041010F005F010F007D010F009B010FE4
:1004200000B9010F00D7010F0023010F0041010F98
:10043000005F010F007D010F009B010F00B9010F4C
:1004400000D7010F6696010F0000010F6CD8010F55
:100450006CD8010F6400010F0000010F0000010FB4
:100460000000010F0000010F0000010F0000010F4C
:100470000000010F0000010F0000010F0000010F3C
:100480000000010F2802010F1423010F147D010F3A
:10049000557D010F557D010F557D020F557D010FD3
:1004A0000000010F0A02010F0000010F0000010F00
:1004B0001423010F1441010F1402010F0000010F5A
:1004C000145F010F0A02010F0009010F557D020F91
:1004D0000012010F001B010F0024010F002D010F5E
:1004E0000036010F6432010F6419010F6432010FED
:1004F000644B010F6464010F6400010F6419010F64
:100500001441010F4141010F4141010F6432010FBC
:100510000A00010F0A19010F0A32010F0A4B010FDD
:100520006432010F557D010F6978010F693C010F9D
:100530004102010F149B010F2A48010F3C02010FD9
:100540003460010F3478010F644B010F0000010F7C
:100550000008010F0227010F0230010F557D010F26
:100560001441010F2823010F2823010F2823010F15
:100570002823010F2823010F2823010F2823010F0F
:100580002823010F2823010F2823010F2823010FFF
:100590002823010F2823010F2823010F2823010FEF
:1005A0002823010F2823010F2823010F2823010FDF
:1005B0002823010F2823010F2823010F2823010FCF
:1005C0002823010F2823010F2823010F2823010FBF
:1005D0002823010F2823010F2823010F2823010FAF
:1005E0002823010F0D02010F145F010F0201010FFB
:1005F0000230010F0000010F0000010F0000010F89
:100600000023010F0041010F005F010F007D010F6A
:10061000009B010F00B9010F00D7010F0023010F4C
:100620000041010F005F010F007D010F009B010FD2
:1006300000B9010F00D7010F0023010F0041010F86
:10064000005F010F007D010F009B010F00B9010F3A
:1006500000D7010F0023010F0041010F005F010FC0
:10066000007D010F009B010F00B9010F00D7010FA2
:100670000023010F0041010F005F010F007D010FFA
:10068000009B010F00B9010F00D7010F0023010FDC
:100690000041010F005F010F007D010F009B010F62
:1006A00000B9010F00D7010F0A02010F557D010F9C
:1006B000020C010F6419010F6400010F6400010FA7
:1006C0006419010F6400010F020C010F6464010F33
:1006D0001441010F021E010F147D010F1E02010FB4
:1006E0001423010F6419010F6432010F644B010FD1
:1006F0006464010F6400010F6432010F0000000FF9
:100700001423010F2802010F6923010F6923010F30
:100710006923010F0101010F41A8010F0730010BEF
:100720007887010F0227010F00D8010F0A08010F77
:100730000A10010F0000010F1802010F0023010F22
:100740000041010F007D010F009B010F145F010F9D
:100750001441010F145F010F147D010F149B010F51
:100760006432010F6400010F5A36010F145F010F4C
:08077000147D010F149B010F21
:1007B0004275696C64696E67204D443220486173EC
:1007C000687D506C6561736520576169742E2E2EAB
:1007D0007D7D4865696E72696368735765696B6191
:1007E0006D70204F535443327D7D4D656E753F7D56
:1007F0004D656E753A7D4C6F67626F6F6B7D4761BB
:10080000732053657475707D5365742054696D65EC
:100810007D7D5265736574204D656E757D7D536574
:100820007475707D457869747D7D576169742E2E6D
:100830007D7D4D443220486173683A7D4465736123
:10084000747D496E746572666163657D537461720F
:10085000747D446174617D7D4865616465727D7DF0
:1008600050726F66696C657D446F6E652E7D436165
:100870006E63656C2052657365747D7D54696D652A
:100880003A7D446174653A7D53657420486F757292
:10089000737D52657365742E2E2E7D7D4C6F67625D
:1008A0006F6F6B7D437573746F6D2046756E6374E7
:1008B000696F6E7320497D7D5265736574204D6547
:1008C0006E757D7D5365742054696D653A7D4D6FFD
:1008D00072657D7D4465636F706C616E7D7D47617F
:1008E000736C6973747D4D6F72657D7D4578697435
:1008F0007D7D4E6F466C797D5374617274204469BE
:100900007665205B636D5D7D456E64204469766528
:100910002020205B636D5D7D456E642044656C61C5
:10092000792020205B735D7D506F776572204F6664
:10093000662020205B735D7D5072652D6D656E7540
:10094000202020205B735D7D76656C6F6369747910
:100950005B6D2F6D696E5D7D57616B652D757020C8
:10096000205B6D4261725D7D6D61782E537572669C
:100970002E5B6D4261725D7D474620646973706CC9
:10098000617920205B255D7D6D696E2E204F3220C0
:100990004469732E5B255D7D44697665206D656EC7
:1009A000757320205B735D7D53617475726174652E
:1009B000207820205B255D7D4465736174757261CC
:1009C000746520785B255D7D4E6F466C79205261A1
:1009D00074696F205B255D7D474620616C61726D97
:1009E000203120205B255D7D6E6F742075736564FA
:1009F000202020202020207D4465636F204F6666E4
:100A00007365745B646D5D7D70704F32206C6F77C1
:100A1000205B634261725D7D70704F322068696750
:100A2000685B634261725D7D73686F772070704FA1
:100A3000325B634261725D7D73616D706C696E677C
:100A4000207261746520207D44697669736F72201D
:100A500054656D702020207D44697669736F722023
:100A60004465636F6461747D44697669736F722055
:100A70004E6F74557365317D44697669736F72206A
:100A800070704F322020207D44697669736F722028
:100A9000446562756720207D44697669736F7220B2
:100AA0004E6F74557365327D73686F7720434E5374
:100AB000202020205B255D7D4C6F67626F6F6B206F
:100AC0006F6666736574207D4C6173742044656342
:100AD0006F2061745B6D5D7D456E642041706E6F4B
:100AE00065205B6D696E5D7D53686F77205662612E
:100AF0007474205B3D315D7D546869732070726F42
:100B00006772616D2069737D64697374726962755F
:100B100074656420696E207468657D7D686F70659A
:100B200020746861742069742077696C6C20626538
:100B30007D7D75736566756C2C20627574205749D0
:100B400054484F55547D414E592057415252414EC1
:100B500054593B20776974686F75747D6576656E4E
:100B60002074686520696D706C6965647D7D77614E
:100B70007272616E7479206F667D4D4552434841B3
:100B80004E544142494C495459206F727D7D46492B
:100B9000544E45535320464F5220417D50415254AC
:100BA0004943554C415220505552504F53452E7D8C
:100BB0005365652074686520474E552047656E650E
:100BC00072616C7D5075626C6963204C6963656EFF
:100BD000736520666F727D7D6D6F726520646574CC
:100BE00061696C733A7D7777772E6865696E726993
:100BF0006368737765696B616D702E64657D4465AC
:100C0000636F73746F707D7D6D2F6D696E7D4E6F38
:100C10002053746F707D4465636F73756D7D446997
:100C2000766574696D657D7D44657074687D46691F
:100C3000727374204761733F7D7D44656661756C96
:100C4000743A7D7D4D696E757465737D4D6F6E74FC
:100C50006820207D446179202020207D59656172C3
:100C60002020207D536574207D7D47617323207D86
:100C70005965737D43757272656E743A7D7D5365F7
:100C8000747570204D656E753A7D437573746F6D24
:100C90002046756E6374696F6E73497D4465636F3A
:100CA000747970653A7D5A482D4C3136204F437D1A
:100CB0004761756765202020207D47617567657DE8
:100CC0005A482D4C31362043437D41637469766523
:100CD000204761733F207D7D4761732053657475A4
:100CE00070202D204761736C6973747D4465707446
:100CF00068202B7D4465707468202D7D4261636B94
:100D00007D7D43435220536574506F696E74204D4E
:100D1000656E757D43435220536574506F696E74E0
:100D2000204D656E757D5350237D426174746572EC
:100D30007920496E666F7D7D426174746572792099
:100D4000496E666F726D6174696F6E7D4379636C15
:100D500065733A7D41706E6F657D4C61737420439D
:100D60006F6D706C6574653A7D7D4C6F77657374DB
:100D70002056626174743A7D4C6F7765737420619C
:100D8000743A7D7D546D696E3A7D546D61783A7D1B
:100D9000536574204761737D4F32202B7D7D4F3228
:100DA000202D7D7D4865202B7D7D4865202D7D7D16
:100DB000457869747D7D44656C6574657D7D4465A9
:100DC0006275673A7D7D4F4E207D4F46467D446576
:100DD0006C2E20616C6C7D7D556E657870656374DA
:100DE00065642072657365742066726F6D7D4469F9
:100DF00076656D6F64652120506C65617365206850
:100E0000656C707D616E64207265706F72742074A1
:100E10006865204465627567207D496E666F726DF6
:100E20006174696F6E2062656C6F77217D7D4261B0
:100E3000696C6F75747D41706E6F65202020207D18
:100E400044657363656E747D537572666163657D19
:100E5000517569743F7D4D6F72657D7D436F6E6620
:100E600069726D3A7D7D4D656E7520323A7D4361C4
:100E70006E63656C7D7D4F4B217D53746F70776120
:100E8000742E7D7D4E4F5420555345442121212100
:100E9000217D4E4F542055534544212121212121AC
:100EA00021212121217D4E6F742075736564217D80
:100EB0004E6F7420757365642121217D4C31362D70
:100EC0004746204F437D437573746F6D2046756EA2
:100ED0006374696F6E7349497D7D4746204C6F7717
:100EE0002020202020205B255D7D47462048696723
:100EF0006820202020205B255D7D436F6C6F72236E
:100F00002042617474657279207D436F6C6F722327
:100F1000205374616E646172647D436F6C6F7223E1
:100F200020446976656D61736B7D6E6F7420757397
:100F30006564202020202020207D53686F77207357
:100F40006563732E205B3D315D7D6E6F742075731C
:100F50006564202020202020207D6E6F7420757312
:100F60006564202020202020207D4176722E2044A0
:100F700065707468205B3D315D7D426C696E6B20ED
:100F800047617320205B3D315D7D6E6F742075730A
:100F90006564202020202020207D6E6F74207573D2
:100FA0006564202020202020207D6E6F74207573C2
:100FB0006564202020202020207D6E6F74207573B2
:100FC0006564202020202020207D6E6F74207573A2
:100FD0006564202020202020207D6E6F7420757392
:100FE0006564202020202020207D6E6F7420757382
:100FF0006564202020202020207D6E6F7420757372
:101000006564202020202020207D6E6F7420757361
:101010006564202020202020207D6E6F7420757351
:101020006564202020202020207D6E6F7420757341
:101030006564202020202020207D6E6F7420757331
:101040006564202020202020207D6E6F7420757321
:101050006564202020202020207D6E6F7420757311
:101060006564202020202020207D6E6F7420757301
:101070006564202020202020207D6E6F74207573F1
:101080006564202020202020207D6E6F74207573E1
:101090006564202020202020207D6E6F74207573D1
:1010A0006564202020202020207D6E6F74207573C1
:1010B0006564202020202020207D6E6F74207573B1
:1010C0006564202020202020207D6E6F74207573A1
:1010D0006564202020202020207D437573746F6D6F
:1010E0002046756E6374696F6E732049497D53683D
:1010F0006F77204C6963656E73657D7D4E6F7420DC
:10110000557365642121212121212121217D4E4F0B
:1011100054205553454421212121217D70704F32A7
:10112000202B7D7D70704F32202D7D7D44696C2E8B
:101130007D7D4465636F747970653A205A482D4C03
:101140003136204F437D466F72204F70656E2043CD
:101150006972637569742020207D446976657273B5
:101160002E20537570706F7274732035207D547209
:10117000696D69782047617365732E2020202020D7
:10118000207D436F6E66696775726520796F757231
:1011900020676173207D696E204761737365747584
:1011A00070206D656E752E20207D436865636B2011
:1011B000434631312026204346313220217D44658B
:1011C000636F747970653A204761756765202020E8
:1011D000207D4469766574696D652077696C6C2043
:1011E000626520696E7D4D696E757465733A5365ED
:1011F000636F6E64732E2020207D4F535443322042
:1012000077696C6C206E6F7420202020207D636FC6
:101210006D70757465204465636F2C204E6F466C4D
:10122000797D74696D6520616E64204465736174B5
:101230002E2D2020207D74696D6520617420616CE5
:101240006C21202020202020207D4465636F74794C
:1012500070653A5A482D4C3136204343207D466F05
:1012600072202853656D692D29436C6F7365642066
:10127000207D43697263756974207265627265616D
:1012800074686572737D436F6E66696775726520F9
:101290007468652033202020207D536574506F6969
:1012A0006E747320696E20434352202D207D536558
:1012B000747570206D656E752E2035206261696CC5
:1012C0002D7D6F7574732061726520617661696C24
:1012D00061626C652E7D4465636F747970653A2038
:1012E00041706E6F65202020207D4F535443322083
:1012F00077696C6C20646973706C6179207D6561BD
:1013000063682064657363656E74207365706172D1
:101310002D7D6174656C7920696E204D696E3A533C
:1013200065632E20207D57696C6C2074656D706F2D
:1013300072616C6C79207365747D73616D706C651E
:101340007261746520746F2031207365637D4E6F08
:10135000204465636F2063616C63756C6174696FB1
:101360006E7D4465636F747970653A204C31362D1B
:101370004746204F437D4465636F6D70726573739C
:10138000696F6E2063616C2D207D63756C6174697B
:101390006F6E73207769746820746865207D474696
:1013A0002D4D6574686F64202847465F6C6F2F472A
:1013B000467D5F6869292E20436865636B2043463C
:1013C00033322026207D4346333321204F70656E13
:1013D0002043697263756974207D7769746820445D
:1013E0006565702053746F70732E2020207D4465D6
:1013F000636F747970653A204C31362D474620432F
:10140000437D4465636F6D7072657373696F6E20A1
:1014100063616C2D207D63756C6174696F6E7320E0
:101420007769746820746865207D47462D4D657422
:10143000686F64202847465F6C6F2F47467D5F6862
:1014400069292E20436865636B204346333220268A
:10145000207D4346333321436C6F736564204369B9
:1014600072637569747D776974682044656570205E
:1014700053746F70732E2020207D4465636F6D6FF1
:101480006465206368616E6765642120207D4C314E
:10149000362D47462043437D4E6F7420666F756E30
:1014A000647D536574506F696E747D7D4E6F20440A
:1014B00065636F7D4772617068737D7D4469737089
:1014C0006C61797D4E6F206465636F7D53656172D9
:1014D0006368206D6F64756C657D457869747D7D8A
:1014E00052657365742043462C476173202620445F
:1014F00065636F7D44697361626C65206D6F6475AF
:101500006C657D7D53696D756C61746F727D4F5331
:1015100054432053696D756C61746F727D7D537493
:1015200061727420446976657D7D2B20316D7D7DEF
:101530002D20316D7D7D2B31306D7D7D2D31306DD8
:101540007D7D457869747D7D6E6F74207573657DD2
:10155000787D4461746520666F726D61743A7D7D3B
:101560005365747570204D656E7520323A7D4D4D12
:10157000444459597D7D44444D4D59597D7D5959B7
:101580004D4D44447D7D4F535443207D4261696CF1
:101590007D7D416972207D7D41697220207D43619E
:1015A0006C6962726174657D4D6178204465707408
:1015B000687D6E6F747D666F756E64217D7D6D567E
:1015C0003A7D4E6577204346206164646564217DE1
:1015D0004E657720437573746F6D46756E637469DD
:1015E0006F6E737D77657265206164646564212028
:1015F000436865636B7D4346204920616E642043E8
:1016000046204949204D656E757D666F72204465A0
:101610007461696C73217D7D53616C696E69747945
:101620003A7D426F74746F6D2054696D653A7D7DAB
:101630004D61782E2044657074683A7D43616C6317
:10164000756C617465204465636F7D7D53686F7749
:10165000204465636F706C616E7D4C6561642054DD
:1016600069737D7D4C656164205469737D7D53741D
:101670006F7077617463687D5265736574204C6F19
:1016800067626F6F6B7D5265626F6F74204F53544A
:10169000437D5265736574204465636F6461746152
:1016A0007D7D2C8B01D81200278D05D8279D120037
:1016B0002C8B01D812000B6F800EA66EF86A020EFA
:1016C000F76EFC0EF66E0BC14CF1000E2CBB010E3A
:1016D0004D6F040E4E6F4F6BEEEC0BF04851F6263B
:1016E0004951F7220900F55027BD02D0E8CF7DF01F
:1016F0000900F55027BD02D0E8CF7CF00900F55075
:101700000108E8CF7EF00900F5CF1BF10D6B0E6BE1
:10171000F66AF86A010EF76E01D02C9B0900F550AD
:101720000D27000E0E230B2FF9D72CBBF6D7F86A26
:10173000B00E0D25F66E070E0E21F76E27AD20EECA
:1017400060F009007D0EF56201D00AD0F550DE6E22
:1017500009007D0EF56201D003D0F550DE6EF1D7A1
:1017600027AD24EC0EF0120032C14CF133C14DF123
:101770003C0E4E6F4F6B4FD848C133F14CC132F124
:101780001200D89046334533472FFBD71200D8902C
:101790004B334A3349334833472FF9D71200495165
:1017A000FF08496F4851D890FF08486F12001F97F3
:1017B0005451525D506F55515359516FD8A8120072
:1017C0001F8750C154F151C155F1526953695451A9
:1017D000525D506F55515359516F12004A6B4B6B0C
:1017E0004C514E03F350486FF450496F4C514F0326
:1017F000F3504927F4504A234D514E03F3504927E3
:10180000F4504A23D8B04B2B4D514F03F3504A2785
:10181000F4504B231200486B496B4E514F11D8B412
:10182000FF0C010E476F4FBF05D0472BD8904E37A6
:101830004F37F9D7D890483749374E514C5F4F5101
:10184000D8A04F294D5FD8B005D04E514C274F51ED
:101850004D2301D048814707D8B41200D8904F33A8
:101860004E33E8D7200E476F4B514D6F4A514C6FA6
:101870004951536F4851526F4B6B4A6B496B486BE0
:10188000556B546BD890523753374C374D375437CC
:1018900055374F51555DD8A450EF0CF04E51545D63
:1018A000D8A05AEF0CF04E51545FD8A055074F51B5
:1018B000555FD880483749374A374B37472F42EF73
:1018C0000CF01200D89075337433762FFBD71200CA
:1018D000D8907A33793378337733762FF9D712006B
:1018E0007851FF08786F7751D890FF08776F120012
:1018F0002A978351815D7F6F84518259806FD8A868
:1019000012002A877FC183F180C184F181698269D5
:101910008351815D7F6F84518259806F1200796B92
:101920007A6B7B517D03F350776FF450786F7B5166
:101930007E03F3507827F45079237C517D03F350D4
:101940007827F4507923D8B07A2B7C517E03F3505A
:101950007927F4507A2312000A6FB8EF0CF00000D8
:101960000000000000000000000000000000000077
:101970000000000000000000000000000000000067
:101980000000000000000000000000000000000057
:101990000000000000000000000000000000000047
:1019A00000000000000000000A2FAFEF0CF0120052
:1019B000096FE4EF0CF000000000000000000000E0
:1019C0000000000000000000000000000000000017
:1019D0000000000000000000000000000000000007
:1019E00000000000000000000000000000000000F7
:1019F00000000000000000000000000000000000E7
:101A00000000630EACEC0CF0092FDBEF0CF01200C1
:101A1000630E3261326F32C134F1356B1F950A0E9D
:101A20003A6F366B67D8010E3A6F366B1F8562D8F6
:101A3000120032C134F1356B1F85F1D732C134F158
:101A4000356B1F95640E3A6F366B54D8E8D7259FD7
:101A5000376F1F8B372B372F1F9B238B372B372F3E
:101A6000239B32C134F133C135F11F95100E3A6F0B
:101A7000270E366F1FAD3ED8E80E3A6F030E366F55
:101A800023BB07D025BF03D01F85372D1F9523B952
:101A90001F851FAD2FD81F9D640E3A6F366B27B977
:101AA00024D023BB09D025BF03D01F85372D1F9518
:101AB00023B91F8523BB1F851DD80A0E3A6F366BCD
:101AC00023BB09D025BF03D01F85372D1F9523B910
:101AD0001F8523BB1F8529B708D00CD8010E3A6F8C
:101AE000366B1F8524A506D824952799386B382B8B
:101AF00023991200396B3651355DD8A00ED004E120
:101B00003A51345DD8A009D03651355F3A51345F2F
:101B1000D8A03507392B1F85EED7382F1200382B68
:101B2000300E39251FB504D01FBF04D0200E01D0C0
:101B3000258FDE6E372F12002E0EDE6E23891200E7
:101B4000A96E31D0A96E2BD02B91010EAA6E690E11
:101B500003D02691AA6A640EAD6E238F040EA96E7F
:101B60009D9A9E9ACAEC4BF049D8AECFA8FFBCEC28
:101B70004BF026BF11D017D8BEEC4BF0A8CFADFF6D
:101B800037D8A93EF1D7CCEC4BF09E9A9D8AAA6A31
:101B9000269F239FBBEF49F0FF0EAD6EF4D7A69EA4
:101BA000A69CA6801200A69EA69CA684F29E550E18
:101BB000A76EAA0EA76EA682F28EA6B2FED7A69434
:101BC0001200948C948E240EAC6E900EAB6E080EA8
:101BD000B86EB06A220EAF6EAE6A9E6A9D8A12001F
:101BE000AC6AAB6A9D9A949C949E829C829E1200E1
:101BF000ABAE12000000ACA2FBD712009E9A269F4B
:101C0000436B446B9EBA120000000000000000000D
:101C10009EBA120000000000000000009EBA1200F0
:101C200000000000000000009EBA1200000000004A
:101C3000000000009EBA1200442FE4D7432FE1D7E2
:101C4000AB98AB88268F1200DE6A7BC0FAF17AC0AF
:101C5000F9F134EC5AF00101FAC17BF0F9C17AF0E4
:101C60001200106F10C17DF0210E2DD9D8901035C3
:101C7000000ED8B0010E2CD9D890103529D91200F9
:101C80000F6F0FC17CF0200E1ED9000E21D90F510D
:101C90001FD91200220E17D984807AC083FF809446
:101CA00080847BC083FF80948084210E0CD9D890DF
:101CB0001035000ED8B0010E0BD9D890103710296E
:101CC00007D9200E00D9000E03D90F5101D9220ED9
:101CD000FAD884807AC083FF809480847BC083FF9D
:101CE000809480841200220EEED884807AC083FF14
:101CF000809480847BC083FF809480841200836AF8
:101D000080968194809A8494809484921200F451F5
:101D100024EC10F0F5C11CF11C51B2DFF75131EC8D
:101D20000EF0E1DF1C2B1C51F663F6D71C51A8DF27
:101D3000F75131EC0EF0D7DFF5C11CF11C51A0DFDB
:101D4000F85131EC0EF0CFDF1C2B1C51F663F6D7A7
:101D50001C5196DFF85131EC0EF0C5DFF7C11CF1D4
:101D60001C517FDFF5518CDF95DF1C2B1C51F86374
:101D7000F7D7F7C11CF11C5174DFF65181DF8ADF00
:101D80001C2B1C51F863F7D735EC1AF01200F451F4
:101D900024EC10F0350E97D8F7C11CF1D8901C3503
:101DA000000ED8B0010E94D8D8901C3591D8360EBC
:101DB0008AD8F8C11CF1D8901C35000ED8B0010E9D
:101DC00087D8D8901C3584D8370E7DD8F5C11CF142
:101DD0001C517ED8F6C11CF11C517AD8200E73D844
:101DE000000E76D8F5C11CF11C5172D8210E6BD8AB
:101DF000F7C11CF1D8901C35000ED8B0010E68D880
:101E0000D8901C3565D8220E5ED8F5C11CF1F6C1FC
:101E10001DF11C511D5F1D2BF7C11CF1F8C11EF1F6
:101E20001C511E5F1E2B84801EC11CF17AC083FFD3
:101E3000809480847BC083FF809480847AC083FFF9
:101E4000809480847BC083FF809480841C2FEED795
:101E50001D2FEAD7000E37D835EC1AF01200350ED8
:101E600032D8000E35D8000E33D8360E2CD8010EDD
:101E70002FD83F0E2DD8370E26D8000E29D8EF0EBA
:101E800027D8200E20D8000E23D8000E21D8210EEE
:101E90001AD8000E1DD8000E1BD8220E14D884802C
:101EA000836A0A0E1E6F1E0E1D6F1C6B8094808449
:101EB000809480841C2FFAD71D2FF7D71E2FF3D7BD
:101EC000000E01D812008490836E809480841200EA
:101ED0008480836E8094808412008096200ED8ECDB
:101EE0000CF081840000809A00008482FA0ED8EC05
:101EF0000CF0848400008492020EACEC0CF084821E
:101F00000A0ED8EC0CF0240EDEDF020EDCDF000E31
:101F1000DFDF000EDDDF030ED6DF000ED9DF300E6F
:101F2000D7DF180ED0DF000ED3DF280ED1DFF80E7A
:101F3000CADF000ECDDF0F0ECBDFF90EC4DF000EBF
:101F4000C7DF0F0EC5DF100EBEDF000EC1DF000EB3
:101F5000BFDF0CD884DF8086200ED8EC0CF0050E95
:101F6000B2DF000EB5DF010EB3DF1200700EABDF83
:101F70001F0EAEDF000EACDF710EA5DF230EA8DF53
:101F8000800EA6DF720E9FDF2A0EA2DF800EA0DF7A
:101F9000730E99DF150E9CDF110E9ADF740E93DF1E
:101FA0001C0E96DF110E94DF750E8DDF1B0E90DF79
:101FB000150E8EDF760E87DF1A0E8ADF150E88DF8C
:101FC000770E81DF1C0E84DF180E82DF780E7BDF38
:101FD000210E7EDF150E7CDF1200700E74DF140EF2
:101FE00077DF000E75DF710E6EDF170E71DF000EEA
:101FF0006FDF720E68DF150E6BDF800E69DF730E08
:1020000062DF150E65DF110E63DF740E5CDF140EE8
:102010005FDF0B0E5DDF750E56DF1B0E59DF150EF1
:1020200057DF760E50DF130E53DF0E0E51DF770EA3
:102030004ADF1C0E4DDF180E4BDF780E44DF150E05
:1020400047DF0E0E45DF12002E6F2EC12FF1030E5B
:102050002F17000E2F4F500E2F4FA00E2F4FF80EA0
:10206000306F2EC12FF11C0E2F172F432F43000E60
:102070002F4F040E2F4F080E2F4F0C0E2F4F100E08
:102080002F4F140E2F4F200E2F4F3F0E316F313335
:10209000303331333033313330332EC12FF12E6BA7
:1020A00031332E3331332E3331332E33E00E2F17AD
:1020B0002F432F432F432F432F43000E2F4F040E48
:1020C0002F4F080E2F4F0C0E2F4F100E2F4F140EA8
:1020D0002F4F200E2F4F3F0E316F31332E333133C0
:1020E0002E3331332E3331332E3331332E332EC151
:1020F0007AF030C17BF01200E46F1F0EE46505D06A
:10210000010EAA6E200EE45F01D0AA6AE451040D0C
:10211000F350820FA96ECFEC0DF0A850AA6A1200FE
:10212000E46F1F0EE46505D0010EAA6E200EE45F79
:1021300001D0AA6AE451040DF350820FA96ECFECCE
:102140000DF0A8CF32F1A92ACFEC0DF0A8CF33F1D2
:10215000AA6A12009A0EE36F2A8D03D0240EE36F51
:102160002A9D1F8F2FEC0FF0010EBA6F2199219736
:102170002099AA6BA56B229D229FA0EC2BF0010E4B
:10218000E8CF7FF02AAD04D0BA0E5BEC0BF003D0A1
:102190001B0E5BEC0BF0000EE8CF7FF0010E2AADBA
:1021A000000EAA6EB86B21912193140EE8CF7DF03A
:1021B000230EE8CF7CF020EE60F0AAC132F1000ED1
:1021C0002ABD200E322732C1DCF1386B382B376B39
:1021D00019EC0DF03A0EDE6E200EDE6E24EC0EF0E1
:1021E000E351AA255BEC0BF01F0EDC5DD8B415D0D3
:1021F000260EDC5DD8B411D0270EDC5DD8B40DD02E
:10220000280EDC5DD8B409D0290EDC5DD8B405D029
:102210002A0EDC5DD8B401D003D0010EDC6F01D0F2
:10222000DC6B140EE8CF7DF0410EE8CF7CF020EEA1
:1022300060F02B0EDE6E2F0EDE6E2D0EDE6E3A0E71
:10224000DE6E200EDE6E2B0E22BD2D0EDE6E24EC19
:102250000EF0140EE8CF7DF05F0EE8CF7CF020EE9C
:1022600060F0310EDE6E2F0EDE6E310EDE6E300E41
:10227000DE6E3A0EDE6E200EDE6E310EDE6E300E3B
:1022800022BFDE6E200EDE6E24EC0EF0140EE8CFC0
:102290007DF07D0EE8CF7CF020EE60F0590E54EC1E
:1022A0000BF0A551800FA96ECFEC0DF0A8CF32F145
:1022B000A551810FA96ECFEC0DF0A8CF33F1339F5C
:1022C000386B382B376B375127EC0DF0280EDE6E4C
:1022D000310EA8AE380EDC67310EDE6E350EA8BEAC
:1022E000DE6E420EDE6E290EDE6E200EDE6E200EDB
:1022F000DE6E200EDE6E24EC0EF0140EE8CF7DF0C4
:102300009B0EE8CF7CF020EE60F0610E54EC0BF0F9
:10231000A551820FA96ECFEC0DF0A8CF32F1A551D7
:10232000830FA96ECFEC0DF0A8CF33F1386B382BAB
:10233000376B375127EC0DF0200EDE6E200EDE6E6F
:10234000200EDE6E24EC0EF00B0E5BEC0BF0FAECC4
:1023500012F01FEC1DF0AAEC30F021B30FD021B128
:102360001AD020B3BBEF49F020B1E4EC3CF020B12F
:10237000E3EC42F0209120B91CD0EDD7BA2B070E28
:10238000BA6302D0010EBA6FB86B1FEC1DF0FAEC05
:1023900012F02193E0D7AA6A010E2ABDAA6EBA4FA5
:1023A0000FD0BA4F17D0BA4F19D0BA4F1BD0BA4F6F
:1023B00039D0020E2AAD010EBA6FAA6AABEF13F044
:1023C000AA2BAABBAA6BAA51040DF3CFA5F1010E4B
:1023D000BA6FE4D6227D020EBA6FE0D6227F030EDA
:1023E000BA6FDCD6A551800FA96ECFEC0DF0A8CF47
:1023F00032F1A551810FA96ECFEC0DF0A8CF33F1CA
:10240000339FA551820FA96E32C1A8FFD3EC0DF006
:10241000A551830FA96E33C1A8FFD3EC0DF0040EB4
:10242000BA6FBCD6A551820FA96ECFEC0DF0A8CF24
:1024300032F1A551830FA96ECFEC0DF0A8CF33F187
:10244000A551810FA96ECFEC0DF0A8CFA6F1010E1A
:10245000DC6305D032673269322B336B16D022AD84
:102460000BD0010E22BF0A0E325F000EA6BF335BF7
:102470007F0E33BF336F09D0010E22BF0A0E322701
:10248000000EA6BF332333BF336BA551820FA96E55
:1024900032C1A8FFD3EC0DF0A551830FA96E33C153
:1024A000A8FFD3EC0DF0050EBA6F78D6E46F1F0EBF
:1024B000E46505D0010EAA6E200EE45F01D0AA6A81
:1024C000E451040DF350800FA96ECFEC0DF0A8CFAE
:1024D00032F1A92ACFEC0DF0A8CF33F1AA6A12008D
:1024E000CF4F14D0CF4F19D01200CF4F0FD0CF4FB6
:1024F00014D0CF4F19D0CF4F1ED0CF4F23D0CF4FB6
:1025000028D0CF4F2FD0CF4F34D012000B0E3DD854
:10251000C0EC12F0020ECF6F12000C0E49D8C0ECC6
:1025200012F0030ECF6F1200110E2FD8C0EC12F074
:10253000040ECF6F1200120E3BD8C0EC12F0050E45
:10254000CF6F1200130E34D8C0EC12F0060ECF6F0E
:102550001200060ECF6F1D0E3ED8C0EC12F0070E13
:10256000CF6F1200200E24D8C0EC12F0080ECF6FEF
:102570001200210E1DD8C0EC12F0010ECF6F120018
:10258000326F326712003CEF29F0396F90EC10F097
:1025900032C152F133C153F1395156EC12F032C10C
:1025A00054F133C155F1D7EC0BF01FA7FF0C000C11
:1025B000396F90EC10F032C154F133C155F13951FB
:1025C00056EC12F032C152F133C153F1D7EC0BF09B
:1025D0001FA7FF0C000C396F90EC10F032C154F1C2
:1025E00033C155F1CFC152F1536BD7EC0BF01FA79C
:1025F000FF0C000C280E2BA3C80EE56F050ED8ECBF
:102600000CF081B008D0E52FF9D781B006D02B832C
:1026100024872499120081A2F1D7249724992B931F
:10262000C8EC4BF012002B97010EBA6F1F9F2FECD6
:102630000FF0B86B209921912193208F2187B9EC5D
:102640001DF01FEC1DF02497249940EC13F021B1EC
:1026500024D020AFBBEF49F020B1E4EC3CF020B136
:10266000E3EC42F020B116EC3CF020B17EEC47F0F8
:10267000209120B9BBEF49F020B3BBEF49F0E5D77B
:1026800024A908D02183BA2B060EBA6518D0010EF2
:10269000BA6F15D024B721811200BA4F64EF2DF024
:1026A000BA4F20EF35F0BA4F12EF15F0BA4FA8EF3E
:1026B00013F0BA4F65EF13F0BA4FBBEF49F0B86BA8
:1026C00021B71FEC1DF024991200010EBA6F1F9F55
:1026D0002FEC0FF0B86B209921912193208F218747
:1026E0000DEC1EF01FEC1DF02497249940EC13F024
:1026F000050EBA6304D0060EBA6F1FEC1DF021B1AF
:1027000015D020AF90D720B1E4EC3CF020B1E3EC41
:1027100042F020B116EC3CF020B17EEC47F0209165
:1027200020B981D720B3BBEF49F0E0D7BA4FB5EF5E
:1027300016F0BA4FE0EF32F0BA4F02EF34F0BA4F72
:10274000AFEF4AF0BA4FAFEF4AF0050EBA6F6ED74F
:102750002B97010EBA6F1F9F2FEC0FF0D7EC1DF0D7
:10276000B86B209921912193208F2187F5EC13F0EC
:10277000A1EC14F01FEC1DF02497249940EC13F009
:1027800021B117D020AFBBEF49F020B1E4EC3CF011
:1027900020B1E3EC42F020B116EC3CF020B17EEC2D
:1027A00047F0209120B9BBEF49F020B3BBEF49F0CF
:1027B000E5D7BA4FAEEF10F0BA4FAAEF10F0BA4F0C
:1027C000ACD0BA4F03D0BA4F5CD036D02B87220E94
:1027D000A2EC0DF0A82A060EA86201D0A86AD3ECDC
:1027E0000DF0040EBA6F2499BBD7220EA2EC0DF0A7
:1027F000A86604D0650E5BEC0BF01200A82E04D086
:10280000660E5BEC0BF01200A82E04D0680E5BEC99
:102810000BF01200A82E04D08A0E5BEC0BF0120015
:10282000A82E04D0980E5BEC0BF01200A82E12001C
:10283000EC0E5BEC0BF012002BA7BBEF49F02FEC7A
:102840000FF0A0EC2BF0010EE8CF7FF0EB0E5BEC6D
:102850000BF0000EE8CF7FF0220EA2EC0DF0070E79
:10286000A802F350C10FBA6F070E396FBA515BEC73
:102870000BF0BA2B392FFAD71E0E58EC4AF0BBEFEB
:1028800049F0010EBA6F1F9F2FEC0FF0F5EC1DF011
:10289000B86B209921912193208F218703EC15F0AB
:1028A000DDEC14F01FEC1DF02497249940EC13F09C
:1028B000040EBA6304D0060EBA6F1FEC1DF021B1EE
:1028C00017D020AFBBEF49F020B1E4EC3CF020B1D1
:1028D000E3EC42F020B116EC3CF020B17EEC47F086
:1028E000209120B9A8EF13F020B3BBEF49F0DED759
:1028F000BA4F54D0BA4F74D0BA4F07D0BA4F28D776
:10290000BA4F26D7050EBA6F26D738EC4AF053ECEB
:102910004AF0030EBA6F2499B6D71A0EA2EC0DF046
:10292000A82A630EA8640AD0690EA86007D01A0E00
:10293000A0EC0DF0030EBA6F249912D7640EA86EA6
:10294000F6D71A0EA2EC0DF0630EA86421D8690E1A
:10295000A8601ED85F0EE8CF7CF0530EE8CF7DF064
:10296000000EE8CF7EF020EE60F0A8CF32F1336B9E
:102970001F8F030E27EC0DF01F9F6B0EDE6E670E90
:10298000DE6E2F0EDE6E6C0EDE6E24EC0EF012008C
:10299000640EA86E1A0EA0EC0DF012005B0EA2ECF5
:1029A0000DF0A82A020EA86401D0A86A5B0EA0EC64
:1029B0000DF0010EBA6F24996BD75B0EA2EC0DF0EF
:1029C000A86604D0030E58EC0BF01200A82E04D019
:1029D000040E58EC0BF01200050E58EC0BF0120030
:1029E000270EA2EC0DF0A82A010EA86401D0A86A57
:1029F000270EA0EC0DF02A85010EA8622A95020E82
:102A0000BA6F249945D7270EA2EC0DF0A86603D023
:102A1000830E5BEC0BF0A806A866F6D6820E5BEC84
:102A20000BF01200010EBA6F2FEC0FF028EC1EF025
:102A3000B86B209921912193208F218728EC1EF0DB
:102A40001FEC1DF02497249940EC13F021B116D00F
:102A500020AFE9D520B1E4EC3CF020B1E3EC42F04A
:102A600020B116EC3CF020B17EEC47F0209120B96B
:102A700013EF13F020B3BBEF49F0E6D7BA4F08D0FD
:102A8000BA4F3AD0BA4F16D0BA4F05D0BA4F20D06D
:102A9000030EBA6FCBD591EC21F0BA6FBA6701D0B3
:102AA000F7D77FEC0EF0000E9B6E7E0ED36EFF000C
:102AB00000EF00F091EC21F0BA6FBA6701D0E8D7CF
:102AC0002FEC0FF0190E5BEC0BF08EEC16F0E0D74C
:102AD00091EC21F0BA6FBA6701D0DAD72FEC0FF082
:102AE000190E5BEC0BF08DC100F58EC101F520ECE9
:102AF00080F00101BBEF49F091EC21F0BA6FBA67A9
:102B000001D0C6D72FEC0FF0190E5BEC0BF08DC186
:102B100000F58EC101F520EC80F00101AA6A030ED8
:102B2000A96E336B150EE2D8150EE0D8150EDED85F
:102B3000150EDCD8150EDAD8150ED8D8010EA86EF1
:102B4000210EA0EC0DF0A86A220EA0EC0DF0A86AF0
:102B5000230EA0EC0DF0000EA86A270EA0EC0DF0DD
:102B6000A86A5A0EA0EC0DF0A86A5B0EA0EC0DF05E
:102B7000640E1A0EA0EC0DF01F0EA86E1B0EA0EC3A
:102B80000DF0A86A1C0EA0EC0DF0A86A1D0EA0ECBA
:102B90000DF0A86A1E0EA0EC0DF0A86A1F0EA0ECA6
:102BA0000DF0A86A200EA0EC0DF0640EA86E240EA5
:102BB000A0EC0DF0250EA0EC0DF0260EA0EC0DF013
:102BC000010ECC6FCD6B7F0EA96E336B640E8ED869
:102BD0001E0E8CD8F00E8AD8780E88D8050E86D8AE
:102BE000070E84D8040E336F338F880E7FD8040EFF
:102BF000336F338F4C0E7AD8140E78D8140E76D8E3
:102C00001E0E74D86E0E72D85A0E70D83C0E6ED846
:102C1000640E6CD8640E6AD80A0E68D8130E66D893
:102C2000A00E64D8960E62D80A0E60D8060E5ED842
:102C3000060E5CD8000E5AD8000E58D80C0E56D886
:102C4000000E54D8140E52D8336B338F000E4ED86A
:102C5000030E4CD80A0E4AD8000E48D8010EAA6EB0
:102C60007F0EA96E336B1E0E41D85A0E3FD8DF0E71
:102C70003DD8FF0E3BD8E00E39D8000E37D8000EF5
:102C800035D8000E33D8000E31D8000E2FD8000EE4
:102C90002DD8000E2BD8000E29D8000E27D8000EF4
:102CA00025D8000E23D8000E21D8000E1FD8000E04
:102CB0001DD8000E1BD8000E19D8000E17D8000E14
:102CC00015D8000E13D8000E11D8000E0FD8000E24
:102CD0000DD8000E0BD8000E09D8000E07D8000E34
:102CE00005D8000E03D8AA6ABBEF49F0326FA92AB3
:102CF00032C1A8FFD3EC0DF0A92A33C1A8FFD3EC51
:102D00000DF0A92A32C1A8FFD3EC0DF0A92A339FF8
:102D100033C1A8FFD3EC0DF0336B1200BD6BBE6B5B
:102D2000020E366F376B400E3A6F23933B693B516F
:102D300062EC2CF03A2FFAD7C58418EC2DF0070E70
:102D4000D8EC0CF0372FEFD7362FECD72393BD6B91
:102D5000BE6BFD0E56EC2CF0FD0E56EC2CF0FE0E6C
:102D600056EC2CF0BD6BBE6B12002FEC0FF02195D2
:102D700021992197B86B2191219320992291229337
:102D80002295BB6BA0EC2BF0010EE8CF7FF01D0E5F
:102D90005BEC0BF0000EE8CF7FF0160E5BEC0BF057
:102DA000170E5BEC0BF0EFEC16F0180E5BEC0BF073
:102DB0002497249924B7B4EC17F024B980EC17F0C9
:102DC00021B942D020B1E4EC3CF020B1E3EC42F078
:102DD000209120B991D020B3BBEF49F0EBD7460E3C
:102DE000E8CF7DF0410EE8CF7CF020EE60F005C129
:102DF00032F1386B382B376B19EC0DF03A0EDE6E72
:102E000004C132F1386B382B376B19EC0DF0200E02
:102E1000DE6E200EDE6E24EC0EF0460EE8CF7DF066
:102E20005F0EE8CF7CF020EE60F007C1F1F106C143
:102E3000F2F108C1F3F10DEC24F0200EDE6E200E4D
:102E4000DE6E24EC0EF0120007C132F1324F1F0E7D
:102E5000324F1C0E324F1F0E324F1E0E324F1F0EBE
:102E6000324F1E0E324F1F0E324F1F0E324F1E0EAC
:102E7000324F1F0E324F1E0E324F1F0E066502D00C
:102E8000010E066F200EE8CF7DF09B0EE8CF7CF0A0
:102E9000080E396F99EC1CF0050E0A6F036B209138
:102EA00020A1FED720910DEC17F0460EE8CF7DF063
:102EB000410EE8CF7CF020EE60F005C132F1386BB6
:102EC000382B376B19EC0DF03A0EDE6E04C132F17F
:102ED000386B382B376B19EC0DF03A0EDE6E03C1F0
:102EE00032F1386B382B376B19EC0DF0200EDE6E9B
:102EF00024EC0EF00A2FD4D7010EBA6F67EF13F04F
:102F000022B12189BB2BBBC1BCF1BC4F2185BC4F79
:102F10002285BC4F2283BC4F2281200EE8CF7DF05A
:102F20009B0EE8CF7CF020EE60F05E0E54EC0BF0D0
:102F3000BBC1BCF1BC2F04D05A0E54EC0BF00FD027
:102F4000BC2F04D05B0E54EC0BF009D0BC2F04D086
:102F50005C0E54EC0BF003D05D0E54EC0BF024EC43
:102F60000EF0FAEC12F012002499036B22B120D07B
:102F700022B310D022B515D021B506D0052B170EDF
:102F800005651CD0056B1AD0042B3B0E046516D0CA
:102F9000046B14D0062B1F0E066510D0010E066FB1
:102FA0000DD0072B0C0E076509D0010E076F06D058
:102FB000082B140E086502D0080E086FEFEC16F00F
:102FC000FAEC12F012007C6B080E7B6F6CC17DF185
:102FD0006DC17EF18FEC0CF0100E7727270E782351
:102FE00072C181F173C182F177C183F178C184F13B
:102FF00078EC0CF07FC185F180C186F12AB71ED034
:10300000239585C17BF186C17CF185C17DF186C1A7
:103010007EF18FEC0CF0110E766F68EC0CF085C130
:1030200081F186C182F177C183F178C184F178ECB6
:103030000CF07FC187F180C188F117D0238585C14D
:103040007BF186C17CF185C17DF186C17EF18FEC7B
:103050000CF00F0E766F68EC0CF0855177278651D7
:10306000782377C187F178C188F16AC181F16BC19A
:1030700082F1FA0E836F846B78EC0CF07FC17BF1E8
:1030800080C17CF185C17DF186C17EF18FEC0CF0B1
:1030900077C174F178C175F10C0E766F62EC0CF0AB
:1030A00074C177F175C178F12AA70DD064517727E3
:1030B00065517823100E7727270E782377C189F181
:1030C00078C18AF10FD064C181F165C182F177C105
:1030D00083F178C184F178EC0CF07FC177F180C185
:1030E00078F1E8D766C168F167C169F1C80E682751
:1030F000000E692368C17BF169C17CF185C17DF156
:1031000086C17EF18FEC0CF077C174F178C175F156
:103110000D0E766F62EC0CF074C18BF175C18CF101
:1031200062C174F163C175F1010E766F62EC0CF04F
:1031300074518B2775518C23B80E8B270B0E8C2363
:1031400070C181F171C182F189C183F18AC184F1B9
:1031500078EC0CF07FC17BF180C17CF18BC17DF1FB
:103160008CC17EF18FEC0CF00C0E766F68EC0CF0DD
:103170002AB770EC0CF0E80E7727030E782377C19E
:103180008DF178C18EF125AD04D0C6C18DF1C7C1D6
:103190008EF16EC168F16FC169F1640E6827000E8F
:1031A000692368C17BF169C17CF187C17DF188C168
:1031B0007EF18FEC0CF00B0E766F68EC0CF0249D1A
:1031C00023B509D0C80E7727000E782377C197F171
:1031D00078C198F11200C80E816F826B77C183F1BC
:1031E00078C184F178EC0CF02AB7248D7FC197F177
:1031F00080C198F11200C7D8A00E3D6F0C0E586F19
:10320000FBD81200D6D857C171F156C170F1120027
:10321000BAD8900EF2D7CDD857C173F156C172F11A
:103220001200B1D80D0E586F540E3D6FE5D8C1D8BD
:1032300057C15BF156C15AF10D0E586F580E3D6FD4
:10324000DBD8B7D857C15DF156C15CF10D0E586F90
:10325000640E3D6FD1D8ADD857C15FF156C15EF154
:103260000D0E586F680E3D6FC7D8A3D857C161F1D6
:1032700056C160F15BC163F1D8906333D89063337A
:10328000D89063335AC162F1D8805BA1D890623381
:10329000D8805BA3D8906233D8805BA5D890623386
:1032A0005CC164F1D8805DA1D8906433D8805DA3FF
:1032B000D8906433D8805DA5D8906433D8805DA75A
:1032C000D8906433D8805DA9D8906433D8805DAB42
:1032D000D89064335DC165F1D8805AA1D890653328
:1032E000D8805AA3D8906533D8805AA5D890653332
:1032F000D8906533D8906533D89065335FC166F157
:10330000D8805EAFD8906637D8805EADD8906637EB
:10331000676B5FBF67835FBD678161C16AF1D880FA
:1033200060AFD8906A376B6B61BF6B815EC16CF127
:103330006C9D5CB16C8D6C9F5CB36C8F6D6B5CB580
:103340006D815CB76D835CB96D855CBB6D876F6BA0
:1033500060C16EF16E9F239F120080820000808EFC
:10336000000000000000000000000000809E12002D
:1033700080920000808E000000000000000000002D
:103380000000809E1200E9DFF3DFE7DFF1DFE5DF19
:10339000EFDFE3DFEDDFE1DFEBDFDFDFE9DFDDDF05
:1033A000E7DFDBDFE5DFE4DFE3DFE2DFE1DFE0DF14
:1033B0001200080E586F10D83DC157F1080E586F13
:1033C0000BD83DC156F1808E0000000000000000C7
:1033D00000000000809E1200808E000000000000AF
:1033E000000000000000809E80A8D89080B8D8809F
:1033F0003D37582FF1D71200809E8082030E585F10
:10340000808E000000000000000000000000809E90
:10341000000000000000000000000000808E00009E
:1034200000000000000000000000809E000000007E
:103430000000000000000000808E0000000000007E
:10344000000000000000809E3DAF80923DBF808262
:10345000D8903D37808E0000000000000000000082
:103460000000809E582FF0D71200230E7CEC10F045
:1034700024EC10F01200240E7CEC10F024EC10F080
:103480001200DB6FD9C1DAF1D8C1D9F1D7C1D8F1B7
:10349000D6C1D7F1D5C1D6F1DBC1D5F12AA512002D
:1034A000C80EE8CF7CF0640EE8CF7DF0000EE8CFC8
:1034B0007EF0000EE8CF7FF035EC1AF020EE60F0E1
:1034C000D551DE6ED651DE6ED751DE6ED851DE6E2E
:1034D000D951DE6EDA51DE6E200EDE6E24EC0EF077
:1034E0001200C0EC4BF0D0EC4BF06DEC0FF02FEC79
:1034F0000FF035EC1AF0850E5BEC0BF0860E5BECF2
:103500000BF0870E5BEC0BF0880E5BEC0BF0640E9F
:10351000E8CF7CF00A0EE8CF7DF0000EE8CF7EF019
:10352000000EE8CF7FF035EC1AF020EE60F0D551B8
:10353000DE6ED651DE6ED751DE6ED851DE6ED951B9
:10354000DE6EDA51DE6E2E0EDE6E200EDE6E1FC1D6
:1035500032F1386B382B376B1EEC0DF0200EDE6E1F
:1035600020C132F1386B382B376B1EEC0DF024EC98
:103570000EF07D0EE8CF7CF00A0EE8CF7DF0000E55
:10358000E8CF7EF0000EE8CF7FF035EC1AF020EEA9
:1035900060F021C132F1386B382B376B1EEC0DF027
:1035A000200EDE6E22C132F1386B382B376B1EECE9
:1035B0000DF0200EDE6E23C132F1386B382B376BE5
:1035C0001EEC0DF0200EDE6E24C132F1386B382B6C
:1035D000376B1EEC0DF0200EDE6E25C132F1386B1C
:1035E000382B376B1EEC0DF024EC0EF0960EE8CF66
:1035F0007CF00A0EE8CF7DF0000EE8CF7EF0000EE2
:10360000E8CF7FF035EC1AF020EE60F026C132F101
:10361000386B382B376B1EEC0DF0200EDE6E27C199
:1036200032F1386B382B376B1EEC0DF0200EDE6E4E
:1036300028C132F1386B382B376B1EEC0DF0200EA1
:10364000DE6E29C132F1386B382B376B1EEC0DF072
:10365000200EDE6E2AC132F1386B382B376B1EEC30
:103660000DF024EC0EF024A7FED7BEEC4BF01200B8
:103670003BEC1AF00B0E58EC0BF0560E5BEC0BF01B
:10368000570E5BEC0BF035EC1AF01200000EE8CF91
:10369000F4F13C0EE8CFF5F1EF0EE8CFF6F15A0E5B
:1036A000E8CFF7F19F0EE8CFF8F1C7EC0EF092ECFF
:1036B0001EF0FCEC1EF01200E9DF3BEC1AF0540E99
:1036C0005BEC0BF035EC1AF0080E396F910EE8CF79
:1036D0007CF0000EE8CF7DF099EC1CF012002BB5C9
:1036E00012007A0E41EC1AF0B90EE8CF7CF0770E9A
:1036F000E8CF7DF0010EE8CF7EF0000EE8CF7FF03E
:1037000035EC1AF020EE60F022C532F1386B382B20
:10371000376B1EEC0DF0270EDE6E24EC0EF0000E63
:10372000E8CF7EF01200B2DF3BEC1AF0550E5BECF6
:103730000BF035EC1AF012002BB5120020BF31D07F
:10374000790E41EC1AF03BEC1AF0520E5BEC0BF0E8
:1037500035EC1AF0760EE8CF7CF05E0EE8CF7DF007
:10376000010EE8CF7EF0000EE8CF7FF035EC1AF0C6
:1037700020EE60F02BC532F1386B382B376B08EC3C
:103780000DF06D0EDE6E24C532F1386B382B376BC1
:1037900008EC0DF0270EDE6E24EC0EF0000EE8CFE4
:1037A0007EF02BB51200780E41EC1AF0B90EE8CF7E
:1037B0007CF0770EE8CF7DF0010EE8CF7EF0000EB2
:1037C000E8CF7FF035EC1AF020EE60F031C532F131
:1037D000C70E3261326F1F9F386B382B376B1EEC70
:1037E0000DF0270EDE6E24EC0EF032C532F1080E1D
:1037F0007CEC10F0326101D067D7770E41EC1AF003
:10380000910EE8CF7CF0000EE8CF7DF0000EE8CFFF
:103810007EF035EC1AF020EE60F0470EDE6E460EBC
:10382000DE6E3A0EDE6E32C532F1386B382B376BF6
:103830001EEC0DF0250EDE6E200EDE6E24EC0EF07A
:103840001200410EE8CF7CF0690EE8CF7DF0000E4B
:10385000E8CF7EF035EC1AF020EE60F0EBC132F1EB
:103860001F8F386B382B376B1EEC0DF01F9F6D0EC2
:10387000DE6E690EDE6E6E0EDE6E200EDE6E24ECE7
:103880000EF05F0EE8CF7CF0640EE8CF7DF0000E06
:10389000E8CF7EF035EC1AF020EE60F0ECC132F1AA
:1038A0001F8F386B382B376B1EEC0DF01F9F6D0E82
:1038B000DE6E200EDE6E24EC0EF012002BB5120030
:1038C000760E41EC1AF05A0EE8CF7CF0000EE8CFED
:1038D0007DF0000EE8CF7EF035EC1AF020EE60F0BF
:1038E0002D0E1FB72B0EDE6E45C132F1386B382B13
:1038F000376B08EC0DF0530E54EC0BF024EC0EF08B
:103900002B891200080E396F5A0EE8CF7CF0000E9A
:10391000E8CF7DF02B990DD0060E396F020EE8CF5F
:103920007CF0730EE8CF7DF004D0010EE8CF7EF07E
:1039300003D0000EE8CF7EF020EE60F0200EDE6EA9
:10394000392FFCD724EC0EF0000EE8CF7EF01200E9
:10395000630E41EC1AF0320EE8CF7CF0000EE8CF97
:103960007DF0000EE8CF7EF0000EE8CF7FF035EC62
:103970001AF020EE60F019C132F1326705D01AC199
:1039800032F1326701D039D02DAF34D0B72F01D00A
:1039900034D02D8F060EB76125D819C132F11AC166
:1039A00033F1B4EC0BF0335132C133F1326F490EC5
:1039B000DE6E6E0EDE6E740EDE6E3A0EDE6E386BEE
:1039C000382B376B19EC0DF03A0EDE6E33C132F145
:1039D000386B382B376B19EC0DF0200EDE6E24ECB3
:1039E0000EF012002D9F050EB76F12002D8F050EE1
:1039F000B76F1200B72F01D0CCD72D9F060EB7613D
:103A0000F5DF05C132F1386B382B376B19EC0DF04F
:103A10003A0EDE6E04C132F1386B382B376B19EC7D
:103A20000DF03A0EDE6E03C132F1386B382B376B76
:103A300019EC0DF0200EDE6E24EC0EF01200230EB9
:103A4000E8CF7CF0000EE8CF7DF0000EE8CF7EF0EE
:103A5000000EE8CF7FF035EC1AF020EE60F0B80EE3
:103A6000DE6E24EC0EF0410EE8CF7CF0000EE8CFC5
:103A70007DF0000EE8CF7EF0000EE8CF7FF035EC51
:103A80001AF020EE60F0B80EDE6E24EC0EF05F0E41
:103A9000E8CF7CF0000EE8CF7DF0000EE8CF7EF09E
:103AA000000EE8CF7FF035EC1AF020EE60F0B80E93
:103AB000DE6E24EC0EF07D0EE8CF7CF0000EE8CF39
:103AC0007DF0000EE8CF7EF0000EE8CF7FF035EC01
:103AD0001AF020EE60F0B80EDE6E24EC0EF09B0EB5
:103AE000E8CF7CF0000EE8CF7DF0000EE8CF7EF04E
:103AF000000EE8CF7FF035EC1AF020EE60F0B80E43
:103B0000DE6E24EC0EF0B90EE8CF7CF0000EE8CFAC
:103B10007DF0000EE8CF7EF0000EE8CF7FF035ECB0
:103B20001AF020EE60F0B80EDE6E24EC0EF0BAC192
:103B300039F1394F230E394F410E394F5F0E394F4E
:103B40007D0E394F9B0E394FB90EE8CF7CF0000E39
:103B5000E8CF7DF0000EE8CF7EF0000EE8CF7FF0DA
:103B600035EC1AF020EE60F0B70EDE6E24EC0EF0AD
:103B70001200A0EC2BF0010EE8CF7FF0050E5BECFD
:103B80000BF0000EE8CF7FF0060E5BEC0BF0070E9B
:103B90005BEC0BF0090E5BEC0BF00A0E5BEC0BF030
:103BA0008E0E5BEC0BF00B0E5BEC0BF01200A0EC3E
:103BB0002BF0010EE8CF7FF0620E5BEC0BF0000EF5
:103BC000E8CF7FF0630E5BEC0BF0990E5BEC0BF033
:103BD000140E58EC0BF0640E5BEC0BF08E0E5BECED
:103BE0000BF00B0E5BEC0BF01200A0EC2BF0010EB7
:103BF000E8CF7FF0020E58EC0BF0000EE8CF7FF01C
:103C0000010E58EC0BF0810E5BEC0BF0BB0E5BEC85
:103C10000BF00B0E5BEC0BF01200A0EC2BF0010E86
:103C2000E8CF7FF0900E5BEC0BF0000EE8CF7FF05A
:103C3000080E5BEC0BF06E0E5BEC0BF0710E5BECA8
:103C40000BF0F70E5BEC0BF00B0E5BEC0BF01200C5
:103C5000A0EC2BF0010EE8CF7FF01C0E5BEC0BF01C
:103C6000000EE8CF7FF0150E5BEC0BF0F50E5BEC71
:103C70000BF01C0E58EC0BF01D0E58EC0BF01E0E4A
:103C800058EC0BF00B0E5BEC0BF01200A0EC2BF0E1
:103C9000010EE8CF7FF0F80E5BEC0BF0000EE8CFE2
:103CA0007FF0F90E5BEC0BF0150E58EC0BF0160ED6
:103CB00058EC0BF0170E58EC0BF0180E58EC0BF0FC
:103CC0000B0E5BEC0BF01200650E41EC1AF097C185
:103CD00099F198C19AF1640EE8CF7CF0000EE8CF1C
:103CE0007DF0000EE8CF7EF0000EE8CF7FF035ECDF
:103CF0001AF020EE60F02D0E24BDDE6E97C132F179
:103D000098C133F1030E386F1F8F020E27EC0DF0B0
:103D10001F9FB00EDE6E430EDE6E200EDE6E24ECB4
:103D20000EF012002BB51200750E41EC1AF097C17F
:103D300099F198C19AF1D80EE8CF7CF0410EE8CF06
:103D40007DF0000EE8CF7EF0000EE8CF7FF035EC7E
:103D50001AF020EE60F02D0E24BDDE6E97C132F118
:103D600098C133F1030E386F1F8F020E27EC0DF050
:103D70001F9FB00EDE6E200EDE6E24EC0EF01200E1
:103D8000740E41EC1AF0780EE8CF7CF0000EE8CF0C
:103D90007DF0000EE8CF7EF035EC1AF020EE60F0FA
:103DA000700EDE6E700EDE6E4F0EDE6E320EDE6E4A
:103DB0003A0EDE6E48C132F149C133F12987010E56
:103DC00027EC0DF02997200EDE6E24EC0EF0120089
:103DD0000A0E396F780EE8CF7CF0000EE8CF7DF048
:103DE00099EC1CF01200C00EE8CF7CF0410EE8CF39
:103DF0007DF0050E396F9DD52ABB12002BB5120040
:103E0000730E41EC1AF0C00EE8CF7CF0410EE8CF03
:103E10007DF0000EE8CF7EF0000EE8CF7FF035ECAD
:103E20001AF0640E10C532F1D880325511C532F146
:103E3000D8803257090E7CEC10F011C533F1326591
:103E400001D005D0336703D0050E396F72D5150E3A
:103E500032630ED033670CD020EE60F0080E51ECC8
:103E60000BF0200E2CBD2A0EDE6E24EC0EF018D0C6
:103E700020EE60F01F8F386B382B376B1EEC0DF087
:103E80002F0EDE6E11C532F1386B382B376B1EECFE
:103E90000DF0200E2CBD2A0EDE6E1F9F24EC0EF0BE
:103EA0002CAD12002A0E7CEC10F0326F010E326342
:103EB00012002D772DA71200F3EC1EF01200550E04
:103EC000E8CF7DF0000EE8CF7EF0000EE8CF7FF067
:103ED000AA6A220EA2EC0DF0A86620D07D0EE8CFD3
:103EE0007CF035EC1AF020EE60F04F0EDE6E24EC24
:103EF0000EF0550EE8CF7DF0000EE8CF7EF0000EFC
:103F0000E8CF7FF0960EE8CF7CF035EC1AF020EE8B
:103F100060F0430EDE6E24EC0EF01200A806A866D8
:103F200001D01200A806A86629D07D0EE8CF7CF04B
:103F300035EC1AF020EE60F0430EDE6E550EE8CF41
:103F40007DF0000EE8CF7EF0000EE8CF7FF024EC8D
:103F50000EF0960EE8CF7CF035EC1AF020EE60F013
:103F6000430EDE6E550EE8CF7DF0000EE8CF7EF0FA
:103F7000000EE8CF7FF024EC0EF01200A806A86631
:103F800001D01200A806A86629D07D0EE8CF7CF0EB
:103F900020EE60F0470EDE6E550EE8CF7DF0000E8D
:103FA000E8CF7EF0000EE8CF7FF035EC1AF024EC7D
:103FB0000EF0960EE8CF7CF020EE60F0460EDE6E3E
:103FC000550EE8CF7DF0000EE8CF7EF0000EE8CF72
:103FD0007FF035EC1AF024EC0EF012007D0EE8CFE5
:103FE0007CF020EE60F0470EDE6E550EE8CF7DF0DF
:103FF000000EE8CF7EF0000EE8CF7FF035EC1AF02F
:1040000024EC0EF0960EE8CF7CF020EE60F0460E29
:10401000DE6E550EE8CF7DF0000EE8CF7EF0000E8C
:10402000E8CF7FF035EC1AF024EC0EF01200000E11
:10403000E8CFF4F1190EE8CFF5F1780EE8CFF6F1FC
:10404000520EE8CFF7F19F0EE8CFF8F1C7EC0EF073
:1040500029B164D06D0E41EC1AF05A0EE8CF7DF014
:10406000000EE8CF7EF01F8F020E0A6F000E096F60
:10407000336B332B040E0A2720EE60F0470EDE6E02
:1040800033C132F1386B382B376B1EEC0DF03A0E22
:10409000DE6E200EDE6E0AC1A9FFCFEC0DF0A8CFB8
:1040A00032F1386B382B376B1EEC0DF02F0EDE6EB5
:1040B000A92ACFEC0DF0A8CF32F1386B382B376B33
:1040C0001EEC0DF01B0EA2EC0DF033C132F1A83244
:1040D000322FFDD7D8B004D04A0E24EC10F005D012
:1040E000230E7CEC10F024EC10F0210EA2EC0DF06D
:1040F000A850336301D009D0190E09275A0EE8CF12
:104100007DF009C17CF024EC0EF0230E7CEC10F065
:1041100024EC10F0050E3363ACD712005A0EE8CF32
:104120007DF0000EE8CF7EF01F8F230E0A6F000E89
:10413000096FE66B0A2BE62B190E09275A0EE8CFFA
:104140007DF009C17CF020EE60F0530EDE6E500E63
:10415000DE6EE6C132F1386B382B376B1EEC0DF09A
:104160003A0EDE6E200EDE6E0AC1A9FFCFEC0DF016
:10417000A8CF32F1336B030E27EC0DF024EC0EF0D8
:10418000030EE663D7D7210EA2EC0DF0A8CFD1F134
:10419000D105040DF350070FA96ECFEC0DF0A8CF99
:1041A00033F1D105040DF350060FA96ECFEC0DF0DD
:1041B000A8CF32F15A0EE8CF7DF0640EE8CF7CF044
:1041C00020EE60F0440EDE6E490EDE6E4C0EDE6EAA
:1041D0003A0EDE6E386B382B376B1EEC0DF02F0E5F
:1041E000DE6E33C132F1386B382B376B1EEC0DF0BD
:1041F00024EC0EF01F9F1200710E41EC1AF02ABB46
:10420000120028BF120029A123D0870EE8CF7CF02E
:104210005A0EE8CF7DF0000EE8CF7EF0000EE8CF1A
:104220007FF035EC1AF020EE60F0240EA2EC0DF0D9
:10423000A8CF32F1336B030E27EC0DF0420EDE6E89
:10424000610EDE6E720EDE6E1F9F24EC0EF057D0F4
:10425000820EE8CF7CF0640EE8CF7DF0010EE8CF4F
:104260007EF0000EE8CF7FF035EC1AF0210EA2ECC4
:104270000DF0A8CFD1F1D105040DF350070FA96EB1
:10428000CFEC0DF0A8CF11F5D105040DF350060FBA
:10429000A96ECFEC0DF0A8CFD0F111C50AF1D880EE
:1042A000640E0A55D880A856A8CF10F5640E10C524
:1042B00032F1D880325511C532F1D880325711C54C
:1042C00033F1150E326306D0336704D0090E58EC73
:1042D0000BF015D020EE60F01F8F386B382B376B4A
:1042E0001EEC0DF02F0EDE6E11C532F1386B382B3F
:1042F000376B1EEC0DF01F9F24EC0EF000D0000E6B
:10430000E8CFF4F17A0EE8CFF5F1AF0EE8CFF6F191
:10431000520EE8CFF7F19F0EE8CFF8F187EC0EF0E0
:104320001200000EE8CFF4F1440EE8CFF5F1920E42
:10433000E8CFF6F1220EE8CFF7F1650EE8CFF8F1FD
:10434000C7EC0EF0230E7CEC10F0E8CFF4F1460E33
:10435000E8CFF5F1900EE8CFF6F1230EE8CFF7F1B4
:10436000640EE8CFF8F187EC0EF08F0E5BEC0BF0EB
:10437000910E5BEC0BF0920E5BEC0BF0010EBA6F42
:10438000000EE8CFF4F1600EE8CFF5F18F0EE8CF24
:10439000F6F1270EE8CFF7F1330EE8CFF8F1C7ECCE
:1043A0000EF0BAC139F1600E394F600E394F780EF8
:1043B000E8CF7CF0270EE8CF7DF0000EE8CF7EF04E
:1043C000000EE8CF7FF035EC1AF020EE60F0B70E6B
:1043D000DE6E24EC0EF020992191219324992497EC
:1043E000B86B640ED8EC0CF0AAEC30F021B315D009
:1043F00021B10ED020B1E4EC3CF020B1E3EC42F06E
:10440000209120B903D020B301D0EED7000C010CCD
:10441000BA4FFCD7BA4FFBD7F9D7BA2B030EBA6302
:1044200002D0010EBA6FACD7720E41EC1AF090C1F7
:1044300033F18FC132F11EEC2CF0270E33616FD0B7
:104440002BBBB5EC22F02B9B20EE60F0030E536FDC
:10445000E80E526F33C155F132C154F1542B000EA6
:104460005523D7EC0BF01FA77DD8180EE8CF7CF0B2
:10447000000EE8CF7DF0020EE8CF7EF0000EE8CF10
:104480007FF035EC1AF0000E536F630E526F33C19C
:1044900055F132C154F1D7EC0BF01FA70AD01F8F92
:1044A0002987386B382B376B375127EC0DF01F9F5E
:1044B00002D0300EDE6E24EC0EF02997010EE8CF0C
:1044C0007EF0320EE8CF7CF0280EE8CF7DF035ECA0
:1044D0001AF090C133F18FC132F11EEC2CF020EEB6
:1044E00060F02E0EDE6E000E536F090E526F33C158
:1044F00055F132C154F1D7EC0BF01FA707D0040ED1
:10450000386F2485000E27EC0DF002D0300EDE6EE1
:1045100024EC0EF02495000EE8CF7EF012002BABB9
:10452000B5EC22F020EE60F0180EE8CF7CF0000E23
:10453000E8CF7DF0020EE8CF7EF0000EE8CF7FF0EE
:1045400035EC1AF029871F8F386B382B376B3751B2
:1045500027EC0DF01F9F24EC0EF02997000EE8CFFA
:104560007EF01200200EDE6E1200000EE8CFF4F195
:10457000180EE8CFF5F15A0EE8CFF6F1000EE8CFAD
:10458000F7F15A0EE8CFF8F1C7EC0EF02B8B1200C2
:10459000680E41EC1AF0960EE8CF7CF0000EE8CFE2
:1045A0007DF0000EE8CF7EF0000EE8CF7FF035EC16
:1045B0001AF020EE60F00E0E54EC0BF0200EDE6EC2
:1045C00020C532F121C533F1B4EC0BF01F8F32510D
:1045D00033C132F1336F386B382B376B1EEC0DF073
:1045E0003A0EDE6E33C132F1386B382B376B19EC73
:1045F0000DF01F9F24EC0EF01200670E41EC1AF034
:104600007D0EE8CF7CF0000EE8CF7DF0000EE8CF05
:104610007EF0000EE8CF7FF035EC1AF020EE60F06F
:10462000230E54EC0BF0200EDE6ECCC132F1CDC166
:1046300033F1B4EC0BF01F8F325133C132F1336FD1
:10464000386B382B376B1EEC0DF03A0EDE6E33C133
:1046500032F1320732BF326B386B382B376B19ECC3
:104660000DF01F9F24EC0EF0120020BD1200620E10
:1046700041EC1AF0190EE8CF7CF0000EE8CF7DF087
:10468000000EE8CF7EF0000EE8CF7FF035EC1AF098
:1046900020EE60F08DC132F18EC133F11F8F386B87
:1046A000382B376B375127EC0DF01F9F6D0EDE6EE8
:1046B000620EDE6E610EDE6E720EDE6E200EDE6E3D
:1046C00024EC0EF01200660E41EC1AF01F0E7CEC8A
:1046D00010F0326F010E326323D0AF0EE8CF7CF0C2
:1046E000000EE8CF7DF0000EE8CF7EF0000EE8CFA0
:1046F0007FF035EC1AF020EE60F0C2C132F1C3C198
:1047000033F1010E386F24851F8F020E27EC0DF058
:104710001F9F560EDE6E200EDE6E24EC0EF0120091
:10472000230E7CEC10F0E8CFF4F1AE0EE8CFF5F1FB
:10473000C20EE8CFF6F1000EE8CFF7F11F0EE8CF7A
:10474000F8F187EC0EF0100E526F0E0E536FC2C1CF
:1047500054F1C3C155F1D7EC0BF01FB748D0B80ED8
:10476000546F0B0E556FC2C152F1C3C153F1D7EC58
:104770000BF01FB739D050C14CF151C14DF1140E9F
:104780004E6F4F6B0BEC0CF048C10AF1020E0A653C
:104790000A6F230E7CEC10F0E8CFF4F1B50EE8CFF1
:1047A000F5F1BB0EE8CFF6F11F0EE8CFF7F1210EC1
:1047B000E8CFF8F187EC0EF0220E7CEC10F0E8CF99
:1047C000F4F1AF0EE8CFF5F1C10EE8CFF6F1010E2E
:1047D000E8CFF7F10AC1F8F1C7EC0EF0230E7CEC3C
:1047E00010F024EC10F01200010E0A6FD2D71E0E4A
:1047F0000A6F230E7CEC10F0E8CFF4F1B50EE8CF91
:10480000F5F1BB0EE8CFF6F11F0EE8CFF7F1210E60
:10481000E8CFF8F1C7EC0EF0CFD75B0EA2EC0DF0AD
:10482000A8660ED0F1C132F11F8F386B382B376B71
:1048300019EC0DF01F9F2F0EDE6EF2C132F112D077
:104840005B0EA2EC0DF0A82E1FD0F2C132F11F8F2B
:10485000386B382B376B19EC0DF01F9F2F0EDE6E67
:10486000F1C132F11F8F386B382B376B19EC0DF01B
:104870001F9F2F0EDE6EF3C132F11F8F386B382B66
:10488000376B19EC0DF01200F3C132F11F8F386B4A
:10489000382B376B19EC0DF01F9F2F0EDE6EF1C118
:1048A00032F11F8F386B382B376B19EC0DF01F9FCF
:1048B0002F0EDE6EF2C132F11F8F386B382B376B43
:1048C00019EC0DF012005B0EA2EC0DF0A86615D0ED
:1048D000F1C132F11F8F386B382B376B19EC0DF0AB
:1048E0001F9F2F0EDE6EF2C132F11F8F386B382BF7
:1048F000376B19EC0DF01F9F12005B0EA2EC0DF050
:10490000A82EE6D7F2C132F11F8F386B382B376BE8
:1049100019EC0DF01F9F2F0EDE6EF1C132F11F8FCB
:10492000386B382B376B19EC0DF01F9F1200640E9B
:1049300041EC1AF04B0EE8CF7CF0000EE8CF7DF092
:10494000000EE8CF7EF0000EE8CF7FF035EC1AF0D5
:1049500020EE60F007C1F1F106C1F2F108C1F3F1F8
:104960000DEC24F024EC0EF01200000EE8CFF4F170
:10497000000EE8CFF5F11A0EE8CFF6F1410EE8CFC0
:10498000F7F1640EE8CFF8F1C7EC0EF012002BB58A
:104990001200700E41EC1AF0B80EE8CF7CF0000E59
:1049A000E8CF7DF0010EE8CF7EF0000EE8CF7FF07B
:1049B00035EC1AF020EE60F091C132F192C133F182
:1049C0001EEC2CF01F8F2485030E27EC0DF01F9F8B
:1049D0001F9D24EC0EF0000EE8CF7EF0120020BFE9
:1049E0001200410E41EC1AF028BF92D02ABB90D0A1
:1049F000260E7CEC10F0326F010E326301D088D0AD
:104A0000A5C132F1A6C133F11F9F20EE60F0386BD3
:104A1000382B376B1F8D375127EC0DF0140EE8CF74
:104A20007CF0780EE8CF7DF0010EE8CF7EF035EC1B
:104A30001AF024EC0EF0000EE8CF7EF0120020BF3A
:104A400012003BEC1AF08C0E5BEC0BF035EC1AF01C
:104A5000550EE8CF7CF05A0EE8CF7DF0010EE8CF7E
:104A60007EF035EC1AF0E1C132F11F9F20EE60F0CC
:104A7000386B382B376B1EEC0DF03A0EDE6EE2C150
:104A800032F1386B382B376B19EC0DF024EC0EF04B
:104A9000000EE8CF7EF01200000EE8CFF4F13C0EDD
:104AA000E8CFF5F1770EE8CFF6F15A0EE8CFF7F13F
:104AB0009F0EE8CFF8F1C7EC0EF012003BEC1AF0B5
:104AC0008B0E5BEC0BF035EC1AF0910EE8CF7CF01E
:104AD0005A0EE8CF7DF0010EE8CF7EF035EC1AF0EB
:104AE000DCC132F120EE60F0386B382B376B1EECF6
:104AF0000DF03A0EDE6EDDC132F1386B382B376BBC
:104B000019EC0DF024EC0EF0000EE8CF7EF0120050
:104B1000A5C132F1A6C133F11F9F1F8D20EE60F0B9
:104B2000386B382B376B1F8D375127EC0DF03A0E51
:104B3000DE6EA7C132F1386B382B376B19EC0DF0F4
:104B4000140EE8CF7CF05A0EE8CF7DF0010EE8CFCE
:104B50007EF035EC1AF024EC0EF01F9D000EE8CF2D
:104B60007EF01200000EE8CFF4F1360EE8CFF5F13A
:104B7000660EE8CFF6F13E0EE8CFF7F19F0EE8CFD4
:104B8000F8F1C7EC0EF0120020BF1200560E41ECF7
:104B90001AF03BEC1AF01B0E58EC0BF035EC1AF047
:104BA000500EE8CF7CF06E0EE8CF7DF0000EE8CF1F
:104BB0007EF035EC1AF020EE60F017C132F118C12A
:104BC00033F1020E325F000E335BB4EC0BF032C1F6
:104BD0000AF133C132F1336B000E1F9F1F8D386B0A
:104BE000382B376B1F8D375127EC0DF03A0EDE6EE8
:104BF0000AC132F1386B382B376B19EC0DF01F9F5F
:104C000024EC0EF0550E41EC1AF0500EE8CF7CF07B
:104C10003E0EE8CF7DF0000EE8CF7EF035EC1AF0C6
:104C200020EE60F093C132F194C133F11EEC2CF010
:104C30001F8F2485030E27EC0DF01F9F6D0EDE6E77
:104C4000200EDE6E24EC0EF01200610E41EC1AF024
:104C5000000EE8CF7CF0000EE8CF7DF0000EE8CF2C
:104C60007EF0000EE8CF7FF035EC1AF020EE60F019
:104C7000060E51EC0BF0AA6AA96ACFEC0DF0A8CF92
:104C800032F1A92ACFEC0DF0A8CF33F11F8F386B8A
:104C9000382B376B375127EC0DF0200EDE6E560E99
:104CA000DE6E010E326F1F8F386B382B376B1EECA8
:104CB0000DF02E0EDE6E380E326F1F8F386B382BD4
:104CC000376B19EC0DF01F9F24EC0EF012006F0EE5
:104CD00041EC1AF0B5EC24F01F0E5BEC0BF029B19F
:104CE00007D0200E5BEC0BF07A0E5BEC0BF006D0DD
:104CF000EE0E5BEC0BF0890E5BEC0BF0210E5BEC27
:104D00000BF0220E5BEC0BF012006F0E41EC1AF070
:104D1000F00E5BEC0BF0F10E5BEC0BF0190E58ECA7
:104D20000BF0930E5BEC0BF0F40E5BEC0BF012004F
:104D3000640EE8CF7DF0000EE8CF7CF0000EE8CFE7
:104D40007EF035EC1AF020EE60F0530EDE6E650E4C
:104D5000DE6E6C0EDE6E180EA2EC0DF0A8CF32F1F6
:104D60001F9F386B382B376B08EC0DF02F0EDE6E63
:104D7000190EA2EC0DF0A8CF32F1386B382B376B3F
:104D800008EC0DF024EC0EF07B0E5BEC0BF07C0ECF
:104D90005BEC0BF07D0E5BEC0BF07E0E5BEC0BF036
:104DA0001200FE0E5BEC0BF0FA0E5BEC0BF0FB0E50
:104DB0005BEC0BF0FC0E5BEC0BF0FD0E5BEC0BF018
:104DC0001200230E7CEC10F0E8CFF4F17CC0F5F17A
:104DD0007CC0F6F1140EF6277A0EE8CFF7F13227F1
:104DE00032078A0E3261326F32C1F8F1C7EC0EF031
:104DF000000EE8CFF4F17CC0F5F17CC0F6F1140EA2
:104E0000F62732C1F7F1F72B8B0EE8CFF8F1C7EC9C
:104E10000EF01200000EE8CFF4F133C1F5F17D0E73
:104E2000E8CFF6F1640EE8CFF7F19F0EE8CFF8F186
:104E3000C7EC0EF012006E0E41EC1AF02BC532F1E9
:104E4000326706D09BEC28F0EF0E5BEC0BF0120003
:104E50001F8F640EE8CF7DF0000EE8CF7CF0336F3B
:104E600040EC0EF020EE60F02BC532F13251D8B498
:104E70000AEF27F0386B382B376B1EEC0DF06D0EF8
:104E8000DE6E24EC0EF08C0EE8CF7DF0000EE8CF45
:104E90007CF020EE60F024C532F1386B382B376B94
:104EA00019EC0DF0270EDE6E24EC0EF0E1EC26F08E
:104EB000640EE8CF7DF0190EE8CF7CF0336F40EC44
:104EC0000EF020EE60F02CC532F13251D8B40AEF6A
:104ED00027F0386B382B376B1EEC0DF06D0EDE6E45
:104EE00024EC0EF08C0EE8CF7DF0190EE8CF7CF0AC
:104EF00020EE60F025C532F1386B382B376B19EC9A
:104F00000DF0270EDE6E24EC0EF0E1EC26F0640EC0
:104F1000E8CF7DF0320EE8CF7CF0336F40EC0EF03E
:104F200020EE60F02DC532F13251D8B40AEF27F0EF
:104F3000386B382B376B1EEC0DF06D0EDE6E24ECEB
:104F40000EF08C0EE8CF7DF0320EE8CF7CF020EE34
:104F500060F026C532F1386B382B376B19EC0DF049
:104F6000270EDE6E24EC0EF0E1EC26F0640EE8CFA6
:104F70007DF04B0EE8CF7CF0336F40EC0EF020EE6E
:104F800060F02EC532F13251D8B40AEF27F0386BF9
:104F9000382B376B1EEC0DF06D0EDE6E24EC0EF030
:104FA0008C0EE8CF7DF04B0EE8CF7CF020EE60F069
:104FB00027C532F1386B382B376B19EC0DF0270E03
:104FC000DE6E24EC0EF0E1EC26F0640EE8CF7DF00E
:104FD000640EE8CF7CF0336F40EC0EF020EE60F012
:104FE0002FC532F13251D8B40AEF27F0386B382B85
:104FF000376B1EEC0DF06D0EDE6E24EC0EF08C0E99
:10500000E8CF7DF0640EE8CF7CF020EE60F028C59C
:1050100032F1386B382B376B19EC0DF0270EDE6E42
:1050200024EC0EF0E1EC26F012006D0E41EC1AF0CB
:10503000640EE8CF7DF0000EE8CF7EF01F8F020EE9
:105040000A6FE70E096F336B332B040E0A27190E14
:105050000927640EE8CF7DF009C17CF020EE60F0F6
:10506000470EDE6E33C132F1386B382B376B1EECD6
:105070000DF03A0EDE6E0AC1A9FFCFEC0DF0A8CFFD
:1050800032F1386B382B376B1EEC0DF02F0EDE6EC5
:10509000A92ACFEC0DF0A8CF32F1386B382B376B43
:1050A0001EEC0DF01B0EA2EC0DF033C132F1A83254
:1050B000322FFDD74A0ED8A024EC10F024EC0EF0CD
:1050C00035EC1AF0050E3363BFD71200640EE8CF3B
:1050D0007DF0000EE8CF7EF01F8F230E0A6FE70EE3
:1050E000096FE66B0A2BE62B190E092709C17CF024
:1050F000640EE8CF7DF020EE60F0530EDE6E500EB1
:10510000DE6EE6C132F1386B382B376B1EEC0DF0DA
:105110003A0EDE6E0AC1A9FFCFEC0DF0A8CF32F136
:10512000336B030E27EC0DF024EC0EF0030EE66358
:10513000D9D71F9F1200000EE8CFF4F1000EE8CF80
:10514000F5F17D0EE8CFF6F1520EE8CFF7F19F0EA4
:10515000E8CFF8F1C7EC0EF012006C0E41EC1AF03B
:10516000000EE8CF7CF0550EE8CF7DF0000EE8CFC2
:105170007EF0000EE8CF7FF035EC1AF020EE60F004
:10518000B80EDE6E24EC0EF0190EE8CF7CF0550E52
:10519000E8CF7DF0000EE8CF7EF0000EE8CF7FF084
:1051A00035EC1AF020EE60F0B80EDE6E24EC0EF056
:1051B000320EE8CF7CF0550EE8CF7DF0000EE8CF40
:1051C0007EF0000EE8CF7FF035EC1AF020EE60F0B4
:1051D000B80EDE6E24EC0EF04B0EE8CF7CF0550ED0
:1051E000E8CF7DF0000EE8CF7EF0000EE8CF7FF034
:1051F00035EC1AF020EE60F0B80EDE6E24EC0EF006
:10520000640EE8CF7CF0550EE8CF7DF0000EE8CFBD
:105210007EF0000EE8CF7FF035EC1AF020EE60F063
:10522000B80EDE6E24EC0EF0BAC139F1000E394F23
:10523000000E394F190E394F320E394F4B0E394F80
:10524000640EE8CF7CF0550EE8CF7DF0000EE8CF7D
:105250007EF0000EE8CF7FF035EC1AF020EE60F023
:10526000B70EDE6E24EC0EF012007F0E5BEC0BF03E
:10527000800E5BEC0BF01200000EE8CFF4F1380E5C
:10528000E8CFF5F1580EE8CFF6F1450EE8CFF7F18B
:10529000730EE8CFF8F1C7EC0EF0230E7CEC10F0A3
:1052A000E8CFF4F13A0EE8CFF5F1560EE8CFF6F17B
:1052B000460EE8CFF7F1720EE8CFF8F187EC0EF06A
:1052C0003C0EE8CF7CF0470EE8CF7DF0000EE8CF33
:1052D0007EF0010EE8CF7FF03BEC1AF020EE60F09C
:1052E000430EDE6E460EDE6E39C132F1386B382B5E
:1052F000376B1EEC0DF0210EDE6E24EC0EF0000E6E
:10530000E8CF7FF035EC1AF01200680E41EC1AF08D
:10531000690E41EC1AF0000EE8CFF4F1190EE8CF57
:10532000F5F1780EE8CFF6F1520EE8CFF7F19F0EC7
:10533000E8CFF8F1C7EC0EF0230E7CEC10F0E8CFCC
:10534000F4F1190EE8CFF5F1780EE8CFF6F1520E30
:10535000E8CFF7F19F0EE8CFF8F187EC0EF025EEDD
:1053600033F0100E0A6F096B230E7CEC10F0E8CFBF
:10537000F4F11C0E0925E8CFF5F11C0E0925E8CF44
:10538000F6F1092B092B640EE8CFF7F1DECFF8F127
:10539000D890F833D890F833640EF8279D0EF86152
:1053A000F86FC7EC0EF00A2FDFD725EE43F0100E92
:1053B0000A6F096B230E7CEC10F0E8CFF4F1560E67
:1053C0000925E8CFF5F1560E0925E8CFF6F1092BAE
:1053D000092B640EE8CFF7F1DECFF8F1D890F8335F
:1053E000D890F833640EF8279D0EF861F86FC7EC7B
:1053F0000EF00A2FDFD7540EE8CF7DF0200EE8CF55
:105400007CF035EC1AF020EE60F04E0EDE6E320EBF
:10541000DE6E24EC0EF0540EE8CF7DF05A0EE8CF8D
:105420007CF035EC1AF020EE60F0480EDE6E650E72
:10543000DE6E24EC0EF063C50AF120EE60F015EE8E
:1054400033F00A2BE6CF32F10A2FFCD7386B382B1A
:10545000376B1EEC0DF0250EDE6E200EDE6E540E48
:10546000E8CF7DF03E0EE8CF7CF0000EE8CF7EF076
:1054700035EC1AF024EC0EF01F9F230E7CEC10F09C
:10548000E8CFF4F1490EE8CFF5F14A0EE8CFF6F196
:10549000790EE8CFF7F19D0EE8CFF8F187EC0EF02A
:1054A000230E7CEC10F0E8CFF4F13D0EE8CFF5F1DF
:1054B000540EE8CFF6F1790EE8CFF7F17A0EE8CF87
:1054C000F8F1C7EC0EF0230E7CEC10F0E8CFF4F10D
:1054D000410EE8CFF5F1500EE8CFF6F1820EE8CF9D
:1054E000F7F1830EE8CFF8F1C7EC0EF0230E7CEC59
:1054F00010F0E8CFF4F1410EE8CFF5F1500EE8CF0F
:10550000F6F18B0EE8CFF7F18C0EE8CFF8F1C7EC8F
:105510000EF0230E7CEC10F0E8CFF4F1410EE8CF52
:10552000F5F1500EE8CFF6F1940EE8CFF7F1950EB5
:10553000E8CFF8F1C7EC0EF0230E7CEC10F0E8CFCA
:10554000F4F13D0EE8CFF5F1540EE8CFF6F19D0EE3
:10555000E8CFF7F19E0EE8CFF8F1C7EC0EF012009D
:10556000A0EC2BF0010EE8CF7FF0030E5BEC0BF00C
:10557000000EE8CF7FF0440E5BEC0BF0450E5BECC9
:105580000BF0460E5BEC0BF0470E5BEC0BF0480E9D
:105590005BEC0BF0490E5BEC0BF04A0E5BEC0BF096
:1055A0001200A0EC2BF0010EE8CF7FF0030E5BECB5
:1055B0000BF0000EE8CF7FF04B0E5BEC0BF04C0EC7
:1055C0005BEC0BF04D0E5BEC0BF04E0E5BEC0BF05E
:1055D0004F0E5BEC0BF0500E5BEC0BF0510E5BECE6
:1055E0000BF01200A0EC2BF0010EE8CF7FF00F0EB5
:1055F00058EC0BF0000EE8CF7FF0100E58EC0BF0DB
:10560000110E58EC0BF0120E58EC0BF0130E58EC78
:105610000BF012002BB512006A0E41EC1AF0A80E26
:10562000E8CF7CF0410EE8CF7DF0000EE8CF7EF0B1
:10563000000EE8CF7FF035EC1AF020EE60F018C5D0
:1056400032F1326706D0070E51EC0BF024EC0EF06D
:1056500012008DC14CF18EC14DF10A0E4E6F4F6B91
:105660000BEC0CF04967486959C1E8FF486103D069
:1056700048C118F502D059C118F518C532F1336B7D
:105680001F8F030E27EC0DF01F9F24EC0EF012006D
:1056900030EC80F001011A0E58EC0BF020EE60F0B7
:1056A000230EDE6E63C532F163C50AF11F8F386BBE
:1056B000382B376B1EEC0DF0200EDE6E280EDE6EE2
:1056C000100E0A6105D04E0EDE6E320EDE6E04D074
:1056D000480EDE6E650EDE6E290EDE6E200EDE6E6C
:1056E000640EE8CF7DF0190EE8CF7CF0000EE8CF15
:1056F0007EF035EC1AF024EC0EF020EE60F015EEA2
:1057000033F00A2BE6CF32F10A2FFCD7386B382B57
:10571000376B1EEC0DF0250EDE6E200EDE6E640E75
:10572000E8CF7DF0320EE8CF7CF0000EE8CF7EF0BF
:1057300035EC1AF024EC0EF01F9F1200000E03D07F
:10574000230E7CEC10F0E8CFF4F1000EE8CFF5F179
:105750001A0EE8CFF6F1000EE8CFF7F19F0EE8CF72
:10576000F8F1C7EC0EF012002BB5120028BF1200A2
:105770002ABB12002BB912006B0E41EC1AF05A0E24
:10578000E8CF7CF0000EE8CF7DF0000EE8CF7EF091
:1057900035EC1AF020EE60F0430EDE6E4E0EDE6E3B
:1057A000530EDE6E3A0EDE6E65C532F11F8F386B1A
:1057B000382B376B1EEC0DF01F9F250EDE6E24EC90
:1057C0000EF01200400EA2EC0DF0010EA86229D0DE
:1057D000C80EE8CF7CF0000EE8CF7DF0000EE8CFD9
:1057E0007EF0000EE8CF7FF03BEC1AF020EE60F088
:1057F000400E326F180E336F322B0CEC2CF07D0EF6
:10580000A86201D004D0A8CFDEFF332FF5D724EC57
:105810000EF035EC1AF0120032C1A9FFCFEC0DF0FA
:105820001200180E396FC80EE8CF7CF0000EE8CFDA
:105830007DF099EC1CF012001200120025BD120040
:105840001A0EA2EC0DF0A8CF0AF1690E0A6112003F
:10585000630E0A65120032C14CF133C14DF1640E82
:105860004E6F4F6BEEEC0BF00AC14EF14F6B32EC0A
:105870000CF048C132F149C133F112003B6F010E07
:10588000BD27000EBE23BEAF02D0BD6BBE6B3B2F4B
:10589000F6D712003B6F010EBD5F000EBE5BBEAFC0
:1058A00002D07F0EBE6F3B2FF6D712009CD8010EA0
:1058B000BD27000EBE232391BEAF1200BD6BBE6B91
:1058C0002381120023B31CD823A30BD82383000EFB
:1058D000BD2BBE232391BEAF1200BD6BBE6B2381D7
:1058E00012003B6FC580A4D8A60EC96EA1D894D86B
:1058F000BEC1C9FF9DD890D8BDC1C9FF99D88CD869
:105900003BC1C9FF95D888D812003B6B3C6B229FE6
:10591000229DC5848DD8C5808BD8A60EC96E88D827
:10592000C5BCF7D73CC1C9FF83D876D83BC1C9FFF6
:105930007FD872D8C5827CD8A70EC96E79D86CD8AA
:10594000C58676D822BD05D0228DFD0EC962229D66
:1059500011D022BF05D0228FFD0EC96209D00AD016
:10596000FE0EC96205D03BC1BDF13CC1BEF10DD0F8
:10597000229F229D010E3B27000E3C233CBF03D0FB
:10598000C58856D8DDD7BD6BBE6BC58451D8229F64
:10599000229D1200C5844CD8C5804AD8A60EC96E77
:1059A00047D8C5BCF7D7BEC1C9FF42D835D8BDC19D
:1059B000C9FF3ED831D8C5823BD8A70EC96E38D8AA
:1059C0002BD8C58635D8C950C58432D81200E2DF3D
:1059D000010EBD27000EBE232391BEAF1200BD6B8A
:1059E000BE6B238112003B6FC58022D8A60EC96E04
:1059F0001FD812D8BEC1C9FF1BD80ED8BDC1C9FF60
:105A000017D80AD83BC1C9FF13D806D8C58410D807
:105A1000060ED8EC0CF01200C5BC01D812004D0ED9
:105A200041EC1AF0BCEC4BF00BD89E96C46B120004
:105A3000C42F01D0F4D79EA6FBD7C46B9E9612004C
:105A4000C66A4E0E41EC1AF0C56AC76A94969488ED
:105A50008296090EC46F8286000082B804D08296B6
:105A60008296C42FF8D79486C66A0A0ED8EC0CF03A
:105A7000000EC76E280EC66E000EC56E080EC86EEC
:105A8000BEEC4BF04F0E41EC1AF01200C56FC58012
:105A9000CFDF900EC96ECCDFBFDFC5C1C9FFC8DF45
:105AA000BBDFC584C5DF12009E96C580C1DF910EA5
:105AB000C96EBEDFB1DFC586BBDFC9CFC5F1C58802
:105AC000B7DFC584B5DF1200259529952FEC0FF0BF
:105AD000259325972599BC6BBB6BC16B010EE8CF55
:105AE0007FF00C0E5BEC0BF0000EE8CF7FF0A56BA7
:105AF000A66B20EC2DF085EC2CF0396B3A6B050E83
:105B0000BA6F010EE8CF7FF00C0E5BEC0BF0000ECD
:105B1000E8CF7FF0229D229F010EA527000EA6232D
:105B2000A6BF27D0010E4AEC2CF0CAEC2CF022BD07
:105B300005D0228DFA0EC962229D10D022BF05D059
:105B4000228FFA0EC96207D809D0BDC1BFF1BEC10C
:105B5000C0F1C12B13D0229F229D1200010E3927C4
:105B6000000E3A233ABF01D0D7D725A913EF13F07F
:105B70002CD0C151D8B4F9D7258327D0030E3EECE1
:105B80002CF025A704D0A751C163DED264D025B381
:105B90001CD0F5DA050EBA6316D0C1C1ACF1BFC195
:105BA000AAF1C0C1ABF1A5C191F1A6C192F139C171
:105BB000F0F13AC1A8F1030EAA27000EAB23030EA1
:105BC000915F000E925BBA2FBFD225A97DD7A0ECC2
:105BD0002BF0010EE8CF7FF01A0E5BEC0BF0000EFD
:105BE000E8CF7FF00B0E5BEC0BF020992191219315
:105BF000219724992497B86B010E25B5AD51BA6F42
:105C0000259525991FEC1DF0AAEC30F021B3A7D201
:105C100021B10ED020B1E4EC3CF020B1E3EC42F035
:105C2000209120B913EF13F020B3BBEF49F0ECD76C
:105C30002191060EBA6302D013EF13F0BAC1ADF191
:105C40002585BB51050DF350BA25A76F2FEC0FF03A
:105C50002587C16B43D725978CEC1CF0000EE8CF4D
:105C60007CF0000EE8CF7DF020EE60F0230EDE6EBB
:105C70001C0E90EC10F0326703D0336701D016D0C1
:105C8000010E3227000E332332C152F133C153F1DA
:105C9000A7C154F1556BD7EC0BF050C132F151C193
