:020000040000FA
:0600000000EF48F01200C1
:1090000000010A0E7C6F00010A0E7D6F00017A6973
:1090100000017B6900017E6B00017F6B0001200E67
:10902000606F0001210E616F0001220E626F00016E
:0E9030003A0E636F0001646B90EC5BF012006F
:109A0000AF9BAFAFAFAFD1AFB205B007B008AF09F2
:109A1000AF09AF09AF09B108B2079B049F9F9F9F91
:109A2000AE9FFFFFFFFFFFFFFFFFFFFFFFFFFFFFF7
:109A3000FFFFFFFFFF8F82FFAC04A1149B1A96204B
:109A400092248F288A0E8C10940B8A0C9609870F0B
:109A5000960885129707830785079706850783076A
:109A600096068708820796058A07810696058C0761
:109A7000810594058E088005940490078005930461
:109A80009107800591049208800590049407800551
:109A90008E05950780058C05960880058A06960830
:109AA000820588069707820685079708840683073C
:109AB00097088507800898078707970F8908950DED
:109AC0008B0A8C108E0E912894269922A01CAA1520
:109AD0009707FFFFD7FFB701B403B404B403B4047E
:109AE000B304B304B305B205B206B205B2068136BB
:109AF0008137813781378137FF37FFFFFFFFACFFA9
:109B0000FFFF90FF8903A8008705A5038607A3052B
:109B10008508A007840A9F08840B9F06830D9F0673
:109B2000820E9F06810882049E05830882049E049B
:109B3000840881049D05850881049C0587078104AC
:109B40009C04880781049B04890781049A048A077E
:109B5000810499048B07810498048C07810496057D
:109B60008D07810495058E07810494058F07810474
:109B70009206900782049006910782048E0792074E
:109B800083048B07930883048609940A8404951937
:109B900085049617860498148704991289049B0EED
:109BA0008C049D08B305BA05FFFF8EFFB7008A023B
:109BB000A8018804A5038607A3058608A5058407D0
:109BC000A7058406A8058206AA058205AA058105BF
:109BD00091059504800591059504800591059504EE
:109BE00080059204950480059204950480059204F2
:109BF00095048005920494058005900594068005DF
:109C00009005940680058F05920882058E059208BE
:109C100082058C06900A82068A078E0C84068707C6
:109C200081068C06850781158907870883138918A3
:109C300085118B16870F8D148A0C91128E07AC0E2E
:109C4000FF0AFFB88BFFB205B006AF08AD09AC0B39
:109C5000AA0CA90E8107A7058208A6058407A405FA
:109C60008607A3058707A10589079F058A089E0522
:109C70008C079C058D089B058F0799059008980512
:109C80009207960594079505950793059707920502
:109C9000813581378137813781378137A437B305E3
:109CA000B305B305B305B305B3058F05FFFF8CFFFF
:109CB000A20192009203901085058F1C84078E1DCF
:109CC00083088E1D8308911C8207931B82068E05D4
:109CD000950581068E05970481058E0597048105FB
:109CE0008D05980580058D05990480058D059904DD
:109CF00080058D05990480058D05990480058D05E5
:109D0000990480058D05990480058D0599048005C9
:109D10008D05990480058D05970581058D059705AD
:109D200081058E05950581068E05930682068E05B2
:109D3000910782078F058D0883089005870A830B9A
:109D40009105841C9205851A930586189405A5151E
:109D5000AA11C50CFFFF11F11BA2219A269429908C
:109D60002B8E0D8C05850E850B880588098B088840
:109D70000689088E0786058B07910784058B069355
:109D80000683058C06950582058D05960681048D52
:109D900006970580058D05980580058D059804803A
:109DA000048E0B99048E0B99058E0B98058E0B98DB
:109DB000058E05980480068E05960481058F05960C
:109DC0000581068E05940582078F07900583098E0D
:109DD000088C07840B8D0A8607851B8E05871990D2
:109DE00003891792008B13960FA707ADFFC8FFFFDB
:109DF000059605B305B305B305B305B301AF0581FA
:109E000004AC058107A905810AA605810CA405817A
:109E10000FA10581129E0581139B0583139805866A
:109E2000129605891293058C1290058F118E05925A
:109E3000118B0595108905981086059B0F84059E4A
:109E4000108115A012A310A60DA80BAB09AD06AF8B
:109E500004B2A7FFFFFF03CA0BB10FAB0790118F2E
:109E60000C8D148A0F8A1688118818861486078428
:109E7000088715850683078B068408860681068D6C
:109E8000068307890480069005820C8B0591058165
:109E90000A8D05920481088F05940480069005952B
:109EA000048006900B9505910B9505910B950592F5
:109EB0000B94069105940480079105930580088F03
:109EC000049305810A8E059106810C8C068F06820B
:109ED00006890681058E088308850781068C15840E
:109EE0000883078813860A850A82118716870F89D7
:109EF00014890C8B128C068F10900CAA06AFFFC52C
:109F0000E9FFAC09980F8D0095138A029217880417
:109F1000901986068E1B850788098F0A83068D088F
:109F20009007820590078F078205930690058005AC
:109F300094068F06800596058F05800597058F048A
:109F4000800598048F04800598048E05980B8E0573
:109F5000980B8F04800598048E04810597058E0464
:109F6000810596058D05810695068E048305940569
:109F70008D05830693068D04850690078B0586075D
:109F80008D098A058808880B8706890C8C2D8F2BF4
:0C9F9000932796249D1FA917D30700FFFC
:109FA000000022003500D2000001A8014302AC02EB
:0A9FB0005403ED035404FF049A0566
:069FBA0000EE00F00D0EA8
:089FC000EE6AEA62FDD712000F
:10A0000000000F0016006B008300DC002D016601CC
:10A01000C10116024C02AB0202031B032A034403D4
:04A020006F03750352
:0CA024009F9F03BA049A059A0499039BBD
:10A030009F9F9FC0BF9F9F7FBF9F03CD0E96128E95
:10A04000168A0487078B0385038C04800383048BA3
:10A0500004820282048B03840281038B02870281C3
:10A06000038A028802810488038902800387028BA5
:10A0700003810385028C03820482038C03830480A2
:10A08000038C0685048C168713890E8E0395FFCDED
:10A090000084019E029C029B029C039B029B1D9BD1
:10A0A0001D811D81FFFFFCC0850194008403910286
:10A0B0008305900382069003820790028103810248
:10A0C0008F02820481028E02830481028D02840445
:10A0D00081028D02850381028C02860381028A033C
:10A0E000870382028802880482028603890483022D
:10A0F0008A0D84028C0A85028D0887029003E00293
:10A100009AFF8501920283049303820495028203DD
:10A110009602810289028A02810289028A028102F0
:10A1200089028A02810289028A02810288028A03E4
:10A130008202870289048202850387068303810ADB
:10A1400084038404810A870C84068A0A8802FF0734
:10A15000D3849A0299049705960781039402820496
:10A160009302840391028504900287038E0288047F
:10A170008D028A038B028B048A02811C811D811D42
:10A18000941D9C029C029C02C80200FA068D028863
:10A190000F8304870F82038809820281038A028168
:10A1A0000287028C02810287028C02810187028D64
:10A1B00002810187028E02800187038D028002875F
:10A1C000028C02810287028C02810387038A02814A
:10A1D0000388048802810588058402820E8902832F
:10A1E0000C8A0894ECE591088B1188158517840575
:10A1F0008602840585038902830386038A0281031C
:10A2000086038C02810287028C02810287028D0202
:10A21000800287028C02810287028C0281028702FF
:10A220008B038102880289038302870284058305E8
:10A230008703850E8A00950CE60680FF9C029C022F
:10A240009C029702810294028105910281088F028B
:10A2500082098C0285098902880987028B08840299
:10A260008D0982029008930B950998069A04FC01C7
:10A2700005F4038A088807870A8509850483058110
:10A280000B8303810485028206850388028105878A
:10A29000028902810388028A02810388028A02817C
:10A2A0000289028A02810388028A02810488028963
:10A2B00003810686028803820383038102860B835F
:10A2C0000581048208840B84058709860597E7E5E4
:10A2D00098048B098600890C8402880E8203880307
:10A2E000880382028A02870381028C02870281022C
:10A2F0008C02870280038C02870281028C02870213
:10A3000081028C02870281028A0387028203890309
:10A3100086028303870485028504810781038708F9
:10A320008A168F12E90C9F9F03AB038A048B048962
:10A33000048B0589048A0489028C038B9F9F9FC02C
:10A34000C89F9401940A940A96089F05B99FA9FF93
:10A350009B009403940A95099806FF0302830A94CC
:10A360000A9407940497BAFF15C815891589028BBA
:10A37000019B019C019D029D049C159A148A138BDC
:10A38000028A029B019C019D029D159C1589148ADD
:0AA39000118DFFA0FFFFFFFF00FF8B
:06A39A0000000E001B0094
:10A3A00048007D00B400E700F0000D012A014B01D8
:10A3B0006401700185018E01A301D601E20115023D
:10A3C000460267029C02CB02EA02210352036003A9
:10A3D00071039C03CD03F8031B045C047D04B804E3
:10A3E000E5040E05410564059705AC05CD05EA05B4
:10A3F0000F0624063D0656067F06A406D50600076E
:10A40000390752076B0784079D07C607DF0718083F
:10A4100037084C086B087C089508A108D408F9088F
:10A42000200945097A099B09E409F909140A330A44
:10A43000540A710A8A0A9F0AC80AED0A120B270BEE
:10A440005A0B770B8C0BA50BBE0BE30B040C390CD2
:10A450005C0C630C860C9F0CAD0CD60C050D2A0D04
:10A46000610D6C0DAB0DB80D050E3C0E5D0E700E42
:10A47000730EBA0ECB0EE40E150F3C0F610F6B0F6F
:04A48000860F890FAB
:08A4880003F8018A0C85028231
:10A490000A85028394FF00CD0591039101C70591C0
:10A4A00003919DDA83018F0183018F018301880667
:10A4B000870D81078F0183018F0183018F01820145
:10A4C0008607890D83058F0183018F018301A20017
:10A4D00002B40186048A0186018802810185008810
:10A4E000018300860287028201851285018502842C
:10A4F000018400870185018301880284018201892A
:10A50000058403929A9F9203880585018301850142
:10A51000860283018400890282058B0382039202F2
:10A5200082028C02830289048402820186018503EF
:10A53000830186008701820191019D0403A4069195
:10A5400004880281028208860185008602840185D2
:10A5500000860384018401860582018306860282C7
:10A560000180038803850294069201900082FF9D7A
:10A570000194069002918BFF07E70C8C03890387F7
:10A580000286028B0184028E018201910181029177
:10A5900000800093B0B093008100910181018F028F
:10A5A00082028D0284028B028602870389038D0B4F
:10A5B000E707009F019601950282009002810491B5
:10A5C000078D078F04940092028101900183018F0F
:10A5D0000095A0A6950195019501950191018B0A21
:10A5E000900B9501950195019501A40188FF8201C9
:10A5F0008F0190069404FC0001B801950195019526
:10A60000019501950195019501950195FFBC018783
:10A610000295029494FF01C1039304900490049066
:10A6200003900391039103910193A0C490028B0ABC
:10A6300085028903860187058601830186018600DC
:10A6400084018601840085028601820186028601DA
:10A6500080028701880184048B03900AA30201CA47
:10A66000019501941095108694FF00B3018B01872A
:10A670000389018604890186028801800086018899
:10A68000018200860187018301860185018402869B
:10A69000018301850687018604880187BFB488018C
:10A6A0008B0087018C01860185008501860185006C
:10A6B0008501860185008501860183018502860169
:10A6C000810280018301880182049205B70300A4FE
:10A6D0000294049202910180028F0182028E018312
:10A6E000028C0185108B1086029001940096B7A110
:10A6F0008501880083088702820285018701840022
:10A700008700860184008700860184008700860117
:10A710008400860186018400850187018500870801
:10A720008600B60608B50C8C028901820283018777
:10A7300001830186018601830186008600840187EA
:10A7400000860184018601860283018401870884D2
:10A75000058FB1B7960096008D0086018A008604A9
:10A760008700880585008B0482008D059006930381
:10A77000C30104BB04890682028702800180018331
:10A780000187028301850086018501850086018598
:10A790000185018602830185028601810180018392
:10A7A0000588068102890484B3B68605880084077B
:10A7B0008701840284018601860184008601870066
:10A7C000830186018700840086018501830187015A
:10A7D0008402820188028B0DB80901FE0186028C79
:10A7E0000285028B028594FF01FF018601820286A9
:10A7F0000685028704850094A0FC950193029303CB
:10A80000810091018101900183018F0184018D01FB
:10A8100085018D0186018B0187018B0188018901EA
:10A8200089019E01009E00840090008400900084B5
:10A8300000900084009000840090008400900084C8
:10A8400000900084009000840090008400900084B8
:10A85000009000849AA189018A0188018A018701F8
:10A860008C0186018C0185018E0184018E0183019A
:10A870009001810192018100920194039402A4014C
:10A8800001B101950194019501940188028201842E
:10A890000486028101850284018402860282068F79
:10A8A00004919DBF8D0781048A04870288028B0171
:10A8B0008701840183038700840082058601830069
:10A8C0008201820186018300840082008601820168
:10A8D0008400820086018102830082018701820A4E
:10A8E0008A00A10802A70491048F068F048D0182BB
:10A8F000038B0185048C0183048F018005910494EE
:10A9000004950294999C8610861085008501860125
:10A910008500860086018500860086018500860008
:10A9200086018500850186018301850286018301F8
:10A9300084028702800581028902820393059F02B7
:10A94000069E0A8E038A0385018902890187028B8C
:10A950000086018D0086018D0086018D0186018CA7
:10A960000186018B028802880089008A999E8610E0
:10A9700086108D0086018D0086018D0086018D0078
:10A9800086018C0186018C0186018A02880186037A
:10A990008B028E0AA20510B1108600860185018502
:10A9A0000086018501850086018501850086018577
:10A9B0000185008601850185008601850185008667
:10A9C000018501850086018DB1B486108610850051
:10A9D0008E0185008F0085008F0085008F00850027
:10A9E0008F0085008F0085008F00C400069E0B8DB0
:10A9F000028A02870288018A0187018C0086018D04
:10AA00000086018D0086008701840186008601840E
:10AA10000186008600840288068400890585B19E2F
:10AA200086108D10950195019501950195018E0176
:10AA30008610B41000B1008E0086018D0086018D55
:10AA40000086018D108610860086018D0086018D9E
:10AA50000086018DBFCC9601950186018D0086018F
:10AA60008D0086018C008701870F890D9600960066
:10AA7000AC0010991086028D02930493029102801B
:10AA8000028F0282018D0385018A02880188038A70
:10AA90000086018D0096B19C861095109501950158
:10AAA00095019501950195019501B40110991086C4
:10AAB00003870395039503950293029203920391F2
:10AAC00010921086999C8610861095039502950326
:10AAD0009503950395039502870386109C10089DA6
:10AAE0000C8C028903870187018B0187018C00860A
:10AAF000018D0086018D0186018C0186018B028803
:10AB000002880C89088CB1A08610861086008E0001
:10AB100086008E0086008E0086008E0084018E01E5
:10AB200084018E0182028F029206A702089D0C8C7E
:10AB3000028902880187028B0186018C0086028EC1
:10AB40000084048E0182018C01810182018C0181CB
:10AB50000283028801820C8401830886B1A08610DA
:10AB6000861086008E0086008E0086008E0086008D
:10AB70008D0184018B04840180018903830788038C
:10AB800086058A028A009C0003B302860588018636
:10AB90000187028201860186018301860086018584
:10ABA0000185008601850185008601850185018674
:10ABB0000185028302860284028101880585019352
:10ABC00099A0960096009600960096008610861032
:10ABD0009600960096009600AC000C990E8A02959D
:10ABE00001950196019501950195019402940E87B6
:10ABF0000C8899A0950194049405940594059205F8
:10AC00008F048F048F048F049204AB0105990A927C
:10AC100009920490058E048E05900694069406927F
:10AC20000989068AA9A686008B0186028803880303
:10AC300084038B0381038F0391058F0581038C03AC
:10AC400085028803870387038B0196029C00009985
:10AC500002960395039503950A94098D048B04903D
:10AC6000039002920094A9AC86008C0086028A00B0
:10AC700086048900800286018700810386018500A1
:10AC80008303860184008502860182008603860193
:10AC90008000880386018A0386018B0295019C014E
:10ACA00015DF0181019101810191018101910181F2
:10ACB0000191018101910181019100820091B0B265
:10ACC00095019503950395039503940495049503C5
:10ACD0009503B30100B000910182019101810191BE
:10ACE0000181019101810191018101910181019114
:10ACF0001581CEE19401920292029402960295028D
:10AD00009503D60100AB009600960096009600963B
:10AD1000009600960096009600960096E09A95019F
:10AD2000950395029502FF00A68993018C04830187
:10AD300080018B02830082018A01830184008A00E2
:10AD4000830184008A00830184008A0083018300D8
:10AD50008C00820182008C018C0BB40A12AF11842A
:10AD6000018C0186008C0188018A0188018A018892
:10AD7000018A0188018B0286038B0283088D04906F
:10AD8000B8A08F068D0884028C0286018A02880191
:10AD90008A0188018A0188018A0188018B01860164
:10ADA0008C0185028D01A60004A10890028D028409
:10ADB000018C0286018A0188018A0188018A018842
:10ADC000008B0088018C018611861284A2B4920245
:10ADD0008E0780048C03810182018B018201830133
:10ADE0008A01820183018A01820183018A01820131
:10ADF00083018B01810183018B0182058D01830415
:10AE0000B50001B601950195109003850181018F70
:10AE10000183008F0184018E0184018E00840190E2
:10AE20000295AAAB8902810480018704810B860107
:10AE300083018101830186008500820083008501F2
:10AE400085008200830085018500820083008501E2
:10AE500083018201830086018305830086008405C7
:10AE600081018601890087048B009A0112AF128448
:10AE7000018C019400950195019502950B950A8C22
:10AE8000CDB488018A0188018A0188018501820187
:10AE9000850C8201950C95019501CC0101C40196A8
:10AEA0000185018D0185018D0185018D0185018C53
:10AEB0000181108202810F810182AFDC84128F1226
:10AEC0009402940192038001900282018E02840117
:10AED0008C0286018A03890096019C0000B0018ED5
:10AEE0000184018E0184018E0184018E12841284FA
:10AEF00001950195019500969DB48A0C8B0C9500E7
:10AF0000950195018B0C8B0B9401950195018B0C90
:10AF10009C0B0CB50C8A018C019400950195019550
:10AF200002950B950A8CA1B491048E0782028C03C2
:10AF300086018B0188018A0188018A0188018A01C2
:10AF400088018B0186018C0183038D029008A00487
:10AF500011B5108501870186008C0088018B01885E
:10AF6000018A0188018A0188018B0286028B028492
:10AF7000088D0490A1A090048D0883028C038700A3
:10AF80008A0288018A0188018A0188018B01880070
:10AF90008C0086018C01860FAF110CCD0C8A018CC0
:10AFA0000194009501950195019501960095B8A72A
:10AFB00085008C0183048C0184048A018201830151
:10AFC0008A01820183018A01820183018A0183014E
:10AFD00082018B01830082018B0182018D05830038
:10AFE000B60301B5019501950E920F88018A01887B
:10AFF000018A0188018A0188018A01880194B5B516
:10B000008C0A950B950296019600950095008B0190
:10B010008A0CB40C009D0396049404950494049443
:10B020000393039103910490039000939DA89305CB
:10B03000930893058F038F04920495039405930559
:10B040008C038B09A20601B50188028A0286028C54
:10B050000382028E02800491049202910280028E89
:10B060000383028B0286008A0189ACB486018C02BC
:10B0700085018905880187048A0184048E0191076E
:10B080008F0490048F0490049303A70100A9018A00
:10B090000287018A0386018A0485018A028401806D
:10B0A000018A02820182018A02810183018A02806F
:10B0B0000184048A0185028A0187018A0188019539
:10B0C000A29C960095019301810586028107830861
:10B0D0008A06810291018101920181009201810021
:10B0E0009201C80090FF8115FF15C8909201810060
:10B0F0009201810092018100910182018506810106
:10B10000830381078A0881058F019501BA01009F99
:10B11000019501950194019501960295019501957E
:10B12000019501940195F8A6890185048103850C98
:10B130008302FF0AA19491028E0782038C03860189
:10B140008B0188018A0186008607860E84088701A4
:10B15000810088018A0187018B028601B60100A95E
:10B16000018C0186048902850E8702870682018090
:10B170000187018300860087018401860086018D96
:10B180000186008D0186008D01950195B49C860095
:10B190008E008F0882018F0184018F0084018E014F
:10B1A00084018E018401900082018F018E08860047
:10B1B000B90001B100870081038901840081038BFC
:10B1C00001820081028D018100810A8F0A8C038A2D
:10B1D00001800081038B0182008103890184008149
:10B1E0000189018600810089FFAC099008820981EC
:10B1F000088290FF02B800850486048002830784D9
:10B20000018101840184018201830184018201831F
:10B21000018301840182018401820184008301840D
:10B2200001830182018402840780018504830480F4
:10B23000018EC8BB94019502C50194019502DC0101
:10B2400002890791018E0285018B02820082008BA8
:10B2500005810082018900810183008100890181CB
:10B2600001840080008901810184008001890180BE
:10B2700000840081008A018101820081018A0081AD
:10B280000185018B0186028D02820490BC898F01A9
:10B2900081038A01810181048A0182008101800188
:10B2A0008A018200820080018A018200820080017E
:10B2B0008A018101810081018A0181088B01810756
:10B2C0009501B80101BA03940292018002900182B3
:10B2D000018F018401910394029201800290018206
:10B2E000018F0184D0B6950190018B0C8D0A8F08D7
:10B2F000910693049502BC00FFFF89CF91028E074F
:10B3000085018B0288018B00800081078900800104
:10B310008107890081008200840089008100820009
:10B32000840089008001800182038A0081008102FB
:10B3300081018A0088018B0186018D0182029002C1
:10B34000890400C900960096009600960096009623
:10B350000096CBDC930191058101900183018F015F
:10B3600083018F01830191009205D803009F00871C
:10B37000008D0187008C0187008C0187008C01877C
:10B380000B8701810B870181008C0187008C01876D
:10B39000008C0187008C0187008C0087CA9D860085
:10B3A0008D0084018C0284018C03840180008C0157
:10B3B000830180018C01820181018D0182048E0153
:10B3C0008302D30100D1018E0184018D0186018C9D
:10B3D00000820182018C00820182018C0181018244
:10B3E000058D0180018F0381FFD4019103930193A7
:10B3F00000959DF68511950B960195019501950196
:10B4000094008B02950B9502950195018500FFFF35
:02B4100000CF6B
:06B4680090EC5BF0120005
:02B46E000000DC
:10B47000849083C083FF80948084120085C000F094
:10B48000016A00C086F084C087F0848086C083FF94
:10B490008094808487C083FF8094808412008EC053
:10B4A00083FF809480848094808412007AC083FF1C
:10B4B000809480847BC083FF80948084120000018C
:10B4C000350E836FD5DF00017D510001846F856BE0
:10B4D0000001D89084378537D1DF0001360E836FA5
:10B4E000C7DF00013F0E846F010E856FC7DF0001CB
:10B4F000370E836FBDDF00017C510001846F856BC7
:10B50000020E00017E5D07E13A0E00018427000E65
:10B510000001852310D000017E0507E1200E000107
:10B520008427000E0001852306D0180E0001842711
:10B53000000E0001852300018407000E855B0001D9
:10B54000EF0ED8808455000E855504E2EF0E000101
:10B55000846F856B7CC000F000C001F0006A005071
:10B560000001841301500001851388DF0001200EC3
:10B57000836F7EDF00017C510001846F856B7EDF6D
:10B580000001210E836F74DF00017D510001846F83
:10B59000856B0001D8908437853770DF1200200E4C
:10B5A0000001825D03E10001B60E826F000182514D
:10B5B0007E0803E2220E0001825F210E0001825DFF
:10B5C00004E300018251A30803E20001820E826FAE
:10B5D000210E0001825DF66EF76AD890F636F736D6
:10B5E0009A0EF626A30EF7220900F5CF88F00A007E
:10B5F000F5CF89F000018229DF0FF66EF76AD89047
:10B60000F636F7369A0EF626A30EF7220900F5CF86
:10B610008AF00A00F5CF8BF01200270E0001825D40
:10B6200003E100013B0E826F220E0001825D03E107
:10B6300000013C0E826F6D0E0001825D03E100018E
:10B640003D0E826F200E0001825D03E100013E0E7F
:10B65000826F2E0E0001825D04E3000182513E08DC
:10B6600003E200013E0E826F2E0E0001825DF66E37
:10B67000F76AD890F636F736000EF626A00EF722B7
:10B680000900F5CF88F00A00F5CF89F00001822982
:10B69000D20FF66EF76AD890F636F736000EF62619
:10B6A000A00EF7220900F5CF8AF00A00F5CF8BF043
:10B6B0001200200E0001825D03E100012F0E826F57
:10B6C0002E0E0001825D04E300018251390803E27D
:10B6D00000012F0E826F2E0E0001825DF66EF76A5A
:10B6E000D890F636F736A00EF6269F0EF722090000
:10B6F000F5CF88F00A00F5CF89F000018229D20F3A
:10B70000F66EF76AD890F636F736A00EF6269F0E3C
:10B71000F7220900F5CF8AF00A00F5CF8BF012006E
:10B7200000017C51006E016A013404E20050E60819
:10B73000000E015403E20001E60E7C6F00017D5112
:10B74000006E016A013404E200509B08000E0154AF
:10B7500003E200019B0E7D6FB2DE0001220E836FBB
:10B7600087DE84800001816B00018151EA6A600FED
:10B77000E96E000EEA22EFCF82F00001825106E16D
:10B7800000013A0E826F0001190E816FF86A000104
:10B79000825101E1DCD01A0E0001815D01E3D7D0B6
:10B7A000020E00017E5D02E184DF06D000017E050D
:10B7B00002E133DF01D0F3DE00018E6B88C08CF034
:10B7C00089C08DF000018A5100018C5D00018B5110
:10B7D00000018D5901E3AFD0020E00017E5D1DE135
:10B7E0008CC0F6FF8DC0F7FF010E0F0B05E0D8905F
:10B7F000F732F632E806FBE1010ED890F636F7365E
:10B80000E806FBE1000EF6269A0EF7220900F5CFB6
:10B8100084F00A00F5CF85F03CD000017E051DE1E3
:10B820008CC0F6FF8DC0F7FF010E0F0B05E0D8901E
:10B83000F732F632E806FBE1010ED890F636F7361D
:10B84000E806FBE1240EF626A00EF7220900F5CF4C
:10B8500084F00A00F5CF85F01CD08CC0F6FF8DC0B7
:10B86000F7FF010E0F0B05E0D890F732F632E8062D
:10B87000FBE1010ED890F636F736E806FBE1880EBC
:10B88000F626A40EF7220900F5CF84F00A00F5CFC2
:10B8900085F000018C51010B05E00001845100018D
:10B8A000806F05D085C000F0016A00C080F0000103
:10B8B0008051006E016A0050800B1DE07F0E000178
:10B8C000805F00017F5109E000018051000804E21F
:10B8D00000018007EBDDF8D70DD08EC083FF00019B
:10B8E0008051000807E200018007809480848094E2
:10B8F0008084F5D71BD00001802B00017F510EE022
:10B900008EC083FF00018051000807E2000180071C
:10B910008094808480948084F5D708D00001805181
:10B92000000804E200018007C1DDF8D700018C2B7C
:10B93000000E8D2347D70001812B00018151EA6A57
:10B94000600FE96E000EEA22EFCF82F020D70001EF
:06B95000836B8EDD120086
:020000040030CA
:0100010008F6
:0100020018E5
:010003000EEE
:01000500807A
:010006008079
:00000001FF
